:020000040800F2
:10000000901300209D010008555F0008015800086A
:10001000515F0008B1090008998C00080000000039
:10002000000000000000000000000000457F000804
:100030006513000800000000156200089D7F00089D
:10004000B7010008B7010008B7010008B7010008B0
:10005000B7010008B7010008B7010008B7010008A0
:10006000B7010008B7010008B7010008B701000890
:100070005D110008B7010008B7010008B7010008CA
:10008000B7010008B7010008B7010008B701000870
:10009000B5090008B7010008B7010008B70100085A
:1000A00075800008B7010008B7010008B701000813
:1000B00085800008B701000895800008B701000896
:1000C000B7010008B7010008B7010008B701000830
:1000D000B7010008E58A0008B7010008018B000895
:1000E000B7010008B7010008B7010008B701000810
:1000F000B7010008B7010008B7010008B701000800
:10010000B7010008B7010008B7010008B7010008EF
:10011000B7010008B7010008A5800008B701000872
:100120006D110008B70100087D1100088D1100084D
:10013000B7010008B7010008B7010008B7010008BF
:10014000C5090008B7010008B7010008B701000899
:100150009D110008AD110008BD110008398B000881
:10016000B7010008B7010008B7010008B70100088F
:10017000B7010008B7010008B7010008000000003F
:10018000B7010008B7010008DFF80CD000F0A0FBB1
:1001900000480047B59200089013002006488047A9
:1001A00006480047FEE7FEE7FEE7FEE7FEE7FEE75C
:1001B000FEE7FEE7FEE7FEE7618000088901000830
:1001C0002DE9F05F0546002092469B46884606468C
:1001D000814640241BE0284641464746224600F01F
:1001E00067FA53465A46C01A914110D31146184631
:1001F000224600F04EFA2D1A67EB01084F462246C0
:100200000120002100F045FA17EB00094E41201EA5
:10021000A4F10104DFDC484631462A464346BDE8E6
:10022000F09F40EA01039B0703D009E008C9121FB1
:1002300008C0042AFAD203E011F8013B00F8013BA0
:10024000521EF9D27047D2B201E000F8012B491ECC
:10025000FBD270470022F6E710B513460A46044663
:100260001946FFF7F0FF204610BD2DE9FE4F8046EE
:1002700081EA0300C00F0C46009021F0004123F0FA
:100280000045B8EB0200A94105D240462146904600
:100290001C460B46024623F00040104347D0270D72
:1002A000C7F30A00C3F30A510290401A0190402894
:1002B0006BDAC3F3130040F4801B0098924620B120
:1002C0000023D2EB030A63EB0B0B01985946C0F1F4
:1002D0004002504600F0DDF906460D4650465946AC
:1002E000019A00F0F5F910EB08006141002487EA5B
:1002F000115284EAE7731A4340D0009A62B3019A1C
:10030000012A4FEA075215DC001B61EB02014FF096
:10031000004202EA0752CDE90042001C41F580117B
:1003200032462B4600F055FA03B0BDE8F08F404648
:100330002146F9E7001B61EB0201001C41F5801327
:1003400000185B412018A2F5001747EB030140EAB3
:10035000D570B6196D4111E06D084FEA360645EAD1
:10036000C0754FEA0752001B61EB0201001C41F50A
:10037000801149084FEA30000019514132462B469E
:1003800003B0BDE8F04F00F015BA0098012240001C
:100390000023D0EB020263EBE073009821464FEAA2
:1003A000E074B8EB000061EB0401E9E783F000437F
:1003B0005BE781F0004158E72DE9FE4F81EA030435
:1003C00004F0004421F0004100944FF0000B23F0B2
:1003D000004350EA01045ED052EA03045BD0C3F349
:1003E0000A54C1F30A552C44A4F2F3340194A0FB3F
:1003F0000254C1F3130141F48011C3F3130343F416
:10040000801301FB024400FB034E840A970A44EA6E
:10041000815447EA8357A4FB076802958D0A05FBC0
:1004200007854FEA932C04FB0C542705029D4FEAE5
:10043000065847EA1637B5EB08056EEB070C870E32
:10044000920E47EA811742EA8312A7FB0201B6EB3C
:100450000B0164EB00042B0D43EA0C335E1844EBF4
:100460001C50DA465146E7FB0201C5F313044FEA7C
:100470000B3343EA14534FEA0432019C43EA060368
:10048000A4F10C040294009CCDE900B400F0A1F9A1
:1004900003B0BDE8F08F00200146F9E72DE9F04DEB
:1004A00081EA030404F0004B21F0004514464FF0AC
:1004B000000A23F0004150EA050220D054EA01026C
:1004C0001DD0C5F30A570246C5F31303C1F3130049
:1004D000C1F30A5640F4801543F48013A7EB0608D5
:1004E000101BD64608F2FD3873EB050002D308F165
:1004F000010801E092185B41B8F1000F03DA002017
:100500000146BDE8F08D00204FF480110646844678
:100510000EE0171B73EB050705D3121B63EB0503F6
:1005200006434CEA010C49084FEA300092185B413F
:1005300050EA0107EDD152EA030012D082EA04002A
:1005400083EA0501084305D0101BAB4106D2012206
:10055000002306E000224FF0004302E06FF00102AA
:1005600053101AEB06004CEB085110EB0A0041EB5C
:100570000B01BDE8F04D00F01DB930B5041E71F15E
:10058000000404DB4FF00044404264EB0101141E00
:1005900073F1000405DB1C464FF00043524263EB4D
:1005A0000403801A994101D3012030BD002030BDE1
:1005B00030B5041E71F1000404DB4FF000444042EA
:1005C00064EB0101141E73F1000405DB1C464FF0BF
:1005D0000043524263EB0403801A994101D2012087
:1005E00030BD002030BD0EB5C10F80EAE070084478
:1005F000CA07002140F233438DE80E000A460B463D
:1006000000F0E7F803B000BD00F0004230F0004019
:100610000AD0C10D01F56071C0F3160042EA015124
:10062000C20840071143704700200146704701F09F
:10063000004330B421F0004150EA010206D00A0D17
:10064000A2F56072C1F31301002A02DC30BC002065
:100650007047440F44EAC104C100E01830BC00EB0D
:10066000C25000F047B830B50B46014600202022AA
:10067000012409E021FA02F59D4205D303FA02F5AF
:10068000491B04FA02F52844151EA2F10102F1DC0F
:1006900030BD202A04DB203A00FA02F10020704726
:1006A0009140C2F1200320FA03F3194390407047B0
:1006B000202A04DB203A21FA02F00021704721FAB7
:1006C00002F3D040C2F1200291400843194670471E
:1006D000202A06DBCB17203A41FA02F043EAE07306
:1006E00006E041FA02F3D040C2F1200291400843F3
:1006F000194670470029A8BF7047401C490008BF31
:1007000020F00100704710B4B0FA80FC00FA0CF041
:1007100050EA010404BF10BC704749B1CCF1200479
:1007200021FA04F411FA0CF118BF01212143084306
:10073000A3EB0C01CB1D4FEA00614FEA102042BF32
:10074000002010BC704700EBC35010440029A4BF28
:1007500010BC7047401C490008BF20F0010010BCCD
:100760007047F0B400F0004221F0004120F000405A
:10077000CE0DC30DC1F3160141F40001C0F3160004
:100780004C42154640F40000761E09E010EB440090
:1007900002D582F0004240428842F7D840005B1EFA
:1007A000B342F9DA18B1F0BC0021FFF7ACBF28461C
:1007B000F0BC704710B5141E73F1000408DA401C39
:1007C00041F1000192185B411A4301D120F0010070
:1007D00010BD2DE9F04D92469B4611B1B1FA81F260
:1007E00002E0B0FA80F220329046FFF752FF044652
:1007F0000F4640EA0A0041EA0B0153465A460843B5
:1008000013D0114653EA010019D0C8F140025046F6
:10081000FFF74EFF05460E46504659464246FFF743
:1008200038FF084305D0012004E020463946BDE8E2
:10083000F08D0020054346EAE0762C4337430A98C2
:100840006305E40AA0EB08000022FD0A44EA4754CD
:100850000A3002D500200146E9E701051019694177
:10086000DDE9084500196941BDE8F04DA2E7C1F393
:100870000A52C1F3130140F2FF3341F480119A424E
:1008800002DA00200146704740F233439A42A2F256
:10089000334202DC5242FFF70BBFFFF7FABE000003
:1008A00030B5041E71F1000404DB4FF000444042F7
:1008B00064EB0101141E73F1000405DB1C464FF0CC
:1008C0000043524263EB0403994208BF904230BD9B
:1008D000064C074D06E0E06840F0010394E807008D
:1008E00098471034AC42F6D3FFF752FCB0A1000891
:1008F000D0A1000880B584B07E20B621019108F017
:10090000C5FB3220029002F01BF87D20042108F084
:10091000BDFB7C200021039108F0B8FB0199142055
:1009200008F004FC029802F00BF80399112008F07B
:10093000FDFB0399412008F0A9FB40208C2108F021
:10094000A5FB0F20022108F0F1FB0399102008F00D
:10095000EDFB04B080BD000080B582B000208DF8B2
:100960000700FFF7C7FF08F005FA01469DF80700EA
:1009700008438DF8070008F0CFFA01469DF80700FC
:1009800008438DF8070008F00FFA01469DF80700AC
:1009900008438DF8070008F0D7FA01469DF80700D4
:1009A00008438DF807009DF8070002B080BD0000E5
:1009B000FFE7FEE780B540F67C10C2F2000001F0D0
:1009C00045F880BD80B540F6A410C2F2000001F0E9
:1009D0003DF880BD80B588B0079006910798006803
:1009E00046F20041C4F2000188423FD1FFE7069879
:1009F000A0F2012001460591032835D80599DFE8CA
:100A000001F0020D192640F2E030C2F2000040F27F
:100A10003C11C2F2000104F067FF26E040F2E03032
:100A2000C2F20000B43040F23C11C2F2000104F006
:100A30005BFF1AE040F2E030C2F2000000F5B47053
:100A400040F23C11C2F2000104F04EFF0DE040F212
:100A5000E030C2F2000000F5077040F23C11C2F233
:100A6000000104F041FF00E0FFE7FFE7079800689E
:100A700046F60001C4F20001884240F07480FFE7AE
:100A80000698A0F2012001460491052869D804992E
:100A9000DFE801F03F4A56672F0340F2B060C2F230
:100AA0000000039040F23C11C2F2000104F01CFF70
:100AB000039804F03DFF40F24410C2F20000407B76
:100AC000032815D1FFE740F6D800C2F2000090EDF0
:100AD000220B51EC100BFFF7AAFD00EE100ABDEE41
:100AE000C00A40F2B060C2F2000080ED040AFFE7E5
:100AF00038E040F2B060C2F20000B430029040F240
:100B00003C11C2F2000104F0EFFE029804F010FF65
:100B100028E040F2C410C2F2000040F23C11C2F2E0
:100B2000000104F0E1FE1DE040F2C410C2F200003A
:100B3000B43040F23C11C2F2000104F0D5FE11E0E5
:100B400040F2C410C2F2000000F5B470019040F20F
:100B50003C11C2F2000104F0C7FE019804F0E8FE67
:100B600000E0FFE7FFE708B080BD000010B58EB0E1
:100B70008C46864611981099CDF834E0ADF832C015
:100B8000ADF83020ADF82E30ADF82C10ADF82A00BD
:100B900000200190BDF932100491059008210891C0
:100BA000069007909DF831008DF808009DF8300000
:100BB0008DF809009DF82F008DF80A009DF82E0091
:100BC0008DF80B009DF82D008DF80C009DF82C0081
:100BD0008DF80D009DF82B008DF80E009DF82A0071
:100BE0008DF80F000D9804A902AA01AB00F0A8FC33
:100BF0000EB010BD80B58AB001210891002004908C
:100C00000090019002900390069007910E210991A7
:100C1000059040F67C10C2F20000694600F048FDE5
:100C200018B1FFE700F0A0FBFFE740F67C10C2F22E
:100C3000000001F0E1FA18B1FFE700F095FBFFE7D3
:100C400040F67C10C2F20000022100F04FFC18B107
:100C5000FFE700F089FBFFE740F67C10C2F20000DE
:100C6000012100F043FC18B1FFE700F07DFBFFE736
:100C70000E200990059040F6A410C2F200006946CB
:100C800000F016FD18B1FFE700F06EFBFFE740F63D
:100C9000A410C2F2000001F0AFFA18B1FFE700F0B3
:100CA00063FBFFE740F6A410C2F20000022100F04F
:100CB0001DFC18B1FFE700F057FBFFE740F6A4105A
:100CC000C2F20000012100F011FC18B1FFE700F0B2
:100CD0004BFBFFE70AB080BD80B58EB00D900C9144
:100CE00000200B900A90099049F6A072C0F600020D
:100CF0001168526808920791059004900390029041
:100D00000C98B0F9020000EE100AB8EEC00A8DEDA2
:100D10000B0A0C98B0F9040000EE100AB8EEC00AF5
:100D2000B1EE400A8DED0A0A9DED040B51EC100B5B
:100D3000FFF77DFC40F6B061C2F20001086040F2AE
:100D40001810C2F2000090ED000B51EC100BFFF7F1
:100D50006EFC40F6B461C2F2000108600C98407B62
:100D6000012845D1FFE740F2B060C2F20000B0F9BF
:100D7000081000EE101AB8EEC00A90ED091AB8EE8D
:100D8000C11A30EE410A10EE100AFFF73DFC41ECAB
:100D9000100B8DED040B9DED040B9FED851B53ECAB
:100DA000112B51EC100BFFF707FB41EC100B40F23D
:100DB0001810C2F2000080ED000B9DED040B8DEDCC
:100DC000000B9DF8070080F080008DF80700009868
:100DD0000199FFF72CFC00EE900A40F29410C2F249
:100DE00000009FED750A05F015F98DED090A13E075
:100DF0000C98407B032803D1FFE7002009900AE00C
:100E00000C98407B022805D1FFE70020CCF27A4005
:100E10000990FFE7FFE7FFE70C98B0F9060000EE46
:100E2000100AB8EEC00A30EE000A10EE100AFFF702
:100E3000EBFB41EC100B8DED020B9DED0B0A9DEDD4
:100E40000A1A30EE010A9DED092A9DED073A9DED43
:100E5000081A22EE032A30EE420A20EE010A10EEB2
:100E6000100AFFF7D1FB41EC110B9DED020B53EC87
:100E7000112B51EC100BFFF7F8F941EC100B51EC72
:100E8000100BFFF7D4FB0D9988619DED0B1A9DEDBA
:100E90000A0A30EE410A9DED092A9DED073A9DEDC3
:100EA000081A22EE032A30EE420A20EE010A10EE62
:100EB000100AFFF7A9FB41EC110B9DED020B53EC5F
:100EC000112B51EC100BFFF7D0F941EC100B51EC4A
:100ED000100BFFF7ACFB0D99C1F8CC009DED0B0A90
:100EE000B1EE400A9DED0A1A30EE410A9DED092A45
:100EF0009DED073A9DED081A22EE032A30EE420AD4
:100F000020EE010A10EE100AFFF77EFB41EC110BF8
:100F10009DED020B53EC112B51EC100BFFF7A5F9D3
:100F200041EC100B51EC100BFFF781FB0D99C1F850
:100F300080019DED0B0A9DED0A1A30EE410A9DEDF0
:100F4000092A9DED073A9DED081A22EE032A30EE9C
:100F5000420A20EE010A10EE100AFFF755FB41ECA1
:100F6000110B9DED020B53EC112B51EC100BFFF705
:100F70007CF941EC100B51EC100BFFF758FB0D996D
:100F8000C1F834020D9805F027F90D98B43005F03A
:100F900023F90D9800F5B47005F01EF90D9800F5D1
:100FA000077005F019F90EB080BD00BF00BF00BF8B
:100FB00000000000FD29493F0000000081B00090C2
:100FC00040F27C10C2F200004168C1F30131009A86
:100FD00011734168C1F38131009A517301686FF355
:100FE000DF21A1F58061009A51800168C1F3CA2117
:100FF000A1F58061009A918001684268890D41EAFB
:1010000082216FF3DF21A1F58061009AD1804168D0
:10101000C1F34A01A1F58061009A1181018A6FF341
:10102000DF21A1F58061009A5181817B01F00103EC
:10103000009A92F82A1001F0F001194482F82A105F
:10104000C168C1F34043009A92F82A1001F00F01E1
:1010500041EA031182F82A10C168C1F38043009A63
:1010600092F82B1001F0F001194482F82B10C1689E
:10107000C1F3C043009A92F82B1001F00F0141EA2E
:10108000031182F82B10C168C1F30053009A92F843
:101090002C1001F0F001194482F82C10C168C1F342
:1010A0008053009A92F82D1001F0F001194482F853
:1010B0002D10C168C1F3C053009A92F82D1001F0B1
:1010C0000F0141EA031182F82D10C168C1F380734A
:1010D000009A92F8311001F0F001194482F83110B1
:1010E000C268102101EAD263009A92F8311001F02F
:1010F0000F01194482F83110C168C1F3C063009A2E
:1011000092F82F1001F00F0141EA031182F82F101D
:10111000C168C1F30073009A92F8301001F0F00139
:10112000194482F83010C168C1F34073009A92F8F4
:10113000301001F00F0141EA031182F83010C0684D
:10114000C0F34052009991F82C0000F00F0040EAE3
:10115000021081F82C0001B07047000080B540F605
:101160004C30C2F2000001F041F980BD80B540F67C
:10117000CC10C2F2000001F039F980BD80B540F614
:10118000AC30C2F2000001F031F980BD80B540F60C
:101190002C20C2F2000001F029F980BD80B540F694
:1011A0008C20C2F2000001F021F980BD80B540F62C
:1011B0000C40C2F2000001F019F980BD80B540F684
:1011C000EC20C2F2000001F011F980BD82B0019064
:1011D0000198007810384AF6AB21CAF6AA21A0FB84
:1011E000011000090090009949F69870C0F60000BF
:1011F000405C0199C8650098042807D3FFE701996E
:101200000868042262F30900886506E0019908680D
:1012100040F2FF3290438865FFE70198806D02B08D
:101220007047000086B0059000208DF813000598E7
:10123000806A03900598806910BBFFE703980290CD
:1012400003281BD80299DFE801F0020D0218059867
:1012500090F82F00C00720B1FFE701208DF81300A0
:10126000FFE70CE00598C06AB0F1C07F04D1FFE74A
:1012700001208DF81300FFE701E000E0FFE745E003
:1012800005988069B0F5005F25D1FFE703980190CC
:1012900003281ED80199DFE801F00206021101209F
:1012A0008DF8130016E0059890F82F00C00720B1C4
:1012B000FFE701208DF81300FFE70BE00598C06AF7
:1012C000B0F1C07F04D1FFE701208DF81300FFE7E4
:1012D00000E0FFE719E003980090032804D3FFE73C
:1012E0000098032804D00EE001208DF813000BE0D5
:1012F000059890F82F00C00720B1FFE701208DF876
:101300001300FFE700E0FFE7FFE7FFE79DF81300AA
:1013100006B0704784B00390029101920093039845
:101320000168086820F48020086000980399096823
:10133000486003988068402809D1FFE70198039925
:1013400009688860029803990968C86008E00298F3
:10135000039909688860019803990968C860FFE7E4
:1013600004B070477047000081B0EFF3108072B690
:101370000090FFE7FEE7000080B582B00190009189
:101380000098B0F9060000EE100AB8EEC01A0198F5
:1013900090ED060A9FED242A21EE021A30EE010A92
:1013A00080ED060A0098B0F9080000EE100AB8EEC9
:1013B000C01A019890ED330A9FED1C2A21EE021A03
:1013C00030EE010A80ED330A019890ED330A9FED6B
:1013D000181AB4EE410AF1EE10FA08DDFFE70199A0
:1013E00048F20000C4F2A250C1F8CC0013E001980A
:1013F00090ED330A9FED0F1AB4EE410AF1EE10FAA8
:1014000008DAFFE7019947F20000C4F28550C1F8FD
:10141000CC00FFE7FFE7019804F0D4FD0198B43059
:1014200004F0D0FD02B080BD0AD7A3BC0AD723BC0C
:101430000080A2450070854584B002900191ADF80E
:101440000220029828B9FFE74FF6FF70ADF80E00B2
:1014500021E0FFE70198411E0191B8B1FFE7029832
:10146000411C029100788DF80100BDF802109DF832
:1014700001004840C2B249F6AE70C0F6000030F834
:10148000120080EA1120ADF80200E3E7BDF8020087
:10149000ADF80E00FFE7BDF80E0004B07047000085
:1014A00082B00190ADF802108DF80120FFE7BDF881
:1014B0000200411EADF8021098B1FFE79DF801004F
:1014C00001994A1C0192097848408DF800009DF866
:1014D000001049F69860C0F60000405C8DF80100ED
:1014E000E5E79DF8010002B07047000084B002906B
:1014F0000191029890F820008DF803009DF80300F8
:10150000012805D0FFE79DF8030002280AD1FFE774
:10151000019A0298016848691043486100208DF8DB
:101520000F0008E00299486A40F4802048620120D8
:101530008DF80F00FFE79DF80F0004B07047000022
:1015400088B00690059104920393069890F82000C5
:101550008DF80700069800688068009005988068FC
:1015600008B9FFE700E0FFE79DF80700012806D073
:10157000FFE79DF80700022840F08D80FFE79DF807
:101580000300400700280CD4FFE79DF80300000784
:10159000002806D4FFE79DF80300C006002871D597
:1015A000FFE70098C0F3016002900298032809D376
:1015B000FFE70699486A40F40000486201208DF870
:1015C0001F0071E002990120884003990860059886
:1015D000806868B9FFE705980168C06840EA415033
:1015E00006990968029A01EB0211C1F880010EE028
:1015F00005994A688868C96840EAC20008430699A4
:101600000968029A01EB0211C1F88001FFE7059811
:10161000006906990968029A01EB0211C1F8840178
:101620000598007D01280CD1FFE706980068029913
:1016300000EB0111D1F8840140F48070C1F88401FD
:10164000FFE70498406806990968029A01EB0211C5
:10165000C1F88C010498006806990968029A01EBA8
:101660000211C1F8880106980068029900EB011187
:10167000D1F8800140F00100C1F8800100208DF810
:101680001F0011E00699486A40F4001048620120EA
:101690008DF81F0008E00699486A40F480204862EF
:1016A00001208DF81F00FFE79DF81F0008B070476C
:1016B00086B004900391049800680190049890F813
:1016C00020008DF803009DF80300012806D0FFE7F5
:1016D0009DF80300022840F0B080FFE746F200408A
:1016E000C4F2000001900199D1F8000240F001001D
:1016F000C1F800020199D1F8000220F47C50C1F831
:1017000000020398426A0199D1F8000240EA0220DF
:10171000C1F800020398406900F01F0101208840D1
:101720000290029A0199D1F81C029043C1F81C0260
:101730000398C069F0B9FFE7029A0199D1F80C0249
:101740009043C1F80C02039A9088D168526940EA2C
:101750000140019901EBC201C1F84002039A1088CF
:101760009168526940EA0140019901EBC201C1F858
:101770004402FFE70398C06901281ED1FFE7029ADF
:101780000199D1F80C021043C1F80C02039A908819
:101790001168526940EA0140019901EBC201C1F8A8
:1017A0004002039A90899168526940EA0140019988
:1017B00001EBC201C1F84402FFE70398806940B918
:1017C000FFE7029A0199D1F804029043C1F804029C
:1017D00007E0029A0199D1F804021043C1F804020B
:1017E000FFE70398006940B9FFE7029A0199D1F831
:1017F00014029043C1F8140207E0029A0199D1F84B
:1018000014021043C1F81402FFE70398006A01288C
:1018100008D1FFE7029A0199D1F81C021043C1F8E0
:101820001C02FFE70199D1F8000220F00100C1F885
:10183000000200208DF8170008E00499486A40F47F
:101840008020486201208DF81700FFE79DF81700FF
:1018500006B0704781B0009001B0704786B0049028
:10186000039102920193049890F820008DF80300F0
:101870009DF80300012806D0FFE79DF80300022829
:1018800040F0D780FFE7039880B9FFE7049800682D
:10189000C068800748B9FFE70499486A40F400101F
:1018A000486201208DF81700CCE00FE00498006832
:1018B0000069800748B9FFE70499486A40F40010BE
:1018C000486201208DF81700BCE0FFE7049800682B
:1018D000039900EB0110D0F8B00100F00400029968
:1018E00088600298806858B9FFE7049800680399F7
:1018F00000EB0110D0F8B001400D029908600AE039
:1019000004980068039900EB0110D0F8B001C008FA
:1019100002994860FFE704980068039900EB011002
:10192000D0F8B00100F002000299C8600498006885
:10193000039900EB0110D0F8B40100F00F000299F8
:10194000086104980068039900EB0110D0F8B40115
:1019500080B2000A0299886104980068039900EB3C
:101960000110D0F8B401000C029948610498006895
:10197000039900EB0110D0F8B801019908700498A0
:101980000068039900EB0110D0F8B801000A019932
:10199000487004980068039900EB0110D0F8B80172
:1019A000000C0199887004980068039900EB0110FD
:1019B000D0F8B801000E0199C87004980068039926
:1019C00000EB0110D0F8BC0101990871049800687F
:1019D000039900EB0110D0F8BC01000A019948718D
:1019E00004980068039900EB0110D0F8BC01000CCA
:1019F0000199887104980068039900EB0110D0F8F0
:101A0000BC01000E0199C871039838B9FFE704982A
:101A10000168C86840F02000C86006E004980168CA
:101A2000086940F020000861FFE700208DF81700EA
:101A300008E00499486A40F48020486201208DF84B
:101A40001700FFE79DF8170006B0704780B58AB011
:101A5000099000200890099800684069079009984B
:101A600000684068069009980068806805900998A9
:101A70000068C0680490099800680069039009989C
:101A80000068806902909DF81C00C007002800F0E3
:101A90009480FFE79DF81400C00758B3FFE709984A
:101AA0000168012088609DF814008007002804D593
:101AB000FFE7099800F0EAFB1BE09DF814004007DF
:101AC000002805D5FFE7089840F4006008900FE073
:101AD0009DF814000007002805D5FFE7089840F49A
:101AE0008050089003E0099800F0CCFBFFE7FFE787
:101AF000FFE7FFE79DF81500C00760B3FFE709980F
:101B000001684FF4807088609DF8150080070028F8
:101B100004D5FFE7099800F0C1FB1BE09DF8150014
:101B20004007002805D5FFE7089840F400500890CA
:101B30000FE09DF815000007002805D5FFE708987D
:101B400040F48040089003E0099800F0A3FBFFE711
:101B5000FFE7FFE7FFE79DF81600C00760B3FFE768
:101B6000099801684FF4803088609DF8160080075E
:101B7000002804D5FFE7099800F098FB1BE09DF8CA
:101B800016004007002805D5FFE7089840F40040FC
:101B900008900FE09DF816000007002805D5FFE724
:101BA000089840F48030089003E0099800F07AFB30
:101BB000FFE7FFE7FFE7FFE7FFE79DF81C000007EF
:101BC000002810D5FFE79DF81000C006002809D5B1
:101BD000FFE7089840F40070089009980168102009
:101BE000C860FFE7FFE79DF81C00400700280FD5FD
:101BF000FFE79DF810000007002808D5FFE70998C7
:101C000001680820C860099800F0CEFAFFE7FFE7F6
:101C10009DF81C00800700280BD5FFE70998006895
:101C2000C068800720B1FFE7099800F0C1FAFFE71C
:101C3000FFE79DF81C004006002810D5FFE79DF83F
:101C40000C00C006002809D5FFE7089840F4806022
:101C500008900998016810200861FFE7FFE79DF8E8
:101C60001C00800600280FD5FFE79DF80C00000738
:101C7000002808D5FFE7099801680820086109983D
:101C800000F0AEFAFFE7FFE79DF81C00C006002851
:101C90000BD5FFE7099800680069800720B1FFE7CE
:101CA000099800F0A1FAFFE7FFE79DF81E00800702
:101CB00000280FD5FFE79DF81800C006002808D5BA
:101CC000FFE70998016810204860099800F090FA31
:101CD000FFE7FFE79DF81E00C00778B1FFE79DF81A
:101CE00018000007002808D5FFE7099801680820B8
:101CF0004860099800F0DEFAFFE7FFE79DF81D0055
:101D00000006002840F18D80FFE79DF8180040078D
:101D1000002840F18180FFE79DF81D00C00750B109
:101D2000FFE79DF80800C00728B1FFE7089840F0DA
:101D300001000890FFE79DF81D00800700280BD5E3
:101D4000FFE79DF808008007002805D5FFE7089801
:101D500040F002000890FFE79DF81D0040070028B2
:101D60000BD5FFE79DF808004007002805D5FFE7E1
:101D7000089840F004000890FFE79DF81D00000758
:101D8000002848D5FFE79DF8080010F0700F42D0FA
:101D9000FFE7029800F0700001460191102814D06E
:101DA000FFE70198202815D0FFE70198302816D0CA
:101DB000FFE70198402817D0FFE70198502818D076
:101DC000FFE70198602819D01DE0089840F008004E
:101DD000089019E0089840F01000089014E0089866
:101DE00040F0200008900FE0089840F04000089074
:101DF0000AE0089840F08000089005E0089840F458
:101E00008070089000E0FFE709980168886920F079
:101E100070008861FFE7FFE70998016804204860C7
:101E2000FFE7089848B1FFE7089A0999486A104304
:101E300048620998FFF70EFDFFE70AB080BD000079
:101E400080B584B00290029820B9FFE701208DF898
:101E50000F00E0E0029890F8200020B9FFE7029818
:101E600000F0DEF8FFE702980168086840F0010022
:101E7000086000F07BFF0190FFE70298006840686F
:101E8000C007A8B9FFE700F071FF0199401A0B28BD
:101E90000DD3FFE70299486A40F400304862029986
:101EA000052081F8200001208DF80F00B3E0E4E761
:101EB00002980168086820F00200086000F056FFF0
:101EC0000190FFE70298006840688007002815D558
:101ED000FFE700F04BFF0199401A0B280DD3FFE7F5
:101EE0000299486A40F4003048620299052081F85E
:101EF000200001208DF80F008DE0E3E70298007EBE
:101F0000012807D1FFE702980168086840F08000C7
:101F1000086006E002980168086820F08000086008
:101F2000FFE70298407E012807D1FFE70298016889
:101F3000086840F04000086006E002980168086800
:101F400020F040000860FFE70298807E012807D15A
:101F5000FFE702980168086840F02000086006E08A
:101F600002980168086820F020000860FFE70298E6
:101F7000C07E012807D1FFE702980168086820F0B9
:101F80001000086006E002980168086840F0100040
:101F90000860FFE70298007F012807D1FFE7029859
:101FA0000168086840F00800086006E002980168CF
:101FB000086820F008000860FFE70298407F0128C9
:101FC00007D1FFE702980168086840F00400086044
:101FD00006E002980168086820F004000860FFE746
:101FE000029B19685A689868D3F80CC040EA0C0044
:101FF000D3F810C040EA0C005B691843013A104363
:10200000C861029900204862029A012182F82010DA
:102010008DF80F00FFE79DF80F0004B080BD0000B1
:1020200080B592B01190002010900F900E900D90FE
:102030000C901198006846F20041C4F200018842F9
:102040004AD1FFE740F2C010C2F20000016801313E
:1020500001600068012812D1FFE7FFE700200B9024
:1020600043F64000C4F20200016841F000710160D3
:10207000006800F000700B900B98FFE7FFE7FFE7A8
:1020800000200A9043F63000C4F20200016841F0DB
:1020900008010160006800F008000A900A98FFE754
:1020A00003200C90022104910D91002105910E91C5
:1020B0000F900920109040F60040C4F202000CA9D5
:1020C00000F060FC0499059A1420069000F0E6FEEA
:1020D000069800F0D9FE65E01198006846F6000108
:1020E000C4F2000188425CD1FFE7FFE700200990BD
:1020F00043F64000C4F20200016841F080610160D3
:10210000006800F0806009900998FFE740F2C01075
:10211000C2F200000168013101600068012812D19B
:10212000FFE7FFE70020089043F64000C4F20200FA
:10213000016841F000710160006800F000700890D3
:102140000898FFE7FFE7FFE70020079043F630001D
:10215000C4F20200016841F002010160006800F071
:10216000020007900798FFE760200C900220019082
:102170000D90002002900E9003200F9009201090E7
:1021800040F20040C4F202000CA900F0FBFB0199F0
:10219000029A4020039000F081FE039800F074FE44
:1021A000FFE7FFE712B080BD81B0009001B070473B
:1021B00080B582B00190019840F22012C2F2000274
:1021C000009240F23C13C2F200030021FFF746FBED
:1021D000009901980968FEF7FDFB02B080BD000080
:1021E00081B0009001B0704781B0009001B070479D
:1021F00081B0009001B0704780B584B00290029821
:1022000090F8200001282FD1FFE70299022081F8E1
:10221000200002980168086820F00100086000F0C2
:10222000A5FD0190FFE7029800684068C007A8B1CB
:10223000FFE700F09BFD0199401A0B280DD3FFE743
:102240000299486A40F4003048620299052081F8FA
:10225000200001208DF80F000FE0E4E70299002034
:1022600048628DF80F0008E00299486A40F40020A7
:10227000486201208DF80F00FFE79DF80F0004B0C1
:1022800080BD000081B0009001B0704781B0009027
:1022900001B0704781B0009001B0704781B00090EC
:1022A00001B0704781B0009001B0704781B00090DC
:1022B00001B0704781B0009001B0704780B584B024
:1022C00002900298806D019000F050FD00900298FD
:1022D00090F8350002280DD0FFE70299802048656C
:1022E000FFE70299002081F83400FFE701208DF814
:1022F0000F0055E002980168086820F01600086099
:1023000002980168486920F0800048610298006CDA
:1023100020B9FFE70298806C38B1FFE702980168A6
:10232000086820F008000860FFE702980168086864
:1023300020F001000860FFE7029800680068C0070D
:10234000C8B1FFE700F012FD0099401A062811D32A
:10235000FFE70299202048650299032081F83500A3
:10236000FFE70299002081F83400FFE703208DF891
:102370000F0015E0E0E70298C16D3F208840019909
:1023800088600299012081F83500FFE7029900205A
:1023900081F83400FFE7FFE700208DF80F00FFE72A
:1023A0009DF80F0004B080BD82B00090009890F8B6
:1023B0003500022807D0FFE70099802048650120FA
:1023C0008DF807000EE00099052081F8350000988F
:1023D0000168086820F001000860FFE700208DF820
:1023E0000700FFE79DF8070002B0704780B586B090
:1023F00005900020039040F20C00C2F2000000683B
:1024000048F2B511C1F64E31A0FB0110800A0290CE
:102410000598806D019001980068049004980599D2
:10242000C96DC840000700281AD5FFE70598006865
:1024300000684007002812D5FFE705980168086882
:1024400020F0040008600598C16D082088400199BB
:1024500088600599486D40F001004865FFE7FFE797
:1024600004980599C96DC840C007A0B1FFE7059859
:1024700000684069000600280CD5FFE70598C16D8B
:1024800001208840019988600599486D40F002005C
:102490004865FFE7FFE704980599C96DC840400704
:1024A000002814D5FFE70598006800688007002819
:1024B0000CD5FFE70598C16D04208840019988601C
:1024C0000599486D40F004004865FFE7FFE7049870
:1024D0000599C96DC840C006002847D5FFE7059893
:1024E00000680068000700283FD5FFE70598C16D28
:1024F00010208840019988600598006800684003B2
:1025000000281AD5FFE70598006800680003002836
:1025100009D4FFE70598006C20B1FFE70598016C2E
:102520008847FFE708E00598806C20B1FFE7059831
:10253000816C8847FFE7FFE716E0059800680068B0
:10254000C005002807D4FFE705980168086820F057
:1025500008000860FFE70598006C20B1FFE70598C8
:10256000016C8847FFE7FFE7FFE7FFE7049805995D
:10257000C96DC8408006002840F18D80FFE70598AE
:1025800000680068C006002840F18480FFE70598D5
:10259000C16D2020884001998860059890F8350029
:1025A000052834D1FFE705980168086820F0160077
:1025B000086005980168486920F080004861059826
:1025C000006C20B9FFE70598806C38B1FFE70598EB
:1025D0000168086820F008000860FFE70598C16DF1
:1025E0003F208840019988600599012081F83500D5
:1025F000FFE70599002081F83400FFE70598006D9A
:1026000020B1FFE70598016D8847FFE77BE005985B
:1026100000680068400300281AD5FFE705980068A5
:1026200000680003002809D4FFE70598406C20B13A
:10263000FFE70598416C8847FFE708E00598C06B05
:1026400020B1FFE70598C16B8847FFE7FFE720E06F
:10265000059800680068C005002811D4FFE70598B8
:102660000168086820F0100008600599012081F8D1
:102670003500FFE70599002081F83400FFE7FFE708
:102680000598C06B20B1FFE70598C16B8847FFE74D
:10269000FFE7FFE7FFE70598406DA0B3FFE7059868
:1026A000406DC00730B3FFE70599052081F835007C
:1026B00005980168086820F001000860FFE70398AA
:1026C000013003900299884201D9FFE707E0FFE754
:1026D000059800680068C0070028F0D1FFE7059959
:1026E000012081F83500FFE70599002081F83400CA
:1026F000FFE7FFE70598C06C20B1FFE70598C16CC4
:102700008847FFE7FFE706B080BD000080B586B0D0
:1027100004900020039000F029FB0290049820B957
:10272000FFE701208DF81700A3E00498406A08B184
:10273000FFE7FFE70499022081F83500FFE70499DD
:10274000002081F83400FFE704980168086820F051
:1027500001000860FFE7049800680068C00790B1B6
:10276000FFE700F003FB0299401A06280AD3FFE7AF
:102770000499202048650499032081F835008DF8DC
:10278000170076E0E7E70498006800680390039874
:1027900048F23F01CFF210010840039004990091E4
:1027A0004868D1F808C0CB680A6940EA0C001843B1
:1027B00010434A6910438A691043CA691043096A81
:1027C00001430398084303900498406A042808D101
:1027D000FFE70499C86A096B014303980843039013
:1027E000FFE7039804990968086004980068406945
:1027F0000390039820F0070003900498416A03981F
:10280000084303900498406A04281AD1FFE704980B
:10281000816A0398084303900498C06A80B1FFE777
:102820000498FEF7FFFC50B1FFE70499402048658B
:102830000499012081F835008DF8170019E0FFE7B1
:10284000FFE703980499096848610498FEF7BEFC05
:1028500001900498C16D3F208840019988600499D7
:1028600000204865049A012182F835108DF8170080
:10287000FFE79DF8170006B080BD000080B588B066
:10288000069005910492039300208DF80B000698A2
:10289000806D0190FFE7069890F83400012804D17C
:1028A000FFE702208DF81F0045E00699012081F81E
:1028B0003400FFE7FFE7069890F8350001282BD198
:1028C000FFE70699022081F8350006990020486547
:1028D00006980599049A039BFEF71CFD0698C16DA6
:1028E0003F2088400199886006980168086840F098
:1028F000160008600698006C38B1FFE7069801687A
:10290000086840F008000860FFE70698016808685A
:1029100040F00100086009E0FFE70699002081F817
:102920003400FFE702208DF80B00FFE79DF80B0055
:102930008DF81F00FFE79DF81F0008B080BD000064
:1029400080B584B0039000F011FA029003980190D2
:102950000198013048B1FFE740F21000C2F20000D8
:102960000178019808440190FFE7FFE700F0FEF9C5
:102970000299401A0199884201D2FFE7F6E704B0B4
:1029800080BD00008EB00D900C9100200A9009903F
:1029900008900B90FFE70B980F2800F2CC81FFE71F
:1029A0000B99012088400A900C9800680A99084009
:1029B000099009980A99884240F0B881FFE70C987D
:1029C000406800F00300012807D0FFE70C9840683A
:1029D00000F0030002282FD1FFE70D9880680890CF
:1029E0000B984100032000FA01F1089888430890F1
:1029F0000C98C0680B99490000FA01F10898084347
:102A0000089008980D9988600D98406808900B9977
:102A1000012000FA01F10898884308900C9840685A
:102A2000C0F300100B9900FA01F1089808430890D0
:102A300008980D994860FFE70C98406800F0030083
:102A4000032818D0FFE70D98C06808900B98410044
:102A5000032000FA01F10898884308900C988068D8
:102A60000B99490000FA01F108980843089008986A
:102A70000D99C860FFE70C98406800F00300022839
:102A800026D1FFE70D980B996FF0030202EA51017E
:102A90000844006A08900B9800F0070081000F209E
:102AA00000FA01F10898884308900C9800690B9986
:102AB00001F00701890000FA01F108980843089025
:102AC00008980D990B9B02EA530211440862FFE734
:102AD0000D98006808900B984100032000FA01F15E
:102AE0000898884308900C98406800F003000B9900
:102AF000490000FA01F108980843089008980D99D8
:102B000008600C9880798007002800F00E81FFE7AC
:102B1000FFE70020079043F64400C4F2020001687A
:102B200041F480410160006800F4804007900798FC
:102B3000FFE70B9820F0030043F60801C4F20101FF
:102B4000405808900B9800F0030081000F2000FA15
:102B500001F10898884308900D980021C4F2020101
:102B6000884203D1FFE7002006905EE00D9840F216
:102B70000041C4F20201884203D1FFE70120059021
:102B800050E00D9840F60001C4F20201884203D1E2
:102B9000FFE70220049042E00D9840F60041C4F2A5
:102BA0000201884203D1FFE70320039034E00D982F
:102BB00041F20001C4F20201884203D1FFE7042080
:102BC000029026E00D9841F20041C4F202018842D1
:102BD00003D1FFE70520019018E00D9841F60001B0
:102BE000C4F20201884203D1FFE7062000900AE008
:102BF0000D9941F60042C4F202020820914208BF3A
:102C000007200090FFE700980190FFE701980290ED
:102C1000FFE702980390FFE703980490FFE704980A
:102C20000590FFE705980690FFE70698C0B20B995C
:102C300001F00301890000FA01F1089808430890A7
:102C400008980B9921F0030143F60802C4F201022F
:102C5000885043F60840C4F20100006808900999C2
:102C60000898884308900C988079C006002805D5FC
:102C7000FFE70999089808430890FFE7089843F68A
:102C80000841C4F20101086043F60C40C4F201009F
:102C90000068089009990898884308900C988079F2
:102CA0008006002805D5FFE7099908980843089091
:102CB000FFE7089843F60C41C4F20101086043F6AF
:102CC0000440C4F2010000680890099908988843FC
:102CD00008900C9880798007002805D5FFE70999AE
:102CE000089808430890FFE7089843F60441C4F2A7
:102CF0000101086043F60040C4F20100006808903A
:102D000009990898884308900C988079C00728B1E1
:102D1000FFE70999089808430890FFE7089843F6E9
:102D20000041C4F201010860FFE7FFE7FFE70B98ED
:102D300001300B902FE60EB07047000082B001907A
:102D4000ADF802108DF801209DF8010028B1FFE7D1
:102D5000BDF802000199886105E0BDF80200000499
:102D600001998861FFE702B07047000040F6887063
:102D7000C2F200000068704740F21000C2F200008A
:102D8000027840F68871C2F20001086810440860B9
:102D90007047000080B543F60041C4F202010868A4
:102DA00040F400700860086840F4806008600868BB
:102DB00040F480700860032000F08AF80F2000F0D3
:102DC00005F800F03BF8002080BD000080B582B01F
:102DD000009040F20C00C2F20000006840F21001C6
:102DE000C2F200010A784FF47A71B1FBF2F1B0FB44
:102DF000F1F001F005FB20B1FFE701208DF807009D
:102E000018E000980F280DD8FFE700994FF0FF3029
:102E1000002200F043F8009840F21401C2F20001D1
:102E2000086003E001208DF8070003E000208DF822
:102E30000700FFE79DF8070002B080BD82B0FFE702
:102E40000020019043F64400C4F20200016841F4FE
:102E500080410160006800F4804001900198FFE724
:102E6000FFE70020009043F64000C4F20200016832
:102E700041F080510160006800F08050009000989F
:102E8000FFE702B07047000080B582B08DF8070000
:102E90009DF9070006F09EF902B080BD80B586B0AE
:102EA0008DF81700049103920020029006F0AAF911
:102EB00002909DF91700019002980499039A03F07B
:102EC0004BF80146019806F0A5F906B080BD000058
:102ED00080B582B00190019806F0BEF902B080BDC5
:102EE00080B584B002900191029820B9FFE70120DB
:102EF0008DF80F0021E1019843F60041C4F2020170
:102F0000096801F00701884212D9FFE7019943F6E9
:102F10000040C4F202000170006800F0070001994F
:102F2000884204D0FFE701208DF80F0005E1FFE79C
:102F300002980078800700282AD5FFE702980078D9
:102F40004007002809D5FFE743F60801C4F2020153
:102F5000086840F4E0500860FFE702980078000736
:102F6000002809D5FFE743F60801C4F2020108680A
:102F700040F460400860FFE743F60801C4F2020134
:102F8000086820F0F000029A926810430860FFE79A
:102F900002980078C00700286ED0FFE702984068CA
:102FA000012811D1FFE743F60000C4F202000068D7
:102FB00000F400310020B0EB514F04D1FFE70120B5
:102FC0008DF80F00B9E02CE002984068022805D087
:102FD000FFE702984068032811D1FFE743F600009D
:102FE000C4F20200006800F000710020B0EB516FE5
:102FF00004D1FFE701208DF80F009EE010E043F6BA
:103000000000C4F20200006800F002010020B0EBF2
:10301000510F04D1FFE701208DF80F008DE0FFE78D
:10302000FFE743F60801C4F20201086820F003003C
:10303000029A526810430860FFF798FE0090FFE77D
:1030400043F60800C4F20200006800F00C00029988
:103050004968B0EB810F0ED0FFE7FFF787FE0099BC
:10306000401A41F28931884204D3FFE703208DF8EA
:103070000F0062E0E4E7FFE7019843F60041C4F285
:103080000201096801F00701884212D2FFE70199A5
:1030900043F60040C4F202000170006800F007002F
:1030A0000199884204D0FFE701208DF80F0044E029
:1030B000FFE702980078400700280CD5FFE743F6A9
:1030C0000801C4F20201086820F4E050029AD268B4
:1030D00010430860FFE702980078000700280DD52C
:1030E000FFE743F60801C4F20201086820F46040DB
:1030F000029A126940EAC2000860FFE700F04CF84B
:1031000043F60801C4F202010968C9B20A0949F686
:103110008061C0F60001895CC84040F20C01C2F237
:103120000001086040F21400C2F200000068FFF7DE
:103130004DFE00208DF80F00FFE79DF80F0004B052
:1031400080BD000040F20C00C2F200000068704731
:1031500080B5FFF7F7FF43F60801C4F202010968E2
:10316000C1F3822249F69061C0F60001895CC84033
:1031700080BD000080B5FFF7E5FF43F60801C4F20B
:103180000201096889B24A0B49F69061C0F6000154
:10319000895CC84080BD000080B586B000200590E5
:1031A00004900390029043F60800C4F20200006805
:1031B00000F00C000146019140B1FFE7019804289E
:1031C0000AD0FFE7019808280CD04FE042F20040F7
:1031D000C0F2F40002904FE041F60030C0F2B700B8
:1031E000029049E043F60400C4F20200016801F0D5
:1031F0003F01059100684002002813D5FFE743F620
:103200000400C4F202000068C0F3881041F60031E7
:10321000C0F2B701A0FB0101059A0023FCF7D0FF23
:10322000049012E043F60400C4F202000068C0F308
:10323000881042F20041C0F2F401A0FB0101059A9E
:103240000023FCF7BDFF0490FFE743F60400C4F23F
:103250000200006800F44031022000EBD1300390FE
:1032600004980399B0FBF1F0029005E042F20040AF
:10327000C0F2F4000290FFE7029806B080BD0000A3
:1032800080B586B00490049820B9FFE701208DF83E
:10329000170050E304980078C007002800F0A580CC
:1032A000FFE743F60800C4F20200006800F00C00DB
:1032B000042813D0FFE743F60800C4F202000068B8
:1032C00000F00C0008281ED1FFE743F60400C4F20A
:1032D000020000684002002815D5FFE743F6000011
:1032E000C4F20200006800F400310020B0EB514F3E
:1032F00008D0FFE70498406820B9FFE701208DF867
:10330000170018E370E0FFE704984068B0F5803FCD
:1033100009D1FFE743F60001C4F20201086840F456
:103320008030086020E004984068B0F5A02F0DD1EF
:10333000FFE743F60001C4F20201086840F4802070
:103340000860086840F4803008600CE043F6000133
:10335000C4F20201086820F480300860086820F494
:1033600080200860FFE7FFE7FFE704984068E8B1C6
:10337000FFE7FFF7FBFC0390FFE743F60000C4F212
:103380000200006800F400310020B0EB514F0CD176
:10339000FFE7FFF7EBFC0399401A652804D3FFE72A
:1033A00003208DF81700C6E2E7E71CE0FFF7DEFC1C
:1033B0000390FFE743F60000C4F20200006800F447
:1033C00000310020B0EB514F0CD0FFE7FFF7CEFCEF
:1033D0000399401A652804D3FFE703208DF81700EE
:1033E000A9E2E7E7FFE7FFE7FFE704980078800737
:1033F000002840F19680FFE743F60800C4F202007F
:10340000006810F00C0F13D0FFE743F60800C4F279
:103410000200006800F00C0008282CD1FFE743F6FA
:103420000400C4F2020000684002002823D4FFE731
:1034300043F60000C4F20200006800F00201002020
:10344000B0EB510F09D0FFE70498C068012804D001
:10345000FFE701208DF817006DE243F60001C4F28A
:103460000201086820F0F800049A126940EAC200DC
:103470000860FFE754E00498C06870B3FFE70021DC
:10348000C4F2472101200860FFF770FC0390FFE7BA
:1034900043F60000C4F20200006800F002010020C0
:1034A000B0EB510F0CD1FFE7FFF760FC0399401A16
:1034B000032804D3FFE703208DF817003BE2E7E77A
:1034C00043F60001C4F20201086820F0F800049AF3
:1034D000126940EAC200086021E00021C4F24721DD
:1034E00000200860FFF742FC0390FFE743F600006E
:1034F000C4F20200006800F002010020B0EB510F9E
:103500000CD0FFE7FFF732FC0399401A032804D3DD
:10351000FFE703208DF817000DE2E7E7FFE7FFE77D
:10352000FFE704980078000700284BD5FFE70498D0
:10353000406918B3FFE740F68061C4F247210120DB
:103540000860FFF713FC0390FFE743F67400C4F232
:103550000200006800F002010020B0EB510F0CD116
:10356000FFE7FFF703FC0399401A032804D3FFE7A2
:1035700003208DF81700DEE1E7E722E040F68061E6
:10358000C4F2472100200860FFF7F0FB0390FFE73B
:1035900043F67400C4F20200006800F0020100204B
:1035A000B0EB510F0CD0FFE7FFF7E0FB0399401A97
:1035B000032804D3FFE703208DF81700BBE1E7E7FA
:1035C000FFE7FFE7049800784007002840F1CE802D
:1035D000FFE700208DF8070043F64000C4F2020028
:1035E0000068C000002815D4FFE7FFE70020009026
:1035F00043F64000C4F20200016841F080510160CE
:10360000006800F0805000900098FFE701208DF8DE
:103610000700FFE747F20000C4F200000068C005A1
:10362000002822D4FFE747F20001C4F20001086835
:1036300040F480700860FFF799FB0390FFE747F2C2
:103640000000C4F200000068C00500280CD4FFE7A9
:10365000FFF78CFB0399401A032804D3FFE70320EC
:103660008DF8170067E1EAE7FFE7FFE70498806855
:10367000012809D1FFE743F67001C4F2020108688E
:1036800040F0010008601FE00498806805280DD113
:10369000FFE743F67001C4F20201086840F004003D
:1036A0000860086840F0010008600CE043F6700113
:1036B000C4F20201086820F001000860086820F0E8
:1036C00004000860FFE7FFE7FFE704988068F8B1AF
:1036D000FFE7FFF74BFB0390FFE743F67000C4F2F0
:1036E0000200006800F002010020B0EB510F0ED183
:1036F000FFE7FFF73BFB0399401A41F2893188420B
:1037000004D3FFE703208DF8170014E1E5E71EE07E
:10371000FFF72CFB0390FFE743F67000C4F20200B2
:10372000006800F002010020B0EB510F0ED0FFE75F
:10373000FFF71CFB0399401A41F28931884204D3F8
:10374000FFE703208DF81700F5E0E5E7FFE79DF8B8
:103750000700012809D1FFE743F64001C4F2020146
:10376000086820F080500860FFE7FFE70498806950
:10377000002800F0DC80FFE743F60800C4F20200F6
:10378000006800F00C00082800F08580FFE704982E
:10379000806902285CD1FFE76021C4F24721002044
:1037A0000860FFF7E3FA0390FFE743F60000C4F276
:1037B0000200006800F000710020B0EB516F0CD0E7
:1037C000FFE7FFF7D3FA0399401A032804D3FFE772
:1037D00003208DF81700AEE0E7E70499C869D1F837
:1037E00020C04B6A8A6A40EA0C0040EA8310D20388
:1037F0004FF6FF739A43A2F580321043C96A40EA3C
:10380000016043F60401C4F2020108606021C4F2C1
:10381000472101200860FFF7A9FA0390FFE743F66C
:103820000000C4F20200006800F000710020B0EB5C
:10383000516F0CD1FFE7FFF799FA0399401A03285B
:1038400004D3FFE703208DF8170074E0E7E721E0D9
:103850006021C4F2472100200860FFF787FA039037
:10386000FFE743F60000C4F20200006800F00071B8
:103870000020B0EB516F0CD0FFE7FFF777FA039908
:10388000401A032804D3FFE703208DF8170052E005
:10389000E7E7FFE74AE004988069012804D1FFE7E1
:1038A00001208DF8170046E043F60400C4F2020040
:1038B0000068029004988069012831D0FFE70298DF
:1038C00000F480000499C969884229D1FFE7029871
:1038D00000F03F000499096A884221D1FFE702986D
:1038E00047F6C07108400499496AB0EB811F17D1AF
:1038F000FFE7029800F440300499896AC9034FF643
:10390000FF729143A1F58031884209D1FFE7029807
:1039100000F070600499C96AB0EB016F04D0FFE752
:1039200001208DF8170006E0FFE7FFE7FFE7002022
:103930008DF81700FFE79DF8170006B080BD000066
:1039400081B00090009890F8510001B070470000DD
:1039500080B584B00290029820B9FFE701208DF86D
:103960000F0071E00298406A60B9FFE70298406872
:10397000B0F5827F01D1FFE703E002990020C86122
:10398000FFE705E002990020086102994861FFE71E
:10399000029900208862029890F8510040B9FFE730
:1039A0000299002081F85000029800F051F8FFE7DA
:1039B0000299022081F8510002980168086820F0FD
:1039C00040000860029A019211685068D2F808C05D
:1039D000D36800F482700CF4044C604403F4006378
:1039E0001844136903F002031844536903F00103F8
:1039F0001844936903F400731844D36903F038033F
:103A00001844136A03F080031843926A02F40052C8
:103A100010430860029A508B00F004001168526A4B
:103A200002F010021044486002980168C86920F44E
:103A30000060C861029900204865029A012182F85D
:103A400051108DF80F00FFE79DF80F0004B080BD06
:103A500080B590B00F9000200E900D900C900B90C0
:103A60000A900F98006843F20001C4F201018842F5
:103A700040F0B680FFE7FFE70020099043F64400DE
:103A8000C4F20200016841F480510160006800F452
:103A9000805009900998FFE7FFE70020089043F65F
:103AA0003000C4F20200016841F0020101600068C8
:103AB00000F0020008900898FFE7FFE70020079059
:103AC00043F63000C4F20200016841F001010160D8
:103AD000006800F0010007900798FFE718200A909F
:103AE000022001900B90012002900C900320039083
:103AF0000D90052004900E9040F20040C4F20200A8
:103B00000AA90591FEF73EFFDDF804C0029B039A67
:103B1000049805994FF0800ECDF828E0CDF82CC020
:103B20000C930D920E900020C4F20200FEF72AFFC3
:103B300040F6CC10C2F20000069046F21041C4F2EA
:103B4000020101604FF0C061416000218160C160ED
:103B50004FF48062026141618161C1614FF4403282
:103B600002624162FEF7D2FD18B1FFE7FDF7FCFBF0
:103B7000FFE7FFE70F9840F6CC11C2F20001C164E5
:103B80000F988863FFE740F62C20C2F200000090F7
:103B900046F25841C4F2020101604FF0C061416039
:103BA000402181600021C1604FF480620261416167
:103BB0008161C1614FF4403202624162FEF7A6FDAD
:103BC00018B1FFE7FDF7D0FBFFE7FFE70F9840F6DE
:103BD0002C21C2F2000181640F988863FFE7FFE7A0
:103BE00010B080BD80B588B006900591ADF8122068
:103BF000039300208DF8070006984068B0F5827F97
:103C000016D1FFE70698806890B9FFE7069904206F
:103C100081F851000698059ABDF812300399EC46D8
:103C2000CCF80010114600F037FA8DF81F00EDE0D7
:103C3000FFE7069890F85000012804D1FFE7022022
:103C40008DF81F00E2E00699012081F85000FFE79F
:103C5000FFE7FFF78BF80290069890F851000128D3
:103C600004D0FFE702208DF80700C0E0059820B1DE
:103C7000FFE7BDF8120020B9FFE701208DF807002B
:103C8000B5E00699042081F85100069900204865A6
:103C90000599069A9163BDF81210069A9187BDF8AE
:103CA0001210069AD18706990863069988860699A4
:103CB000C886069908640699486406988068B0F535
:103CC000004F0DD1FFE706980168086820F040001A
:103CD000086006980168086820F480400860FFE7E3
:103CE00006980068006800F04000402807D0FFE711
:103CF00006980168086840F040000860FFE70698F1
:103D0000C06880BBFFE7FFE70698C08F50B3FFE7AE
:103D1000069800688068C00778B1FFE706980068D9
:103D2000007B0699896B08700699886B013088635F
:103D30000699C88F0138C88713E0FFF717F8029972
:103D4000401A0399884204D3FFE70398013018B959
:103D5000FFE7039820B9FFE703208DF8070046E04E
:103D6000FFE7D1E72FE0FFE70698C08F50B3FFE7EA
:103D7000069800688068C00778B1FFE70698006879
:103D8000C0680699896B08800699886B0230886341
:103D90000699C88F0138C88713E0FEF7E7FF02993C
:103DA000401A0399884204D3FFE70398013018B9F9
:103DB000FFE7039820B9FFE703208DF8070016E01E
:103DC000FFE7D1E7FFE706980399029A03F060FF47
:103DD00020B1FFE7069920204865FFE70698406D6F
:103DE00020B1FFE701208DF80700FFE7FFE7069904
:103DF000012081F85100FFE70699002081F850006A
:103E0000FFE79DF807008DF81F00FFE79DF81F00F2
:103E100008B080BD80B588B006900591ADF812203D
:103E2000039300208DF80700FFE7069890F85000F4
:103E3000012804D1FFE702208DF81F0028E1069930
:103E4000012081F85000FFE7FFE7FEF78FFF0290A7
:103E5000BDF81200ADF80400069890F85100012852
:103E600004D0FFE702208DF8070002E1059820B199
:103E7000FFE7BDF8120020B9FFE701208DF8070029
:103E8000F7E00699032081F8510006990020486563
:103E90000599069A1163BDF81210069A9186BDF82D
:103EA0001210069AD1860699886306998887069922
:103EB000C887069948640699086406988068B0F532
:103EC000004F0DD1FFE706980168086820F0400018
:103ED000086006980168086840F480400860FFE7C1
:103EE00006980068006800F04000402807D0FFE70F
:103EF00006980168086840F040000860FFE70698EF
:103F0000C068B0F5006F47D1FFE70698406828B158
:103F1000FFE7BDF8040001280ED1FFE7069801680D
:103F2000006B0088C8600699086B02300863069928
:103F3000C88E0138C886FFE7FFE70698C08E50B3E9
:103F4000FFE7069800688068800700280ED5FFE725
:103F500006980168006B0088C8600699086B0230FB
:103F600008630699C88E0138C88613E0FEF7FEFE86
:103F70000299401A0399884204D3FFE7039801305D
:103F800018B9FFE7039820B9FFE703208DF8070071
:103F90006FE0FFE7D1E746E00698406828B1FFE709
:103FA000BDF8040001280ED1FFE706980168006BF8
:103FB000007808730699086B013008630699C88E6B
:103FC0000138C886FFE7FFE70698C08E50B3FFE7C9
:103FD000069800688068800700280ED5FFE70698DD
:103FE0000168006B007808730699086B013008635C
:103FF0000699C88E0138C88613E0FEF7B7FE02990D
:10400000401A0399884204D3FFE70398013018B996
:10401000FFE7039820B9FFE703208DF8070028E0A9
:10402000FFE7D1E7FFE706980399029A03F0A2FEA3
:1040300020B1FFE7069920204865FFE706988068D1
:1040400070B9FFE7FFE70020009006980068C0689D
:10405000009006980068806800900098FFE7FFE7EE
:104060000698406D20B1FFE701208DF80700FFE7BB
:10407000FFE70699012081F85100FFE7069900202B
:1040800081F85000FFE79DF807008DF81F00FFE75B
:104090009DF81F0008B080BD80B58EB0DDF840C02F
:1040A0000C900B910A92ADF826300120059000206B
:1040B0008DF81300FFE70C9890F85000012804D108
:1040C000FFE702208DF8370095E10C99012081F877
:1040D0005000FFE7FFE7FEF749FE06900C9890F8C6
:1040E00051008DF81F000C9840680890BDF826001C
:1040F000ADF824009DF81F00012812D0FFE70898B2
:10410000B0F5827F09D1FFE70C98806828B9FFE7F6
:104110009DF81F00042804D0FFE702208DF813004B
:104120005AE10B9838B1FFE70A9820B1FFE7BDF8D4
:10413000260020B9FFE701208DF813004CE10C9810
:1041400090F85100042805D0FFE70C99052081F86C
:104150005100FFE70C99002048650A990C9A916379
:10416000BDF826100C9AD187BDF826100C9A9187BD
:104170000B990C9A1163BDF826100C9AD186BDF8E4
:1041800026100C9A91860C9908640C9948640C9836
:104190000068006800F04000402807D0FFE70C9856
:1041A0000168086840F040000860FFE70C98C068AC
:1041B000B0F5006F76D1FFE70C98406828B1FFE7B3
:1041C000BDF8240001280ED1FFE70C980168006BB0
:1041D0000088C8600C99086B023008630C99C88E7F
:1041E0000138C886FFE7FFE70C98C18E01200290D6
:1041F00039B9FFE70C98C08F002818BF0120029042
:10420000FFE70298C00700284BD0FFE70C98006832
:1042100080688007002818D5FFE70C98C08EA0B1F1
:10422000FFE70598012810D1FFE70C980168006BA3
:104230000088C8600C99086B023008630C99C88E1E
:104240000138C88600200590FFE70C980068806858
:10425000C007A8B1FFE70C98C08F88B1FFE70C98A2
:104260000068C0680C99896B08800C99886B0230D3
:1042700088630C99C88F0138C88701200590FFE733
:10428000FEF774FD0699401A1099884208D3FFE79B
:104290001098013020B1FFE703208DF813009BE058
:1042A000A2E778E00C98406828B1FFE7BDF8240049
:1042B00001280ED1FFE70C980168006B00780873A5
:1042C0000C99086B013008630C99C88E0138C886B8
:1042D000FFE7FFE70C98C18E0120019039B9FFE795
:1042E0000C98C08F002818BF01200190FFE70198AB
:1042F000C00700284ED0FFE70C9800688068800750
:10430000002818D5FFE70C98C08EA0B1FFE70598EC
:10431000012810D1FFE70C980168006B0078087342
:104320000C99086B013008630C99C88E0138C88657
:1043300000200590FFE70C9800688068C007A8B1CE
:10434000FFE70C98C08F88B1FFE70C980068C06841
:104350000C99896B08700C99886B013088630C99F3
:10436000C88F0138C88701200590FFE7FEF7FEFCE3
:104370000699401A1099884204D3FFE7109801303B
:1043800018B9FFE7109820B9FFE703208DF8130054
:1043900022E09FE7FFE70C981099069A03F0EAFCE9
:1043A00038B1FFE701208DF813000C9920204865F3
:1043B00012E00C98806870B9FFE7FFE700200390D7
:1043C0000C980068C06803900C980068806803909F
:1043D0000398FFE7FFE7FFE70C99012081F8510000
:1043E000FFE70C99002081F85000FFE79DF81300CB
:1043F0008DF83700FFE79DF837000EB080BD000054
:1044000080B582B00190019803F09EFD02B080BD9E
:1044100081B0009001B0704781B0009001B070474A
:1044200085B003900291FFE7039890F83C000128C3
:1044300004D1FFE702208DF813007EE003990120EC
:1044400081F83C00FFE7FFE70399022081F83D0077
:1044500003980068406801900398006880680090A5
:10446000019820F0700001900298016801980843BB
:104470000190019803990968486003980068002139
:10448000C4F2010188423CD0FFE703980068B0F114
:10449000804F36D0FFE70398006840F20041C4F235
:1044A000000188422DD0FFE70398006840F6000124
:1044B000C4F20001884224D0FFE70398006840F668
:1044C0000041C4F2000188421BD0FFE70398006856
:1044D00040F20041C4F20101884212D0FFE7039884
:1044E000006844F20001C4F20101884209D0FFE7EC
:1044F0000398006841F60001C4F2000188420ED121
:10450000FFE7009820F08000009002984168009832
:10451000084300900098039909688860FFE70399B1
:10452000012081F83D00FFE70399002081F83C005D
:10453000FFE700208DF81300FFE79DF8130005B09A
:104540007047000080B582B00090009820B9FFE766
:1045500001208DF807003FE0009890F83D0040B939
:10456000FFE70099002081F83C00009800F038F83F
:10457000FFE70099022081F83D00009951F8040BF3
:1045800003F098FD0099012081F84600FFE70099AB
:10459000012081F83E00009981F83F00009981F8E0
:1045A0004000009981F84100FFE7FFE700990120F2
:1045B00081F84200009981F84300009981F8440095
:1045C000009981F84500FFE70099012081F83D003E
:1045D00000208DF80700FFE79DF8070002B080BDBE
:1045E00080B58AB0099009980068B0F1804F1BD15E
:1045F000FFE7FFE70020089043F64000C4F2020006
:10460000016841F001010160006800F001000890BC
:104610000898FFE71C20049003210022FEF73EFCCF
:104620000498FEF731FC6EE00998006840F600013E
:10463000C4F2000188421BD1FFE7FFE7002007908A
:1046400043F64000C4F20200016841F00401016039
:10465000006800F0040007900798FFE71E20039011
:1046600003210022FEF71AFC0398FEF70DFC49E037
:104670000998006841F20001C4F2000188421BD190
:10468000FFE7FFE70020069043F64000C4F2020077
:10469000016841F010010160006800F01000069010
:1046A0000698FFE73620029003210022FEF7F6FB72
:1046B0000298FEF7E9FB24E00998006844F2000143
:1046C000C4F2010188421BD1FFE7FFE700200590FB
:1046D00043F64400C4F20200016841F480310160F5
:1046E000006800F4803005900598FFE718200190DD
:1046F00004210022FEF7D2FB0198FEF7C5FBFFE77D
:10470000FFE7FFE7FFE70AB080BD000083B001903C
:10471000019890F83D00012804D0FFE701208DF8B2
:104720000B006AE00199022081F83D0001980168C0
:10473000C86840F00100C860019800680021C4F218
:10474000010188423CD0FFE701980068B0F1804F3A
:1047500036D0FFE70198006840F20041C4F2000142
:1047600088422DD0FFE70198006840F60001C4F2AE
:104770000001884224D0FFE70198006840F600411C
:10478000C4F2000188421BD0FFE70198006840F2A4
:104790000041C4F20101884212D0FFE7019800688D
:1047A00044F20001C4F20101884209D0FFE70198F8
:1047B000006841F60001C4F20001884212D1FFE70F
:1047C00001980068806800F00700009000980628B3
:1047D00007D0FFE701980168086840F00100086011
:1047E000FFE706E001980168086840F001000860F2
:1047F000FFE700208DF80B00FFE79DF80B0003B0EA
:104800007047000080B586B00490039100208DF8B9
:104810000B00FFE7049890F83C00012804D1FFE763
:1048200002208DF81700ABE00499012081F83C00CC
:10483000FFE7FFE70499022081F83D000498006833
:1048400080680190019820F077000190019820F491
:104850007F40019001980499096888600398006876
:104860000090002872D0FFE7009810286ED0FFE774
:10487000009820286AD0FFE70098302866D0FFE72C
:104880000098402855D0FFE70098502837D0FFE720
:104890000098602840D0FFE7009870280BD0FFE711
:1048A0000098B0F5805F05D0FFE70098B0F5005F95
:1048B00016D052E055E004980068039B5A68996846
:1048C000DB6803F0C5FC04980068806801900198DB
:1048D00040F077000190019804990968886040E0F1
:1048E00004980068039B5A689968DB6803F0B0FC81
:1048F00004980168886840F48040886031E004983A
:104900000068039A5168D26803F0D2FC04980068EA
:10491000502103F0B7FC24E004980068039A516822
:10492000D26803F0EDFC04980068602103F0AAFC53
:1049300017E004980068039A5168D26803F0B8FC45
:1049400004980068402103F09DFC0AE00498006888
:104950000399096803F096FC03E001208DF80B0031
:10496000FFE70499012081F83D00FFE7049900204A
:1049700081F83C00FFE79DF80B008DF81700FFE77A
:104980009DF8170006B080BD81B0009001B070475F
:1049900080B582B0019001980068006900F00201C2
:1049A0000020B0EB510F28D0FFE701980068C068E5
:1049B00000F002010020B0EB510F1DD0FFE701987D
:1049C00001686FF0020008610199012008770198E1
:1049D00000688069800720B1FFE70198FFF7D4FFE6
:1049E00006E0019800F012F9019800F013F9FFE7D2
:1049F000019900200877FFE7FFE701980068006948
:104A000000F004010020B0EB910F29D0FFE70198DE
:104A10000068C06800F004010020B0EB910F1ED0C8
:104A2000FFE7019801686FF0040008610199022016
:104A3000087701980068806910F4407F04D0FFE790
:104A40000198FFF7A1FF06E0019800F0DFF8019858
:104A500000F0E0F8FFE7019900200877FFE7FFE7A3
:104A600001980068006900F008010020B0EBD10F48
:104A700028D0FFE701980068C06800F00801002016
:104A8000B0EBD10F1DD0FFE7019801686FF008006F
:104A9000086101990420087701980068C0698007BF
:104AA00020B1FFE70198FFF76FFF06E0019800F0E3
:104AB000ADF8019800F0AEF8FFE701990020087703
:104AC000FFE7FFE701980068006900F0100100208F
:104AD000B0EB111F29D0FFE701980068C06800F013
:104AE00010010020B0EB111F1ED0FFE701980168F4
:104AF0006FF010000861019908200877019800689C
:104B0000C06910F4407F04D0FFE70198FFF73CFF35
:104B100006E0019800F07AF8019800F07BF8FFE7D2
:104B2000019900200877FFE7FFE701980068006916
:104B3000C00780B1FFE701980068C068C00748B1AE
:104B4000FFE7019801686FF001000861019800F02B
:104B500065F8FFE7FFE7019800680069C1B200202F
:104B6000B0EBD11F13D0FFE701980068C068C1B255
:104B70000020B0EBD11F09D0FFE7019801686FF06A
:104B8000800008610198FFF743FCFFE7FFE7019809
:104B90000068006900F040010020B0EB911F14D0C4
:104BA000FFE701980068C06800F040010020B0EB0A
:104BB000911F09D0FFE7019801686FF0400008617C
:104BC000019800F09FF8FFE7FFE70198006800698F
:104BD00000F020010020B0EB511F14D0FFE7019836
:104BE0000068C06800F020010020B0EB511F09D020
:104BF000FFE7019801686FF0200008610198FFF756
:104C00000BFCFFE7FFE702B080BD000081B0009021
:104C100001B0704781B0009001B0704780B586B098
:104C2000059005980068B0F1804F21D1FFE740F270
:104C3000E030C2F20000049040F24411C2F20001E0
:104C4000FCF74AF80499B1F92020B1F9D430B1F950
:104C50008801B1F93CC26946C1F804C0086040F659
:104C60007C10C2F200004FF40071FBF77FFFFFE7FA
:104C70000598006840F60001C4F20001884224D182
:104C8000FFE740F2B060C2F20000039040F244112E
:104C9000C2F20001FCF770FB0398B0F92030B0F9C4
:104CA000D420694600204860086040F6A410C2F293
:104CB000000040F2FF11FBF759FF039940F638005E
:104CC000C2F2000003F0EAFFFFE70598006841F236
:104CD0000001C4F20001884201D1FFE7FFE7059817
:104CE000006844F20001C4F20101884207D1FFE7E5
:104CF00040F24410C2F2000001F0CEFAFFE706B025
:104D000080BD000081B0009001B0704782B001907A
:104D1000ADF8021002B0704780B584B00390002057
:104D20000290039800684069C0B2C00902900398DD
:104D300090F83D00212823D1FFE7029800B3FFE758
:104D4000FFE7FFE70398006850E8050F20F08000B8
:104D50000190FFE701990398026842E805100028D6
:104D6000F0D1FFE7FFE70398406B28B1FFE7039816
:104D7000406BFDF7A3FAFFE7039803F071FCFFE730
:104D8000039800684069C0F380100290039890F87F
:104D90003E00222823D1FFE7029800B3FFE7FFE798
:104DA000FFE70398006850E8050F20F040000090EE
:104DB000FFE700990398026842E805100028F0D147
:104DC000FFE7FFE70398806B28B1FFE70398806B4C
:104DD000FDF774FAFFE7039803F0E4FBFFE7002018
:104DE00004B080BD81B0009001B0704780B592B032
:104DF0001190119800680068109011980068C068C0
:104E00000F901198006840690E9000200D900C9052
:104E1000109800F00F000D900D9888B9FFE79DF8ED
:104E20004000800600280AD5FFE79DF83C00800678
:104E3000002804D5FFE7119803F02EFCE3E1FFE71B
:104E40000D98002800F0C280FFE79DF83800C007E9
:104E500038B9FFE7BDF83C0010F4907F00F0B68051
:104E6000FFE79DF84000C00758B1FFE79DF83D00FF
:104E7000C00730B1FFE71199086C40F001000864E9
:104E8000FFE79DF84000400700280BD5FFE79DF89D
:104E90003800C00730B1FFE71199086C40F00200FC
:104EA0000864FFE79DF84000800700280BD5FFE766
:104EB0009DF83800C00730B1FFE71199086C40F049
:104EC00004000864FFE79DF840000007002811D5A2
:104ED000FFE79DF83C008006002805D4FFE79DF819
:104EE0003800C00730B1FFE71199086C40F00800A6
:104EF0000864FFE71198006C002866D0FFE79DF872
:104F00004000800600280AD5FFE79DF83C00800697
:104F1000002804D5FFE7119803F0BEFBFFE71198C6
:104F200000684069C0F380100C901198006C000775
:104F3000002804D4FFE70C9800283ED0FFE7119822
:104F400003F030FB119800684069400600282FD517
:104F5000FFE7FFE7FFE71198006850E8050F20F032
:104F600040000B90FFE70B991198026842E805108A
:104F70000028F0D1FFE7FFE71198806B98B1FFE7B9
:104F80001198816B48F25530C0F600000865119801
:104F9000806BFDF709FA28B1FFE71198806B016D6E
:104FA0008847FFE703E01198FFF71CFFFFE703E0E6
:104FB0001198FFF717FFFFE706E01198FFF712FFC0
:104FC000119900200864FFE7FFE71CE11198006BCE
:104FD000012840F0F880FFE79DF84000C006002857
:104FE00040F1F180FFE79DF83C00C006002840F149
:104FF000EA80FFE7FFE700200A9011980068006848
:105000000A901198006840680A900A98FFE7119882
:1050100000684069400600287ED5FFE71198806B44
:1050200000684068ADF82600BDF82600002872D060
:10503000FFE7BDF826001199898D88426BDAFFE7FA
:10504000BDF826001199C8851198806BC069B0F52C
:10505000807F58D0FFE7FFE7FFE71198006850E82E
:10506000030F20F480700890FFE7089911980268F8
:1050700042E803100028F0D1FFE7FFE7FFE7FFE772
:105080001198006850E8050F20F001000790FFE735
:1050900007991198026842E805100028F0D1FFE74F
:1050A000FFE7FFE7FFE71198006850E8050F20F0E1
:1050B00040000690FFE706991198026842E8051043
:1050C0000028F0D1FFE7FFE71199202081F83E008A
:1050D000119900200863FFE7FFE71198006850E886
:1050E000030F20F010000590FFE705991198026862
:1050F00042E803100028F0D1FFE7FFE71198806B2A
:10510000FDF7DCF8FFE71198818DC28D891A89B20D
:10511000FFF7FCFDFFE776E01199888DC98D401AF5
:10512000ADF812001198C08D00284BD0FFE7BDF8F4
:105130001200002846D0FFE7FFE7FFE7119800685C
:1051400050E8030F20F490700390FFE70399119843
:10515000026842E803100028F0D1FFE7FFE7FFE70D
:10516000FFE71198006850E8050F20F00100029059
:10517000FFE702991198026842E805100028F0D173
:10518000FFE7FFE71199202081F83E0011990020E8
:105190000863FFE7FFE71198006850E8030F20F06D
:1051A00010000190FFE701991198026842E803108E
:1051B0000028F0D1FFE7FFE71198BDF81210FFF7C4
:1051C000A5FDFFE71FE09DF84000000600280AD576
:1051D000FFE79DF83C000006002804D5FFE7119882
:1051E00003F036FC0FE09DF84000400600280AD589
:1051F000FFE79DF83C004006002804D5FFE7119822
:1052000003F01AFAFFE712B080BD000080B582B04B
:105210000090009820B9FFE701208DF807003EE0DC
:105220000098806908B1FFE700E0FFE7009890F878
:105230003D0040B9FFE70099002081F83C0000984C
:1052400000F032F8FFE70099242081F83D00009833
:105250000168C86820F40050C860009803F0CEFAD6
:1052600000980168086920F490400861009801687E
:10527000486920F02A00486100980168C86840F435
:105280000050C860009900200864009A202182F82C
:105290003D10009A82F83E108DF80700FFE79DF858
:1052A000070002B080BD000080B59AB019900020C0
:1052B000189017901690159014901998006841F264
:1052C0000001C4F20101884240F0B680FFE7FFE729
:1052D0000020139043F64400C4F20200016841F03C
:1052E00010010160006800F0100013901398FFE7B0
:1052F000FFE70020129043F63000C4F2020001687C
:1053000041F002010160006800F002001290129862
:10531000FFE7FFE70020119043F63000C4F20200DF
:10532000016841F001010160006800F00100119086
:105330001198FFE78020149002200790159000201C
:105340000B90169003200890179007200990189052
:1053500040F20040C4F2020014A90A91FDF712FBCA
:10536000DDF81CC0089A09980A990B9B4FF4007E3F
:10537000CDF850E0CDF854C0169317921890002045
:10538000C4F20200FDF7FEFA0B9940F6EC20C2F2DF
:1053900000000C9046F2B842C4F2020202604FF0E4
:1053A0000062426040228260C1604FF4806202610C
:1053B00041618161C1614FF4003202624162FDF7D7
:1053C000A5F918B1FFE7FBF7CFFFFFE7FFE7199853
:1053D00040F6EC21C2F20001416319988863FFE7AF
:1053E00040F68C20C2F20000069046F28841C4F2DA
:1053F000020101604FF00061416000218160C160E5
:105400004FF48062026141618161C1614FF40032F9
:1054100002624162FDF77AF918B1FFE7FBF7A4FFDA
:10542000FFE7FFE7199840F68C21C2F20001816383
:1054300019988863FFE70DE11998006844F60001A8
:10544000C4F2000188426AD1FFE7FFE70020109014
:1054500043F64000C4F20200016841F4802101607B
:10546000006800F4802010901098FFE7FFE700200C
:105470000F9043F63000C4F20200016841F00401CD
:105480000160006800F004000F900F98FFE74FF4F0
:105490004060149002201590002004901690032084
:1054A00017900720189040F60000C4F2020014A9DB
:1054B000FDF768FA049940F64C30C2F200000590FE
:1054C00046F22802C4F2020202604FF0006242601B
:1054D0008160C1604FF48062026141618161C1619C
:1054E0004FF4403202624162FDF710F918B1FFE754
:1054F000FBF73AFFFFE7FFE7199840F64C31C2F29D
:105500000001816319988863FFE727200390062133
:105510000022FDF7C3FC0398FDF7B6FC99E019984B
:10552000006841F20041C4F20101884240F09080DD
:10553000FFE7FFE700200E9043F64400C4F20200AC
:10554000016841F020010160006800F020000E9029
:105550000E98FFE7FFE700200D9043F63000C4F2FD
:105560000200016841F040010160006800F0400065
:105570000D900D98FFE74FF4844014900220159091
:10558000002001901690032017900820189041F6F3
:105590000000C4F2020014A9FDF7F4F9019940F6E5
:1055A000AC30C2F20000029046F24042C4F2020265
:1055B00002604FF0206242608160C1604FF48062FF
:1055C000026141618161C1614FF400320262416256
:1055D000FDF79CF818B1FFE7FBF7C6FEFFE7FFE712
:1055E000199840F6AC31C2F20001816319988863C2
:1055F000FFE740F60C40C2F20000009046F2A041E6
:10560000C4F2020101604FF02061416040218160DD
:105610000021C1604FF480620261416181614FF4F9
:105620008072C2614FF4003202624162FDF76EF88F
:1056300018B1FFE7FBF798FEFFE7FFE7199840F680
:105640000C41C2F20001416319988863FFE7FFE74C
:10565000FFE7FFE71AB080BD80B584B002900191EA
:10566000ADF80220029890F83E00202828D1FFE7EC
:10567000019820B1FFE7BDF8020020B9FFE7012043
:105680008DF80F0020E0FFE7029890F83C00012819
:1056900004D1FFE702208DF80F0015E002990120E8
:1056A00081F83C00FFE7FFE70299002008630298B9
:1056B0000199BDF8022003F03FF98DF80F0003E0D7
:1056C00002208DF80F00FFE79DF80F0004B080BDA9
:1056D00081B0009001B0704781B0009001B0704778
:1056E00080B586B004900391ADF80A20049890F834
:1056F0003D00202874D1FFE7039820B1FFE7BDF8F3
:105700000A0020B9FFE701208DF817006CE0FFE7E1
:10571000049890F83C00012804D1FFE702208DF89E
:10572000170061E00499012081F83C00FFE7FFE7E2
:10573000039804990862BDF80A0004998884BDF8AA
:105740000A000499C884049900200864049A21215D
:1057500082F83D1004994A6B48F21151C0F60001DD
:10576000D16304994A6B48F28D51C0F6000111646F
:1057700004994A6B48F27531C0F60001D16404996E
:10578000496B086503A8019004980268406B019971
:1057900009680432BDF80A30FDF770F80498016812
:1057A0006FF040000860FFE70499002081F83C009A
:1057B000FFE7FFE7FFE70498006850E8050F40F0B7
:1057C00080000090FFE700990498026842E8051005
:1057D0000028F0D1FFE7FFE700208DF8170003E075
:1057E00002208DF81700FFE79DF8170006B080BD76
:1057F00081B0009001B0704781B0009001B0704757
:10580000FFE7FEE780B584B08DED030ACDED020A17
:105810008DED011A9DED030ADDED020A03F0DEFDB8
:105820008DED030A9DED030A9DED011AB4EE410AC8
:10583000F1EE10FA09DAFFE79DED021A9DED030A79
:1058400030EE010A8DED030AFFE79DED030A04B077
:1058500080BD00000000000080B588B007908DED8D
:10586000060A079805900068FAF7CEFE41EC100B87
:105870008DED000B0698FAF7C7FE41EC100B9FED7B
:10588000161B53EC112B51EC100BFAF795FD9DED07
:10589000000B41EC110B8DED021B9FED111B53EC26
:1058A000112B51EC100BFAF787FD9DED020B53EC19
:1058B000102B41EC100B51EC100BFAF7D6FC41EC1D
:1058C000100B51EC100BFAF7B2FE0599086008B006
:1058D00080BD00BF00BF00BF285C8FC2F528CC3F51
:1058E000F6285C8FC2F5E83F82B0019000910199E3
:1058F0000889C88001998889488100980178407892
:1059000040EA01200199088100988178C07840EA36
:1059100001200199888100980179407940EA0120AD
:105920000199C881009880790199488402B0704734
:1059300081B000900098B0F90610B0F90800401A44
:1059400010F5805F05DAFFE70099C88A0130C88248
:10595000FFE70098B0F90610B0F90800401AB0F55A
:10596000805F05DDFFE70099C88A0138C882FFE73C
:105970000099B1F90800B1F9162000EB423000F5AA
:105980000050086101B0704780B582B040F67C10CD
:10599000C2F20000019046F20041C4F20001016031
:1059A0000321416000218160C1604FF4C022026187
:1059B0004FF4A00242610176417681760122C276DF
:1059C00001774177FCF73CFA18B1FFE7FBF7CCFC15
:1059D000FFE702B080BD000080B582B040F6A410A1
:1059E000C2F20000019046F60001C4F2000101601D
:1059F0000321416000218160C1604FF4C022026137
:105A00004FF4A00242610176012242768176C2768D
:105A100001774177FCF714FA18B1FFE7FBF7A4FC14
:105A2000FFE702B080BD000080B58AB0FFE700202C
:105A3000099043F63000C4F20200016841F480018D
:105A40000160006800F4800009900998FFE7FFE713
:105A50000020089043F63000C4F20200016841F4CF
:105A600000110160006800F4001008900898FFE73A
:105A70000C200090002206921146FDF70FFA0098C4
:105A8000FDF702FA069A382001901146FDF706FA52
:105A90000198FDF7F9F9069A3A2002901146FDF7B0
:105AA000FDF90298FDF7F0F9069A3B2003901146A4
:105AB000FDF7F4F90398FDF7E7F9069A44200490FE
:105AC0001146FDF7EBF90498FDF7DEF9069A45203B
:105AD00005901146FDF7E2F90598FDF7D5F9069A0C
