:020000040800F2
:10000000B87300209D010008C9A30008CD7B00083B
:10001000C5A3000889110008A90F0108000000000D
:1000200000000000000000000000000001C2000805
:10003000D91E000800000000E1AD0008D5C200088C
:10004000B7010008B7010008B7010008B7010008B0
:10005000B7010008B7010008B7010008B7010008A0
:10006000B7010008B7010008B7010008B701000890
:10007000D11C0008B7010008B7010008B70100084B
:10008000B7010008B7010008B7010008B701000870
:100090008D110008B7010008B7010008B70100087A
:1000A000BDC30008CDC30008B7010008B7010008B0
:1000B000DDC30008EDC30008FDC30008B701000858
:1000C000B7010008B7010008B7010008B701000830
:1000D000B7010008ADD30008B7010008C9D3000874
:1000E000B7010008B7010008B7010008B701000810
:1000F000B7010008B7010008B7010008B701000800
:10010000B7010008B7010008B7010008B7010008EF
:10011000B7010008B7010008B7010008B7010008DF
:10012000E11C0008B7010008F11C0008011D0008CF
:10013000B7010008B7010008B7010008B7010008BF
:100140009D110008B7010008B701000839A4000894
:10015000111D0008211D0008311D000801D40008F0
:10016000B7010008B7010008B7010008B70100088F
:10017000B7010008B7010008B7010008000000003F
:10018000B7010008B7010008DFF80CD000F0DAFB77
:100190000048004715240108B8730020064880472E
:1001A00006480047FEE7FEE7FEE7FEE7FEE7FEE75C
:1001B000FEE7FEE7FEE7FEE7A9C3000889010008A5
:1001C0002DE9F05F0546002092469B46884606468C
:1001D000814640241BE0284641464746224600F01F
:1001E000CAFA53465A46C01A914110D311461846CE
:1001F000224600F0B1FA2D1A67EB01084F4622465D
:100200000120002100F0A8FA17EB00094E41201E42
:10021000A4F10104DFDC484631462A464346BDE8E6
:10022000F09F40EA01039B0703D009E008C9121FB1
:1002300008C0042AFAD203E011F8013B00F8013BA0
:10024000521EF9D27047D2B201E000F8012B491ECC
:10025000FBD270470022F6E710B513460A46044663
:100260001946FFF7F0FF204610BD2DE9FE4F8046EE
:1002700081EA0300C00F0C46009021F0004123F0FA
:100280000045B8EB0200A94105D240462146904600
:100290001C460B46024623F00040104347D0270D72
:1002A000C7F30A00C3F30A510290401A0190402894
:1002B0006BDAC3F3130040F4801B0098924620B120
:1002C0000023D2EB030A63EB0B0B01985946C0F1F4
:1002D0004002504600F040FA06460D465046594648
:1002E000019A00F058FA10EB08006141002487EAF7
:1002F000115284EAE7731A4340D0009A62B3019A1C
:10030000012A4FEA075215DC001B61EB02014FF096
:10031000004202EA0752CDE90042001C41F580117B
:1003200032462B4600F08FFA03B0BDE8F08F40460E
:100330002146F9E7001B61EB0201001C41F5801327
:1003400000185B412018A2F5001747EB030140EAB3
:10035000D570B6196D4111E06D084FEA360645EAD1
:10036000C0754FEA0752001B61EB0201001C41F50A
:10037000801149084FEA30000019514132462B469E
:1003800003B0BDE8F04F00F04FBA009801224000E2
:100390000023D0EB020263EBE073009821464FEAA2
:1003A000E074B8EB000061EB0401E9E783F000437F
:1003B0005BE781F0004158E72DE9FE4F81EA030435
:1003C00004F0004421F0004100944FF0000B23F0B2
:1003D000004350EA01045ED052EA03045BD0C3F349
:1003E0000A54C1F30A552C44A4F2F3340194A0FB3F
:1003F0000254C1F3130141F48011C3F3130343F416
:10040000801301FB024400FB034E840A970A44EA6E
:10041000815447EA8357A4FB076802958D0A05FBC0
:1004200007854FEA932C04FB0C542705029D4FEAE5
:10043000065847EA1637B5EB08056EEB070C870E32
:10044000920E47EA811742EA8312A7FB0201B6EB3C
:100450000B0164EB00042B0D43EA0C335E1844EBF4
:100460001C50DA465146E7FB0201C5F313044FEA7C
:100470000B3343EA14534FEA0432019C43EA060368
:10048000A4F10C040294009CCDE900B400F0DBF967
:1004900003B0BDE8F08F00200146F9E72DE9F04DEB
:1004A00081EA030404F0004B21F0004514464FF0AC
:1004B000000A23F0004150EA050220D054EA01026C
:1004C0001DD0C5F30A570246C5F31303C1F3130049
:1004D000C1F30A5640F4801543F48013A7EB0608D5
:1004E000101BD64608F2FD3873EB050002D308F165
:1004F000010801E092185B41B8F1000F03DA002017
:100500000146BDE8F08D00204FF480110646844678
:100510000EE0171B73EB050705D3121B63EB0503F6
:1005200006434CEA010C49084FEA300092185B413F
:1005300050EA0107EDD152EA030012D082EA04002A
:1005400083EA0501084305D0101BAB4106D2012206
:10055000002306E000224FF0004302E06FF00102AA
:1005600053101AEB06004CEB085110EB0A0041EB5C
:100570000B01BDE8F04D00F057B930B5041E71F124
:10058000000404DB4FF00044404264EB0101141E00
:1005900073F1000405DB1C464FF00043524263EB4D
:1005A0000403801A994101D3012030BD002030BDE1
:1005B00030B5041E71F1000404DB4FF000444042EA
:1005C00064EB0101141E73F1000405DB1C464FF0BF
:1005D0000043524263EB0403101A8B4101D2012005
:1005E00030BD002030BD30B5041E71F1000404DBC5
:1005F0004FF00044404264EB0101141E73F100040B
:1006000005DB1C464FF00043524263EB0403101A13
:100610008B4101D3012030BD002030BD30B5041E18
:1006200071F1000404DB4FF00044404264EB01012F
:10063000141E73F1000405DB1C464FF000435242C8
:1006400063EB040342404B401A4301D0002030BD0D
:10065000012030BD0EB5C10F80EAE0700844CA0722
:10066000002140F233438DE80E000A460B4600F0AD
:10067000EAF803B000BD0EB540F23341029100210B
:10068000CDE900110A460B4600F0DDF803B000BDCD
:1006900070B5C1F30A5201F000450024C1F3130103
:1006A00040F2FF3341F480119A4201DA002070BD1C
:1006B00040F233439A42A2F2334203DC524200F04A
:1006C0005AF800E090402C43F1D0404270BD00F059
:1006D000004230F000400AD0C10D01F56071C0F356
:1006E000160042EA0151C20840071143704700203A
:1006F0000146704701F0004330B421F0004150EA58
:10070000010206D00A0DA2F56072C1F31301002A9E
:1007100002DC30BC00207047440F44EAC104C10031
:10072000E01830BC00EBC25000F047B830B50B46C3
:10073000014600202022012409E021FA02F59D4211
:1007400005D303FA02F5491B04FA02F52844151EE5
:10075000A2F10102F1DC30BD202A04DB203A00FACC
:1007600002F1002070479140C2F1200320FA03F308
:10077000194390407047202A04DB203A21FA02F006
:100780000021704721FA02F3D040C2F120029140CB
:10079000084319467047202A06DBCB17203A41FA56
:1007A00002F043EAE07306E041FA02F3D040C2F1FE
:1007B000200291400843194670470029A8BF70479E
:1007C000401C490008BF20F00100704710B4B0FA87
:1007D00080FC00FA0CF050EA010404BF10BC704722
:1007E00049B1CCF1200421FA04F411FA0CF118BF3C
:1007F000012121430843A3EB0C01CB1D4FEA00610B
:100800004FEA102042BF002010BC704700EBC350DD
:1008100010440029A4BF10BC7047401C490008BF09
:1008200020F0010010BC704710B5141E73F10004D5
:1008300008DA401C41F1000192185B411A4301D1D2
:1008400020F0010010BD2DE9F04D92469B4611B1FC
:10085000B1FA81F202E0B0FA80F220329046FFF75E
:100860007BFF04460F4640EA0A0041EA0B0153466B
:100870005A46084313D0114653EA010019D0C8F173
:1008800040025046FFF777FF05460E465046594650
:100890004246FFF761FF084305D0012004E02046EF
:1008A0003946BDE8F08D0020054346EAE0762C434A
:1008B00037430A986305E40AA0EB08000022FD0A0A
:1008C00044EA47540A3002D500200146E9E7010511
:1008D00010196941DDE9084500196941BDE8F04D8D
:1008E000A2E7C1F30A52C1F3130140F2FF3341F40E
:1008F00080119A4202DA00200146704740F23343E9
:100900009A42A2F2334202DC5242FFF734BFFFF7B1
:1009100023BF000030B5041E71F1000404DB4FF06A
:100920000044404264EB0101141E73F1000405DB36
:100930001C464FF00043524263EB0403994208BF48
:10094000904230BD064C074D06E0E06840F00103E0
:1009500094E8070098471034AC42F6D3FFF718FC30
:10096000EC5E01080C5F010870B58C1810F8015B93
:1009700015F0070301D110F8013B2A1106D110F838
:10098000012B03E010F8016B01F8016B5B1EF9D13C
:100990002B0705D40023521E0DD401F8013BFAE7C2
:1009A00010F8013BCB1A921C03E013F8015B01F82D
:1009B000015B521EF9D5A142D8D3002070BD0000C2
:1009C00080B584B003900291039890ED5E0AB8EE72
:1009D000C00A40F24C40C2F2000090ED601A30EEC6
:1009E000410AB5EE400AF1EE10FA10DDFFE7039878
:1009F00090ED5E0AB8EEC00A40F24C40C2F2000030
:100A000090ED601A30EE410A8DED010A12E0039874
:100A1000D0F87801404200EE100AB8EEC00A40F269
:100A20004C40C2F2000090ED601A30EE410A8DEDAC
:100A3000010AFFE79DED010A9FED351AB4EE410A68
:100A4000F1EE10FA07DAFFE740F2E021C2F200010E
:100A500000204875FFE740F2E020C2F2000090F964
:100A6000150068B9FFE7039800F5B470029900F02B
:100A700097F840F24C40C2F2000080ED600AFFE7B8
:100A800040F24C40C2F2000000F5B47000F0F2F801
:100A9000F8B9FFE7039890ED5E0AB8EEC01A40F28D
:100AA000E021C2F2000191ED020A91F9042002EE68
:100AB000102AB8EEC22A20EE020A30EE000A30EE0A
:100AC000010A80ED600A0879404208710020086040
:100AD000FFE7039800F01EF8B1EE400A039880ED9E
:100AE000060A0398B43000F015F8039880ED330A35
:100AF000039809F0EBFF0398B43009F0E7FF03987F
:100B000000F5B47009F064FE012004B080BD00BFA0
:100B10000000484281B0009040F23030C2F2000044
:100B2000007B012808D0FFE740F23030C2F200001D
:100B3000007B022808D1FFE740F2E020C2F200006B
:100B4000C0680099886103E0009900208861FFE790
:100B5000009890ED060A01B07047000081B0009047
:100B600040F2E022C2F20002002111600020C4F233
:100B70001070906048F20000C4F2BB50D0600120B9
:100B80001071009A9161009AC2F8CC10009991ED11
:100B90005E0AB8EEC00A81ED600A01B0704700003D
:100BA00083B00190009140F2E020C2F2000090F981
:100BB000140008BBFFE740F2E021C2F2000101206F
:100BC00008610098007B022807D1FFE740F2E0218E
:100BD000C2F20001012008750DE00098007B032897
:100BE00008D1FFE740F2E021C2F2000100200875C1
:100BF0000861FFE7FFE71AE040F2E020C2F20000E0
:100C000090F91400012811D1FFE70098007B032818
:100C100008D1FFE740F2E021C2F200010020087590
:100C20000861FFE70198806902901EE0FFE70098E5
:100C3000407BB0B1FFE7019890ED040AB8EEC00A1E
:100C400040F2E021C2F2000191ED021A91ED042A76
:100C5000B8EEC22A21EE021A30EE410A80ED060AF1
:100C6000FFE7019880690290FFE79DED020A03B05B
:100C70007047000086B00490049890ED041A90ED3F
:100C8000060AB8EEC11A30EE410A8DED030A40F2B1
:100C9000E020C2F2000090ED020A9FED471A80EEBC
:100CA000010AB5EE400AF1EE10FA0DDDFFE740F261
:100CB000E020C2F2000090ED020A9FED3F1A80EEA4
:100CC000010A8DED010A0CE040F2E020C2F20000C2
:100CD00090ED020A9FED391A80EE010A8DED010AAE
:100CE000FFE79DED010A8DED020A9DED030AB5EEC9
:100CF000400AF1EE10FA08DDFFE79DED030AB5EEBC
:100D0000400AF1EE10FA17D148E09DED030AB1EE6A
:100D1000402A9DED023AB7EE001A9FED290AB4EE83
:100D2000432AF1EE10FAA8BFB0EE410AB5EE400A30
:100D3000F1EE10FA32D0FFE70498B0F90C00012868
:100D400005DBFFE70498B0F90C00009005E004987B
:100D5000B0F90C0040420090FFE7009814281DDC19
:100D6000FFE740F2E020C2F20000006864280ADBDE
:100D7000FFE740F2E021C2F20001012048750020A7
:100D80008DF8170014E040F2E021C2F2000108687B
:100D90000130086001208DF8170009E040F2E021E1
:100DA000C2F200010020086001208DF81700FFE763
:100DB0009DF8170006B0704700009643000096C3E8
:100DC0000000000080B50020C4F2020010210122C2
:100DD00002F05EFE80BD000080B50020C4F202007B
:100DE0001021002202F054FE80BD00007047000078
:100DF00080B540F20040C4F202000122114602F028
:100E000047FE80BD80B540F20040C4F202000121DF
:100E1000002202F03DFE80BD7047000080B582B028
:100E2000ADF80600FFE7BDF80600411EADF806105C
:100E300028B1FFE74FF47A7000F004F8F3E702B04E
:100E400080BD000086B0ADF816000020049003902D
:100E50000290019000904EF21400CEF20000006863
:100E60000090BDF81600A821484304904EF21800E7
:100E7000CEF2000000680390FFE74EF21800CEF2B9
:100E80000000006802900298039988421ED0FFE794
:100E900002980399884207D2FFE703980299411A02
:100EA00001980844019008E000980299401A0399BB
:100EB0000144019808440190FFE7029803900198CB
:100EC0000499884201D3FFE701E0FFE7D5E706B0C8
:100ED0007047000080B582B000208DF80700FFF752
:100EE00085FFFFF799FF11F0BFF801469DF8070055
:100EF00008438DF8070011F07FF901469DF80700BF
:100F000008438DF807009DF8070002B080BD00007F
:100F100080B588B00790069105920020009004905B
:100F20000390FFF759FF922000F006F9122003A961
:100F30000191062200F0CCF8FFF744FF9DF80C0069
:100F40009DF80D1040EA0120ADF80A00BDF90A0035
:100F500000EE100AB8EEC00A40F20800C2F200002B
:100F600090ED001A20EE010A069981ED000A9DF825
:100F70000E109DF80F2041EA0221ADF80A10BDF9CC
:100F80000A1000EE101AB8EEC00A90ED001A20EE1A
:100F9000010A069981ED010A9DF810109DF81120B3
:100FA00041EA0221ADF80A10BDF90A1000EE101A4C
:100FB000B8EEC00A90ED001A20EE010A069880ED06
:100FC000020AFFF71FFF00980199082200F080F83D
:100FD000FFF70EFF9DF80C000F2844D1FFE79DF8A6
:100FE0000E009DF80F1040EA0120ADF80A00BDF98F
:100FF0000A0000EE100AB8EEC00A40F20C00C2F27D
:10100000000090ED001A20EE010A079981ED000A18
:101010009DF810109DF8112041EA0221ADF80A1048
:10102000BDF90A1000EE101AB8EEC00A90ED001AD1
:1010300020EE010A079981ED010A9DF812109DF832
:10104000132041EA0221ADF80A10BDF90A1000EEA2
:10105000101AB8EEC00A90ED001A20EE010A0798A7
:1010600080ED020AFFE7FFF7B7FEA22000F064F868
:10107000222003A9022200F02BF8FFF7A3FE9DF81F
:101080000C009DF80D10C00040EA5110ADF80A00A8
:10109000BDF90A00B0F5806F07DBFFE7BDF80A0075
:1010A000A0F50060ADF80A00FFE7BDF90A0000EE08
:1010B000100AB8EEC00AB4EE001A20EE010AB3EE30
:1010C000071A30EE010A059880ED000A08B080BDCD
:1010D00080B584B08DF80F0002918DF807209DF83F
:1010E0000F0040F0800000F027F8FFE79DF80700B0
:1010F00070B1FFE7552000F01FF8029908700298C0
:10110000013002909DF8070001388DF80700EDE7E7
:1011100004B080BD80B582B08DF8070000919DF8C5
:10112000070040F0800000F007F8552000F004F8B8
:101130000099087002B080BD80B582B08DF80700BC
:1011400069464FF47A70086042F65040C2F20000DF
:101150000DF107010DF10602012304F0B3FD9DF826
:10116000060002B080BD000080B582B08DF8070097
:101170008DF806109DF80700FFF7DEFF9DF80600CA
:10118000FFF7DAFF02B080BDFFE7FEE780B542F26D
:101190005440C2F2000001F005FB80BD80B542F270
:1011A0007C40C2F2000001F0FDFA80BD80B588B03D
:1011B000079006910798006846F20041C4F20001CA
:1011C00088423FD1FFE70698A0F201200146059131
:1011D000032835D80599DFE801F0020D192640F201
:1011E0006860C2F2000040F21431C2F2000108F05F
:1011F000E9FC26E040F26860C2F20000B43040F240
:101200001431C2F2000108F0DDFC1AE040F268601F
:10121000C2F2000000F5B47040F21431C2F20001D5
:1012200008F0D0FC0DE040F26860C2F2000000F56A
:10123000077040F21431C2F2000108F0C3FC00E074
:10124000FFE7FFE70798006846F60001C4F20001D7
:10125000884256D1FFE70698A0F20120014604918A
:1012600005284CD80499DFE801F0222D394A1203F1
:1012700040F63810C2F20000039040F21431C2F27E
:10128000000108F09FFC039808F0C0FC38E040F62D
:101290003810C2F20000B430029040F21431C2F2B1
:1012A000000108F08FFC029808F0B0FC28E040F242
:1012B0004C40C2F2000040F21431C2F2000108F0CA
:1012C00081FC1DE040F24C40C2F20000B43040F21C
:1012D0001431C2F2000108F075FC11E040F24C40FC
:1012E000C2F2000000F5B470019040F21431C2F275
:1012F000000108F067FC019808F088FC00E0FFE7B7
:10130000FFE708B080BD000010B58EB08C46864661
:1013100011981099CDF834E0ADF832C0ADF8302016
:10132000ADF82E30ADF82C10ADF82A000020019059
:10133000BDF932100491059008210891069007909C
:101340009DF831008DF808009DF830008DF80900F7
:101350009DF82F008DF80A009DF82E008DF80B00E7
:101360009DF82D008DF80C009DF82C008DF80D00D7
:101370009DF82B008DF80E009DF82A008DF80F00C7
:101380000D9804A902AA01AB00F086FF0EB010BDB3
:1013900080B58AB00121089100200490009001904E
:1013A00002900390069007910E210991059042F258
:1013B0005440C2F20000694601F026F818B1FFE778
:1013C00000F08CFDFFE742F25440C2F2000001F051
:1013D000BDFD18B1FFE700F081FDFFE742F2544088
:1013E000C2F20000022100F02DFF18B1FFE700F06B
:1013F00075FDFFE742F25440C2F20000012100F007
:1014000021FF18B1FFE700F069FDFFE70E2009900A
:10141000059042F27C40C2F20000694600F0F4FF01
:1014200018B1FFE700F05AFDFFE742F27C40C2F23C
:10143000000001F08BFD18B1FFE700F04FFDFFE762
:1014400042F27C40C2F20000022100F0FBFE18B123
:10145000FFE700F043FDFFE742F27C40C2F20000EC
:10146000012100F0EFFE18B1FFE700F037FDFFE7C4
:101470000AB080BD84B08DF80F000291ADF806204F
:101480009DF80F000146009123281DD80099DFE840
:1014900001F012131415161B1B1B1B1B1B1B1B1B04
:1014A0001B1B1B1B1B1B1B1B1B1B1B1B1B1B1B1B8C
:1014B0001B1B1718191A08E007E006E005E004E016
:1014C00003E002E001E000E0FFE7002004B0704725
:1014D0000020704780B582B042F27810C2F200005E
:1014E000009041F61411C2F20001002201920CF0AA
:1014F00063FB009841F21411C2F200010CF03EFBB4
:10150000019802B080BD000080B584B003900291C4
:10151000039942F27810C2F2000001900CF02EFB09
:1015200001980CF0D1FA002004B080BD83B0029085
:1015300001918DF8032000208DF802009DF9020032
:1015400003B070470000000080B5A8B02790269136
:10155000002025902490239045F28042C0F601029D
:10156000116852682292219120901F901D901C902A
:101570002698B0F9020000EE100AB8EEC00A8DED10
:10158000250A2698B0F9040000EE100AB8EEC00A49
:101590008DED240A2698407B032806D0FFE7269885
:1015A000407B012840F0A380FFE740F63810C2F2EC
:1015B0000000B0F9081000EE101AB8EEC00A90ED65
:1015C000091AB8EEC11A30EE410A10EE100AFFF700
:1015D0007EF841EC100B40F2D820C2F2000080ED02
:1015E000000B2698B0F9060000EE100AB8EEC00A0B
:1015F000B1EE001A20EE010A10EE100AFFF767F8AC
:1016000041EC100B8DED1C0B40F6DC40C2F20000EB
:1016100090ED040AB7EE001AB4EE410AF1EE10FAAA
:1016200061D1FFE740F2D820C2F2000090ED000B3C
:101630009FED631B53EC112B51EC100BFEF79DFF3C
:1016400080B9FFE740F2D820C2F2000090ED000B15
:101650009FED5B1B53EC112B51EC100BFEF7DEFFE3
:1016600010B340E040F2D820C2F2000090ED000B31
:101670009FED551B53EC112B51EC100BFEF798FF0F
:1016800002460FF26C4000F10801002A18BF08461C
:1016900090ED000B51EC100B9FED490B53EC102B10
:1016A000FEF7BCFFF8B9FFE740F2D820C2F2000015
:1016B00090ED000B8DED160B9DF85F0080F0800023
:1016C0008DF85F0016981799FFF714F800EE900A4E
:1016D00040F28030C2F200009FED3D0A09F0A0F810
:1016E0008DED230A02E000202390FFE716E0269804
:1016F000407B022811D1FFE700201D901C90269806
:10170000B0F90A0000EE100AB8EEC01AB1EE410AB4
:1017100030EE410A8DED230AFFE7FFE740F638106F
:10172000C2F20000B0F9081000EE101AB8EEC00ABC
:1017300090ED091AB8EEC11A30EE410A10EE100A07
:10174000FEF7C5FF41EC100B40F2D820C2F20000BA
:1017500080ED000B90ED000B9FEDE91B53EC112B7E
:1017600051EC100BFEF709FFC8B9FFE740F2D82093
:10177000C2F20000149090ED000B9FEDE71B53ECBC
:10178000112B51EC100BFEF770FD024614981592C8
:101790000A46159942EC101B80ED000B34E040F234
:1017A000D820C2F2000090ED000B9FEDD71B53EC48
:1017B000112B51EC100BFEF716FF20BB0AE000BF07
:1017C0000000000000000000000000000000008099
:1017D0000000000040F2D820C2F20000129090ED0C
:1017E000000B9FEDCB1B53EC112B51EC100BFEF7B4
:1017F0003CFD0246129813920A46139942EC101BC4
:1018000080ED000BFFE7FFE740F2D820C2F20000B6
:10181000029090ED000B51EC100B9FEDC10B53ECBF
:10182000102B01930092FEF7C7FD009A019B84469E
:101830000298CDF80CC08C4603994CEC101B40F27A
:10184000C821C2F20001059181ED000B90ED000B63
:1018500051EC100BFEF7B0FD41EC100B51EC100BEE
:101860009FEDB10B53EC102BFEF7A6FD0246059839
:1018700004920A46049942EC101B40F2D021C2F2B5
:10188000000181ED000B90ED000B12F049FA059874
:101890008DED1A0B90ED000B12F0A6FA8DED180BE2
:1018A0002498FEF714FF41EC100B8DED080B9DED15
:1018B000180B8DED060B2598FEF709FF41EC100B78
:1018C0009DED1A1B53EC112B51EC100BFEF774FD20
:1018D0009DED061B9DED080B41EC120B8DED0A2BC7
:1018E00053EC112B51EC100BFEF766FD9DED0A0B2E
:1018F00002460B4651EC100B43EC102B53EC102B13
:10190000FEF754FD41EC100B51EC100BFEF7F2FE0C
:1019100020902498FEF7DBFE41EC100B8DED0E0BB2
:101920009DED1A0B8DED0C0B2598FEF7D0FE41ECCA
:10193000100B9DED181B53EC112B51EC100BFEF707
:101940003BFD9DED0C1B9DED0E0B41EC120B8DED47
:10195000102B53EC112B51EC100BFEF72DFD9DEDD0
:10196000100B41EC110B51EC110B53EC102BFEF74B
:101970007CFC41EC100B51EC100BFEF7BBFE1F90F2
:101980009DED200A9DED1F1A30EE410A9DED232AA0
:101990009DED213A9DED221A22EE032A30EE420AF5
:1019A00020EE010A10EE100AFEF791FE41EC110B39
:1019B0009DED1C0B53EC112B51EC100BFEF755FC5D
:1019C00041EC100B51EC100BFEF794FE2799886147
:1019D0009DED200AB1EE400A9DED1F1A30EE410A3E
:1019E0009DED232A9DED213A9DED221A22EE032A38
:1019F00030EE420A20EE010A10EE100AFEF767FEF2
:101A000041EC110B9DED1C0B53EC112B51EC100B09
:101A1000FEF72BFC41EC100B51EC100BFEF76AFEAD
:101A20002799C1F8CC009DED201A9DED1F0A30EEDC
:101A3000410A9DED232A9DED213A9DED221A22EEC9
:101A4000032A30EE420A20EE010A10EE100AFEF7D9
:101A50003EFE41EC110B9DED1C0B53EC112B51EC98
:101A6000100BFEF702FC41EC100B51EC100BFEF7D3
:101A700041FE2799C1F880019DED200A9DED1F1AB6
:101A800030EE010A9DED232A9DED213A9DED221AAB
:101A900022EE032A30EE420A20EE010A10EE100A6E
:101AA000FEF715FE41EC110B9DED1C0B53EC112BB9
:101AB00051EC100BFEF7D9FB41EC100B51EC100B65
:101AC000FEF718FE2799C1F83402279808F0FEFFA8
:101AD0002798B43008F0FAFF279800F5B47008F0A2
:101AE000F5FF279800F5077008F0F0FF28B080BDDB
:101AF0000000000000000000000000000000F03FB7
:101B0000000000000000B040000000000000B0C075
:101B1000000000000000C040000000000000C0C045
:101B200000000060FB21493F000000000000E03F92
:101B300081B0009040F26830C2F200004168C1F309
:101B40000131009A11734168C1F38131009A5173D8
:101B500001686FF3DF21A1F58061009A518001686F
:101B6000C1F3CA21A1F58061009A918001684268A1
:101B7000890D41EA82216FF3DF21A1F58061009A8E
:101B8000D1804168C1F34A01A1F58061009A1181B9
:101B9000018A6FF3DF21A1F58061009A5181817B79
:101BA00001F00103009A92F82A1001F0F0011944A3
:101BB00082F82A10C168C1F34043009A92F82A10B3
:101BC00001F00F0141EA031182F82A10C168C1F344
:101BD0008043009A92F82B1001F0F001194482F82A
:101BE0002B10C168C1F3C043009A92F82B1001F08A
:101BF0000F0141EA031182F82B10C168C1F30053B1
:101C0000009A92F82C1001F0F001194482F82C107F
:101C1000C168C1F38053009A92F82D1001F0F001D1
:101C2000194482F82D10C168C1F3C053009A92F88C
:101C30002D1001F00F0141EA031182F82D10C16847
:101C4000C1F38073009A92F8311001F0F001194449
:101C500082F83110C268102101EAD263009A92F82A
:101C6000311001F00F01194482F83110C168C1F33D
:101C7000C063009A92F82F1001F00F0141EA03119E
:101C800082F82F10C168C1F30073009A92F83010E7
:101C900001F0F001194482F83010C168C1F34073BB
:101CA000009A92F8301001F00F0141EA031182F816
:101CB0003010C068C0F34052009991F82C0000F039
:101CC0000F0040EA021081F82C0001B070470000BC
:101CD00080B542F22460C2F2000001F031FA80BD0A
:101CE00080B542F2A440C2F2000001F029FA80BDA2
:101CF00080B542F28460C2F2000001F021FA80BD9A
:101D000080B542F20450C2F2000001F019FA80BD21
:101D100080B542F26450C2F2000001F011FA80BDB9
:101D200080B542F2E460C2F2000001F009FA80BD21
:101D300080B542F2C450C2F2000001F001FA80BD49
:101D400082B001900198007810384AF6AB21CAF6AB
:101D5000AA21A0FB011000090090009945F2C030B3
:101D6000C0F60100405C0199C8650098042807D3BB
:101D7000FFE701990868042262F30900886506E01C
:101D80000199086840F2FF3290438865FFE70198A7
:101D9000806D02B07047000086B0059000208DF87D
:101DA00013000598806A03900598806910BBFFE7CF
:101DB0000398029003281BD80299DFE801F0020D76
:101DC0000218059890F82F00C00720B1FFE7012006
:101DD0008DF81300FFE70CE00598C06AB0F1C07FF2
:101DE00004D1FFE701208DF81300FFE701E000E0D8
:101DF000FFE745E005988069B0F5005F25D1FFE772
:101E00000398019003281ED80199DFE801F002062B
:101E1000021101208DF8130016E0059890F82F00AC
:101E2000C00720B1FFE701208DF81300FFE70BE0AA
:101E30000598C06AB0F1C07F04D1FFE701208DF89A
:101E40001300FFE700E0FFE719E003980090032884
:101E500004D3FFE70098032804D00EE001208DF89A
:101E600013000BE0059890F82F00C00720B1FFE7A2
:101E700001208DF81300FFE700E0FFE7FFE7FFE731
:101E80009DF8130006B0704784B003900291019250
:101E9000009303980168086820F480200860009887
:101EA00003990968486003988068402809D1FFE7D2
:101EB0000198039909688860029803990968C860C5
:101EC00008E00298039909688860019803990968F5
:101ED000C860FFE704B070477047000081B0EFF3BF
:101EE000108072B60090FFE7FEE7000080B584B076
:101EF000039002910298B0F9060000EE100AB8EEC5
:101F0000C00A40F21C30C2F2000080ED010A90EDE0
:101F1000001A90ED010A30EE410AB5EE400AF1EEEA
:101F200010FA0DDDFFE740F21C30C2F2000090ED28
:101F3000001A90ED010A30EE410A8DED010A0CE025
:101F400040F21C30C2F2000090ED000A90ED011A40
:101F500030EE410A8DED010AFFE79DED010A40F2E6
:101F60001C30C2F2000080ED020A90ED020A9FEDE3
:101F70005F1AB4EE410AF1EE10FA0EDCFFE740F210
:101F80001C30C2F2000090ED040AB7EE001AB4EE65
:101F9000410AF1EE10FA4DD1FFE740F21C30C2F2D7
:101FA000000090ED030AB5EE400AF1EE10FA0ED1F2
:101FB000FFE740F21C31C2F20001886842F2501281
:101FC000C2F2000210604FF07E500861FFE740F25D
:101FD0001C30C2F2000090ED030AB7EE001A30EE9A
:101FE000010A80ED030A42F25011C2F2000191EDA4
:101FF000000A039991ED061A9FED3E2A20EE020A8F
:1020000030EE010A81ED060A4168016090ED030A95
:10201000B0EE081AB4EE410AF1EE10FA09DBFFE760
:1020200040F21C31C2F2000100200861C8608860E3
:10203000FFE718E040F21C31C2F200010020086105
:102040000298B0F9060000EE100AB8EEC01A039824
:1020500090ED060A9FED262A21EE021A30EE010AC3
:1020600080ED060AFFE70298B0F9080000EE100ABA
:10207000B8EEC01A039890ED330A9FED1F2A21EEA7
:10208000021A30EE010A80ED330A039890ED330A0C
:102090009FED1A1AB4EE410AF1EE10FA08DDFFE7DF
:1020A000039948F20000C4F2A250C1F8CC0013E03A
:1020B000039890ED330A9FED121AB4EE410AF1EE47
:1020C00010FA08DAFFE7039947F20000C4F28550DE
:1020D000C1F8CC00FFE7FFE7039808F05DFC039828
:1020E000B43008F075FB04B080BD00BF0000484468
:1020F0000AD7A3BC6F12833A0AD723BC0080A2453B
:102100000070854584B002900191ADF802200298DC
:1021100028B9FFE74FF6FF70ADF80E0021E0FFE7AA
:102120000198411E0191B8B1FFE70298411C02914C
:1021300000788DF80100BDF802109DF801004840BC
:10214000C2B245F6EC40C0F6010030F8120080EA59
:102150001120ADF80200E3E7BDF80200ADF80E0073
:10216000FFE7BDF80E0004B07047000082B0019098
:10217000ADF802108DF80120FFE7BDF80200411E06
:10218000ADF8021098B1FFE79DF8010001994A1CD3
:102190000192097848408DF800009DF8001045F242
:1021A000C020C0F60100405C8DF80100E5E79DF815
:1021B000010002B07047000040F6A020C2F200000B
:1021C00090ED690A7047000040F6A020C2F20000BE
:1021D00090ED680A7047000080B584B047F6102083
:1021E000C1F6FF700068039047F61420C1F6FF7037
:1021F0000068029047F61820C1F6FF700068019051
:102200000199039808440390039888B1FFE7039865
:1022100040F27C11C2F2000100910231082206F066
:10222000CDFE009902981231042206F0C7FEFFE7A6
:1022300004B080BD40F6A020C2F2000090ED6A0A12
:102240007047000084B002900191029890F820003D
:102250008DF803009DF80300012805D0FFE79DF8E5
:10226000030002280AD1FFE7019A02980168486931
:102270001043486100208DF80F0008E00299486A79
:1022800040F48020486201208DF80F00FFE79DF8A0
:102290000F0004B07047000088B0069005910492CA
:1022A0000393069890F820008DF8070006980068C0
:1022B000806800900598806808B9FFE700E0FFE7B4
:1022C0009DF80700012806D0FFE79DF807000228C7
:1022D00040F08D80FFE79DF80300400700280CD4F4
:1022E000FFE79DF803000007002806D4FFE79DF8EC
:1022F0000300C006002871D5FFE70098C0F3016015
:1023000002900298032809D3FFE70699486A40F42F
:102310000000486201208DF81F0071E00299012041
:102320008840039908600598806868B9FFE70598B8
:102330000168C06840EA415006990968029A01EBB9
:102340000211C1F880010EE005994A688868C968E1
:1023500040EAC200084306990968029A01EB02119B
:10236000C1F88001FFE70598006906990968029A9B
:1023700001EB0211C1F884010598007D01280CD100
:10238000FFE706980068029900EB0111D1F884017B
:1023900040F48070C1F88401FFE704984068069912
:1023A0000968029A01EB0211C1F88C0104980068D7
:1023B00006990968029A01EB0211C1F88801069892
:1023C0000068029900EB0111D1F8800140F0010092
:1023D000C1F8800100208DF81F0011E00699486ABD
:1023E00040F40010486201208DF81F0008E00699B3
:1023F000486A40F48020486201208DF81F00FFE702
:102400009DF81F0008B0704786B0049003910498AF
:1024100000680190049890F820008DF803009DF862
:102420000300012806D0FFE79DF80300022840F0D2
:10243000B080FFE746F20040C4F20000019001992D
:10244000D1F8000240F00100C1F800020199D1F872
:10245000000220F47C50C1F800020398426A0199FE
:10246000D1F8000240EA0220C1F800020398406956
:1024700000F01F01012088400290029A0199D1F8D2
:102480001C029043C1F81C020398C069F0B9FFE731
:10249000029A0199D1F80C029043C1F80C02039AF8
:1024A0009088D168526940EA0140019901EBC2016C
:1024B000C1F84002039A10889168526940EA0140CD
:1024C000019901EBC201C1F84402FFE70398C0691A
:1024D00001281ED1FFE7029A0199D1F80C0210439E
:1024E000C1F80C02039A90881168526940EA0140D1
:1024F000019901EBC201C1F84002039A90899168E9
:10250000526940EA0140019901EBC201C1F844025D
:10251000FFE70398806940B9FFE7029A0199D1F873
:1025200004029043C1F8040207E0029A0199D1F82D
:1025300004021043C1F80402FFE70398006940B9A0
:10254000FFE7029A0199D1F814029043C1F81402EE
:1025500007E0029A0199D1F814021043C1F814025D
:10256000FFE70398006A012808D1FFE7029A019962
:10257000D1F81C021043C1F81C02FFE70199D1F801
:10258000000220F00100C1F8000200208DF81700C1
:1025900008E00499486A40F48020486201208DF8E0
:1025A0001700FFE79DF8170006B0704781B0009054
:1025B00001B0704786B00490039102920193049891
:1025C00090F820008DF803009DF80300012806D044
:1025D000FFE79DF80300022840F0D780FFE703984B
:1025E00080B9FFE704980068C068800748B9FFE732
:1025F0000499486A40F40010486201208DF81700E1
:10260000CCE00FE0049800680069800748B9FFE754
:102610000499486A40F40010486201208DF81700C0
:10262000BCE0FFE704980068039900EB0110D0F8C4
:10263000B00100F00400029988600298806858B9DF
:10264000FFE704980068039900EB0110D0F8B0018F
:10265000400D029908600AE004980068039900EBB5
:102660000110D0F8B001C00802994860FFE7049853
:102670000068039900EB0110D0F8B00100F00200EF
:102680000299C86004980068039900EB0110D0F823
:10269000B40100F00F0002990861049800680399E2
:1026A00000EB0110D0F8B40180B2000A02998861F1
:1026B00004980068039900EB0110D0F8B401000CF5
:1026C0000299486104980068039900EB0110D0F862
:1026D000B8010199087004980068039900EB011093
:1026E000D0F8B801000A019948700498006803996D
:1026F00000EB0110D0F8B801000C01998870049823
:102700000068039900EB0110D0F8B801000E0199A0
:10271000C87004980068039900EB0110D0F8BC0160
:102720000199087104980068039900EB0110D0F832
:10273000BC01000A0199487104980068039900EBF4
:102740000110D0F8BC01000C019988710498006850
:10275000039900EB0110D0F8BC01000E0199C8717B
:10276000039838B9FFE704980168C86840F0200072
:10277000C86006E004980168086940F0200008611C
:10278000FFE700208DF8170008E00499486A40F43C
:102790008020486201208DF81700FFE79DF81700A0
:1027A00006B0704780B58AB009900020089009985B
:1027B0000068406907900998006840680690099889
:1027C00000688068059009980068C06804900998BE
:1027D00000680069039009980068806902909DF87C
:1027E0001C00C007002800F09480FFE79DF814004B
:1027F000C00758B3FFE709980168012088609DF879
:1028000014008007002804D5FFE7099800F0E8FBD2
:102810001BE09DF814004007002805D5FFE7089845
:1028200040F4006008900FE09DF8140000070028B5
:1028300005D5FFE7089840F48050089003E0099818
:1028400000F0CAFBFFE7FFE7FFE7FFE79DF8150091
:10285000C00760B3FFE7099801684FF48070886093
:102860009DF815008007002804D5FFE7099800F0BF
:10287000BFFB1BE09DF815004007002805D5FFE7CA
:10288000089840F4005008900FE09DF815000007EC
:10289000002805D5FFE7089840F48040089003E041
:1028A000099800F0A1FBFFE7FFE7FFE7FFE79DF8CE
:1028B0001600C00760B3FFE7099801684FF4803045
:1028C00088609DF816008007002804D5FFE7099866
:1028D00000F096FB1BE09DF816004007002805D588
:1028E000FFE7089840F4004008900FE09DF81600BC
:1028F0000007002805D5FFE7089840F480300890CD
:1029000003E0099800F078FBFFE7FFE7FFE7FFE748
:10291000FFE79DF81C000007002810D5FFE79DF891
:102920001000C006002809D5FFE7089840F40070A1
:102930000890099801681020C860FFE7FFE79DF83C
:102940001C00400700280FD5FFE79DF81000000786
:10295000002808D5FFE7099801680820C860099891
:1029600000F0CCFAFFE7FFE79DF81C008007002885
:102970000BD5FFE709980068C068800720B1FFE722
:10298000099800F0BFFAFFE7FFE79DF81C0040063A
:10299000002810D5FFE79DF80C00C006002809D5D7
:1029A000FFE7089840F480600890099801681020BB
:1029B0000861FFE7FFE79DF81C00800600280FD59F
:1029C000FFE79DF80C000007002808D5FFE70998ED
:1029D000016808200861099800F0ACFAFFE7FFE7FA
:1029E0009DF81C00C00600280BD5FFE70998006879
:1029F0000069800720B1FFE7099800F09FFAFFE720
:102A0000FFE79DF81E00800700280FD5FFE79DF81F
:102A10001800C006002808D5FFE7099801681020B3
:102A20004860099800F08EFAFFE7FFE79DF81E0066
:102A3000C00778B1FFE79DF818000007002808D507
:102A4000FFE70998016808204860099800F0DCFA5F
:102A5000FFE7FFE79DF81D000006002840F18D808C
:102A6000FFE79DF818004007002840F18180FFE74C
:102A70009DF81D00C00750B1FFE79DF80800C00792
:102A800028B1FFE7089840F001000890FFE79DF8A3
:102A90001D00800700280BD5FFE79DF80800800780
:102AA000002805D5FFE7089840F002000890FFE7EE
:102AB0009DF81D00400700280BD5FFE79DF8080092
:102AC0004007002805D5FFE7089840F0040008906B
:102AD000FFE79DF81D000007002848D5FFE79DF897
:102AE000080010F0700F42D0FFE7029800F070006D
:102AF00001460191102814D0FFE70198202815D035
:102B0000FFE70198302816D0FFE70198402817D03A
:102B1000FFE70198502818D0FFE70198602819D0E6
:102B20001DE0089840F00800089019E0089840F06F
:102B30001000089014E0089840F0200008900FE082
:102B4000089840F0400008900AE0089840F08000A3
:102B5000089005E0089840F48070089000E0FFE7D6
:102B600009980168886920F070008861FFE7FFE735
:102B70000998016804204860FFE7089848B1FFE71A
:102B8000089A0999486A104348620998FFF70EFDB0
:102B9000FFE70AB080BD000080B584B002900298C3
:102BA00020B9FFE701208DF80F00E0E0029890F8CF
:102BB000200020B9FFE7029800F0DEF8FFE7029856
:102BC0000168086840F00100086000F079FF01909A
:102BD000FFE7029800684068C007A8B9FFE700F067
:102BE0006FFF0199401A0B280DD3FFE70299486A3D
:102BF00040F4003048620299052081F8200001204D
:102C00008DF80F00B3E0E4E702980168086820F04F
:102C10000200086000F054FF0190FFE7029800688E
:102C200040688007002815D5FFE700F049FF0199AB
:102C3000401A0B280DD3FFE70299486A40F4003090
:102C400048620299052081F8200001208DF80F00CC
:102C50008DE0E3E70298007E012807D1FFE70298A4
:102C60000168086840F08000086006E0029801688A
:102C7000086820F080000860FFE70298407E012885
:102C800007D1FFE702980168086840F0400008603B
:102C900006E002980168086820F040000860FFE73D
:102CA0000298807E012807D1FFE702980168086832
:102CB00040F02000086006E002980168086820F0F3
:102CC00020000860FFE70298C07E012807D1FFE7D7
:102CD00002980168086820F01000086006E0029879
:102CE0000168086840F010000860FFE70298007F64
:102CF000012807D1FFE702980168086840F0080042
:102D0000086006E002980168086820F00800086082
:102D1000FFE70298407F012807D1FFE7029801688A
:102D2000086840F00400086006E00298016808683E
:102D300020F004000860FFE7029B19685A68986851
:102D4000D3F80CC040EA0C00D3F810C040EA0C00E5
:102D50005B691843013A1043C86102990020486238
:102D6000029A012182F820108DF80F00FFE79DF8EC
:102D70000F0004B080BD000080B590B00F9000201F
:102D80000E900D900C900B900A900F98006846F2F0
:102D90000041C4F20001884249D1FFE740F2AC3063
:102DA000C2F200000168013101600068012812D1FF
:102DB000FFE7FFE70020099043F64000C4F202005D
:102DC000016841F000710160006800F00070099036
:102DD0000998FFE7FFE7FFE70020089043F630007F
:102DE000C4F20200016841F008010160006800F0CF
:102DF000080008900898FFE703200A9002210B9131
:102E0000002103910C910D9009200E9040F6004096
:102E1000C4F202000AA900F05FFC039A1420049097
:102E2000052100F0EBFE049800F0DEFE64E00F9850
:102E3000006846F60001C4F2000188425BD1FFE75A
:102E4000FFE70020079043F64000C4F2020001684B
:102E500041F080610160006800F080600790079891
:102E6000FFE740F2AC30C2F20000016801310160BE
:102E70000068012812D1FFE7FFE70020069043F623
:102E80004000C4F20200016841F000710160006876
:102E900000F0007006900698FFE7FFE7FFE70020CC
:102EA000059043F63000C4F20200016841F00201CF
:102EB0000160006800F0020005900598FFE76020BF
:102EC0000A9002200B90002001900C9003200D909E
:102ED00009200E9040F20040C4F202000AA900F05E
:102EE000FBFB019A40200290052100F087FE02982A
:102EF00000F07AFEFFE7FFE710B080BD81B00090E0
:102F000001B0704780B582B00190019840F2F8227C
:102F1000C2F20002009240F21433C2F20003002118
:102F2000FFF748FB009901980968FEF73FF902B0E6
:102F300080BD000081B0009001B0704781B000906A
:102F400001B0704781B0009001B0704780B584B087
:102F50000290029890F8200001282FD1FFE70299F3
:102F6000022081F8200002980168086820F0010022
:102F7000086000F0A5FD0190FFE702980068406836
:102F8000C007A8B1FFE700F09BFD0199401A0B288C
:102F90000DD3FFE70299486A40F400304862029975
:102FA000052081F8200001208DF80F000FE0E4E7F4
:102FB0000299002048628DF80F0008E00299486AE3
:102FC00040F40020486201208DF80F00FFE79DF8D3
:102FD0000F0004B080BD000081B0009001B07047C8
:102FE00081B0009001B0704781B0009001B070478F
:102FF00081B0009001B0704781B0009001B070477F
:1030000081B0009001B0704781B0009001B070476E
:1030100080B584B002900298806D019000F050FD60
:103020000090029890F8350002280DD0FFE7029931
:1030300080204865FFE70299002081F83400FFE70F
:1030400001208DF80F0055E002980168086820F013
:103050001600086002980168486920F08000486105
:103060000298006C20B9FFE70298806C38B1FFE746
:1030700002980168086820F008000860FFE70298DD
:103080000168086820F001000860FFE70298006806
:103090000068C007C8B1FFE700F012FD0099401AB0
:1030A000062811D3FFE702992020486502990320E2
:1030B00081F83500FFE70299002081F83400FFE72E
:1030C00003208DF80F0015E0E0E70298C16D3F2066
:1030D0008840019988600299012081F83500FFE756
:1030E0000299002081F83400FFE7FFE700208DF807
:1030F0000F00FFE79DF80F0004B080BD82B0009084
:10310000009890F83500022807D0FFE7009980204A
:10311000486501208DF807000EE00099052081F830
:10312000350000980168086820F001000860FFE79A
:1031300000208DF80700FFE79DF8070002B07047F8
:1031400080B586B005900020039040F2C400C2F222
:103150000000006848F2B511C1F64E31A0FB011025
:10316000800A02900598806D019001980068049093
:1031700004980599C96DC840000700281AD5FFE7D3
:103180000598006800684007002812D5FFE70598F9
:103190000168086820F0040008600598C16D0820E7
:1031A0008840019988600599486D40F001004865A4
:1031B000FFE7FFE704980599C96DC840C007A0B1B3
:1031C000FFE7059800684069000600280CD5FFE776
:1031D0000598C16D01208840019988600599486D66
:1031E00040F002004865FFE7FFE704980599C96DC4
:1031F000C8404007002814D5FFE70598006800681C
:10320000800700280CD5FFE70598C16D0420884091
:10321000019988600599486D40F004004865FFE712
:10322000FFE704980599C96DC840C006002847D536
:10323000FFE7059800680068000700283FD5FFE712
:103240000598C16D10208840019988600598006834
:103250000068400300281AD5FFE705980068006859
:103260000003002809D4FFE70598006C20B1FFE7B0
:103270000598016C8847FFE708E00598806C20B14D
:10328000FFE70598816C8847FFE7FFE716E00598A0
:1032900000680068C005002807D4FFE705980168AA
:1032A000086820F008000860FFE70598006C20B16E
:1032B000FFE70598016C8847FFE7FFE7FFE7FFE7B7
:1032C00004980599C96DC8408006002840F18D809A
:1032D000FFE7059800680068C006002840F1848078
:1032E000FFE70598C16D2020884001998860059806
:1032F00090F83500052834D1FFE705980168086883
:1033000020F01600086005980168486920F08000E8
:1033100048610598006C20B9FFE70598806C38B1CA
:10332000FFE705980168086820F008000860FFE7DB
:103330000598C16D3F20884001998860059901205A
:1033400081F83500FFE70599002081F83400FFE798
:103350000598006D20B1FFE70598016D8847FFE7EC
:103360007BE0059800680068400300281AD5FFE755
:103370000598006800680003002809D4FFE7059855
:10338000406C20B1FFE70598416C8847FFE708E0F3
:103390000598C06B20B1FFE70598C16B8847FFE730
:1033A000FFE720E0059800680068C005002811D4F8
:1033B000FFE705980168086820F01000086005998B
:1033C000012081F83500FFE70599002081F83400DD
:1033D000FFE7FFE70598C06B20B1FFE70598C16BD9
:1033E0008847FFE7FFE7FFE7FFE70598406DA0B3D9
:1033F000FFE70598406DC00730B3FFE7059905204A
:1034000081F8350005980168086820F0010008601F
:10341000FFE70398013003900299884201D9FFE742
:1034200007E0FFE7059800680068C0070028F0D1B2
:10343000FFE70599012081F83500FFE70599002095
:1034400081F83400FFE7FFE70598C06C20B1FFE783
:103450000598C16C8847FFE7FFE706B080BD000014
:1034600080B586B004900020039000F029FB029004
:10347000049820B9FFE701208DF81700A3E0049815
:10348000406A08B1FFE7FFE70499022081F83500A0
:10349000FFE70499002081F83400FFE704980168F1
:1034A000086820F001000860FFE7049800680068E1
:1034B000C00790B1FFE700F003FB0299401A06280D
:1034C0000AD3FFE70499202048650499032081F876
:1034D00035008DF8170076E0E7E70498006800688B
:1034E0000390039848F23F01CFF210010840039087
:1034F000049900914868D1F808C0CB680A6940EA8D
:103500000C00184310434A6910438A691043CA6982
:103510001043096A01430398084303900498406AE2
:10352000042808D1FFE70499C86A096B014303988E
:1035300008430390FFE7039804990968086004981A
:10354000006840690390039820F0070003900498F6
:10355000416A0398084303900498406A04281AD1EA
:10356000FFE70498816A0398084303900498C06AAF
:1035700080B1FFE70498FEF70FFC50B1FFE7049914
:10358000402048650499012081F835008DF8170026
:1035900019E0FFE7FFE70398049909684861049878
:1035A000FEF7CEFB01900498C16D3F208840019941
:1035B0008860049900204865049A012182F835103A
:1035C0008DF81700FFE79DF8170006B080BD0000DA
:1035D00080B588B0069005910492039300208DF881
:1035E0000B000698806D0190FFE7069890F8340074
:1035F000012804D1FFE702208DF81F0045E006995D
:10360000012081F83400FFE7FFE7069890F83500C5
:1036100001282BD1FFE70699022081F83500069991
:103620000020486506980599049A039BFEF72CFC38
:103630000698C16D3F20884001998860069801680E
:10364000086840F0160008600698006C38B1FFE783
:1036500006980168086840F008000860FFE70698CF
:103660000168086840F00100086009E0FFE706997A
:10367000002081F83400FFE702208DF80B00FFE7FF
:103680009DF80B008DF81F00FFE79DF81F0008B0A4
:1036900080BD000080B584B0039000F011FA029064
:1036A000039801900198013048B1FFE740F296106D
:1036B000C2F200000178019808440190FFE7FFE79B
:1036C00000F0FEF90299401A0199884201D2FFE701
:1036D000F6E704B080BD00008EB00D900C91002084
:1036E0000A90099008900B90FFE70B980F2800F2C2
:1036F000CC81FFE70B99012088400A900C98006864
:103700000A990840099009980A99884240F0B881BE
:10371000FFE70C98406800F00300012807D0FFE79E
:103720000C98406800F0030002282FD1FFE70D98A5
:10373000806808900B984100032000FA01F1089876
:10374000884308900C98C0680B99490000FA01F171
:1037500008980843089008980D9988600D9840686B
:1037600008900B99012000FA01F10898884308900D
:103770000C984068C0F300100B9900FA01F108980A
:103780000843089008980D994860FFE70C98406836
:1037900000F00300032818D0FFE70D98C0680890D8
:1037A0000B984100032000FA01F108988843089023
:1037B0000C9880680B99490000FA01F108980843B9
:1037C000089008980D99C860FFE70C98406800F0D1
:1037D0000300022826D1FFE70D980B996FF0030232
:1037E00002EA51010844006A08900B9800F00700B3
:1037F00081000F2000FA01F10898884308900C9886
:1038000000690B9901F00701890000FA01F108989D
:103810000843089008980D990B9B02EA5302114443
:103820000862FFE70D98006808900B98410003209C
:1038300000FA01F10898884308900C98406800F05D
:1038400003000B99490000FA01F108980843089019
:1038500008980D9908600C9880798007002800F07E
:103860000E81FFE7FFE70020079043F64400C4F213
:103870000200016841F480410160006800F480406A
:1038800007900798FFE70B9820F0030043F6080124
:10389000C4F20101405808900B9800F00300810029
:1038A0000F2000FA01F10898884308900D98002134
:1038B000C4F20201884203D1FFE7002006905EE0D7
:1038C0000D9840F20041C4F20201884203D1FFE7A3
:1038D0000120059050E00D9840F60001C4F202016D
:1038E000884203D1FFE70220049042E00D9840F6A1
:1038F0000041C4F20201884203D1FFE70320039094
:1039000034E00D9841F20001C4F20201884203D173
:10391000FFE70420029026E00D9841F20041C4F236
:103920000201884203D1FFE70520019018E00D98BD
:1039300041F60001C4F20201884203D1FFE70620EC
:1039400000900AE00D9941F60042C4F202020820FC
:10395000914208BF07200090FFE700980190FFE721
:1039600001980290FFE702980390FFE70398049004
:10397000FFE704980590FFE705980690FFE7069893
:10398000C0B20B9901F00301890000FA01F1089817
:103990000843089008980B9921F0030143F60802A8
:1039A000C4F20102885043F60840C4F201000068E6
:1039B000089009990898884308900C988079C00667
:1039C000002805D5FFE70999089808430890FFE704
:1039D000089843F60841C4F20101086043F60C4020
:1039E000C4F201000068089009990898884308907B
:1039F0000C9880798006002805D5FFE7099908987A
:103A000008430890FFE7089843F60C41C4F201010F
:103A1000086043F60440C4F2010000680890099968
:103A20000898884308900C9880798007002805D56D
:103A3000FFE70999089808430890FFE7089843F6BC
:103A40000441C4F20101086043F60040C4F20100E1
:103A50000068089009990898884308900C98807924
:103A6000C00728B1FFE70999089808430890FFE7C5
:103A7000089843F60041C4F201010860FFE7FFE740
:103A8000FFE70B9801300B902FE60EB07047000057
:103A900082B00190ADF802108DF801209DF8010070
:103AA00028B1FFE7BDF802000199886105E0BDF883
:103AB0000200000401998861FFE702B0704700002E
:103AC00046F6A840C2F200000068704740F2961027
:103AD000C2F20000027846F6A841C2F2000108686E
:103AE000104408607047000080B543F60041C4F2FE
:103AF0000201086840F400700860086840F48060C3
:103B00000860086840F480700860032000F090F8B6
:103B10000F2000F005F800F03BF8002080BD000009
:103B200080B582B0009040F2C400C2F2000000688C
:103B300040F29611C2F200010A784FF47A71B1FB9B
:103B4000F2F1B0FBF1F002F071FA20B1FFE70120D1
:103B50008DF8070018E000980F280DD8FFE70099AE
:103B60004FF0FF30002200F049F8009840F2981121
:103B7000C2F20001086003E001208DF8070003E0B5
:103B800000208DF80700FFE79DF8070002B080BD18
:103B900080B582B0FFE70020019043F64400C4F2F4
:103BA0000200016841F480410160006800F4804037
:103BB00001900198FFE7FFE70020009043F64000E6
:103BC000C4F20200016841F080510160006800F019
:103BD000805000900098FFE76FF001000F21002255
:103BE00000F00CF802B080BD80B582B08DF80700FF
:103BF0009DF907000DF0AEFA02B080BD80B586B029
:103C00008DF8170004910392002002900DF0BAFA8B
:103C100002909DF91700019002980499039A06F00A
:103C2000D5FB014601980DF0B5FA06B080BD000045
:103C300080B582B0019001980DF0CEFA02B080BD3F
:103C400082B001908DF8031002B0704782B00190ED
:103C5000ADF80210BDF80200019909684862002021
:103C600002B0704784B003908DF80B10ADF80820B7
:103C700003980068406A00909DF80B0048B9FFE780
:103C8000BDF80810009840EA01400399096888626D
:103C900033E003980068816A009800EB11400090BF
:103CA00000208DF80700FFE79DF807009DF80B1036
:103CB0000139884213D2FFE7039800689DF8071086
:103CC00000EB8100D0F80411009800EB1140009047
:103CD000FFE79DF8070001308DF80700E4E7BDF825
:103CE0000810009840EA0140039909689DF80B20EC
:103CF00001EB8201C1F80001FFE7002004B070472A
:103D000080B582B001900198D0F808050AF0AEFEA7
:103D100002B080BD80B582B001908DF80310019A89
:103D2000D2F808059DF8031001EBC10302EB8302F2
:103D3000D26C0AF0F7FC02B080BD000080B582B002
:103D400001908DF80310019AD2F808059DF8031030
:103D500001EBC10302EB8302D2F88C220AF0ACFD26
:103D600002B080BD80B582B001900198D0F80805FE
:103D70000AF082FE02B080BD80B584B003908DF859
:103D80000B109DF80B00000600280CD5FFE70398E8
:103D90009DF80B1001F00F0101EBC10100EB810058
:103DA0003C3001900CE003989DF80B1001F00F01DE
:103DB00001EBC10100EB810000F51F700190FFE7EE
:103DC0000398006801990CF0ADFC8DF80A009DF88D
:103DD0000A0004B080BD000080B584B002908DF868
:103DE00007109DF80700000600280FD5FFE702988E
:103DF0009DF8071001F00F0101EBC10100EB8100FC
:103E00003C3000900099012048700FE002989DF826
:103E1000071001F00F0101EBC10100EB810000F57B
:103E20001F700090009900204870FFE79DF8070080
:103E300000F00F0000990870FFE7029890F8BC04AA
:103E4000012804D1FFE702208DF80F0014E0029949
:103E5000012081F8BC04FFE7FFE7029800680099A1
:103E60000BF088FEFFE70299002081F8BC04FFE711
:103E700000208DF80F00FFE79DF80F0004B080BD13
:103E800080B584B002908DF807109DF8070000F00F
:103E90000F0002994968884204D9FFE701208DF894
:103EA0000F004DE09DF80700000600280FD5FFE742
:103EB00002989DF8071001F00F0101EBC10100EB22
:103EC00081003C3000900099012048700FE002987A
:103ED0009DF8071001F00F0101EBC10100EB81001B
:103EE00000F51F700090009900204870FFE70099CE
:103EF000002088709DF8070000F00F0000990870FE
:103F0000FFE7029890F8BC04012804D1FFE70220E3
:103F10008DF80F0014E00299012081F8BC04FFE73E
:103F2000FFE70298006800990CF0A4F9FFE70299F6
:103F3000002081F8BC04FFE700208DF80F00FFE7A8
:103F40009DF80F0004B080BD82B001908DF8031081
:103F500001989DF8031001F00F0101EBC10100EB86
:103F60008100D0F89C0202B07047000080B586B096
:103F700004908DF80F10ADF80C208DF80B30002058
:103F80008DF80A009DF80F00000600280FD5FFE706
:103F900004989DF80F1001F00F0101EBC10100EB37
:103FA00081003C3001900199012048700FE0049895
:103FB0009DF80F1001F00F0101EBC10100EB810032
:103FC00000F51F700190019900204870FFE79DF8EF
:103FD0000F0000F00F0001990870BDF80C00019966
:103FE000C8609DF80B00019908710198407820B1D4
:103FF000FFE7019908780881FFE79DF80B00022888
:1040000004D1FFE7019900204871FFE7FFE704981A
:1040100090F8BC04012804D1FFE702208DF81700B6
:1040200015E00499012081F8BC04FFE7FFE704983C
:10403000006801990BF058FCFFE70499002081F813
:10404000BC04FFE79DF80A008DF81700FFE79DF814
:10405000170006B080BD000080B586B005908DF8D1
:1040600013100392029305989DF8131001F00F01AD
:1040700001EBC10100EB810000F51F700190039876
:1040800001990861029801998861019900200862EC
:10409000019948709DF8130000F00F000199087015
:1040A00005980069012804D1FFE703980199486148
:1040B000FFE79DF81300000738B9FFE7059A10687D
:1040C0000199127C0BF08AFF06E0059A10680199AD
:1040D000127C0CF073F9FFE7002006B080BD0000F1
:1040E00080B584B002908DF807109DF8070000F0AD
:1040F0000F0002994968884204D9FFE701208DF832
:104100000F0058E09DF80700000600280FD5FFE7D4
:1041100002989DF8071001F00F0101EBC10100EBBF
:1041200081003C3000900099012048700DE0029819
:104130009DF8071001EBC10100EB810000F51F7035
:104140000090009900204870FFE7009901208870D6
:104150009DF8070000F00F0000990870FFE7029833
:1041600090F8BC04012804D1FFE702208DF80F006D
:1041700021E00299012081F8BC04FFE7FFE70298E3
:10418000006800990CF0C6F89DF80700000740B9D8
:10419000FFE7029A1068117C02F2C4420CF01AF890
:1041A000FFE7FFE70299002081F8BC04FFE7002049
:1041B0008DF80F00FFE79DF80F0004B080BD0000F0
:1041C00080B586B005908DF8131003920293059880
:1041D0009DF8131001F00F0101EBC10100EB81000C
:1041E0003C30019003980199086102980199886117
:1041F0000199002008620199012048709DF8130080
:1042000000F00F000199087005980069012804D199
:10421000FFE7039801994861FFE79DF81300000745
:1042200038B9FFE7059A10680199127C0BF0D6FEA9
:1042300006E0059A10680199127C0CF0BFF8FFE7C0
:10424000002006B080BD000080B58CB00B900B98AC
:1042500000680A900A9809900B9800680CF0A4FB7B
:10426000002840F00D84FFE70B9800680CF008FC74
:1042700010B9FFE700F004BC0998D0F80808C0F3B3
:104280000D200B99C1F8FC040B9800680CF0F8FBAA
:104290008007002807D5FFE70B980168486900F000
:1042A00002004861FFE70B9800680CF0E9FBC006CC
:1042B000002862D5FFE70B980168886920F010009C
:1042C00088610A98006A02900B98029901F00F0128
:1042D00001EBC10100EB810000F51F70089002980E
:1042E00000F4F0110220B0EB514F23D1FFE7BDF8ED
:1042F000080047F6F07108421BD0FFE70A980899BA
:104300000969029AC2F30A120CF0C8FB029847F638
:10431000F07100EA0103089A106900EB13101061B4
:10432000029800EA01020899086A00EB121008627C
:10433000FFE71BE0029800F4F0110620B0EB514FAC
:1043400012D1FFE70A980B9901F2C44108220CF040
:10435000A5FB029847F6F07100EA01020899086A85
:1043600000EB1210086200E0FFE7FFE70B9801681E
:10437000886940F010008861FFE70B9800680CF036
:104380007FFB0003002840F1A680FFE70020049097
:104390000B9800680CF022FB0690FFE706980028B7
:1043A00000F09880FFE79DF81800C007002800F093
:1043B0008A80FFE70B9800689DF810100CF048FB0E
:1043C00005909DF81400C00760B1FFE709980499B3
:1043D00000EB41110120C1F8080B0B98049906F07D
:1043E00079F8FFE79DF81400000700280CD5FFE7D7
:1043F0000998049900EB41110820C1F8080B0B98AB
:10440000049906F021F8FFE79DF81400C006002883
:1044100008D5FFE70998049900EB41111020C1F875
:10442000080BFFE79DF81400800700282DD5FFE753
:104430000A9840690006002808D5FFE70999D1F8D5
:10444000040840F48060C1F80408FFE70B98049961
:1044500001EBC10100EB810000F51F700890089886
:10446000C078012809D1FFE708990020C8700B988F
:104470009DF8101000F014FBFFE70998049900EB79
:1044800041110220C1F8080BFFE79DF814008006D7
:10449000002808D5FFE70998049900EB4111202076
:1044A000C1F8080BFFE79DF815008006002809D524
:1044B000FFE70998049900EB41114FF40050C1F84F
:1044C000080BFFE7FFE704980130049006984008C6
:1044D000069063E7FFE70B9800680CF0D1FA400301
:1044E000002840F1C680FFE70B9800680CF064FAE2
:1044F000069000200490FFE70698002800F0B8809E
:10450000FFE79DF81800C007002800F0AA80FFE729
:104510000B9800689DF810100CF072FA05909DF849
:104520001400C00700283ED0FFE7049800F00F01F8
:10453000012000FA01F10391039B099AD2F8341883
:104540009943C2F834180999049A01EB4211C1F851
:1045500008090B98006901281FD1FFE70B980499FF
:1045600001EBC10100EB81018A6CC86C1044C86486
:10457000049888B9FFE70B98049901EBC10100EB9F
:104580008100406D40B9FFE70B99086801F2C44211
:1045900001210BF01FFEFFE7FFE70B989DF81010BD
:1045A000FFF7B8FBFFE79DF814000007002808D5C7
:1045B000FFE70998049900EB41110820C1F80809A8
:1045C000FFE79DF81400C006002808D5FFE709980A
:1045D000049900EB41111020C1F80809FFE79DF88C
:1045E00014004006002808D5FFE70998049900EB5D
:1045F00041114020C1F80809FFE79DF81400800729
:10460000002822D5FFE70A9804990CF063F90B986B
:10461000049901EBC10100EB81003C30089008983F
:10462000C078012809D1FFE708990020C8700B98CD
:104630009DF8101000F026FAFFE70998049900EBA6
:1046400041110220C1F80809FFE79DF81400000697
:10465000002805D5FFE70B98049906F01FF8FFE73F
:10466000FFE704980130049006984008069043E75D
:10467000FFE70B9800680CF003FAC00F00B3FFE7E8
:104680000999D1F8040820F00100C1F804080B983A
:1046900090F8F404012808D1FFE70B98002180F876
:1046A000F4140B98FFF7CCFA03E00B9800F0E2FB50
:1046B000FFE70B980168486900F000404861FFE798
:1046C0000B9800680CF0DCF90005002811D5FFE715
:1046D0000998D0F80808C00720B1FFE70B9800F050
:1046E00057FCFFE70B980168486900F400604861D7
:1046F000FFE70B9800680CF0C3F9C004002840F1F4
:104700008680FFE70999D1F8040820F00100C1F87C
:1047100004080B98006810210CF0DCF800200790CA
:10472000FFE707980B994968884231D2FFE709985B
:10473000079900EB41114FF67F30C1F8080909993C
:10474000079A01EB4212D2F8001921F40011C2F8C5
:1047500000190999079A01EB4211C1F8080B099851
:10476000079900EB4111D1F8000B20F40010C1F8BB
:10477000000B0998079900EB4111D1F8000B40F0AC
:104780000060C1F8000BFFE7079801300790C8E709
:104790000999D1F81C0840F00110C1F81C080B98C9
:1047A000006B78B1FFE70999D1F8840840F00B005D
:1047B000C1F884080999D1F8440840F00B00C1F809
:1047C00044080FE00999D1F8140842F22B02104373
:1047D000C1F814080999D1F8100840F00B00C1F88D
:1047E0001008FFE70999D1F8000820F4FE60C1F82D
:1047F00000080B9A1068117C02F2C4420BF0EAFC2C
:104800000B980168486900F480504861FFE70B98F5
:1048100000680CF035F9800400281FD5FFE70B98DD
:1048200000680BF0D1F80B9800680CF097F80B9922
:10483000C8600B980068019000F0FCFC01460198EC
:104840000B9A127B0CF022FA0B9800F0E9FA0B9805
:104850000168486900F400504861FFE70B98006860
:104860000CF00EF9000700280AD5FFE70B9800F0BE
:104870000BFB0B980168486900F008004861FFE7EE
:104880000B9800680CF0FCF80006002825D5FFE71F
:104890000A99886920F08000886101200490FFE770
:1048A00004980B994968884216D2FFE70B9804993F
:1048B00001EBC10100EB810090F87F02012806D1D5
:1048C000FFE70B989DF81010FFF756FAFFE7FFE798
:1048D000049801300490E3E7FFE70B9800680CF0C0
:1048E000CFF8C00200283ED5FFE701200490FFE783
:1048F00004980B99496888422ED2FFE709980499D9
:1049000000EB4110D0F8000902900B98049901EBDC
:10491000C10100EB810090F84000012817D1FFE7AA
:104920009DF80B000006002811D5FFE70B980499AD
:1049300001EBC10100EB8101012081F83F000B98E0
:104940009DF8101041F08001FFF716FAFFE7FFE72E
:10495000049801300490CBE70B980168486900F493
:1049600080104861FFE70B9800680CF089F880021E
:10497000002855D5FFE701200490FFE704980B9924
:104980004968884245D2FFE70998049900EB411035
:10499000D0F8000B02900B98049901EBC10100EBD9
:1049A000810090F8800201282ED1FFE79DF80B00CE
:1049B0000006002828D5FFE7029800F480300B9904
:1049C000D1F8FC1401F0010188421DD1FFE70B98DA
:1049D000049901EBC10100EB8101012081F87F0204
:1049E0000A99886940F0800088610A984069000649
:1049F000002808D4FFE70999D1F8040840F40070B2
:104A0000C1F8040805E0FFE7FFE7049801300490CF
:104A1000B4E70B980168486900F400104861FFE7AB
:104A20000B9800680CF02CF8400000280AD5FFE72E
:104A30000B98FFF765F90B980168486900F0804012
:104A40004861FFE70B9800680CF01AF8400700284F
:104A500015D5FFE70B980068406802909DF80800A4
:104A60004007002804D5FFE70B98FFF77BF9FFE725
:104A7000029A0B980168486810434860FFE7FFE717
:104A80000CB080BD80B582B001908DF80310019804
:104A9000D0F808059DF803100AF08AF802B080BD2E
:104AA00080B582B001908DF803100198D0F8080508
:104AB0009DF803100AF0B4F802B080BD2DE9F04F64
:104AC00097B01590159820B9FFE701208DF85B008D
:104AD00049E1159800681490159890F8BD0440B904
:104AE000FFE71599002081F8BC04159800F040F903
:104AF000FFE71599032081F8BD041498C06BC00529
:104B0000002804D4FFE7159900200861FFE71598F5
:104B100000680BF059FA15981090016811914168DE
:104B20008268C368D0F810C044698569C669076A9D
:104B3000D0F82480D0F82890D0F82CA0D0F830B04D
:104B4000D0F834E068461290C0F824E01198DDF8FF
:104B500048E0CEF820B0CEF81CA0CEF81890CEF8E1
:104B60001480CEF81070CEF80C60CEF80850CEF855
:104B70000440CEF800C00AF03DFF40B1FFE71599B0
:104B8000022081F8BD0401208DF85B00EBE0159850
:104B9000006800210F910BF0DBFF0F988DF84F009C
:104BA000FFE79DF84F0015994968884245D2FFE715
:104BB00015989DF84F1001EBC10100EB8101012018
:104BC00081F83D009DF84F00159900EBC00201EB04
:104BD000820181F83C009DF84F00159900EBC0025E
:104BE00001EB8201A1F8440015989DF84F1001EBEC
:104BF000C10100EB8101002081F8400015999DF86A
:104C00004F2002EBC20201EB8201886415999DF8E6
:104C10004F2002EBC20201EB8201C86415999DF896
:104C20004F2002EBC20201EB82014865FFE79DF8CD
:104C30004F0001308DF84F00B3E700208DF84F0092
:104C4000FFE79DF84F001599496888423ED2FFE77B
:104C500015989DF84F1001EBC10100EB8101002078
:104C600081F87D029DF84F10159A01EBC10302EB0C
:104C7000830282F87C1215999DF84F2002EBC20244
:104C800001EB820181F8800215999DF84F2002EB1B
:104C9000C20201EB8201C1F8880215999DF84F20EC
:104CA00002EBC20201EB8201C1F88C0215999DF85A
:104CB0004F2002EBC20201EB8201C1F89402FFE730
:104CC0009DF84F0001308DF84F00BAE715980C9011
:104CD00001680D9141688268C368D0F810C04469CA
:104CE0008569C669076AD0F82480D0F82890D0F882
:104CF0002CA0D0F830B0D0F834E068460E90C0F860
:104D000024E00D98DDF838E0CEF820B0CEF81CA0F5
:104D1000CEF81890CEF81480CEF81070CEF80C6053
:104D2000CEF80850CEF80440CEF800C00AF0EAFFF2
:104D300040B1FFE71599022081F8BD0401208DF8EC
:104D40005B0010E0159900200B9081F83800159950
:104D5000012081F8BD04159800680AF0BDFF0B988A
:104D60008DF85B00FFE79DF85B0017B0BDE8F08FA2
:104D700080B58AB0099000200890079006900590B1
:104D8000049009980068B0F1A04F47D1FFE7FFE712
:104D90000020039043F63000C4F20200016841F0A5
:104DA00001010160006800F0010003900398FFE733
:104DB0004FF4C0500490022005900020069003207C
:104DC00007900A2008900020C4F2020004A9FEF710
:104DD00083FCFFE743F63401C4F20201086840F0A7
:104DE00080000860FFE70020029043F64400C4F210
:104DF0000200016841F480410160006800F48040D5
:104E000002900298FFE7FFE743200190052100226E
:104E1000FEF7F4FE0198FEF7E7FEFFE70AB080BD5B
:104E200080B582B0019001208DF803000198C06820
:104E300020B9FFE700208DF803000CE00198C0685E
:104E4000022804D1FFE701208DF8030002E0FDF7FE
:104E500045F8FFE7FFE70198D0F808059DF8031033
:104E600009F0DEFF0198D0F8080509F059FF02B0FB
:104E700080BD000080B582B001900198D0F808058F
:104E800009F09CFF02B080BD80B582B0019001980E
:104E9000D0F8080509F0A4FF02B080BD80B584B049
:104EA00002908DF80710FFE7029890F8BC040128E3
:104EB00004D1FFE702208DF80F001AE002990120CB
:104EC00081F8BC04FFE7FFE79DF80700029981F82D
:104ED0003800029800689DF807100BF0A9FEFFE764
:104EE0000299002081F8BC04FFE700208DF80F0034
:104EF000FFE79DF80F0004B080BD000080B582B0D0
:104F000001900199D1F8080501F2C44109F0B2FFFE
:104F100002B080BD80B584B0029002980068019014
:104F2000FFE7029890F8BC04012804D1FFE70220B3
:104F30008DF80F0027E00299012081F8BC04FFE7FB
:104F4000FFE70298806A01280BD1FFE70298806989
:104F5000012806D0FFE70199886B40F48030886310
:104F6000FFE7029800680BF06BFC029800680AF0FB
:104F70009DFEFFE70299002081F8BC04FFE70020B6
:104F80008DF80F00FFE79DF80F0004B080BD000012
:104F900080B582B001900198D0F8080509F0ECFFC7
:104FA00001980168D1F8000E40F00100C1F8000E30
:104FB0000198006A48B1FFE74EF61051CEF20001A9
:104FC000086840F006000860FFE702B080BD0000FE
:104FD00080B584B002900191029820B9FFE70120CA
:104FE0008DF80F0021E1019843F60041C4F202015F
:104FF000096801F00701884212D9FFE7019943F6D9
:105000000040C4F202000170006800F0070001993E
:10501000884204D0FFE701208DF80F0005E1FFE78B
:1050200002980078800700282AD5FFE702980078C8
:105030004007002809D5FFE743F60801C4F2020142
:10504000086840F4E0500860FFE702980078000725
:10505000002809D5FFE743F60801C4F202010868F9
:1050600040F460400860FFE743F60801C4F2020123
:10507000086820F0F000029A926810430860FFE789
:1050800002980078C00700286ED0FFE702984068B9
:10509000012811D1FFE743F60000C4F202000068C6
:1050A00000F400310020B0EB514F04D1FFE70120A4
:1050B0008DF80F00B9E02CE002984068022805D076
:1050C000FFE702984068032811D1FFE743F600008C
:1050D000C4F20200006800F000710020B0EB516FD4
:1050E00004D1FFE701208DF80F009EE010E043F6A9
:1050F0000000C4F20200006800F002010020B0EBE2
:10510000510F04D1FFE701208DF80F008DE0FFE77C
:10511000FFE743F60801C4F20201086820F003002B
:10512000029A526810430860FEF7CAFC0090FFE73D
:1051300043F60800C4F20200006800F00C00029977
:105140004968B0EB810F0ED0FFE7FEF7B9FC00997C
:10515000401A41F28931884204D3FFE703208DF8D9
:105160000F0062E0E4E7FFE7019843F60041C4F274
:105170000201096801F00701884212D2FFE7019994
:1051800043F60040C4F202000170006800F007001E
:105190000199884204D0FFE701208DF80F0044E018
:1051A000FFE702980078400700280CD5FFE743F698
:1051B0000801C4F20201086820F4E050029AD268A3
:1051C00010430860FFE702980078000700280DD51B
:1051D000FFE743F60801C4F20201086820F46040CA
:1051E000029A126940EAC2000860FFE700F04CF83A
:1051F00043F60801C4F202010968C9B20A0945F27E
:10520000A821C0F60101895CC84040F2C401C2F285
:105210000001086040F29810C2F200000068FEF73A
:105220007FFC00208DF80F00FFE79DF80F0004B011
:1052300080BD000040F2C400C2F200000068704768
:1052400080B5FFF7F7FF43F60801C4F202010968D1
:10525000C1F3822245F2B821C0F60101895CC84041
:1052600080BD000080B5FFF7E5FF43F60801C4F2FA
:105270000201096889B24A0B45F2B821C0F6010162
:10528000895CC84080BD000080B586B000200590D4
:1052900004900390029043F60800C4F202000068F4
:1052A00000F00C000146019140B1FFE7019804288D
:1052B0000AD0FFE7019808280CD04FE042F20040E6
:1052C000C0F2F40002904FE041F60030C0F2B700A7
:1052D000029049E043F60400C4F20200016801F0C4
:1052E0003F01059100684002002813D5FFE743F60F
:1052F0000400C4F202000068C0F3881041F60031D7
:10530000C0F2B701A0FB0101059A0023FAF758FF8C
:10531000049012E043F60400C4F202000068C0F3F7
:10532000881042F20041C0F2F401A0FB0101059A8D
:105330000023FAF745FF0490FFE743F60400C4F2A8
:105340000200006800F44031022000EBD1300390ED
:1053500004980399B0FBF1F0029005E042F200409E
:10536000C0F2F4000290FFE7029806B080BD000092
:1053700080B586B00490049820B9FFE701208DF82D
:10538000170050E304980078C007002800F0A580BB
:10539000FFE743F60800C4F20200006800F00C00CA
:1053A000042813D0FFE743F60800C4F202000068A7
:1053B00000F00C0008281ED1FFE743F60400C4F2F9
:1053C000020000684002002815D5FFE743F6000000
:1053D000C4F20200006800F400310020B0EB514F2D
:1053E00008D0FFE70498406820B9FFE701208DF856
:1053F000170018E370E0FFE704984068B0F5803FBD
:1054000009D1FFE743F60001C4F20201086840F445
:105410008030086020E004984068B0F5A02F0DD1DE
:10542000FFE743F60001C4F20201086840F480205F
:105430000860086840F4803008600CE043F6000122
:10544000C4F20201086820F480300860086820F483
:1054500080200860FFE7FFE7FFE704984068E8B1B5
:10546000FFE7FEF72DFB0390FFE743F60000C4F2D1
:105470000200006800F400310020B0EB514F0CD165
:10548000FFE7FEF71DFB0399401A652804D3FFE7E9
:1054900003208DF81700C6E2E7E71CE0FEF710FBDB
:1054A0000390FFE743F60000C4F20200006800F436
:1054B00000310020B0EB514F0CD0FFE7FEF700FBAE
:1054C0000399401A652804D3FFE703208DF81700DD
:1054D000A9E2E7E7FFE7FFE7FFE704980078800726
:1054E000002840F19680FFE743F60800C4F202006E
:1054F000006810F00C0F13D0FFE743F60800C4F269
:105500000200006800F00C0008282CD1FFE743F6E9
:105510000400C4F2020000684002002823D4FFE720
:1055200043F60000C4F20200006800F0020100200F
:10553000B0EB510F09D0FFE70498C068012804D0F0
:10554000FFE701208DF817006DE243F60001C4F279
:105550000201086820F0F800049A126940EAC200CB
:105560000860FFE754E00498C06870B3FFE70021CB
:10557000C4F2472101200860FEF7A2FA0390FFE77A
:1055800043F60000C4F20200006800F002010020AF
:10559000B0EB510F0CD1FFE7FEF792FA0399401AD6
:1055A000032804D3FFE703208DF817003BE2E7E769
:1055B00043F60001C4F20201086820F0F800049AE2
:1055C000126940EAC200086021E00021C4F24721CC
:1055D00000200860FEF774FA0390FFE743F600002E
:1055E000C4F20200006800F002010020B0EB510F8D
:1055F0000CD0FFE7FEF764FA0399401A032804D39E
:10560000FFE703208DF817000DE2E7E7FFE7FFE76C
:10561000FFE704980078000700284BD5FFE70498BF
:10562000406918B3FFE740F68061C4F247210120CA
:105630000860FEF745FA0390FFE743F67400C4F2F2
:105640000200006800F002010020B0EB510F0CD105
:10565000FFE7FEF735FA0399401A032804D3FFE762
:1056600003208DF81700DEE1E7E722E040F68061D5
:10567000C4F2472100200860FEF722FA0390FFE7FA
:1056800043F67400C4F20200006800F0020100203A
:10569000B0EB510F0CD0FFE7FEF712FA0399401A56
:1056A000032804D3FFE703208DF81700BBE1E7E7E9
:1056B000FFE7FFE7049800784007002840F1CE801C
:1056C000FFE700208DF8070043F64000C4F2020017
:1056D0000068C000002815D4FFE7FFE70020009015
:1056E00043F64000C4F20200016841F080510160BD
:1056F000006800F0805000900098FFE701208DF8CE
:105700000700FFE747F20000C4F200000068C00590
:10571000002822D4FFE747F20001C4F20001086824
:1057200040F480700860FEF7CBF90390FFE747F282
:105730000000C4F200000068C00500280CD4FFE798
:10574000FEF7BEF90399401A032804D3FFE70320AC
:105750008DF8170067E1EAE7FFE7FFE70498806844
:10576000012809D1FFE743F67001C4F2020108687D
:1057700040F0010008601FE00498806805280DD102
:10578000FFE743F67001C4F20201086840F004002C
:105790000860086840F0010008600CE043F6700102
:1057A000C4F20201086820F001000860086820F0D7
:1057B00004000860FFE7FFE7FFE704988068F8B19E
:1057C000FFE7FEF77DF90390FFE743F67000C4F2B0
:1057D0000200006800F002010020B0EB510F0ED172
:1057E000FFE7FEF76DF90399401A41F289318842CB
:1057F00004D3FFE703208DF8170014E1E5E71EE06E
:10580000FEF75EF90390FFE743F67000C4F2020072
:10581000006800F002010020B0EB510F0ED0FFE74E
:10582000FEF74EF90399401A41F28931884204D3B8
:10583000FFE703208DF81700F5E0E5E7FFE79DF8A7
:105840000700012809D1FFE743F64001C4F2020135
:10585000086820F080500860FFE7FFE7049880693F
:10586000002800F0DC80FFE743F60800C4F20200E5
:10587000006800F00C00082800F08580FFE704981D
:10588000806902285CD1FFE76021C4F24721002033
:105890000860FEF715F90390FFE743F60000C4F235
:1058A0000200006800F000710020B0EB516F0CD0D6
:1058B000FFE7FEF705F90399401A032804D3FFE731
:1058C00003208DF81700AEE0E7E70499C869D1F826
:1058D00020C04B6A8A6A40EA0C0040EA8310D20377
:1058E0004FF6FF739A43A2F580321043C96A40EA2B
:1058F000016043F60401C4F2020108606021C4F2B1
:10590000472101200860FEF7DBF80390FFE743F62C
:105910000000C4F20200006800F000710020B0EB4B
:10592000516F0CD1FFE7FEF7CBF80399401A03281B
:1059300004D3FFE703208DF8170074E0E7E721E0C8
:105940006021C4F2472100200860FEF7B9F80390F7
:10595000FFE743F60000C4F20200006800F00071A7
:105960000020B0EB516F0CD0FFE7FEF7A9F80399C8
:10597000401A032804D3FFE703208DF8170052E0F4
:10598000E7E7FFE74AE004988069012804D1FFE7D0
:1059900001208DF8170046E043F60400C4F202002F
:1059A0000068029004988069012831D0FFE70298CE
:1059B00000F480000499C969884229D1FFE7029860
:1059C00000F03F000499096A884221D1FFE702985C
:1059D00047F6C07108400499496AB0EB811F17D19E
:1059E000FFE7029800F440300499896AC9034FF632
:1059F000FF729143A1F58031884209D1FFE70298F7
:105A000000F070600499C96AB0EB016F04D0FFE741
:105A100001208DF8170006E0FFE7FFE7FFE7002011
:105A20008DF81700FFE79DF8170006B080BD000055
:105A300080B584B00290029820B9FFE701208DF86C
:105A40000F0071E00298406A60B9FFE70298406871
:105A5000B0F5827F01D1FFE703E002990020C86121
:105A6000FFE705E002990020086102994861FFE71D
:105A7000029900208862029890F8510040B9FFE72F
:105A80000299002081F85000029800F051F8FFE7D9
:105A90000299022081F8510002980168086820F0FC
:105AA00040000860029A019211685068D2F808C05C
:105AB000D36800F482700CF4044C604403F4006377
:105AC0001844136903F002031844536903F00103F7
:105AD0001844936903F400731844D36903F038033E
