:020000040800F2
:10000000301100209D010008FD4D0008B547000893
:10001000F94D0008C50500085D6E000800000000ED
:100020000000000000000000000000009D610008CA
:10003000150E0008000000006D500008F561000872
:10004000B7010008B7010008B7010008B7010008B0
:10005000B7010008B7010008B7010008B7010008A0
:10006000B7010008B7010008B7010008B701000890
:100070002D0C0008B7010008B7010008B7010008FF
:10008000B7010008B7010008B7010008B701000870
:10009000C9050008B7010008B7010008B70100084A
:1000A000CD620008B7010008B7010008B7010008D9
:1000B000DD620008B7010008ED620008B701000822
:1000C000B7010008B7010008B7010008B701000830
:1000D000B7010008A96C0008B7010008C56C00084A
:1000E000B7010008B7010008B7010008B701000810
:1000F000B7010008B7010008B7010008B701000800
:10010000B7010008B7010008B7010008B7010008EF
:10011000B7010008B7010008FD620008B701000838
:100120003D0C0008B70100084D0C00085D0C0008EC
:10013000B7010008B7010008B7010008B7010008BF
:10014000D9050008B7010008B7010008B701000889
:10015000B70100086D0C0008B7010008F96C000831
:10016000B7010008B7010008B7010008B70100088F
:10017000B7010008B7010008B7010008000000003F
:10018000B7010008B7010008DFF80CD000F008FA4A
:1001900000480047F96F00083011002006488047EA
:1001A00006480047FEE7FEE7FEE7FEE7FEE7FEE75C
:1001B000FEE7FEE7FEE7FEE7B962000889010008F6
:1001C0002DE9F05F0546002092469B46884606468C
:1001D000814640241BE0284641464746224600F01F
:1001E00029F953465A46C01A914110D31146184670
:1001F000224600F010F92D1A67EB01084F462246FF
:100200000120002100F007F917EB00094E41201EE4
:10021000A4F10104DFDC484631462A464346BDE8E6
:10022000F09F40EA01039B0703D009E008C9121FB1
:1002300008C0042AFAD203E011F8013B00F8013BA0
:10024000521EF9D27047D2B201E000F8012B491ECC
:10025000FBD270470022F6E710B513460A46044663
:100260001946FFF7F0FF204610BD2DE9FE4F8046EE
:1002700081EA0300C00F0C46009021F0004123F0FA
:100280000045B8EB0200A94105D240462146904600
:100290001C460B46024623F00040104347D0270D72
:1002A000C7F30A00C3F30A510290401A0190402894
:1002B0006BDAC3F3130040F4801B0098924620B120
:1002C0000023D2EB030A63EB0B0B01985946C0F1F4
:1002D0004002504600F09FF806460D4650465946EB
:1002E000019A00F0B7F810EB08006141002487EA9A
:1002F000115284EAE7731A4340D0009A62B3019A1C
:10030000012A4FEA075215DC001B61EB02014FF096
:10031000004202EA0752CDE90042001C41F580117B
:1003200032462B4600F0EEF803B0BDE8F08F4046B1
:100330002146F9E7001B61EB0201001C41F5801327
:1003400000185B412018A2F5001747EB030140EAB3
:10035000D570B6196D4111E06D084FEA360645EAD1
:10036000C0754FEA0752001B61EB0201001C41F50A
:10037000801149084FEA30000019514132462B469E
:1003800003B0BDE8F04F00F0AEB800980122400085
:100390000023D0EB020263EBE073009821464FEAA2
:1003A000E074B8EB000061EB0401E9E783F000437F
:1003B0005BE781F0004158E700F0004230F0004078
:1003C0000AD0C10D01F56071C0F3160042EA015177
:1003D000C20840071143704700200146704701F0F2
:1003E000004330B421F0004150EA010206D00A0D6A
:1003F000A2F56072C1F31301002A02DC30BC0020B8
:100400007047440F44EAC104C100E01830BC00EB5F
:10041000C25000F031B8202A04DB203A00FA02F181
:10042000002070479140C2F1200320FA03F31943E2
:1004300090407047202A04DB203A21FA02F0002184
:10044000704721FA02F3D040C2F1200291400843E4
:1004500019467047202A06DBCB17203A41FA02F0F2
:1004600043EAE07306E041FA02F3D040C2F1200211
:1004700091400843194670470029A8BF7047401CA7
:10048000490008BF20F00100704710B4B0FA80FCAA
:1004900000FA0CF050EA010404BF10BC704749B1E7
:1004A000CCF1200421FA04F411FA0CF118BF012157
:1004B00021430843A3EB0C01CB1D4FEA00614FEA37
:1004C000102042BF002010BC704700EBC350104406
:1004D0000029A4BF10BC7047401C490008BF20F091
:1004E000010010BC704710B5141E73F1000408DA47
:1004F000401C41F1000192185B411A4301D120F0E8
:10050000010010BD2DE9F04D92469B4611B1B1FAA4
:1005100081F202E0B0FA80F220329046FFF77BFFD2
:1005200004460F4640EA0A0041EA0B0153465A4688
:10053000084313D0114653EA010019D0C8F1400214
:100540005046FFF777FF05460E465046594642464D
:10055000FFF761FF084305D0012004E0204639463B
:10056000BDE8F08D0020054346EAE0762C43374392
:100570000A986305E40AA0EB08000022FD0A44EA99
:1005800047540A3002D500200146E9E70105101959
:100590006941DDE9084500196941BDE8F04DA2E770
:1005A000064C074D06E0E06840F0010394E80700C0
:1005B00098471034AC42F6D3FFF7EAFD08750008FF
:1005C00028750008FFE7FEE780B540F2E870C2F248
:1005D000000000F033FF80BD80B540F61000C2F28D
:1005E000000000F02BFF80BD80B588B00790069119
:1005F0000798006846F20041C4F2000188423FD1EA
:10060000FFE70698A0F2012001460591032835D89E
:100610000599DFE801F0020D192640F2AC30C2F274
:10062000000040F22C11C2F2000104F0C5F826E0EF
:1006300040F2AC30C2F20000B43040F22C11C2F2F1
:10064000000104F0B9F81AE040F2AC30C2F2000048
:1006500000F5B47040F22C11C2F2000104F0ACF8C5
:100660000DE040F2AC30C2F2000000F5077040F23D
:100670002C11C2F2000104F09FF800E0FFE7FFE751
:100680000798006846F60001C4F20001884258D17C
:10069000FFE70698A0F203200146049108284ED8EF
:1006A0000499DFE801F03B4C4C4C2F24144C05001E
:1006B00040F27C60C2F20000039040F22C11C2F2C2
:1006C000000104F079F8039804F09AF838E040F259
:1006D0007C60C2F20000B430029040F22C11C2F2F1
:1006E000000104F069F8029804F08AF828E040F26A
:1006F0009010C2F2000040F22C11C2F2000104F08E
:100700005BF81DE040F29010C2F20000B43040F2FD
:100710002C11C2F2000104F04FF811E040F29010E9
:10072000C2F2000000F5B470019040F22C11C2F248
:10073000000104F041F8019804F062F800E0FFE7DE
:10074000FFE708B080BD000010B58EB08C4686462D
:1007500011981099CDF834E0ADF832C0ADF83020E2
:10076000ADF82E30ADF82C10ADF82A000020019025
:10077000BDF9321004910590082108910690079068
:100780009DF831008DF808009DF830008DF80900C3
:100790009DF82F008DF80A009DF82E008DF80B00B3
:1007A0009DF82D008DF80C009DF82C008DF80D00A3
:1007B0009DF82B008DF80E009DF82A008DF80F0093
:1007C0000D9804A902AA01AB00F0B2FB0EB010BD57
:1007D00080B58AB00121089100200490009001901A
:1007E00002900390069007910E210991059040F226
:1007F000E870C2F20000694600F052FC18B1FFE751
:1008000000F00AFBFFE740F2E870C2F2000001F0DE
:10081000EBF918B1FFE700F0FFFAFFE740F2E870EC
:10082000C2F20000022100F059FB18B1FFE700F00E
:10083000F3FAFFE740F2E870C2F20000012100F095
:100840004DFB18B1FFE700F0E7FAFFE70E20099033
:10085000059040F61000C2F20000694600F020FC4E
:1008600018B1FFE700F0D8FAFFE740F61000C2F237
:10087000000001F0B9F918B1FFE700F0CDFAFFE789
:1008800040F61000C2F20000022100F027FB18B170
:10089000FFE700F0C1FAFFE740F61000C2F20000E7
:1008A000012100F01BFB18B1FFE700F0B5FAFFE7EC
:1008B0000AB080BD80B58EB00D900C9100200B90D9
:1008C0000A9009904FF07E51089147F20032C0F62D
:1008D00000021168526807920691059004900390F7
:1008E0000290019000900C98B0F9020000EE100AFE
:1008F000B8EEC00A9DED081A20EE010A8DED0B0A34
:100900000C98B0F9040000EE100AB8EEC00A9DED94
:10091000081A20EE010A8DED0A0A9DED0B0A9DEDE5
:100920000A1A30EE010A9DED092A9DED063A9DED69
:10093000071A22EE032A30EE420A20EE010A10EED8
:10094000100AFFF739FD41EC110B9DED000B53EC44
:10095000112B51EC100BFFF788FC41EC100B51EC04
:10096000100BFFF73CFD0D9988619DED0B1A9DED75
:100970000A0A30EE410A9DED092A9DED063A9DEDE9
:10098000071A22EE032A30EE420A20EE010A10EE88
:10099000100AFFF711FD41EC110B9DED000B53EC1C
:1009A000112B51EC100BFFF760FC41EC100B51ECDC
:1009B000100BFFF714FD0D99C1F8CC009DED0B0A4B
:1009C000B1EE400A9DED0A1A30EE410A9DED092A6A
:1009D0009DED063A9DED071A22EE032A30EE420AFB
:1009E00020EE010A10EE100AFFF7E6FC41EC110BB5
:1009F0009DED000B53EC112B51EC100BFFF735FC68
:100A000041EC100B51EC100BFFF7E9FC0D99C1F80C
:100A100080019DED0B0A9DED0A1A30EE410A9DED15
:100A2000092A9DED063A9DED071A22EE032A30EEC3
:100A3000420A20EE010A10EE100AFFF7BDFC41EC5D
:100A4000110B9DED000B53EC112B51EC100BFFF72C
:100A50000CFC41EC100B51EC100BFFF7C0FC0D9996
:100A6000C1F834020D9804F0E3FA0D98B43004F0A4
:100A7000DFFA0D9800F5B47004F0DAFA0D9800F57D
:100A8000077004F0D5FA0EB080BD000081B0009070
:100A900040F27010C2F200004168C1F30131009AC7
:100AA00011734168C1F38131009A517301686FF38A
:100AB000DF21A1F58061009A51800168C1F3CA214C
:100AC000A1F58061009A918001684268890D41EA30
:100AD00082216FF3DF21A1F58061009AD180416806
:100AE000C1F34A01A1F58061009A118101696FF398
:100AF000DF21A1F58061009A5181817B01F0010322
:100B0000009A92F82C1001F0F001194482F82C1090
:100B1000C168C1F34043009A92F82C1001F00F0114
:100B200041EA031182F82C10C168C1F38043009A96
:100B300092F82D1001F0F001194482F82D10C168CF
:100B4000C1F3C043009A92F82D1001F00F0141EA61
:100B5000031182F82D10C168C1F30053009A92F876
:100B60002E1001F0F001194482F82E10C168C1F373
:100B70008053009A92F82F1001F0F001194482F886
:100B80002F10C168C1F3C053009A92F82F1001F0E2
:100B90000F0141EA031182F82F10C168C1F380737D
:100BA000009A92F8331001F0F001194482F83310E2
:100BB000C268102101EAD263009A92F8331001F062
:100BC0000F01194482F83310C168C1F3C063009A61
:100BD00092F8311001F00F0141EA031182F831104F
:100BE000C168C1F30073009A92F8321001F0F0016D
:100BF000194482F83210C168C1F34073009A92F828
:100C0000321001F00F0141EA031182F83210C0687E
:100C1000C0F34052009991F82E0000F00F0040EA16
:100C2000021081F82E0001B07047000080B540F638
:100C3000F800C2F2000001F0D1F880BD80B540F6A6
:100C40003800C2F2000001F0C9F880BD80B540F65E
:100C50005810C2F2000001F0C1F880BD80B540F626
:100C60009800C2F2000001F0B9F880BD80B540F6EE
:100C7000B810C2F2000001F0B1F880BD82B001905E
:100C80000198007810384AF6AB21CAF6AA21A0FBD9
:100C9000011000090090009947F2F820C0F600000A
:100CA000405C0199C8650098042807D3FFE70199C3
:100CB0000868042262F30900886506E00199086863
:100CC00040F2FF3290438865FFE70198806D02B0E3
:100CD0007047000086B0059000208DF8130005983D
:100CE000806A03900598806910BBFFE70398029023
:100CF00003281BD80299DFE801F0020D02180598BD
:100D000090F82F00C00720B1FFE701208DF81300F5
:100D1000FFE70CE00598C06AB0F1C07F04D1FFE79F
:100D200001208DF81300FFE701E000E0FFE745E058
:100D300005988069B0F5005F25D1FFE70398019021
:100D400003281ED80199DFE801F0020602110120F4
:100D50008DF8130016E0059890F82F00C00720B119
:100D6000FFE701208DF81300FFE70BE00598C06A4C
:100D7000B0F1C07F04D1FFE701208DF81300FFE739
:100D800000E0FFE719E003980090032804D3FFE791
:100D90000098032804D00EE001208DF813000BE02A
:100DA000059890F82F00C00720B1FFE701208DF8CB
:100DB0001300FFE700E0FFE7FFE7FFE79DF8130000
:100DC00006B0704784B0039002910192009303989B
:100DD0000168086820F48020086000980399096879
:100DE000486003988068402809D1FFE7019803997B
:100DF00009688860029803990968C86008E0029849
:100E0000039909688860019803990968C860FFE739
:100E100004B070477047000081B0EFF3108072B6E5
:100E20000090FFE7FEE7000084B002900191ADF86A
:100E30000220029828B9FFE74FF6FF70ADF80E00C8
:100E400021E0FFE70198411E0191B8B1FFE7029848
:100E5000411C029100788DF80100BDF802109DF848
:100E600001004840C2B247F20830C0F6000030F836
:100E7000120080EA1120ADF80200E3E7BDF802009D
:100E8000ADF80E00FFE7BDF80E0004B0704700009B
:100E900082B00190ADF802108DF80120FFE7BDF897
:100EA0000200411EADF8021098B1FFE79DF8010065
:100EB00001994A1C0192097848408DF800009DF87C
:100EC000001047F2F810C0F60000405C8DF80100F9
:100ED000E5E79DF8010002B07047000084B0029081
:100EE0000191029890F820008DF803009DF803000E
:100EF000012805D0FFE79DF8030002280AD1FFE78B
:100F0000019A0298016848691043486100208DF8F1
:100F10000F0008E00299486A40F4802048620120EE
:100F20008DF80F00FFE79DF80F0004B07047000038
:100F300088B00690059104920393069890F82000DB
:100F40008DF8070006980068806800900598806812
:100F500008B9FFE700E0FFE79DF80700012806D089
:100F6000FFE79DF80700022840F08D80FFE79DF81D
:100F70000300400700280CD4FFE79DF8030000079A
:100F8000002806D4FFE79DF80300C006002871D5AD
:100F9000FFE70098C0F3016002900298032809D38C
:100FA000FFE70699486A40F40000486201208DF886
:100FB0001F0071E00299012088400399086005989C
:100FC000806868B9FFE705980168C06840EA415049
:100FD00006990968029A01EB0211C1F880010EE03E
:100FE00005994A688868C96840EAC20008430699BA
:100FF0000968029A01EB0211C1F88001FFE7059828
:10100000006906990968029A01EB0211C1F884018E
:101010000598007D01280CD1FFE706980068029929
:1010200000EB0111D1F8840140F48070C1F8840113
:10103000FFE70498406806990968029A01EB0211DB
:10104000C1F88C010498006806990968029A01EBBE
:101050000211C1F8880106980068029900EB01119D
:10106000D1F8800140F00100C1F8800100208DF826
:101070001F0011E00699486A40F400104862012000
:101080008DF81F0008E00699486A40F48020486205
:1010900001208DF81F00FFE79DF81F0008B0704782
:1010A00086B004900391049800680190049890F829
:1010B00020008DF803009DF80300012806D0FFE70B
:1010C0009DF80300022840F0B080FFE746F20040A0
:1010D000C4F2000001900199D1F8000240F0010033
:1010E000C1F800020199D1F8000220F47C50C1F847
:1010F00000020398426A0199D1F8000240EA0220F6
:10110000C1F800020398406900F01F0101208840E7
:101110000290029A0199D1F81C029043C1F81C0276
:101120000398C069F0B9FFE7029A0199D1F80C025F
:101130009043C1F80C02039A9088D168526940EA42
:101140000140019901EBC201C1F84002039A1088E5
:101150009168526940EA0140019901EBC201C1F86E
:101160004402FFE70398C06901281ED1FFE7029AF5
:101170000199D1F80C021043C1F80C02039A90882F
:101180001168526940EA0140019901EBC201C1F8BE
:101190004002039A90899168526940EA014001999E
:1011A00001EBC201C1F84402FFE70398806940B92E
:1011B000FFE7029A0199D1F804029043C1F80402B2
:1011C00007E0029A0199D1F804021043C1F8040221
:1011D000FFE70398006940B9FFE7029A0199D1F847
:1011E00014029043C1F8140207E0029A0199D1F861
:1011F00014021043C1F81402FFE70398006A0128A3
:1012000008D1FFE7029A0199D1F81C021043C1F8F6
:101210001C02FFE70199D1F8000220F00100C1F89B
:10122000000200208DF8170008E00499486A40F495
:101230008020486201208DF81700FFE79DF8170015
:1012400006B0704781B0009001B0704786B004903E
:10125000039102920193049890F820008DF8030006
:101260009DF80300012806D0FFE79DF8030002283F
:1012700040F0D780FFE7039880B9FFE70498006843
:10128000C068800748B9FFE70499486A40F4001035
:10129000486201208DF81700CCE00FE00498006848
:1012A0000069800748B9FFE70499486A40F40010D4
:1012B000486201208DF81700BCE0FFE70498006841
:1012C000039900EB0110D0F8B00100F0040002997E
:1012D00088600298806858B9FFE70498006803990D
:1012E00000EB0110D0F8B001400D029908600AE04F
:1012F00004980068039900EB0110D0F8B001C00811
:1013000002994860FFE704980068039900EB011018
:10131000D0F8B00100F002000299C860049800689B
:10132000039900EB0110D0F8B40100F00F0002990E
:10133000086104980068039900EB0110D0F8B4012B
:1013400080B2000A0299886104980068039900EB52
:101350000110D0F8B401000C0299486104980068AB
:10136000039900EB0110D0F8B801019908700498B6
:101370000068039900EB0110D0F8B801000A019948
:10138000487004980068039900EB0110D0F8B80188
:10139000000C0199887004980068039900EB011013
:1013A000D0F8B801000E0199C8700498006803993C
:1013B00000EB0110D0F8BC01019908710498006895
:1013C000039900EB0110D0F8BC01000A01994871A3
:1013D00004980068039900EB0110D0F8BC01000CE0
:1013E0000199887104980068039900EB0110D0F806
:1013F000BC01000E0199C871039838B9FFE7049841
:101400000168C86840F02000C86006E004980168E0
:10141000086940F020000861FFE700208DF8170000
:1014200008E00499486A40F48020486201208DF861
:101430001700FFE79DF8170006B0704780B58AB027
:101440000990002008900998006840690790099861
:1014500000684068069009980068806805900998BF
:101460000068C068049009980068006903900998B2
:101470000068806902909DF81C00C007002800F0F9
:101480009480FFE79DF81400C00758B3FFE7099860
:101490000168012088609DF814008007002804D5A9
:1014A000FFE7099800F0EAFB1BE09DF814004007F5
:1014B000002805D5FFE7089840F4006008900FE089
:1014C0009DF814000007002805D5FFE7089840F4B0
:1014D0008050089003E0099800F0CCFBFFE7FFE79D
:1014E000FFE7FFE79DF81500C00760B3FFE7099825
:1014F00001684FF4807088609DF81500800700280F
:1015000004D5FFE7099800F0C1FB1BE09DF815002A
:101510004007002805D5FFE7089840F400500890E0
:101520000FE09DF815000007002805D5FFE7089893
:1015300040F48040089003E0099800F0A3FBFFE727
:10154000FFE7FFE7FFE79DF81600C00760B3FFE77E
:10155000099801684FF4803088609DF81600800774
:10156000002804D5FFE7099800F098FB1BE09DF8E0
:1015700016004007002805D5FFE7089840F4004012
:1015800008900FE09DF816000007002805D5FFE73A
:10159000089840F48030089003E0099800F07AFB46
:1015A000FFE7FFE7FFE7FFE7FFE79DF81C00000705
:1015B000002810D5FFE79DF81000C006002809D5C7
:1015C000FFE7089840F4007008900998016810201F
:1015D000C860FFE7FFE79DF81C00400700280FD513
:1015E000FFE79DF810000007002808D5FFE70998DD
:1015F00001680820C860099800F0CEFAFFE7FFE70D
:101600009DF81C00800700280BD5FFE709980068AB
:10161000C068800720B1FFE7099800F0C1FAFFE732
:10162000FFE79DF81C004006002810D5FFE79DF855
:101630000C00C006002809D5FFE7089840F4806038
:1016400008900998016810200861FFE7FFE79DF8FE
:101650001C00800600280FD5FFE79DF80C0000074E
:10166000002808D5FFE70998016808200861099853
:1016700000F0AEFAFFE7FFE79DF81C00C006002867
:101680000BD5FFE7099800680069800720B1FFE7E4
:10169000099800F0A1FAFFE7FFE79DF81E00800718
:1016A00000280FD5FFE79DF81800C006002808D5D0
:1016B000FFE70998016810204860099800F090FA47
:1016C000FFE7FFE79DF81E00C00778B1FFE79DF830
:1016D00018000007002808D5FFE7099801680820CE
:1016E0004860099800F0DEFAFFE7FFE79DF81D006B
:1016F0000006002840F18D80FFE79DF818004007A4
:10170000002840F18180FFE79DF81D00C00750B11F
:10171000FFE79DF80800C00728B1FFE7089840F0F0
:1017200001000890FFE79DF81D00800700280BD5F9
:10173000FFE79DF808008007002805D5FFE7089817
:1017400040F002000890FFE79DF81D0040070028C8
:101750000BD5FFE79DF808004007002805D5FFE7F7
:10176000089840F004000890FFE79DF81D0000076E
:10177000002848D5FFE79DF8080010F0700F42D010
:10178000FFE7029800F0700001460191102814D084
:10179000FFE70198202815D0FFE70198302816D0E0
:1017A000FFE70198402817D0FFE70198502818D08C
:1017B000FFE70198602819D01DE0089840F0080064
:1017C000089019E0089840F01000089014E008987C
:1017D00040F0200008900FE0089840F0400008908A
:1017E0000AE0089840F08000089005E0089840F46E
:1017F0008070089000E0FFE709980168886920F090
:1018000070008861FFE7FFE70998016804204860DD
:10181000FFE7089848B1FFE7089A0999486A10431A
:1018200048620998FFF70EFDFFE70AB080BD00008F
:1018300080B584B00290029820B9FFE701208DF8AE
:101840000F00E0E0029890F8200020B9FFE702982E
:1018500000F0DEF8FFE702980168086840F0010038
:10186000086000F07BFF0190FFE702980068406885
:10187000C007A8B9FFE700F071FF0199401A0B28D3
:101880000DD3FFE70299486A40F40030486202999C
:10189000052081F8200001208DF80F00B3E0E4E777
:1018A00002980168086820F00200086000F056FF06
:1018B0000190FFE70298006840688007002815D56E
:1018C000FFE700F04BFF0199401A0B280DD3FFE70B
:1018D0000299486A40F4003048620299052081F874
:1018E000200001208DF80F008DE0E3E70298007ED4
:1018F000012807D1FFE702980168086840F08000DE
:10190000086006E002980168086820F0800008601E
:10191000FFE70298407E012807D1FFE7029801689F
:10192000086840F04000086006E002980168086816
:1019300020F040000860FFE70298807E012807D170
:10194000FFE702980168086840F02000086006E0A0
:1019500002980168086820F020000860FFE70298FC
:10196000C07E012807D1FFE702980168086820F0CF
:101970001000086006E002980168086840F0100056
:101980000860FFE70298007F012807D1FFE702986F
:101990000168086840F00800086006E002980168E5
:1019A000086820F008000860FFE70298407F0128DF
:1019B00007D1FFE702980168086840F0040008605A
:1019C00006E002980168086820F004000860FFE75C
:1019D000029B19685A689868D3F80CC040EA0C005A
:1019E000D3F810C040EA0C005B691843013A104379
:1019F000C861029900204862029A012182F82010F1
:101A00008DF80F00FFE79DF80F0004B080BD0000C7
:101A100080B592B01190002010900F900E900D9014
:101A20000C901198006846F20041C4F2000188420F
:101A30004AD1FFE740F28C10C2F200000168013188
:101A400001600068012812D1FFE7FFE700200B903A
:101A500043F64000C4F20200016841F000710160E9
:101A6000006800F000700B900B98FFE7FFE7FFE7BE
:101A700000200A9043F63000C4F20200016841F0F1
:101A800008010160006800F008000A900A98FFE76A
:101A900003200C90022104910D91002105910E91DB
:101AA0000F900920109040F60040C4F202000CA9EB
:101AB00000F060FC0499059A1420069000F0E6FE00
:101AC000069800F0D9FE65E01198006846F600011E
:101AD000C4F2000188425CD1FFE7FFE700200990D3
:101AE00043F64000C4F20200016841F080610160E9
:101AF000006800F0806009900998FFE740F28C10C0
:101B0000C2F200000168013101600068012812D1B1
:101B1000FFE7FFE70020089043F64000C4F2020010
:101B2000016841F000710160006800F000700890E9
:101B30000898FFE7FFE7FFE70020079043F6300033
:101B4000C4F20200016841F002010160006800F087
:101B5000020007900798FFE760200C900220019098
:101B60000D90002002900E9003200F9009201090FD
:101B700040F20040C4F202000CA900F0FBFB019906
:101B8000029A4020039000F081FE039800F074FE5A
:101B9000FFE7FFE712B080BD81B0009001B0704751
:101BA00080B582B00190019840F21012C2F200029A
:101BB000009240F22C13C2F200030021FFF746FB13
:101BC000009901980968FEF70FFD02B080BD000082
:101BD00081B0009001B0704781B0009001B07047B3
:101BE00081B0009001B0704780B584B00290029837
:101BF00090F8200001282FD1FFE70299022081F8F8
:101C0000200002980168086820F00100086000F0D8
:101C1000A5FD0190FFE7029800684068C007A8B1E1
:101C2000FFE700F09BFD0199401A0B280DD3FFE759
:101C30000299486A40F4003048620299052081F810
:101C4000200001208DF80F000FE0E4E7029900204A
:101C500048628DF80F0008E00299486A40F40020BD
:101C6000486201208DF80F00FFE79DF80F0004B0D7
:101C700080BD000081B0009001B0704781B000903D
:101C800001B0704781B0009001B0704781B0009002
:101C900001B0704781B0009001B0704781B00090F2
:101CA00001B0704781B0009001B0704780B584B03A
:101CB00002900298806D019000F050FD0090029813
:101CC00090F8350002280DD0FFE702998020486582
:101CD000FFE70299002081F83400FFE701208DF82A
:101CE0000F0055E002980168086820F016000860AF
:101CF00002980168486920F0800048610298006CF1
:101D000020B9FFE70298806C38B1FFE702980168BC
:101D1000086820F008000860FFE70298016808687A
:101D200020F001000860FFE7029800680068C00723
:101D3000C8B1FFE700F012FD0099401A062811D340
:101D4000FFE70299202048650299032081F83500B9
:101D5000FFE70299002081F83400FFE703208DF8A7
:101D60000F0015E0E0E70298C16D3F20884001991F
:101D700088600299012081F83500FFE70299002070
:101D800081F83400FFE7FFE700208DF80F00FFE740
:101D90009DF80F0004B080BD82B00090009890F8CC
:101DA0003500022807D0FFE7009980204865012010
:101DB0008DF807000EE00099052081F835000098A5
:101DC0000168086820F001000860FFE700208DF836
:101DD0000700FFE79DF8070002B0704780B586B0A6
:101DE00005900020039040F20400C2F20000006859
:101DF00048F2B511C1F64E31A0FB0110800A0290E5
:101E00000598806D019001980068049004980599E8
:101E1000C96DC840000700281AD5FFE7059800687B
:101E200000684007002812D5FFE705980168086898
:101E300020F0040008600598C16D082088400199D1
:101E400088600599486D40F001004865FFE7FFE7AD
:101E500004980599C96DC840C007A0B1FFE705986F
:101E600000684069000600280CD5FFE70598C16DA1
:101E700001208840019988600599486D40F0020072
:101E80004865FFE7FFE704980599C96DC84040071A
:101E9000002814D5FFE7059800680068800700282F
:101EA0000CD5FFE70598C16D042088400199886032
:101EB0000599486D40F004004865FFE7FFE7049886
:101EC0000599C96DC840C006002847D5FFE70598A9
:101ED00000680068000700283FD5FFE70598C16D3E
:101EE00010208840019988600598006800684003C8
:101EF00000281AD5FFE7059800680068000300284D
:101F000009D4FFE70598006C20B1FFE70598016C44
:101F10008847FFE708E00598806C20B1FFE7059847
:101F2000816C8847FFE7FFE716E0059800680068C6
:101F3000C005002807D4FFE705980168086820F06D
:101F400008000860FFE70598006C20B1FFE70598DE
:101F5000016C8847FFE7FFE7FFE7FFE70498059973
:101F6000C96DC8408006002840F18D80FFE70598C4
:101F700000680068C006002840F18480FFE70598EB
:101F8000C16D2020884001998860059890F835003F
:101F9000052834D1FFE705980168086820F016008D
:101FA000086005980168486920F08000486105983C
:101FB000006C20B9FFE70598806C38B1FFE7059801
:101FC0000168086820F008000860FFE70598C16D07
:101FD0003F208840019988600599012081F83500EB
:101FE000FFE70599002081F83400FFE70598006DB0
:101FF00020B1FFE70598016D8847FFE77BE0059872
:1020000000680068400300281AD5FFE705980068BB
:1020100000680003002809D4FFE70598406C20B150
:10202000FFE70598416C8847FFE708E00598C06B1B
:1020300020B1FFE70598C16B8847FFE7FFE720E085
:10204000059800680068C005002811D4FFE70598CE
:102050000168086820F0100008600599012081F8E7
:102060003500FFE70599002081F83400FFE7FFE71E
:102070000598C06B20B1FFE70598C16B8847FFE763
:10208000FFE7FFE7FFE70598406DA0B3FFE705987E
:10209000406DC00730B3FFE70599052081F8350092
:1020A00005980168086820F001000860FFE70398C0
:1020B000013003900299884201D9FFE707E0FFE76A
:1020C000059800680068C0070028F0D1FFE705996F
:1020D000012081F83500FFE70599002081F83400E0
:1020E000FFE7FFE70598C06C20B1FFE70598C16CDA
:1020F0008847FFE7FFE706B080BD000080B586B0E7
:1021000004900020039000F029FB0290049820B96D
:10211000FFE701208DF81700A3E00498406A08B19A
:10212000FFE7FFE70499022081F83500FFE70499F3
:10213000002081F83400FFE704980168086820F067
:1021400001000860FFE7049800680068C00790B1CC
:10215000FFE700F003FB0299401A06280AD3FFE7C5
:102160000499202048650499032081F835008DF8F2
:10217000170076E0E7E7049800680068039003988A
:1021800048F23F01CFF210010840039004990091FA
:102190004868D1F808C0CB680A6940EA0C001843C7
:1021A00010434A6910438A691043CA691043096A97
:1021B00001430398084303900498406A042808D117
:1021C000FFE70499C86A096B014303980843039029
:1021D000FFE703980499096808600498006840695B
:1021E0000390039820F0070003900498416A039835
:1021F000084303900498406A04281AD1FFE7049822
:10220000816A0398084303900498C06A80B1FFE78D
:102210000498FEF75FFD50B1FFE704994020486540
:102220000499012081F835008DF8170019E0FFE7C7
:10223000FFE703980499096848610498FEF71EFDBA
:1022400001900498C16D3F208840019988600499ED
:1022500000204865049A012182F835108DF8170096
:10226000FFE79DF8170006B080BD000080B588B07C
:10227000069005910492039300208DF80B000698B8
:10228000806D0190FFE7069890F83400012804D192
:10229000FFE702208DF81F0045E00699012081F834
:1022A0003400FFE7FFE7069890F8350001282BD1AE
:1022B000FFE70699022081F835000699002048655D
:1022C00006980599049A039BFEF77CFD0698C16D5C
:1022D0003F2088400199886006980168086840F0AE
:1022E000160008600698006C38B1FFE70698016890
:1022F000086840F008000860FFE706980168086871
:1023000040F00100086009E0FFE70699002081F82D
:102310003400FFE702208DF80B00FFE79DF80B006B
:102320008DF81F00FFE79DF81F0008B080BD00007A
:1023300080B584B0039000F011FA029003980190E8
:102340000198013048B1FFE740F20800C2F20000F6
:102350000178019808440190FFE7FFE700F0FEF9DB
:102360000299401A0199884201D2FFE7F6E704B0CA
:1023700080BD00008EB00D900C9100200A90099055
:1023800008900B90FFE70B980F2800F2CC81FFE735
:102390000B99012088400A900C9800680A9908401F
:1023A000099009980A99884240F0B881FFE70C9893
:1023B000406800F00300012807D0FFE70C98406850
:1023C00000F0030002282FD1FFE70D9880680890E5
:1023D0000B984100032000FA01F108988843089007
:1023E0000C98C0680B99490000FA01F1089808435D
:1023F000089008980D9988600D98406808900B998E
:10240000012000FA01F10898884308900C98406870
:10241000C0F300100B9900FA01F1089808430890E6
:1024200008980D994860FFE70C98406800F0030099
:10243000032818D0FFE70D98C06808900B9841005A
:10244000032000FA01F10898884308900C988068EE
:102450000B99490000FA01F1089808430890089880
:102460000D99C860FFE70C98406800F0030002284F
:1024700026D1FFE70D980B996FF0030202EA510194
:102480000844006A08900B9800F0070081000F20B4
:1024900000FA01F10898884308900C9800690B999C
:1024A00001F00701890000FA01F10898084308903B
:1024B00008980D990B9B02EA530211440862FFE74A
:1024C0000D98006808900B984100032000FA01F174
:1024D0000898884308900C98406800F003000B9916
:1024E000490000FA01F108980843089008980D99EE
:1024F00008600C9880798007002800F00E81FFE7C3
:10250000FFE70020079043F64400C4F20200016890
:1025100041F480410160006800F480400790079812
:10252000FFE70B9820F0030043F60801C4F2010115
:10253000405808900B9800F0030081000F2000FA2B
:1025400001F10898884308900D980021C4F2020117
:10255000884203D1FFE7002006905EE00D9840F22C
:102560000041C4F20201884203D1FFE70120059037
:1025700050E00D9840F60001C4F20201884203D1F8
:10258000FFE70220049042E00D9840F60041C4F2BB
:102590000201884203D1FFE70320039034E00D9845
:1025A00041F20001C4F20201884203D1FFE7042096
:1025B000029026E00D9841F20041C4F202018842E7
:1025C00003D1FFE70520019018E00D9841F60001C6
:1025D000C4F20201884203D1FFE7062000900AE01E
:1025E0000D9941F60042C4F202020820914208BF50
:1025F00007200090FFE700980190FFE70198029004
:10260000FFE702980390FFE703980490FFE7049820
:102610000590FFE705980690FFE70698C0B20B9972
:1026200001F00301890000FA01F1089808430890BD
:1026300008980B9921F0030143F60802C4F2010245
:10264000885043F60840C4F20100006808900999D8
:102650000898884308900C988079C006002805D512
:10266000FFE70999089808430890FFE7089843F6A0
:102670000841C4F20101086043F60C40C4F20100B5
:102680000068089009990898884308900C98807908
:102690008006002805D5FFE70999089808430890A7
:1026A000FFE7089843F60C41C4F20101086043F6C5
:1026B0000440C4F201000068089009990898884312
:1026C00008900C9880798007002805D5FFE70999C4
:1026D000089808430890FFE7089843F60441C4F2BD
:1026E0000101086043F60040C4F201000068089050
:1026F00009990898884308900C988079C00728B1F8
:10270000FFE70999089808430890FFE7089843F6FF
:102710000041C4F201010860FFE7FFE7FFE70B9803
:1027200001300B902FE60EB07047000082B0019090
:10273000ADF802108DF801209DF8010028B1FFE7E7
:10274000BDF802000199886105E0BDF802000004AF
:1027500001998861FFE702B07047000040F62C50F5
:10276000C2F200000068704740F20800C2F20000A8
:10277000027840F62C51C2F200010868104408604B
:102780007047000080B543F60041C4F202010868BA
:1027900040F400700860086840F4806008600868D1
:1027A00040F480700860032000F08AF80F2000F0E9
:1027B00005F800F03BF8002080BD000080B582B035
:1027C000009040F20400C2F20000006840F20801EC
:1027D000C2F200010A784FF47A71B1FBF2F1B0FB5A
:1027E000F1F000F0EFFE20B1FFE701208DF80700C7
:1027F00018E000980F280DD8FFE700994FF0FF3040
:10280000002200F043F8009840F20C01C2F20001EF
:10281000086003E001208DF8070003E000208DF838
:102820000700FFE79DF8070002B080BD82B0FFE718
:102830000020019043F64400C4F20200016841F414
:1028400080410160006800F4804001900198FFE73A
:10285000FFE70020009043F64000C4F20200016848
:1028600041F080510160006800F0805000900098B5
:10287000FFE702B07047000080B582B08DF8070016
:102880009DF9070004F058FB02B080BD80B586B00A
:102890008DF81700049103920020029004F064FB6D
:1028A00002909DF91700019002980499039A02F092
:1028B000A7FA0146019804F05FFB06B080BD000056
:1028C00080B582B00190019804F078FB02B080BD21
:1028D00080B584B002900191029820B9FFE70120F1
:1028E0008DF80F0021E1019843F60041C4F2020186
:1028F000096801F00701884212D9FFE7019943F600
:102900000040C4F202000170006800F00700019965
:10291000884204D0FFE701208DF80F0005E1FFE7B2
:1029200002980078800700282AD5FFE702980078EF
:102930004007002809D5FFE743F60801C4F2020169
:10294000086840F4E0500860FFE70298007800074C
:10295000002809D5FFE743F60801C4F20201086820
:1029600040F460400860FFE743F60801C4F202014A
:10297000086820F0F000029A926810430860FFE7B0
:1029800002980078C00700286ED0FFE702984068E0
:10299000012811D1FFE743F60000C4F202000068ED
:1029A00000F400310020B0EB514F04D1FFE70120CB
:1029B0008DF80F00B9E02CE002984068022805D09D
:1029C000FFE702984068032811D1FFE743F60000B3
:1029D000C4F20200006800F000710020B0EB516FFB
:1029E00004D1FFE701208DF80F009EE010E043F6D0
:1029F0000000C4F20200006800F002010020B0EB09
:102A0000510F04D1FFE701208DF80F008DE0FFE7A3
:102A1000FFE743F60801C4F20201086820F0030052
:102A2000029A526810430860FFF798FE0090FFE793
:102A300043F60800C4F20200006800F00C0002999E
:102A40004968B0EB810F0ED0FFE7FFF787FE0099D2
:102A5000401A41F28931884204D3FFE703208DF800
:102A60000F0062E0E4E7FFE7019843F60041C4F29B
:102A70000201096801F00701884212D2FFE70199BB
:102A800043F60040C4F202000170006800F0070045
:102A90000199884204D0FFE701208DF80F0044E03F
:102AA000FFE702980078400700280CD5FFE743F6BF
:102AB0000801C4F20201086820F4E050029AD268CA
:102AC00010430860FFE702980078000700280DD542
:102AD000FFE743F60801C4F20201086820F46040F1
:102AE000029A126940EAC2000860FFE700F04CF861
:102AF00043F60801C4F202010968C9B20A0947F2A3
:102B0000E011C0F60001895CC84040F20401C2F245
:102B10000001086040F20C00C2F200000068FFF7FC
:102B20004DFE00208DF80F00FFE79DF80F0004B068
:102B300080BD000040F20400C2F20000006870474F
:102B400080B5FFF7F7FF43F60801C4F202010968F8
:102B5000C1F3822247F2F011C0F60001895CC8403F
:102B600080BD000080B5FFF7E5FF43F60801C4F221
:102B70000201096889B24A0B47F2F011C0F6000160
:102B8000895CC84080BD000080B586B000200590FB
:102B900004900390029043F60800C4F2020000681B
:102BA00000F00C000146019140B1FFE701980428B4
:102BB0000AD0FFE7019808280CD04FE042F200400D
:102BC000C0F2F40002904FE041F60030C0F2B700CE
:102BD000029049E043F60400C4F20200016801F0EB
:102BE0003F01059100684002002813D5FFE743F636
:102BF0000400C4F202000068C0F3881041F60031FE
:102C0000C0F2B701A0FB0101059A0023FDF7D8FA35
:102C1000049012E043F60400C4F202000068C0F31E
:102C2000881042F20041C0F2F401A0FB0101059AB4
:102C30000023FDF7C5FA0490FFE743F60400C4F251
:102C40000200006800F44031022000EBD130039014
:102C500004980399B0FBF1F0029005E042F20040C5
:102C6000C0F2F4000290FFE7029806B080BD0000B9
:102C700080B586B00490049820B9FFE701208DF854
:102C8000170050E304980078C007002800F0A580E2
:102C9000FFE743F60800C4F20200006800F00C00F1
:102CA000042813D0FFE743F60800C4F202000068CE
:102CB00000F00C0008281ED1FFE743F60400C4F220
:102CC000020000684002002815D5FFE743F6000027
:102CD000C4F20200006800F400310020B0EB514F54
:102CE00008D0FFE70498406820B9FFE701208DF87D
:102CF000170018E370E0FFE704984068B0F5803FE4
:102D000009D1FFE743F60001C4F20201086840F46C
:102D10008030086020E004984068B0F5A02F0DD105
:102D2000FFE743F60001C4F20201086840F4802086
:102D30000860086840F4803008600CE043F6000149
:102D4000C4F20201086820F480300860086820F4AA
:102D500080200860FFE7FFE7FFE704984068E8B1DC
:102D6000FFE7FFF7FBFC0390FFE743F60000C4F228
:102D70000200006800F400310020B0EB514F0CD18C
:102D8000FFE7FFF7EBFC0399401A652804D3FFE740
:102D900003208DF81700C6E2E7E71CE0FFF7DEFC32
:102DA0000390FFE743F60000C4F20200006800F45D
:102DB00000310020B0EB514F0CD0FFE7FFF7CEFC05
:102DC0000399401A652804D3FFE703208DF8170004
:102DD000A9E2E7E7FFE7FFE7FFE70498007880074D
:102DE000002840F19680FFE743F60800C4F2020095
:102DF000006810F00C0F13D0FFE743F60800C4F290
:102E00000200006800F00C0008282CD1FFE743F610
:102E10000400C4F2020000684002002823D4FFE747
:102E200043F60000C4F20200006800F00201002036
:102E3000B0EB510F09D0FFE70498C068012804D017
:102E4000FFE701208DF817006DE243F60001C4F2A0
:102E50000201086820F0F800049A126940EAC200F2
:102E60000860FFE754E00498C06870B3FFE70021F2
:102E7000C4F2472101200860FFF770FC0390FFE7D0
:102E800043F60000C4F20200006800F002010020D6
:102E9000B0EB510F0CD1FFE7FFF760FC0399401A2C
:102EA000032804D3FFE703208DF817003BE2E7E790
:102EB00043F60001C4F20201086820F0F800049A09
:102EC000126940EAC200086021E00021C4F24721F3
:102ED00000200860FFF742FC0390FFE743F6000084
:102EE000C4F20200006800F002010020B0EB510FB4
:102EF0000CD0FFE7FFF732FC0399401A032804D3F4
:102F0000FFE703208DF817000DE2E7E7FFE7FFE793
:102F1000FFE704980078000700284BD5FFE70498E6
:102F2000406918B3FFE740F68061C4F247210120F1
:102F30000860FFF713FC0390FFE743F67400C4F248
:102F40000200006800F002010020B0EB510F0CD12C
:102F5000FFE7FFF703FC0399401A032804D3FFE7B8
:102F600003208DF81700DEE1E7E722E040F68061FC
:102F7000C4F2472100200860FFF7F0FB0390FFE751
:102F800043F67400C4F20200006800F00201002061
:102F9000B0EB510F0CD0FFE7FFF7E0FB0399401AAD
:102FA000032804D3FFE703208DF81700BBE1E7E710
:102FB000FFE7FFE7049800784007002840F1CE8043
:102FC000FFE700208DF8070043F64000C4F202003E
:102FD0000068C000002815D4FFE7FFE7002000903C
:102FE00043F64000C4F20200016841F080510160E4
:102FF000006800F0805000900098FFE701208DF8F5
:103000000700FFE747F20000C4F200000068C005B7
:10301000002822D4FFE747F20001C4F2000108684B
:1030200040F480700860FFF799FB0390FFE747F2D8
:103030000000C4F200000068C00500280CD4FFE7BF
:10304000FFF78CFB0399401A032804D3FFE7032002
:103050008DF8170067E1EAE7FFE7FFE7049880686B
:10306000012809D1FFE743F67001C4F202010868A4
:1030700040F0010008601FE00498806805280DD129
:10308000FFE743F67001C4F20201086840F0040053
:103090000860086840F0010008600CE043F6700129
:1030A000C4F20201086820F001000860086820F0FE
:1030B00004000860FFE7FFE7FFE704988068F8B1C5
:1030C000FFE7FFF74BFB0390FFE743F67000C4F206
:1030D0000200006800F002010020B0EB510F0ED199
:1030E000FFE7FFF73BFB0399401A41F28931884221
:1030F00004D3FFE703208DF8170014E1E5E71EE095
:10310000FFF72CFB0390FFE743F67000C4F20200C8
:10311000006800F002010020B0EB510F0ED0FFE775
:10312000FFF71CFB0399401A41F28931884204D30E
:10313000FFE703208DF81700F5E0E5E7FFE79DF8CE
:103140000700012809D1FFE743F64001C4F202015C
:10315000086820F080500860FFE7FFE70498806966
:10316000002800F0DC80FFE743F60800C4F202000C
:10317000006800F00C00082800F08580FFE7049844
:10318000806902285CD1FFE76021C4F2472100205A
:103190000860FFF7E3FA0390FFE743F60000C4F28C
:1031A0000200006800F000710020B0EB516F0CD0FD
:1031B000FFE7FFF7D3FA0399401A032804D3FFE788
:1031C00003208DF81700AEE0E7E70499C869D1F84D
:1031D00020C04B6A8A6A40EA0C0040EA8310D2039E
:1031E0004FF6FF739A43A2F580321043C96A40EA52
:1031F000016043F60401C4F2020108606021C4F2D8
:10320000472101200860FFF7A9FA0390FFE743F682
:103210000000C4F20200006800F000710020B0EB72
:10322000516F0CD1FFE7FFF799FA0399401A032871
:1032300004D3FFE703208DF8170074E0E7E721E0EF
:103240006021C4F2472100200860FFF787FA03904D
:10325000FFE743F60000C4F20200006800F00071CE
:103260000020B0EB516F0CD0FFE7FFF777FA03991E
:10327000401A032804D3FFE703208DF8170052E01B
:10328000E7E7FFE74AE004988069012804D1FFE7F7
:1032900001208DF8170046E043F60400C4F2020056
:1032A0000068029004988069012831D0FFE70298F5
:1032B00000F480000499C969884229D1FFE7029887
:1032C00000F03F000499096A884221D1FFE7029883
:1032D00047F6C07108400499496AB0EB811F17D1C5
:1032E000FFE7029800F440300499896AC9034FF659
:1032F000FF729143A1F58031884209D1FFE702981E
:1033000000F070600499C96AB0EB016F04D0FFE768
:1033100001208DF8170006E0FFE7FFE7FFE7002038
:103320008DF81700FFE79DF8170006B080BD00007C
:1033300080B584B00290029820B9FFE701208DF893
:103340000F0071E00298406A60B9FFE70298406898
:10335000B0F5827F01D1FFE703E002990020C86148
:10336000FFE705E002990020086102994861FFE744
:10337000029900208862029890F8510040B9FFE756
:103380000299002081F85000029800F051F8FFE700
:103390000299022081F8510002980168086820F023
:1033A00040000860029A019211685068D2F808C083
:1033B000D36800F482700CF4044C604403F400639E
:1033C0001844136903F002031844536903F001031E
:1033D0001844936903F400731844D36903F0380365
:1033E0001844136A03F080031843926A02F40052EF
:1033F00010430860029A508B00F004001168526A72
:1034000002F010021044486002980168C86920F474
:103410000060C861029900204865029A012182F883
:1034200051108DF80F00FFE79DF80F0004B080BD2C
:1034300080B590B00F9000200E900D900C900B90E6
:103440000A900F98006843F20001C4F2010188421B
:1034500040F0B680FFE7FFE70020099043F6440004
:10346000C4F20200016841F480510160006800F478
:10347000805009900998FFE7FFE70020089043F685
:103480003000C4F20200016841F0020101600068EE
:1034900000F0020008900898FFE7FFE7002007907F
:1034A00043F63000C4F20200016841F001010160FE
:1034B000006800F0010007900798FFE718200A90C5
:1034C000022001900B90012002900C9003200390A9
:1034D0000D90052004900E9040F20040C4F20200CE
:1034E0000AA90591FEF746FFDDF804C0029B039A86
:1034F000049805994FF0800ECDF828E0CDF82CC047
:103500000C930D920E900020C4F20200FEF732FFE1
:1035100040F63800C2F20000069046F21041C4F2B4
:10352000020101604FF0C061416000218160C16013
:103530004FF48062026141618161C1614FF44032A8
:1035400002624162FEF7DAFD18B1FFE7FDF764FCA5
:10355000FFE7FFE70F9840F63801C2F20001C164AF
:103560000F988863FFE740F69800C2F200000090D1
:1035700046F25841C4F2020101604FF0C06141605F
:10358000402181600021C1604FF48062026141618D
:103590008161C1614FF4403202624162FEF7AEFDCB
:1035A00018B1FFE7FDF738FCFFE7FFE70F9840F69B
:1035B0009801C2F2000181640F988863FFE7FFE77A
:1035C00010B080BD80B582B00190019802F0E8FD96
:1035D00002B080BD81B0009001B0704781B0009012
:1035E00001B0704785B003900291FFE7039890F80F
:1035F0003C00012804D1FFE702208DF813007EE093
:103600000399012081F83C00FFE7FFE703990220BE
:1036100081F83D00039800684068019003980068B5
:1036200080680090019820F0700001900298016875
:10363000019808430190019803990968486003982C
:1036400000680021C4F2010188423CD0FFE70398E2
:103650000068B0F1804F36D0FFE70398006840F271
:103660000041C4F2000188422DD0FFE703980068B2
:1036700040F60001C4F20001884224D0FFE703981D
:10368000006840F60041C4F2000188421BD0FFE709
:103690000398006840F20041C4F20101884212D050
:1036A000FFE70398006844F20001C4F20101884278
:1036B00009D0FFE70398006841F60001C4F2000159
:1036C00088420ED1FFE7009820F080000090029819
:1036D0004168009808430090009803990968886041
:1036E000FFE70399012081F83D00FFE703990020DF
:1036F00081F83C00FFE700208DF81300FFE79DF8FC
:10370000130005B07047000080B582B000900098AB
:1037100020B9FFE701208DF807003FE0009890F8FE
:103720003D0040B9FFE70099002081F83C00009877
:1037300000F038F8FFE70099022081F83D00009979
:1037400051F8040B02F0E2FD0099012081F84600D7
:10375000FFE70099012081F83E00009981F83F00C1
:10376000009981F84000009981F84100FFE7FFE7E8
:103770000099012081F84200009981F843000099E6
:1037800081F84400009981F84500FFE70099012085
:1037900081F83D0000208DF80700FFE79DF8070045
:1037A00002B080BD80B58AB0099009980068B0F178
:1037B000804F1BD1FFE7FFE70020089043F6400051
:1037C000C4F20200016841F001010160006800F0EC
:1037D000010008900898FFE71C20049003210022B4
:1037E000FFF754F80498FFF747F86EE0099800686F
:1037F00040F60001C4F2000188421BD1FFE7FFE759
:103800000020079043F64000C4F20200016841F036
:1038100004010160006800F0040007900798FFE7CA
:103820001E20039003210022FFF730F80398FFF7D2
:1038300023F849E00998006841F20001C4F2000150
:1038400088421BD1FFE7FFE70020069043F64000C7
:10385000C4F20200016841F010010160006800F04C
:10386000100006900698FFE7362002900321002200
:10387000FFF70CF80298FEF7FFFF24E009980068B4
:1038800044F20001C4F2010188421BD1FFE7FFE7C7
:103890000020059043F64400C4F20200016841F4A0
:1038A00080310160006800F4803005900598FFE7E2
:1038B0001820019004210022FEF7E8FF0198FEF78E
:1038C000DBFFFFE7FFE7FFE7FFE70AB080BD00008F
:1038D00083B00190019890F83D00012804D0FFE7E3
:1038E00001208DF80B006AE00199022081F83D006B
:1038F00001980168C86840F00100C860019800683C
:103900000021C4F2010188423CD0FFE70198006821
:10391000B0F1804F36D0FFE70198006840F20041D7
:10392000C4F2000188422DD0FFE70198006840F6FC
:103930000001C4F20001884224D0FFE7019800682A
:1039400040F60041C4F2000188421BD0FFE7019815
:10395000006840F20041C4F20101884212D0FFE742
:103960000198006844F20001C4F20101884209D0C4
:10397000FFE70198006841F60001C4F200018842A7
:1039800012D1FFE701980068806800F007000090FE
:103990000098062807D0FFE701980168086840F002
:1039A00001000860FFE706E001980168086840F040
:1039B00001000860FFE700208DF80B00FFE79DF88D
:1039C0000B0003B07047000080B586B004900391EF
:1039D00000208DF80B00FFE7049890F83C000128C8
:1039E00004D1FFE702208DF81700ABE00499012015
:1039F00081F83C00FFE7FFE70499022081F83D00D1
:103A00000498006880680190019820F07700019088
:103A1000019820F47F40019001980499096888601A
:103A2000039800680090002872D0FFE700981028E3
:103A30006ED0FFE7009820286AD0FFE70098302872
:103A400066D0FFE70098402855D0FFE7009850283F
:103A500037D0FFE70098602840D0FFE70098702833
:103A60000BD0FFE70098B0F5805F05D0FFE7009826
:103A7000B0F5005F16D052E055E004980068039B53
:103A80005A689968DB6802F00FFD04980068806846
:103A90000190019840F0770001900198049909681D
:103AA000886040E004980068039B5A689968DB6866
:103AB00002F0FAFC04980168886840F4804088604D
:103AC00031E004980068039A5168D26802F01CFD46
:103AD00004980068502102F001FD24E00498006879
:103AE000039A5168D26802F037FD0498006860219B
:103AF00002F0F4FC17E004980068039A5168D26859
:103B000002F002FD04980068402102F0E7FC0AE0A0
:103B1000049800680399096802F0E0FC03E00120C2
:103B20008DF80B00FFE70499012081F83D00FFE7C5
:103B30000499002081F83C00FFE79DF80B008DF808
:103B40001700FFE79DF8170006B080BD81B0009018
:103B500001B0704780B582B001900198006800699B
:103B600000F002010020B0EB510F28D0FFE70198D0
:103B70000068C06800F002010020B0EB510F1DD0BA
:103B8000FFE7019801686FF00200086101990120C8
:103B90000877019800688069800720B1FFE70198E5
:103BA000FFF7D4FF06E0019800F012F9019800F049
:103BB00013F9FFE7019900200877FFE7FFE7019875
:103BC0000068006900F004010020B0EB910F29D0DB
:103BD000FFE701980068C06800F004010020B0EB26
:103BE000910F1ED0FFE7019801686FF00400086193
:103BF00001990220087701980068806910F4407FDD
:103C000004D0FFE70198FFF7A1FF06E0019800F05C
:103C1000DFF8019800F0E0F8FFE70199002008774D
:103C2000FFE7FFE701980068006900F00801002045
:103C3000B0EBD10F28D0FFE701980068C06800F012
:103C400008010020B0EBD10F1DD0FFE701980168FB
:103C50006FF0080008610199042008770198006856
:103C6000C069800720B1FFE70198FFF76FFF06E00A
:103C7000019800F0ADF8019800F0AEF8FFE7019967
:103C800000200877FFE7FFE701980068006900F06F
:103C900010010020B0EB111F29D0FFE70198006848
:103CA000C06800F010010020B0EB111F1ED0FFE72C
:103CB000019801686FF010000861019908200877E9
:103CC00001980068C06910F4407F04D0FFE70198B4
:103CD000FFF73CFF06E0019800F07AF8019800F049
:103CE0007BF8FFE7019900200877FFE7FFE70198DD
:103CF00000680069C00780B1FFE701980068C068EC
:103D0000C00748B1FFE7019801686FF00100086142
:103D1000019800F065F8FFE7FFE701980068006987
:103D2000C1B20020B0EBD11F13D0FFE701980068AB
:103D3000C068C1B20020B0EBD11F09D0FFE70198E5
:103D400001686FF0800008610198FFF743FCFFE70E
:103D5000FFE701980068006900F040010020B0EB27
:103D6000911F14D0FFE701980068C06800F040017F
:103D70000020B0EB911F09D0FFE7019801686FF0B8
:103D800040000861019800F07BF8FFE7FFE7019829
:103D90000068006900F020010020B0EB511F14D032
:103DA000FFE701980068C06800F020010020B0EB38
:103DB000511F09D0FFE7019801686FF020000861EA
:103DC0000198FFF70BFCFFE7FFE702B080BD0000A2
:103DD00081B0009001B0704781B0009001B0704791
:103DE00080B584B0039003980068B0F1804F21D172
:103DF000FFE740F2AC30C2F20000029040F2341112
:103E0000C2F20001FCF756FD0299B1F92020B1F988
:103E1000D430B1F98801B1F93CC26946C1F804C097
:103E2000086040F2E870C2F200004FF40071FCF745
:103E30008BFCFFE70398006840F60001C4F2000124
:103E4000884201D1FFE7FFE70398006841F20001D3
:103E5000C4F20001884201D1FFE7FFE70398006840
:103E600044F20001C4F20101884207D1FFE740F2A9
:103E70003410C2F2000001F00FF9FFE704B080BD7A
:103E800081B0009001B0704782B00190ADF802108F
:103E900002B0704780B584B0039000200290039870
:103EA00000684069C0B2C0090290039890F83D00D4
:103EB000212823D1FFE7029800B3FFE7FFE7FFE7E0
:103EC0000398006850E8050F20F080000190FFE79C
:103ED00001990398026842E805100028F0D1FFE735
:103EE000FFE70398406B28B1FFE70398406BFDF7AD
:103EF000DDFEFFE7039802F095FCFFE703980068FA
:103F00004069C0F380100290039890F83E00222888
:103F100023D1FFE7029800B3FFE7FFE7FFE703982D
:103F2000006850E8050F20F040000090FFE700997E
:103F30000398026842E805100028F0D1FFE7FFE788
:103F40000398806B28B1FFE70398806BFDF7AEFE06
:103F5000FFE7039802F008FCFFE7002004B080BDF3
:103F600081B0009001B0704780B592B01190119867
:103F700000680068109011980068C0680F90119850
:103F8000006840690E9000200D900C90109800F091
:103F90000F000D900D9888B9FFE79DF8400080064E
:103FA00000280AD5FFE79DF83C008006002804D5CC
:103FB000FFE7119802F052FCE3E1FFE70D980028BB
:103FC00000F0C280FFE79DF83800C00738B9FFE76E
:103FD000BDF83C0010F4907F00F0B680FFE79DF83C
:103FE0004000C00758B1FFE79DF83D00C00730B161
:103FF000FFE71199086C40F001000864FFE79DF8A5
:104000004000400700280BD5FFE79DF83800C007A7
:1040100030B1FFE71199086C40F002000864FFE737
:104020009DF84000800700280BD5FFE79DF8380079
:10403000C00730B1FFE71199086C40F00400086434
:10404000FFE79DF840000007002811D5FFE79DF825
:104050003C008006002805D4FFE79DF83800C00723
:1040600030B1FFE71199086C40F008000864FFE7E1
:104070001198006C002866D0FFE79DF8400080068C
:1040800000280AD5FFE79DF83C008006002804D5EB
:10409000FFE7119802F0E2FBFFE711980068406922
:1040A000C0F380100C901198006C0007002804D415
:1040B000FFE70C9800283ED0FFE7119802F054FB70
:1040C000119800684069400600282FD5FFE7FFE7F8
:1040D000FFE71198006850E8050F20F040000B90B2
:1040E000FFE70B991198026842E805100028F0D10B
:1040F000FFE7FFE71198806B98B1FFE71198816B9C
:1041000046F2AD50C0F6000008651198806BFDF7CF
:1041100043FE28B1FFE71198806B016D8847FFE7E8
:1041200003E01198FFF71CFFFFE703E01198FFF78A
:1041300017FFFFE706E01198FFF712FF1199002023
:104140000864FFE7FFE71CE11198006B012840F0CD
:10415000F880FFE79DF84000C006002840F1F1809C
:10416000FFE79DF83C00C006002840F1EA80FFE729
:10417000FFE700200A901198006800680A901198E3
:10418000006840680A900A98FFE711980068406943
:10419000400600287ED5FFE71198806B00684068D4
:1041A000ADF82600BDF82600002872D0FFE7BDF864
:1041B00026001199898D88426BDAFFE7BDF8260049
:1041C0001199C8851198806BC069B0F5807F58D06F
:1041D000FFE7FFE7FFE71198006850E8030F20F4BE
:1041E00080700890FFE708991198026842E8031070
:1041F0000028F0D1FFE7FFE7FFE7FFE7119800682D
:1042000050E8050F20F001000790FFE7079911988B
:10421000026842E805100028F0D1FFE7FFE7FFE75A
:10422000FFE71198006850E8050F20F04000069065
:10423000FFE706991198026842E805100028F0D1BE
:10424000FFE7FFE71199202081F83E001199002037
:104250000863FFE7FFE71198006850E8030F20F0BC
:1042600010000590FFE705991198026842E80310D5
:104270000028F0D1FFE7FFE71198806BFDF716FDEE
:10428000FFE71198818DC28D891A89B2FFF7FCFD75
:10429000FFE776E01199888DC98D401AADF81200BC
:1042A0001198C08D00284BD0FFE7BDF81200002800
:1042B00046D0FFE7FFE7FFE71198006850E8030FDB
:1042C00020F490700390FFE703991198026842E888
:1042D00003100028F0D1FFE7FFE7FFE7FFE71198A1
:1042E000006850E8050F20F001000290FFE70299F6
:1042F0001198026842E805100028F0D1FFE7FFE7B7
:104300001199202081F83E00119900200863FFE7F1
:10431000FFE71198006850E8030F20F010000190AB
:10432000FFE701991198026842E803100028F0D1D4
:10433000FFE7FFE71198BDF81210FFF7A5FDFFE7B3
:104340001FE09DF84000000600280AD5FFE79DF811
:104350003C000006002804D5FFE7119802F05AFC43
:104360000FE09DF84000400600280AD5FFE79DF8C1
:104370003C004006002804D5FFE7119802F03EFA01
:10438000FFE712B080BD000080B582B000900098B9
:1043900020B9FFE701208DF807003EE00098806912
:1043A00008B1FFE700E0FFE7009890F83D0040B952
:1043B000FFE70099002081F83C00009800F032F8F7
:1043C000FFE70099242081F83D0000980168C86843
:1043D00020F40050C860009802F0F2FA00980168DA
:1043E000086920F49040086100980168486920F04D
:1043F0002A00486100980168C86840F40050C8600D
:10440000009900200864009A202182F83D10009A4B
:1044100082F83E108DF80700FFE79DF8070002B014
:1044200080BD000080B598B01790002016901590C0
:104430001490139012901798006841F20001C4F292
:10444000010188425ED1FFE7FFE70020119043F6AB
:104450004400C4F20200016841F0100101600068EC
:1044600000F0100011901198FFE7FFE70020109076
:1044700043F63000C4F20200016841F0020101601D
:10448000006800F0020010901098FFE7FFE700209E
:104490000F9043F63000C4F20200016841F00101C0
:1044A0000160006800F001000F900F98FFE7802086
:1044B0001290022006901390002007901490032081
:1044C0000890159007200990169040F20040C4F221
:1044D000020012A90A91FDF74DFFDDF818C0079BF5
:1044E000089A09980A994FF4007ECDF848E0CDF873
:1044F0004CC01493159216900020C4F20200FDF7F0
:1045000039FF0DE11798006844F60001C4F200017C
:1045100088426AD1FFE7FFE700200E9043F6400093
:10452000C4F20200016841F480210160006800F4D7
:1045300080200E900E98FFE7FFE700200D9043F6D5
:104540003000C4F20200016841F00401016000681B
:1045500000F004000D900D98FFE74FF440601290BA
:10456000022013900020049014900320159007203F
:10457000169040F60000C4F2020012A9FDF7FAFE00
:10458000049940F6F800C2F20000059046F22802B5
:10459000C4F2020202604FF0006242608160C160BA
:1045A0004FF48062026141618161C1614FF4403228
:1045B00002624162FDF7A2FD18B1FFE7FCF72CFC97
:1045C000FFE7FFE7179840F6F801C2F200018163A8
:1045D00017988863FFE72720039006210022FEF743
:1045E00055F90398FEF748F999E01798006841F2E9
:1045F0000041C4F20101884240F09080FFE7FFE7EC
:1046000000200C9043F64400C4F20200016841F01F
:1046100020010160006800F020000C900C98FFE77A
:10462000FFE700200B9043F63000C4F2020001685F
:1046300041F040010160006800F040000B900B98D1
:10464000FFE74FF484401290022013900020019065
:104650001490032015900820169041F60000C4F233
:10466000020012A9FDF786FE019940F65810C2F229
:104670000000029046F24042C4F2020202604FF093
:10468000206242608160C1604FF4806202614161DA
:104690008161C1614FF4003202624162FDF72EFD7B
:1046A00018B1FFE7FCF7B8FBFFE7FFE7179840F604
:1046B0005811C2F20001816317988863FFE740F642
:1046C000B810C2F20000009046F2A041C4F202010C
:1046D00001604FF020614160402181600021C16094
:1046E0004FF480620261416181614FF48072C26166
:1046F0004FF4003202624162FDF700FD18B1FFE79E
:10470000FCF78AFBFFE7FFE7179840F6B811C2F203
:104710000001416317988863FFE7FFE7FFE7FFE7C2
:1047200018B080BD80B584B002900191ADF8022030
:10473000029890F83E00202828D1FFE7019820B188
:10474000FFE7BDF8020020B9FFE701208DF80F0058
:1047500020E0FFE7029890F83C00012804D1FFE731
:1047600002208DF80F0015E00299012081F83C002D
:10477000FFE7FFE702990020086302980199BDF85E
:10478000022002F0BBF98DF80F0003E002208DF843
:104790000F00FFE79DF80F0004B080BD81B00090CE
:1047A00001B0704781B0009001B0704781B00090B7
:1047B00001B07047FFE7FEE782B0019000910199D8
:1047C0000889C880019988894881009801784078D3
:1047D00040EA01200199088100988178C07840EA78
:1047E00001200199888100980179407940EA0120EF
:1047F0000199C881009880790199488402B0704776
:1048000081B000900098B0F90610B0F90800401A85
:1048100010F5805F05DAFFE70099C88A0130C88289
:10482000FFE70098B0F90610B0F90800401AB0F59B
:10483000805F05DDFFE70099C88A0138C882FFE77D
:104840000099B1F90800B1F9162000EB4230086177
:1048500001B0704780B582B040F2E870C2F200004B
:10486000019046F20041C4F2000101600321416061
:1048700000218160C1604FF4C02202614FF4A002A8
:1048800042610176417681760122C27601774177D5
:10489000FCF7CEFF18B1FFE7FCF7BEFAFFE702B066
:1048A00080BD000080B582B040F61000C2F200006A
:1048B000019046F60001C4F200010160032141604D
:1048C00000218160C1604FF4C02202614FF4A00258
:1048D00042610176417681760122C2760177417785
:1048E000FCF7A6FF18B1FFE7FCF796FAFFE702B066
:1048F00080BD000080B588B0FFE70020079043F638
:104900003000C4F20200016841F4800101600068D7
:1049100000F4800007900798FFE7FFE7002006906B
:1049200043F63000C4F20200016841F40011016056
:10493000006800F4001006900698FFE70C20009035
:10494000002204921146FDF7A1FF0098FDF794FFA5
:10495000049A382001901146FDF798FF0198FDF761
:104960008BFF049A3A2002901146FDF78FFF0298C0
:10497000FDF782FF049A3B2003901146FDF786FF66
:104980000398FDF779FF049A452005901146FDF73D
:104990007DFF0598FDF770FF08B080BD80B592B02F
:1049A0000020119010900F900E900D90FFE70020C6
:1049B0000C9043F63000C4F20200016841F002019D
:1049C0000160006800F002000C900C98FFE7FFE720
:1049D00000200B9043F63000C4F20200016841F061
:1049E00040010160006800F040000B900B98FFE769
:1049F000FFE700200A9043F63000C4F2020001688D
:104A000041F001010160006800F001000A900A987D
:104A1000FFE7FFE70020099043F63000C4F20200F0
:104A2000016841F008010160006800F00800099089
:104A30000998FFE7FFE70020089043F63000C4F232
:104A40000200016841F004010160006800F0040008
:104A500008900898FFE7FFE70020079043F6300032
:104A6000C4F20200016841F080010160006800F0BA
:104A7000800007900798FFE70020C4F20200029030
:104A80001021019100220092FDF750FE009A40F2A1
:104A90000040C4F20200059001210391FDF746FE9B
:104AA000019A029803990D920E910F91022104919F
:104AB00010910DA90691FDF75DFC0398069930222F
:104AC0000D924FF488120E920F9040F60000C4F23F
:104AD0000200FDF74FFC039B049A059806990D937D
:104AE0000E930F931092FDF745FC12B080BD0000AD
:104AF00080B584B025200190052100220292FDF7A7
:104B0000C5FE0198FDF7B8FE029A472003900221E6
:104B1000FDF7BCFE0398FDF7AFFE04B080BD0000BA
:104B200080B582B040F61820C2F20000019043F236
:104B30000001C4F2010101604FF482714160002163
:104B40008160C16002220261012242614FF4007261
:104B500082611022C2610162416281620A21C162E6
:104B6000FEF7E6FB18B1FFE7FCF756F9FFE702B0E6
:104B700080BD000080B588B00021019107910691A9
:104B8000059104910391029140F67020C2F2000059
:104B90004FF080420260A7224260816040F2E7321B
:104BA000C26001618161FEF7AFFD18B1FFE7FCF75C
:104BB00033F9FFE74FF48050049040F67020C2F2C2
:104BC000000004A9FEF700FF18B1FFE7FCF724F985
:104BD000FFE700200290039040F67020C2F2000030
:104BE00002A9FEF7FFFC18B1FFE7FCF715F9FFE794
:104BF00008B080BD80B588B0002101910791069171
:104C0000059104910391029140F6B820C2F2000090
:104C100040F60002C4F200020260A72242608160F6
:104C200040F2E732C26001618161FEF76DFD18B1AB
:104C3000FFE7FCF7F1F8FFE74FF48050049040F6EF
:104C4000B820C2F2000004A9FEF7BEFE18B1FFE7CB
:104C5000FCF7E2F8FFE700200290039040F6B8204E
:104C6000C2F2000002A9FEF7BDFC18B1FFE7FCF795
:104C7000D3F8FFE708B080BD80B582B00021019174
:104C8000009140F60030C2F2000041F20002C4F28E
:104C900000020260A7224260816040F2E732C260F7
:104CA0008161FEF731FD18B1FFE7FCF7B5F8FFE7CA
:104CB00000200090019040F60030C2F200006946EA
:104CC000FEF790FC18B1FFE7FCF7A6F8FFE702B08B
:104CD00080BD000080B584B0002103910291019154
:104CE000009140F64830C2F2000044F20002C4F2E3
:104CF00001020260A7224260816040F2E732C26096
:104D000001618161FEF700FD18B1FFE7FCF784F84F
:104D1000FFE74FF48050009040F64830C2F20000A8
:104D20006946FEF751FE18B1FFE7FCF775F8FFE79B
:104D300004B080BD80B582B040F69030C2F2000071
:104D4000019041F20001C4F2010101604FF4E13130
:104D5000416000218160C16001610C22426181617A
:104D6000C161FFF711FB18B1FFE7FCF755F8FFE74A
:104D700002B080BD80B582B040F6D430C2F20000EF
:104D8000019044F60001C4F20001016048F2A06104
:104D9000C0F20101416000218160C16001610C220B
:104DA00042618161C161FFF7EFFA18B1FFE7FCF7DB
:104DB00033F8FFE702B080BD80B582B040F61840FE
:104DC000C2F20000019041F20041C4F20101016011
:104DD0004FF4E131416000218160C16001610C222A
:104DE00042618161C161FFF7CFFA18B1FFE7FCF7BB
:104DF00013F8FFE702B080BDFFE7FEE7FFE7FEE73D
:104E000088B0079006910592079800F0070004907B
:104E10000498C0F10700052803D3FFE704200190A0
:104E200004E00498C0F107000190FFE701980390A7
:104E300004980430062803D8FFE70020009003E020
:104E4000049803380090FFE70098029006980399B1
:104E5000012202FA01F101390840029B98400599AC
:104E60009A40013A1140084308B0704788B0069054
:104E70008DED050ACDED040A069818B9FFE700206C
:104E80000790ABE09DED050A9DED041A30EE410A56
:104E9000069880ED060A069890ED000A90ED061A35
:104EA00020EE010A80ED070A069890ED010A90EDC8
:104EB000062A90ED081A20EE020A30EE010A80ED73
:104EC000080A069890ED031A90ED080AB4EE410A1C
:104ED000F1EE10FA06DDFFE7069890ED030A8DED7E
:104EE000030A1FE0069890ED031A90ED080AB1EE50
:104EF000411AB4EE410AF1EE10FA08DAFFE706981B
:104F000090ED030AB1EE400A8DED020A05E0069825
:104F100090ED080A8DED020AFFE79DED020A8DED86
:104F2000030AFFE79DED030A069880ED080A06983C
:104F300090ED020A90ED052A90ED061A31EE421A24
:104F400020EE010A80ED090A069890ED070A90ED1F
:104F5000082A90ED091A30EE020A30EE010A80EDBF
:104F60000A0A069890ED041A90ED0A0AB4EE410A76
:104F7000F1EE10FA06DDFFE7069890ED040A8DEDDC
:104F8000010A1FE0069890ED041A90ED0A0AB1EEAE
:104F9000411AB4EE410AF1EE10FA08DAFFE706987A
:104FA00090ED040AB1EE400A8DED000A05E0069886
:104FB00090ED0A0A8DED000AFFE79DED000A8DEDE8
:104FC000010AFFE79DED010A069880ED0A0A06999D
:104FD000886948610698806A0790FFE79DED070A97
:104FE00008B0704782B001900091019818B1FFE7B6
:104FF000009808B9FFE719E0009800680199086077
:10500000009840680199486000988068019988601C
:105010000098C0680199C86000980069019908610A
:1050200001990020486101998861FFE702B070474B
:1050300080B582B00190019901F15C0091ED060A02
:10504000B1F90C1001EE101AF8EEC10AFFF70EFFCD
:10505000019880ED210A019991ED210ABDEEC00A67
:1050600010EE100A0884012002B080BD70470000D5
:1050700080B500F029F840F29011C2F200014AF226
:105080000000C4F28C50C1F8CC0040F27C61C2F246
:1050900000010020486280BD80B582B0019040F2DE
:1050A000E470C2F20000017801310170007832280A
:1050B00008DBFFE740F23410C2F200003C21FBF7AE
:1050C000C9F8FFE702B080BD80B5C2B047F27C1CD2
:1050D000C0F6000CDCF80000DCF80410DCF8082056
:1050E000DCF80C30DCF810C0CDF804C140933F92DE
:1050F0003E913D9047F2681CC0F6000CDCF80000C1
:10510000DCF80410DCF80820DCF80C30DCF810C007
:10511000CDF8F0C03B933A923991389047F2CC1CCD
:10512000C0F6000CDCF80000DCF80410DCF8082005
:10513000DCF80C30DCF810C0CDF8DCC036933592CA
:105140003491339047F2B81CC0F6000CDCF8000034
:10515000DCF80410DCF80820DCF80C30DCF810C0B7
:10516000CDF8C8C0319330922F912E9047F2A41CF5
:10517000C0F6000CDCF80000DCF80410DCF80820B5
:10518000DCF80C30DCF810C0CDF8B4C02C932B92B6
:105190002A91299047F2901CC0F6000CDCF8000020
:1051A000DCF80410DCF80820DCF80C30DCF810C067
:1051B000CDF8A0C0279326922591249047F22C1C6D
:1051C000C0F6000CDCF80000DCF80410DCF8082065
:1051D000DCF80C30DCF810C0CDF88CC022932192A2
:1051E00020911F9047F2541CC0F6000CDCF8000020
:1051F000DCF80410DCF80820DCF80C30DCF810C017
:10520000CDF878C01D931C921B911A9047F2041C94
:10521000C0F6000CDCF80000DCF80410DCF8082014
:10522000DCF80C30DCF810C0CDF864C0189317928D
:105230001691159047F2F00CC0F6000CDCF8000057
:10524000DCF80410DCF80820DCF80C30DCF810C0C6
:10525000CDF850C0139312921191109047F2181C80
:10526000C0F6000CDCF80000DCF80410DCF80820C4
:10527000DCF80C30DCF810C0CDF83CC00E930D9279
:105280000C910B9047F2401CC0F6000CDCF80000BB
:10529000DCF80410DCF80820DCF80C30DCF810C076
:1052A000CDF828C0099308920791069040F2AC30DF
:1052B000C2F2000002905C303DA90191FFF792FE1E
:1052C0000199029800F58870FFF78CFE0199029809
:1052D00000F5E270FFF786FE0199029800F51E7056
:1052E000FFF780FE0298883038A90391FFF77AFE15
:1052F0000298039900F59E70FFF774FE02980399D7
:1053000000F5F870FFF76EFE0298039900F529701A
:10531000FFF768FE40F27C60C2F2000004905C304F
:1053200033A9FFF75FFE049830302EA9FFF75AFE2D
:10533000049800F5887029A9FFF754FE0498E4301A
:1053400024A9FFF74FFE40F29010C2F20000059032
:105350005C301FA9FFF746FE059800F588701AA972
:10536000FFF740FE059800F5E27015A9FFF73AFE39
:10537000059800F5CC7010A9FFF734FE0598883029
:105380000BA9FFF72FFE059800F59E7006A9FFF701
:1053900029FE012042B080BD80B584B00390029107
:1053A000ADF806200398029900F032F840F2881117
:1053B000C2F20001088000208DF80500FFE79DF88B
:1053C0000500BDF8061088421FDAFFE703989DF834
:1053D0000510405CA52811D1FFE703989DF8051042
:1053E00001449622FAF71DFF0398029900F010F885
:1053F00040F28811C2F200010880FFE7FFE79DF844
:10540000050001308DF80500D9E704B080BD00002B
:1054100080B584B00290019102980078A52840F0F0
:10542000AD86FFE70298052101F058FD012840F004
:10543000A586FFE70298B0F8050001460091012813
:1054400000F09280FFE70098022800F0BA80FFE7A2
:105450000098032800F0C380FFE7009840F2011194
:10546000884200F01681FFE70098B0F5817F00F0D8
:10547000D081FFE70098B0F5827F00F0E881FFE778
:10548000009840F20511884200F0FA81FFE7009889
:1054900040F20121884200F03282FFE7009840F29A
:1054A0000221884200F08082FFE7009840F2032149
:1054B000884200F0AC82FFE70098B0F5017F00F071
:1054C000C182FFE7009840F20521884200F0DD82AA
:1054D000FFE7009840F20621884200F0E982FFE7EA
:1054E000009840F20721884200F00383FFE700980C
:1054F000B0F5027F00F01B83FFE7009840F209211E
:10550000884200F02F83FFE7009840F20A2188428A
:1055100000F03A84FFE7009840F20B21884200F047
:105520005284FFE70098B0F5037F00F09184FFE715
:10553000009840F20D21884200F0B184FFE7009806
:1055400040F20E21884200F0DE84FFE7009840F22E
:105550000331884200F0F884FFE70098B0F5417FFE
:1055600000F0168500F000BE02981D2101F078FCC5
:10557000012824D1FFE70298C07900F00F020199B9
:10558000087800F0F000104408700298C07900F02C
:10559000F0020199087800F00F001044087002989A
:1055A00000890199A1F801000299D1F80A00D1F807
:1055B0000E200199C1F80720C1F80300FFE700F0B1
:1055C000D8BD02980A2101F04BFC012805D1FFE764
:1055D0000298C0790199C872FFE700F0CABD02982D
:1055E000292101F03DFC012851D1FFE70298B0F8D4
:1055F0000700019988810298B0F809000199C881D3
:105600000298B0F80B00019908820298B0F80D00DA
:10561000019948820298B0F80F0001998882029897
:10562000B0F811000199C8820298B0F813000199EE
:1056300008830298B0F81500019948830298B0F8E1
:105640001700019988830298B0F819000199C8835E
:105650000298B0F81B00019908840298B0F81D0068
:10566000019948840298B0F81F0001998884029833
:10567000B0F821000199C8840298B0F8230001997C
:1056800008850298B0F8250001994885FFE700F0E9
:1056900070BD02980D2101F0E3FB012840F0B780B6
:1056A000FFE70298C279019991F82C0002F00802F4
:1056B00000F0F700104481F82C000298C27901999B
:1056C00091F82C0002F0200200F0DF00104481F875
:1056D0002C000298C279019991F82C0002F0100276
:1056E00000F0EF00104481F82C000298C07900F01F
:1056F000C002019991F82C0000F03F00104481F89D
:105700002C000298837A019931F82D0F8A7840EAAB
:10571000024203F030034FF6FF7CC0F2CF0C02EAE6
:105720000C0242EA0342120C8A7008800298817AC5
:10573000008940EA0142019931F82D0F8B7840EA47
:1057400003404FF60003C0F20F031A4040F2FF730C
:10575000C0F2F003184010440880000C88700298D2
:10576000C07900F00102019991F82C0000F0FE00D0
:10577000104481F82C000298C279019991F82C000C
:1057800002F0040200F0FB00104481F82C000298A3
:10579000807A00F0C003019931F82D0F8A7840EA31
:1057A00002426FF39F5242EA0342120C8A70088051
:1057B0000298C279019991F82C0002F0020200F0DF
:1057C000FD00104481F82C0002980389019931F8FA
:1057D0002D0F8A7863F301008A700880029803898C
:1057E000019931F82D0F8A789B0863F383008A7042
:1057F000088002980389019931F82D0F8A7803F403
:10580000FE6320F4FE6018448A700880FFE700F011
:10581000B0BC02980D2101F023FB012815D1FFE750
:105820000298C079019981F830000298007A0199B4
:1058300081F831000298807A019981F8330002984A
:10584000407A019981F83200FFE700F092BC02989B
:105850000C2101F005FB012810D1FFE70298C07967
:10586000019981F834000298007A019981F8350095
:105870000298407A019981F83600FFE700F079BC80
:1058800002980B2101F0ECFA012836D1FFE70298CB
:10589000C079019981F837000298007A00F003027C
:1058A000019991F8380000F0FC00104481F83800AC
:1058B0000298027A019991F8380002F0600200F033
:1058C0009F00104481F838000298027A019991F8FB
:1058D000380002F01C0200F0E300104481F83800A8
:1058E0000298007A00F08002019991F8380000F0E7
:1058F0007F00104481F83800FFE700F03ABC0298BE
:10590000162101F0ADFA01284DD1FFE70298C079C8
:10591000019981F839000298007A019981F83A00DA
:105920000298B0F809000199A1F83B000298B0F87C
:105930000B000199A1F83D000298B0F80D00019903
:10594000A1F83F000298B0F80F000199A1F84100BA
:105950000298B0F811000199A1F843000298C07CA8
:1059600000F00102019991F8450000F0FE0010449A
:1059700081F845000298C27C019991F8450002F037
:10598000020200F0FD00104481F845000298C27C3C
:10599000019991F8450002F0040200F0FB00104468
:1059A00081F84500FFE7E4E30298192101F058FA75
:1059B00001282BD1FFE70298B0F807000199A1F860
:1059C00046000298B0F809000199A1F84800029831
:1059D000D0F80B000199C1F84A000298B0F80F0006
:1059E0000199A1F84E000298B0F811000199A1F8B0
:1059F00050000298B0F813000199A1F852000298E3
:105A0000B0F815000199A1F85400FFE7B1E302983E
:105A1000152101F025FA012813D1FFE70298D0F8EB
:105A200007000199C1F856000298D0F80B000199BF
:105A3000C1F85A000298D0F80F000199C1F85E0031
:105A4000FFE796E302980F2101F00AFA01281BD123
:105A5000FFE70298C079019981F862000298007A04
:105A6000019981F863000298407A019981F86400F5
:105A70000298807A019981F865000298B0F80B00CD
:105A80000199A1F86600FFE773E302980B2101F08A
:105A9000E7F901280BD1FFE70298C079019981F855
:105AA00068000298007A019981F86900FFE760E3D5
:105AB00002980A2101F0D4F9012819D1FFE70298D0
:105AC000C07900F00F02019991F86A0000F0F0002F
:105AD000104481F86A000298C07900F0F002019940
