:020000040800F2
:10000000207500209D010008C5A50008397F000863
:10001000C1A500081D1200084D14010800000000D1
:10002000000000000000000000000000B1C3000854
:100030006524000800000000D1AE0008D5C6000805
:10004000B7010008B7010008B7010008B7010008B0
:10005000B7010008B7010008B7010008B7010008A0
:10006000B7010008B7010008B7010008B701000890
:100070004D220008B70100085D220008B701000802
:10008000B7010008B7010008B7010008B701000870
:1000900021120008B7010008B7010008B7010008E5
:1000A000B7010008E1C70008B7010008B701000860
:1000B000FDC70008B7010008B7010008B701000834
:1000C000B7010008B7010008B7010008B701000830
:1000D000B7010008BDD70008B7010008D9D700084C
:1000E000B7010008B7010008B7010008B701000810
:1000F000B7010008B7010008B7010008B701000800
:10010000B7010008B7010008B7010008B7010008EF
:10011000B7010008B7010008B7010008B7010008DF
:100120006D220008B70100087D2200088D2200081A
:10013000B7010008B7010008B7010008B7010008BF
:1001400031120008B7010008B701000835A6000801
:100150009D220008AD220008BD22000811D8000829
:10016000B7010008B7010008B7010008B70100088F
:10017000B7010008B7010008B7010008000000003F
:10018000B7010008B7010008DFF80CD000F00AFC46
:1001900000480047312F010820750020064880479D
:1001A00006480047FEE7FEE7FEE7FEE7FEE7FEE75C
:1001B000FEE7FEE7FEE7FEE7CDC70008890100087D
:1001C0002DE9F05F0546002092469B46884606468C
:1001D000814640241BE0284641464746224600F01F
:1001E000A9FA53465A46C01A914110D311461846EF
:1001F000224600F090FA2D1A67EB01084F4622467E
:100200000120002100F087FA17EB00094E41201E63
:10021000A4F10104DFDC484631462A464346BDE8E6
:10022000F09F40EA01039B0703D009E008C9121FB1
:1002300008C0042AFAD203E011F8013B00F8013BA0
:10024000521EF9D27047D2B201E000F8012B491ECC
:10025000FBD270470022F6E710B513460A46044663
:100260001946FFF7F0FF204610BD2DE9FE4F8046EE
:1002700081EA0300C00F0C46009021F0004123F0FA
:100280000045B8EB0200A94105D240462146904600
:100290001C460B46024623F00040104347D0270D72
:1002A000C7F30A00C3F30A510290401A0190402894
:1002B0006BDAC3F3130040F4801B0098924620B120
:1002C0000023D2EB030A63EB0B0B01985946C0F1F4
:1002D0004002504600F01FFA06460D465046594669
:1002E000019A00F037FA10EB08006141002487EA18
:1002F000115284EAE7731A4340D0009A62B3019A1C
:10030000012A4FEA075215DC001B61EB02014FF096
:10031000004202EA0752CDE90042001C41F580117B
:1003200032462B4600F06EFA03B0BDE8F08F40462F
:100330002146F9E7001B61EB0201001C41F5801327
:1003400000185B412018A2F5001747EB030140EAB3
:10035000D570B6196D4111E06D084FEA360645EAD1
:10036000C0754FEA0752001B61EB0201001C41F50A
:10037000801149084FEA30000019514132462B469E
:1003800003B0BDE8F04F00F02EBA00980122400003
:100390000023D0EB020263EBE073009821464FEAA2
:1003A000E074B8EB000061EB0401E9E783F000437F
:1003B0005BE781F0004158E72DE9FE4F81EA030435
:1003C00004F0004421F0004100944FF0000B23F0B2
:1003D000004350EA01045ED052EA03045BD0C3F349
:1003E0000A54C1F30A552C44A4F2F3340194A0FB3F
:1003F0000254C1F3130141F48011C3F3130343F416
:10040000801301FB024400FB034E840A970A44EA6E
:10041000815447EA8357A4FB076802958D0A05FBC0
:1004200007854FEA932C04FB0C542705029D4FEAE5
:10043000065847EA1637B5EB08056EEB070C870E32
:10044000920E47EA811742EA8312A7FB0201B6EB3C
:100450000B0164EB00042B0D43EA0C335E1844EBF4
:100460001C50DA465146E7FB0201C5F313044FEA7C
:100470000B3343EA14534FEA0432019C43EA060368
:10048000A4F10C040294009CCDE900B400F0BAF988
:1004900003B0BDE8F08F00200146F9E72DE9F04DEB
:1004A00081EA030404F0004B21F0004514464FF0AC
:1004B000000A23F0004150EA050220D054EA01026C
:1004C0001DD0C5F30A570246C5F31303C1F3130049
:1004D000C1F30A5640F4801543F48013A7EB0608D5
:1004E000101BD64608F2FD3873EB050002D308F165
:1004F000010801E092185B41B8F1000F03DA002017
:100500000146BDE8F08D00204FF480110646844678
:100510000EE0171B73EB050705D3121B63EB0503F6
:1005200006434CEA010C49084FEA300092185B413F
:1005300050EA0107EDD152EA030012D082EA04002A
:1005400083EA0501084305D0101BAB4106D2012206
:10055000002306E000224FF0004302E06FF00102AA
:1005600053101AEB06004CEB085110EB0A0041EB5C
:100570000B01BDE8F04D00F036B930B5041E71F145
:10058000000404DB4FF00044404264EB0101141E00
:1005900073F1000405DB1C464FF00043524263EB4D
:1005A0000403801A994101D3012030BD002030BDE1
:1005B00030B5041E71F1000404DB4FF000444042EA
:1005C00064EB0101141E73F1000405DB1C464FF0BF
:1005D0000043524263EB0403101A8B4101D3012004
:1005E00030BD002030BDF0B4CA17CB0F5040514091
:1005F000C61841F100054FEAC372314628004FF09A
:10060000960303D0B623F0BC00F0BFB830460021FB
:10061000F9E70EB5C10F80EAE0700844CA0700216F
:1006200040F233438DE80E000A460B4600F0EAF82C
:1006300003B000BD0EB540F2334102910021CDE977
:1006400000110A460B4600F0DDF803B000BD70B59E
:10065000C1F30A5201F000450024C1F3130140F236
:10066000FF3341F480119A4201DA002070BD40F25C
:1006700033439A42A2F2334203DC524200F05AF86A
:1006800000E090402C43F1D0404270BD00F00042A9
:1006900030F000400AD0C10D01F56071C0F31600C2
:1006A00042EA0151C2084007114370470020014649
:1006B000704701F0004330B421F0004150EA0102DC
:1006C00006D00A0DA2F56072C1F31301002A02DC04
:1006D00030BC00207047440F44EAC104C100E01858
:1006E00030BC00EBC25000F047B830B50B460146B5
:1006F00000202022012409E021FA02F59D4205D3C1
:1007000003FA02F5491B04FA02F52844151EA2F16A
:100710000102F1DC30BD202A04DB203A00FA02F1AC
:10072000002070479140C2F1200320FA03F31943DF
:1007300090407047202A04DB203A21FA02F0002181
:10074000704721FA02F3D040C2F1200291400843E1
:1007500019467047202A06DBCB17203A41FA02F0EF
:1007600043EAE07306E041FA02F3D040C2F120020E
:1007700091400843194670470029A8BF7047401CA4
:10078000490008BF20F00100704710B4B0FA80FCA7
:1007900000FA0CF050EA010404BF10BC704749B1E4
:1007A000CCF1200421FA04F411FA0CF118BF012154
:1007B00021430843A3EB0C01CB1D4FEA00614FEA34
:1007C000102042BF002010BC704700EBC350104403
:1007D0000029A4BF10BC7047401C490008BF20F08E
:1007E000010010BC704710B5141E73F1000408DA44
:1007F000401C41F1000192185B411A4301D120F0E5
:10080000010010BD2DE9F04D92469B4611B1B1FAA1
:1008100081F202E0B0FA80F220329046FFF77BFFCF
:1008200004460F4640EA0A0041EA0B0153465A4685
:10083000084313D0114653EA010019D0C8F1400211
:100840005046FFF777FF05460E465046594642464A
:10085000FFF761FF084305D0012004E02046394638
:10086000BDE8F08D0020054346EAE0762C4337438F
:100870000A986305E40AA0EB08000022FD0A44EA96
:1008800047540A3002D500200146E9E70105101956
:100890006941DDE9084500196941BDE8F04DA2E76D
:1008A0002DE9F04D00231A461B1A8A4103DB002074
:1008B0000146BDE8F08DC1F30A52C1F3130141F4C2
:1008C00080154FF0000BD10702D100186D41521E68
:1008D0000027044640F2FF11384601EB620A3E460B
:1008E0008046024600204FF48011FFF723FFC21913
:1008F0007141BB1846EB0100B4EB030C75EB000C27
:1009000004D3E41A65EB000517460E46241908F1D6
:1009100001006D4180463428E3DDF91946EB0600FD
:10092000091BA84103D24FF0FF32134601E0002219
:1009300013461BEB070046EB0A51BDE8F04DFFF7ED
:1009400052BFC1F30A52C1F3130140F2FF3341F425
:1009500080119A4202DA00200146704740F2334388
:100960009A42A2F2334202DC5242FFF7E3BEFFF7A3
:10097000D2BE000030B5041E71F1000404DB4FF05C
:100980000044404264EB0101141E73F1000405DBD6
:100990001C464FF00043524263EB0403994208BFE8
:1009A000904230BD064C074D06E0E06840F0010380
:1009B00094E8070098471034AC42F6D3FFF7E8FB01
:1009C000647C0108847C010870B58C1810F8015B08
:1009D00015F0070301D110F8013B2A1106D110F8D8
:1009E000012B03E010F8016B01F8016B5B1EF9D1DC
:1009F0002B0705D40023521E0DD401F8013BFAE762
:100A000010F8013BCB1A921C03E013F8015B01F8CC
:100A1000015B521EF9D5A142D8D3002070BD000061
:100A200080B584B003900291039890ED5E0AB8EE11
:100A3000C00A40F24840C2F2000090ED601A30EE69
:100A4000410AB5EE400AF1EE10FA10DDFFE7039817
:100A500090ED5E0AB8EEC00A40F24840C2F20000D3
:100A600090ED601A30EE410A8DED010A12E0039814
:100A7000D0F87801404200EE100AB8EEC00A40F209
:100A80004840C2F2000090ED601A30EE410A8DED50
:100A9000010AFFE79DED010A9FED351AB4EE410A08
:100AA000F1EE10FA07DAFFE740F2F021C2F200019E
:100AB00000204875FFE740F2F020C2F2000090F9F4
:100AC000150068B9FFE7039800F5B470029900F0CB
:100AD00099F840F24840C2F2000080ED600AFFE75A
:100AE00040F24840C2F2000000F5B47000F00CF98A
:100AF000F8B9FFE7039890ED5E0AB8EEC01A40F22D
:100B0000F021C2F2000191ED020A91F9042002EEF7
:100B1000102AB8EEC22A20EE020A30EE000A30EEA9
:100B2000010A80ED600A08794042087100200860DF
:100B3000FFE7039800F01EF8039880ED060A03987B
:100B4000B43000F017F8B1EE400A039880ED330A94
:100B500003980AF0E3F80398B4300AF0DFF803983A
:100B600000F5B47009F032FF012004B080BD00BF71
:100B70000000484281B0009040F22C30C2F20000E8
:100B8000C07B01280BD0FFE740F22C30C2F20000FE
:100B900090F82E100120B0EB111F08D1FFE740F2B2
:100BA000F020C2F20000C0680099886103E000995B
:100BB00000208861FFE7009890ED060A01B07047B9
:100BC00081B0009040F2F022C2F2000200211160D8
:100BD0000020C4F2107090604BF20000C4F201607B
:100BE000D060012010711075009A9161009AC2F8CE
:100BF000CC10009991ED5E0AB8EEC00A81ED600A52
:100C000001B0704783B00190009140F2F020C2F231
:100C1000000090F9140088BBFFE740F2F021C2F217
:100C20000001012008610098807B022808D0FFE7BE
:100C3000009890F829100120B0EB111F07D1FFE7B1
:100C400040F2F021C2F200010120087515E0009881
:100C5000807B032808D0FFE7009890F82910002037
:100C6000B0EB111F08D1FFE740F2F021C2F2000102
:100C7000002008750861FFE7FFE722E040F2F0205E
:100C8000C2F2000090F91400012819D1FFE7009882
:100C9000807B032808D0FFE7009890F829100020F7
:100CA000B0EB111F08D1FFE740F2F021C2F20001C2
:100CB000002008750861FFE70198806902901EE036
:100CC000FFE70098C07BB0B1FFE7019890ED040A00
:100CD000B8EEC00A40F2F021C2F2000191ED021A12
:100CE00091ED042AB8EEC22A21EE021A30EE410A32
:100CF00080ED060AFFE7019880690290FFE79DED0D
:100D0000020A03B07047000086B00490049890ED8A
:100D1000041A90ED060AB8EEC11A30EE410A8DEDC4
:100D2000030A40F2F020C2F2000090ED020A9FEDAB
:100D3000471A80EE010AB5EE400AF1EE10FA0DDD19
:100D4000FFE740F2F020C2F2000090ED020A9FEDB2
:100D50003F1A80EE010A8DED010A0CE040F2F0200E
:100D6000C2F2000090ED020A9FED391A80EE010AEE
:100D70008DED010AFFE79DED010A8DED020A9DED63
:100D8000030AB5EE400AF1EE10FA08DDFFE79DED2B
:100D9000030AB5EE400AF1EE10FA17D148E09DEDD6
:100DA000030AB1EE402A9DED023AB7EE001A9FED1C
:100DB000290AB4EE432AF1EE10FAA8BFB0EE410AB8
:100DC000B5EE400AF1EE10FA32D0FFE70498B0F920
:100DD0000C00012805DBFFE70498B0F90C00009037
:100DE00005E00498B0F90C0040420090FFE700983D
:100DF00014281DDCFFE740F2F020C2F2000000687A
:100E000064280ADBFFE740F2F021C2F20001012072
:100E1000487500208DF8170014E040F2F021C2F26E
:100E2000000108680130086001208DF8170009E012
:100E300040F2F021C2F200010020086001208DF88C
:100E40001700FFE79DF8170006B0704700009643B3
:100E5000000096C30000000080B50020C4F202002C
:100E60001021012203F0D6F880BD000080B50020DB
:100E7000C4F202001021002203F0CCF880BD000073
:100E80007047000080B540F20040C4F20200012229
:100E9000114603F0BFF880BD80B540F20040C4F2B7
:100EA00002000121002203F0B5F880BD7047000068
:100EB00080B582B0ADF80600FFE7BDF80600411E20
:100EC000ADF8061028B1FFE74FF47A7000F004F88F
:100ED000F3E702B080BD000086B0ADF81600002038
:100EE000049003900290019000904EF21400CEF214
:100EF000000000680090BDF81600A8214843049047
:100F00004EF21800CEF2000000680390FFE74EF2A8
:100F10001800CEF2000000680290029803998842FF
:100F20001ED0FFE702980399884207D2FFE7039893
:100F30000299411A01980844019008E0009802992A
:100F4000401A03990144019808440190FFE7029870
:100F5000039001980499884201D3FFE701E0FFE77D
:100F6000D5E706B07047000080B582B000208DF84C
:100F70000700FFF785FFFFF799FF11F049FB0146D6
:100F80009DF8070008438DF8070011F009FC0146A1
:100F90009DF8070008438DF807009DF8070002B090
:100FA00080BD000080B588B00790069105920020B2
:100FB000009004900390FFF759FF922000F006F98B
:100FC000122003A90191062200F0CCF8FFF744FF9C
:100FD0009DF80C009DF80D1040EA0120ADF80A00C4
:100FE000BDF90A0000EE100AB8EEC00A40F208008F
:100FF000C2F2000090ED001A20EE010A069981ED80
:10100000000A9DF80E109DF80F2041EA0221ADF86C
:101010000A10BDF90A1000EE101AB8EEC00A90EDE1
:10102000001A20EE010A069981ED010A9DF81010C0
:101030009DF8112041EA0221ADF80A10BDF90A100D
:1010400000EE101AB8EEC00A90ED001A20EE010A68
:10105000069880ED020AFFF71FFF00980199082209
:1010600000F080F8FFF70EFF9DF80C000F2844D128
:10107000FFE79DF80E009DF80F1040EA0120ADF843
:101080000A00BDF90A0000EE100AB8EEC00A40F2EC
:101090000C00C2F2000090ED001A20EE010A079940
:1010A00081ED000A9DF810109DF8112041EA0221FF
:1010B000ADF80A10BDF90A1000EE101AB8EEC00A19
:1010C00090ED001A20EE010A079981ED010A9DF8C2
:1010D00012109DF8132041EA0221ADF80A10BDF963
:1010E0000A1000EE101AB8EEC00A90ED001A20EEB9
:1010F000010A079880ED020AFFE7FFF7B7FEA2207A
:1011000000F064F8222003A9022200F02BF8FFF778
:10111000A3FE9DF80C009DF80D10C00040EA511090
:10112000ADF80A00BDF90A00B0F5806F07DBFFE7F4
:10113000BDF80A00A0F50060ADF80A00FFE7BDF9B0
:101140000A0000EE100AB8EEC00AB4EE001A20EE53
:10115000010AB3EE071A30EE010A059880ED000A85
:1011600008B080BD80B584B08DF80F0002918DF875
:1011700007209DF80F0040F0800000F027F8FFE7FF
:101180009DF8070070B1FFE7552000F01FF80299A5
:1011900008700298013002909DF8070001388DF820
:1011A0000700EDE704B080BD80B582B08DF8070080
:1011B00000919DF8070040F0800000F007F85520EE
:1011C00000F004F80099087002B080BD80B582B0CC
:1011D0008DF8070069464FF47A70086042F618608F
:1011E000C2F200000DF107010DF10602012305F026
:1011F0008BF89DF8060002B080BD000080B582B07B
:101200008DF807008DF806109DF80700FFF7DEFF48
:101210009DF80600FFF7DAFF02B080BDFFE7FEE7AA
:1012200080B542F2BC50C2F2000001F07DFD80BDED
:1012300080B542F2E450C2F2000001F075FD80BDBD
:1012400080B588B0079006910798006846F2004183
:10125000C4F2000188425DD1FFE70698059040F294
:101260000121884216D0FFE7059840F2022188420A
:101270001BD0FFE7059840F20321884221D0FFE709
:101280000598B0F5017F29D0FFE70598B0F5107FEC
:1012900031D03DE040F26460C2F2000040F22431FF
:1012A000C2F2000108F090FD33E040F26460C2F247
:1012B0000000B43040F22431C2F2000108F084FD95
:1012C00027E040F26460C2F2000000F5B47040F222
:1012D0002431C2F2000108F077FD1AE040F26460A8
:1012E000C2F2000000F5077040F22431C2F20001A2
:1012F00008F06AFD0DE042F28820C2F2000000F121
:10130000080140F22430C2F2000000F08BFD00E042
:10131000FFE7FFE70798006846F60001C4F2000106
:10132000884257D1FFE70698A0F2012001460491B8
:1013300007284DD80499DFE801F0232E3A4B4B04DF
:101340004B1340F63410C2F20000039040F22431F7
:10135000C2F2000108F038FD039808F059FD38E0AA
:1013600040F63410C2F20000B430029040F2243152
:10137000C2F2000108F028FD029808F049FD28E0BB
:1013800040F24840C2F2000040F22431C2F20001B3
:1013900008F01AFD1DE040F24840C2F20000B430EF
:1013A00040F22431C2F2000108F00EFD11E040F2DB
:1013B0004840C2F2000000F5B470019040F22431C0
:1013C000C2F2000108F000FD019808F021FD00E0E4
:1013D000FFE7FFE708B080BD10B58EB08C468646AB
:1013E00011981099CDF834E0ADF832C0ADF8302046
:1013F000ADF82E30ADF82C10ADF82A000020019089
:10140000BDF93210049105900821089106900790CB
:101410009DF831008DF808009DF830008DF8090026
:101420009DF82F008DF80A009DF82E008DF80B0016
:101430009DF82D008DF80C009DF82C008DF80D0006
:101440009DF82B008DF80E009DF82A008DF80F00F6
:101450000D9804A902AA01AB01F0E0F90EB010BD8D
:1014600080B58AB00121089100200490009001907D
:1014700002900390069007910E210991059042F287
:10148000BC50C2F20000694601F080FA18B1FFE7D3
:1014900000F0EAFFFFE742F2BC50C2F2000002F0A7
:1014A00017F818B1FFE700F0DFFFFFE742F2BC508A
:1014B000C2F20000022101F087F918B1FFE700F045
:1014C000D3FFFFE742F2BC50C2F20000012101F05D
:1014D0007BF918B1FFE700F0C7FFFFE70E20099086
:1014E000059042F2E450C2F20000694601F04EFA63
:1014F00018B1FFE700F0B8FFFFE742F2E450C2F294
:10150000000001F0E5FF18B1FFE700F0ADFFFFE7D5
:1015100042F2E450C2F20000022101F055F918B184
:10152000FFE700F0A1FFFFE742F2E450C2F2000043
:10153000012101F049F918B1FFE700F095FFFFE73D
:101540000AB080BD84B08DF80F000291ADF806207E
:101550009DF80F000146009123281DD80099DFE86F
:1015600001F012131415161B1B1B1B1B1B1B1B1B33
:101570001B1B1B1B1B1B1B1B1B1B1B1B1B1B1B1BBB
:101580001B1B1718191A08E007E006E005E004E045
:1015900003E002E001E000E0FFE7002004B0704754
:1015A0000020704780B582B042F2E020C2F2000015
:1015B000009041F65811C2F20001002201920CF095
:1015C00003FD009841F25811C2F200010CF0DEFC5C
:1015D000019802B080BD000080B584B003900291F4
:1015E000039942F2E020C2F2000000900CF0CEFC21
:1015F00000980CF071FC0398002101910FF028FF76
:10160000019804B080BD000083B0029001918DF874
:10161000032000208DF802009DF9020003B07047FE
:1016200080B586B00490ADF80E1000208DF80D0046
:1016300042F2E020C2F20000D0F8BC020290029810
:10164000D0F8140220B1FFE701208DF8170013E055
:101650000499BDF80E2042F2E020C2F20000019091
:101660000CF0B2FC01980CF0B9FD8DF80D009DF85E
:101670000D008DF81700FFE79DF8170006B080BD3C
:1016800080B5B0B02F902E9100202D902C902B90F3
:1016900047F2BC12C0F60102116852682A922991E1
:1016A000289027902590249040F63410C2F2000034
:1016B000B0F9081000EE101AB8EEC00A90ED091A41
:1016C000B8EEC11A30EE410A10EE100AFEF7DEFF46
:1016D00041EC100B40F2E820C2F20000139080EDC4
:1016E000000B12F075FB139890ED000B9FEDDC1BC7
:1016F00053EC112B51EC100BFEF75EFE41EC100B7E
:1017000040F2E020C2F2000080ED000B2E98B0F90C
:10171000041000EE101AB8EEC01A90F82D1001F067
:101720000F00C0EB111000EE100AB8EEC00A9FEDDA
:10173000CE2A20EE020A30EE010AB2EE041A20EEA2
:10174000010A8DED2D0A2E98B0F9061000EE101A40
:10175000B8EEC03A90F82C1001F00F00A0EB111079
:1017600000EE100AB8EEC00A20EE020A30EE030ABC
:1017700020EE010A8DED2C0A2E98B0F90C1000EE27
:10178000101AB8EEC01A90F82E0000F00F0000EE0C
:10179000100AB8EEC00A20EE020A30EE010AB8EED6
:1017A000081A20EE010A8DED2B0A2E9890F83300CE
:1017B000000748B1FFE79DED2B0A9FEDAC1A20EE24
:1017C000010A8DED2B0AFFE72E988089B0BBFFE759
:1017D0002E98B0F9080000EE100AB8EEC00A30EEFC
:1017E000000A10EE100AFEF751FF41EC100B8DEDD0
:1017F000240B40F2E820C2F2000090ED000B8DEDCA
:10180000140B9DF8570080F080008DF85700149855
:101810001599FEF74EFF00EE900A40F27C30C2F2BE
:1018200000009FED930A09F0F9F88DED2B0A10EEF8
:10183000100AFEF72BFF41EC100B03E0002025906F
:101840002490FFE740F2E020C2F20000059090ED06
:10185000000B14F055F805988DED220B90ED000B60
:1018600014F0B2F88DED200B2C98FEF70FFF41EC31
:10187000100B8DED080B9DED200B8DED060B2D98BB
:10188000FEF704FF41EC100B9DED221B53EC112BD6
:1018900051EC100BFEF790FD9DED061B9DED080B26
:1018A00041EC120B8DED0A2B53EC112B51EC100B6C
:1018B000FEF782FD9DED0A0B02460B4651EC100B24
:1018C00043EC102B53EC102BFEF770FD41EC100B8A
:1018D00051EC100BFEF7EDFE28902C98FEF7D6FE8B
:1018E00041EC100B8DED0E0B9DED220B8DED0C0BD5
:1018F0002D98FEF7CBFE41EC100B9DED201B53EC19
:10190000112B51EC100BFEF757FD9DED0C1B9DEDBF
:101910000E0B41EC120B8DED102B53EC112B51ECF7
:10192000100BFEF749FD9DED100B41EC110B51EC36
:10193000110B53EC102BFEF798FC41EC100B51EC03
:10194000100BFEF7B6FE27902F98B0F92A0200EE92
:10195000100AB8EEC00AB5EE400AF1EE10FA0ADD40
:10196000FFE72F98B0F92A0200EE100AB8EEC00A7D
:101970008DED040A0BE02F98B0F92A0200EE100A50
:10198000B8EEC00AB1EE400A8DED040AFFE79DED06
:10199000040A8DED1F0A2F98B0F90E0000EE100A10
:1019A000B8EEC00AB5EE400AF1EE10FA0ADDFFE724
:1019B0002F98B0F90E0000EE100AB8EEC00A8DEDB7
:1019C000030A0BE02F98B0F90E0000EE100AB8EEF3
:1019D000C00AB1EE400A8DED030AFFE79DED030A50
:1019E0008DED1E0A2F98B0F9760100EE100AB8EEC0
:1019F000C00AB5EE400AF1EE10FA0ADDFFE72F98B3
:101A0000B0F9760100EE100AB8EEC00A8DED020AB8
:101A10000BE02F98B0F9760100EE100AB8EEC00A7C
:101A2000B1EE400A8DED020AFFE79DED020A8DED51
:101A30001D0A2F98B0F9C20000EE100AB8EEC00AD5
:101A4000B5EE400AF1EE10FA14DDFFE72F98B0F979
:101A5000C20000EE100AB8EEC00A8DED010A15E0D2
:101A600000000060FB21493F00002544CDCCCC3E66
:101A7000000000002F98B0F9C20000EE100AB8EE86
:101A8000C00AB1EE400A8DED010AFFE79DED010AA3
:101A90008DED1C0A9DED1F0A9DED1E1A30EE410AC8
:101AA000B0EEC00A8DED1B0A9DED1D0A9DED1C1ABE
:101AB00030EE410AB0EEC00A8DED1A0A42F2B420AF
:101AC000C2F20000009090ED000A9DED1F1A9FEDFC
:101AD000D23A21EE031A9FEDD12A20EE020A30EE0F
:101AE000010A80ED000A90ED010A9DED1E1A21EE1B
:101AF000031A20EE020A30EE010A80ED010A90ED91
:101B0000020A9DED1D1A21EE031A20EE020A30EEA4
:101B1000010A80ED020A90ED030A9DED1C1A21EEE8
:101B2000031A20EE020A30EE010A80ED030A90ED5E
:101B3000000A90ED011A30EE010AB6EE001A20EE0E
:101B4000010A8DED190A90ED020A90ED032A30EE9C
:101B5000020A20EE010A8DED180A9DED190A9DED8D
:101B6000181A30EE410AB0EEC00A8DED170A9DED4D
:101B7000170A9FEDAB1A0020B4EE410AF1EE10FAFD
:101B8000C8BF01208DF85B009DF85B0038B3FFE70C
:101B900043F20410C2F20000007800BBFFE743F2FA
:101BA0005E00C2F2000001880131018043F25C0254
:101BB000C2F2000200211180B0F9000064280DDBA0
:101BC000FFE743F20411C2F200010120087043F262
:101BD0005E01C2F2000164200880FFE72BE09DF85F
:101BE0005B0038BBFFE743F20410C2F2000000784C
:101BF00000B3FFE743F25C00C2F20000018801314C
:101C0000018043F25E02C2F2000200211180B0F9AD
:101C1000000032280DDBFFE743F20411C2F200019D
:101C20000020087043F25C01C2F2000132200880FB
:101C3000FFE7FFE7FFE743F20410C2F2000000787D
:101C40002E99C8702E98807820B1FFE72F99002038
:101C500088612AE09DED280A9DED271A30EE410AA1
:101C60009DED2B2A9DED293A9DED2A1A22EE032A9D
:101C700030EE420A20EE010A10EE100AFEF706FDD1
:101C800041EC110B9DED240B53EC112B51EC100B7F
:101C9000FEF7EBFA41EC100B51EC100BFEF709FDCF
:101CA00000EE100A2F998861FFE72E98807828B1FE
:101CB000FFE72F990020C1F8CC002DE09DED280A08
:101CC000B1EE400A9DED271A30EE410A9DED2B2A18
:101CD0009DED293A9DED2A1A22EE032A30EE420AA2
:101CE00020EE010A10EE100AFEF7D0FC41EC110BB9
:101CF0009DED240B53EC112B51EC100BFEF7B5FAB4
:101D000041EC100B51EC100BFEF7D3FC00EE100A67
:101D10002F99C1F8CC00FFE72E98807828B1FFE713
:101D20002F990020C1F880012BE09DED281A9DED30
:101D3000270A30EE410A9DED2B2A9DED293A9DEDB3
:101D40002A1A22EE032A30EE420A20EE010A10EE91
:101D5000100AFEF79BFC41EC110B9DED240B53EC9C
:101D6000112B51EC100BFEF780FA41EC100B51ECEB
:101D7000100BFEF79EFC00EE100A2F99C1F88001AF
:101D8000FFE72E98807828B1FFE72F990020C1F84F
:101D900034022BE09DED280A9DED271A30EE010A52
:101DA0009DED2B2A9DED293A9DED2A1A22EE032A5C
:101DB00030EE420A20EE010A10EE100AFEF766FC31
:101DC00041EC110B9DED240B53EC112B51EC100B3E
:101DD000FEF74BFA41EC100B51EC100BFEF769FCCF
:101DE00000EE100A2F99C1F83402FFE72F9808F08F
:101DF00095FF2F98B43008F091FF2F9800F5B4703C
:101E000008F08CFF2F9800F5077008F087FF00207E
:101E100010F06AFD30B080BDD0CCCC3D6666663F28
:101E20000000C84383B0029001910020ADF8020089
:101E300002980088000400BA00EE100AB8EEC00A4A
:101E400042F28820C2F2000080ED030A90ED030AFE
:101E50009FED191A20EE010A80ED030A02998A7893
:101E6000C97841EA0221ADF80210BDF9021000EE76
:101E7000101AB8EEC00A80ED040A90ED040A9FED36
:101E80000F1A20EE010A80ED040A02998A79C979B5
:101E900041EA0221818290ED040A46F63C51C2F2E9
:101EA0000001D1F84A1001EE101A30EE410A80ED1F
:101EB000060A03B0704700BFCDCCCC3D0AD7233C07
:101EC00080B584B0039002918DF8072003980FF03D
:101ED000DDFB0299CD2008700398016842F2B02022
:101EE000C2F20000009001600178029A51704178BE
:101EF000029A91708178029AD170C178029A117118
:101F00000399496801600178029A51714178029AF7
:101F100091718178029AD171C178029A1172029AF4
:101F2000092151720021C4F27F3101600178029AC7
:101F300091724178029AD1728178029A1173C078B5
:101F4000029948730299122088730299DC20C873A1
:101F50009DF8070038B9FFE702981021FFF760FBF2
:101F60008DF8060010E09DF8070001280BD1FFE76F
:101F7000029942F64870C2F20000102205F084FE79
:101F80008DF80600FFE7FFE7012004B080BD0000E8
:101F900080B586B0059040F26630C2F20000049031
:101FA0004168C1F30131059A91734168C1F38131F0
:101FB000059AD17301686FF3DF21A1F58061059A5D
:101FC00091800168C1F3CA21A1F58061059AD18091
:101FD00001684268890D41EA82216FF3DF21A1F592
:101FE0008061059A11814168C1F34A01A1F58061C0
:101FF000059A5181018A6FF3DF21A1F58061059A6D
:102000009181817B01F00103059A92F82C1001F077
:10201000F001194482F82C10C168C1F34043059ABD
:1020200092F82C1001F00F0141EA031182F82C10F4
:10203000C168C1F38043059A92F82D1001F0F001B8
:10204000194482F82D10C168C1F3C043059A92F873
:102050002D1001F00F0141EA031182F82D10C16823
:10206000C1F30053059A92F82E1001F0F0011944C3
:1020700082F82E10C168C1F38053059A92F82F1090
:1020800001F0F001194482F82F10C168C1F3C05368
:10209000059A92F82F1001F00F0141EA031182F81E
:1020A0002F10C168C1F38073059A92F8331001F0C4
:1020B000F001194482F83310C268102101EAD2639A
:1020C000059A92F8331001F00F01194482F8331089
:1020D000C168C1F3C063059A92F8311001F00F0195
:1020E00041EA031182F83110C168C1F30073059A07
:1020F00092F8321001F0F001194482F83210C168F0
:10210000C1F34073059A92F8321001F00F0141EAD1
:10211000031182F83210C168C1F34053059A92F856
:102120002E1001F00F0141EA031182F82E100599DB
:10213000D1F8111000EE101A8DED010AB0F9060069
:10214000C117FEF750FA9DED010A00EE900A9FEDCF
:10215000381A8DED031A10F065FF0498059A10EEF9
:10216000101AC2F811100599D1F81D1000EE101ABE
:102170008DED020AB0F90800C117FEF734FA9DEDA3
:10218000020A9DED031A00EE900A10F04BFF04982E
:10219000059A10EE101AC2F81D10B0F90B00C11705
:1021A000000A40EA016001281FD1FFE7059890F876
:1021B0002B0013280FDCFFE7059991F82B00013065
:1021C00081F82B00059991F82900012262F31F1074
:1021D00081F8290008E0059991F82900022262F3AC
:1021E0001F1081F82900FFE70BE00599002081F816
:1021F0002B00059991F8290000F00F0081F82900C3
:10220000FFE740F26630C2F20000427B059991F888
:10221000290002F00F0200F0F000104481F82900BC
:1022200040F22C31C2F200010020887006B080BD5F
:102230000000FA4380B582B0019001983A21FEF780
:1022400009F801990120887002B080BD80B542F282
:102250008C70C2F2000001F035FA80BD80B542F208
:10226000EC70C2F2000001F02DFA80BD80B542F2A0
:102270000C60C2F2000001F025FA80BD80B542F684
:102280004C00C2F2000001F01DFA80BD80B542F2A0
:102290006C60C2F2000001F015FA80BD80B542F218
:1022A000CC60C2F2000001F00DFA80BD80B542F6AC
:1022B000AC00C2F2000001F005FA80BD80B542F228
:1022C0002C70C2F2000001F0FDF980BD82B00190D7
:1022D0000198007810384AF6AB21CAF6AA21A0FB73
:1022E000011000090090009947F2FC00C0F60100BF
:1022F000405C0199C8650098042807D3FFE701995D
:102300000868042262F30900886506E001990868FC
:1023100040F2FF3290438865FFE70198806D02B07C
:102320007047000086B0059000208DF813000598D6
:10233000806A03900598806910BBFFE703980290BC
:1023400003281BD80299DFE801F0020D0218059856
:1023500090F82F00C00720B1FFE701208DF813008F
:10236000FFE70CE00598C06AB0F1C07F04D1FFE739
:1023700001208DF81300FFE701E000E0FFE745E0F2
:1023800005988069B0F5005F25D1FFE703980190BB
:1023900003281ED80199DFE801F00206021101208E
:1023A0008DF8130016E0059890F82F00C00720B1B3
:1023B000FFE701208DF81300FFE70BE00598C06AE6
:1023C000B0F1C07F04D1FFE701208DF81300FFE7D3
:1023D00000E0FFE719E003980090032804D3FFE72B
:1023E0000098032804D00EE001208DF813000BE0C4
:1023F000059890F82F00C00720B1FFE701208DF865
:102400001300FFE700E0FFE7FFE7FFE79DF8130099
:1024100006B0704784B00390029101920093039834
:102420000168086820F48020086000980399096812
:10243000486003988068402809D1FFE70198039914
:1024400009688860029803990968C86008E00298E2
:10245000039909688860019803990968C860FFE7D3
:1024600004B070477047000081B0EFF3108072B67F
:102470000090FFE7FEE7000080B58AB00990089160
:1024800007920898C07B013801460691032800F2A4
:10249000E9800699DFE801F003CB02CAFFE708985C
:1024A000B0F9081000EE101AB8EEC00AB1EE400AFA
:1024B0008DED050AD0F8110000EE100A9FED6B1AA1
:1024C00020EE010AB7EE001AB4EE410AF1EE10FA5E
:1024D00005DDFFE7B7EE000A8DED040A26E0089857
:1024E000D0F8110000EE100A9FED601A20EE010AEC
:1024F000BFEE001AB4EE410AF1EE10FA05DAFFE77A
:10250000BFEE000A8DED030A0BE00898D0F8110029
:1025100000EE100A9FED551A20EE010A8DED030A18
:10252000FFE79DED030A8DED040AFFE79DED050A27
:102530009DED041A9FED4E2A20EE020A30EE410A6C
:10254000089890F82F1001F00F00C0EB111001EE69
:10255000100AB8EEC11A9FED472A21EE021A30EE9A
:10256000011A40F2A831C2F2000191ED000A30EEEA
:10257000011A099890ED060A30EE010A80ED060A6C
:10258000002008600898B0F90A1000EE101AB8EEA2
:10259000C00AD0F81D0001EE100A9FED372A21EE87
:1025A000021A9FED362A20EE020A30EE011A09982F
:1025B00090ED330A30EE010A80ED330A099890ED70
:1025C000330A9FED2F1AB4EE410AF1EE10FA05DD41
:1025D000FFE79FED2B0A8DED020A1AE0099890EDB6
:1025E000330A9FED281AB4EE410AF1EE10FA05DA2B
:1025F000FFE79FED240A8DED010A05E0099890EDB3
:10260000330A8DED010AFFE79DED010A8DED020A07
:10261000FFE79DED020A099880ED330A099808F05A
:10262000B9FA0998B43008F04FFB1CE01BE042F205
:102630000820C2F20000007AC00740B1FFE7099805
:1026400008F0C6FB0998B43008F086FBFFE740F6B7
:10265000AC40C2F20000406940F2A831C2F2000171
:10266000086000E0FFE70AB080BD00BF0AD7233C46
:102670000AD7A33CCDCC4C3F0AD723BCA69B44BB76
:1026800000904E450080224584B002900191ADF843
:102690000220029828B9FFE74FF6FF70ADF80E0050
:1026A00021E0FFE70198411E0191B8B1FFE70298D0
:1026B000411C029100788DF80100BDF802109DF8D0
:1026C00001004840C2B247F66220C0F6010030F86F
:1026D000120080EA1120ADF80200E3E7BDF8020025
:1026E000ADF80E00FFE7BDF80E0004B07047000023
:1026F00082B00190ADF802108DF80120FFE7BDF81F
:102700000200411EADF8021098B1FFE79DF80100EC
:1027100001994A1C0192097848408DF800009DF803
:10272000001046F6FC70C0F60100405C8DF8010018
:10273000E5E79DF8010002B07047000040F6C820B0
:10274000C2F2000090ED690A7047000040F6C82010
:10275000C2F2000090ED680A7047000080B584B0B6
:1027600047F61020C1F6FF700068039047F614206A
:10277000C1F6FF700068029047F61820C1F6FF709E
:10278000006801900199039808440390039888B168
:10279000FFE7039840F27C11C2F200010091023180
:1027A000082206F00DFD009902981231042206F06D
:1027B00007FDFFE704B080BD40F6C820C2F200006C
:1027C00090ED6A0A7047000084B00290019102986F
:1027D00090F820008DF803009DF80300012805D033
:1027E000FFE79DF8030002280AD1FFE7019A02984B
:1027F000016848691043486100208DF80F0008E027
:102800000299486A40F48020486201208DF80F0048
:10281000FFE79DF80F0004B07047000088B00690F5
:10282000059104920393069890F820008DF8070014
:1028300006980068806800900598806808B9FFE7EE
:1028400000E0FFE79DF80700012806D0FFE79DF8AC
:102850000700022840F08D80FFE79DF80300400745
:1028600000280CD4FFE79DF803000007002806D4D9
:10287000FFE79DF80300C006002871D5FFE7009828
:10288000C0F3016002900298032809D3FFE706997C
:10289000486A40F40000486201208DF81F0071E092
:1028A000029901208840039908600598806868B9FA
:1028B000FFE705980168C06840EA41500699096839
:1028C000029A01EB0211C1F880010EE005994A68F5
:1028D0008868C96840EAC200084306990968029AF4
:1028E00001EB0211C1F88001FFE705980069069924
:1028F0000968029A01EB0211C1F884010598007D74
:1029000001280CD1FFE706980068029900EB01113D
:10291000D1F8840140F48070C1F88401FFE7049885
:10292000406806990968029A01EB0211C1F88C010E
:102930000498006806990968029A01EB0211C1F82F
:10294000880106980068029900EB0111D1F8800116
:1029500040F00100C1F8800100208DF81F0011E057
:102960000699486A40F40010486201208DF81F0063
:1029700008E00699486A40F48020486201208DF8FA
:102980001F00FFE79DF81F0008B0704786B0049055
:102990000391049800680190049890F820008DF845
:1029A00003009DF80300012806D0FFE79DF803000F
:1029B000022840F0B080FFE746F20040C4F2000079
:1029C00001900199D1F8000240F00100C1F8000225
:1029D0000199D1F8000220F47C50C1F8000203985C
:1029E000426A0199D1F8000240EA0220C1F80002CF
:1029F0000398406900F01F01012088400290029A6C
:102A00000199D1F81C029043C1F81C020398C069D7
:102A1000F0B9FFE7029A0199D1F80C029043C1F88E
:102A20000C02039A9088D168526940EA01400199EA
:102A300001EBC201C1F84002039A10889168526903
:102A400040EA0140019901EBC201C1F84402FFE7ED
:102A50000398C06901281ED1FFE7029A0199D1F8B5
:102A60000C021043C1F80C02039A90881168526955
:102A700040EA0140019901EBC201C1F84002039A0A
:102A800090899168526940EA0140019901EBC201C5
:102A9000C1F84402FFE70398806940B9FFE7029A52
:102AA0000199D1F804029043C1F8040207E0029AA8
:102AB0000199D1F804021043C1F80402FFE703981A
:102AC000006940B9FFE7029A0199D1F814029043D6
:102AD000C1F8140207E0029A0199D1F814021043D8
:102AE000C1F81402FFE70398006A012808D1FFE744
:102AF000029A0199D1F81C021043C1F81C02FFE7A9
:102B00000199D1F8000220F00100C1F80002002074
:102B10008DF8170008E00499486A40F48020486264
:102B200001208DF81700FFE79DF8170006B07047E9
:102B300081B0009001B0704786B00490039102927A
:102B40000193049890F820008DF803009DF803008D
:102B5000012806D0FFE79DF80300022840F0D78047
:102B6000FFE7039880B9FFE704980068C068800712
:102B700048B9FFE70499486A40F400104862012010
:102B80008DF81700CCE00FE004980068006980071A
:102B900048B9FFE70499486A40F4001048620120F0
:102BA0008DF81700BCE0FFE704980068039900EB7C
:102BB0000110D0F8B00100F004000299886002987A
:102BC000806858B9FFE704980068039900EB01108A
:102BD000D0F8B001400D029908600AE0049800683E
:102BE000039900EB0110D0F8B001C00802994860C9
:102BF000FFE704980068039900EB0110D0F8B001DA
:102C000000F002000299C86004980068039900EB84
:102C10000110D0F8B40100F00F0002990861049887
:102C20000068039900EB0110D0F8B40180B2000AEB
:102C30000299886104980068039900EB0110D0F8AC
:102C4000B401000C0299486104980068039900EBF4
:102C50000110D0F8B8010199087004980068039930
:102C600000EB0110D0F8B801000A019948700498EF
:102C70000068039900EB0110D0F8B801000C01992D
:102C8000887004980068039900EB0110D0F8B8012F
:102C9000000E0199C87004980068039900EB0110B8
:102CA000D0F8BC010199087104980068039900EB01
:102CB0000110D0F8BC01000A01994871049800681D
:102CC000039900EB0110D0F8BC01000C0199887148
:102CD00004980068039900EB0110D0F8BC01000EC5
:102CE0000199C871039838B9FFE704980168C8686A
:102CF00040F02000C86006E004980168086940F0D0
:102D000020000861FFE700208DF8170008E0049913
:102D1000486A40F48020486201208DF81700FFE7E0
:102D20009DF8170006B0704780B58AB00990002062
:102D30000890099800684069079009980068406801
:102D40000690099800688068059009980068C06836
:102D500004900998006800690390099800688069E8
:102D600002909DF81C00C007002800F09480FFE747
:102D70009DF81400C00758B3FFE7099801680120C7
:102D800088609DF814008007002804D5FFE70998A3
:102D900000F0E8FB1BE09DF814004007002805D573
:102DA000FFE7089840F4006008900FE09DF81400D9
:102DB0000007002805D5FFE7089840F480500890E8
:102DC00003E0099800F0CAFBFFE7FFE7FFE7FFE732
:102DD0009DF81500C00760B3FFE7099801684FF43C
:102DE000807088609DF815008007002804D5FFE7F3
:102DF000099800F0BFFB1BE09DF815004007002874
:102E000005D5FFE7089840F4005008900FE09DF8C2
:102E100015000007002805D5FFE7089840F480401A
:102E2000089003E0099800F0A1FBFFE7FFE7FFE748
:102E3000FFE79DF81600C00760B3FFE70998016837
:102E40004FF4803088609DF816008007002804D574
:102E5000FFE7099800F096FB1BE09DF8160040077D
:102E6000002805D5FFE7089840F4004008900FE0DF
:102E70009DF816000007002805D5FFE7089840F4E4
:102E80008030089003E0099800F078FBFFE7FFE747
:102E9000FFE7FFE7FFE79DF81C000007002810D5BB
:102EA000FFE79DF81000C006002809D5FFE7089845
:102EB00040F400700890099801681020C860FFE78E
:102EC000FFE79DF81C00400700280FD5FFE79DF89D
:102ED00010000007002808D5FFE7099801680820BE
:102EE000C860099800F0CCFAFFE7FFE79DF81C00E6
:102EF000800700280BD5FFE709980068C0688007A5
:102F000020B1FFE7099800F0BFFAFFE7FFE79DF85F
:102F10001C004006002810D5FFE79DF80C00C006F5
:102F2000002809D5FFE7089840F4806008900998C8
:102F3000016810200861FFE7FFE79DF81C0080068C
:102F400000280FD5FFE79DF80C000007002808D5E2
:102F5000FFE70998016808200861099800F0ACFAB9
:102F6000FFE7FFE79DF81C00C00600280BD5FFE730
:102F7000099800680069800720B1FFE7099800F010
:102F80009FFAFFE7FFE79DF81E00800700280FD596
:102F9000FFE79DF81800C006002808D5FFE709984C
:102FA000016810204860099800F08EFAFFE7FFE7FB
:102FB0009DF81E00C00778B1FFE79DF818000007D4
:102FC000002808D5FFE7099801680820486009989B
:102FD00000F0DCFAFFE7FFE79DF81D00000600287F
:102FE00040F18D80FFE79DF818004007002840F170
:102FF0008180FFE79DF81D00C00750B1FFE79DF8F5
:103000000800C00728B1FFE7089840F001000890C9
:10301000FFE79DF81D00800700280BD5FFE79DF80E
:1030200008008007002805D5FFE7089840F0020057
:103030000890FFE79DF81D00400700280BD5FFE72B
:103040009DF808004007002805D5FFE7089840F0E4
:1030500004000890FFE79DF81D000007002848D5F0
:10306000FFE79DF8080010F0700F42D0FFE70298CC
:1030700000F0700001460191102814D0FFE701987C
:10308000202815D0FFE70198302816D0FFE70198D7
:10309000402817D0FFE70198502818D0FFE7019883
:1030A000602819D01DE0089840F00800089019E049
:1030B000089840F01000089014E0089840F02000B4
:1030C00008900FE0089840F0400008900AE0089847
:1030D00040F08000089005E0089840F48070089067
:1030E00000E0FFE709980168886920F070008861B6
:1030F000FFE7FFE70998016804204860FFE70898A8
:1031000048B1FFE7089A0999486A1043486209984C
:10311000FFF70EFDFFE70AB080BD000080B584B068
:103120000290029820B9FFE701208DF80F00E0E03F
:10313000029890F8200020B9FFE7029800F0DEF82E
:10314000FFE702980168086840F00100086000F09D
:1031500079FF0190FFE7029800684068C007A8B9AE
:10316000FFE700F06FFF0199401A0B280DD3FFE72E
:103170000299486A40F4003048620299052081F8BB
:10318000200001208DF80F00B3E0E4E70298016809
:10319000086820F00200086000F054FF0190FFE78B
:1031A0000298006840688007002815D5FFE700F006
:1031B00049FF0199401A0B280DD3FFE70299486A8D
:1031C00040F4003048620299052081F82000012077
:1031D0008DF80F008DE0E3E70298007E012807D10B
:1031E000FFE702980168086840F08000086006E088
:1031F00002980168086820F080000860FFE70298E4
:10320000407E012807D1FFE702980168086840F076
:103210004000086006E002980168086820F040005D
:103220000860FFE70298807E012807D1FFE7029837
:103230000168086840F02000086006E00298016814
:10324000086820F020000860FFE70298C07E01288F
:1032500007D1FFE702980168086820F010000860B5
:1032600006E002980168086840F010000860FFE777
:103270000298007F012807D1FFE7029801680868DB
:1032800040F00800086006E002980168086820F035
:1032900008000860FFE70298407F012807D1FFE798
:1032A00002980168086840F00400086006E002988F
:1032B0000168086820F004000860FFE7029B1968B5
:1032C0005A689868D3F80CC040EA0C00D3F810C0D4
:1032D00040EA0C005B691843013A1043C861029947
:1032E00000204862029A012182F820108DF80F0018
:1032F000FFE79DF80F0004B080BD000080B590B0DE
:103300000F9000200E900D900C900B900A900F984B
:10331000006846F20041C4F20001884249D1FFE74B
:1033200040F2AC30C2F20000016801310160006877
:10333000012812D1FFE7FFE70020099043F6400083
:10334000C4F20200016841F000710160006800F001
:10335000007009900998FFE7FFE7FFE70020089059
:1033600043F63000C4F20200016841F00801016038
:10337000006800F0080008900898FFE703200A9012
:1033800002210B91002103910C910D9009200E90C8
:1033900040F60040C4F202000AA900F05FFC039A64
:1033A00014200490052100F021FF049800F014FF80
:1033B00064E00F98006846F60001C4F200018842FC
:1033C0005BD1FFE7FFE70020079043F64000C4F21F
:1033D0000200016841F080610160006800F08060D7
:1033E00007900798FFE740F2AC30C2F20000016896
:1033F000013101600068012812D1FFE7FFE70020DA
:10340000069043F64000C4F20200016841F00071EA
:103410000160006800F0007006900698FFE7FFE783
:10342000FFE70020059043F63000C4F20200016877
:1034300041F002010160006800F00200059005986B
:10344000FFE760200A9002200B90002001900C9072
:1034500003200D9009200E9040F20040C4F20200BB
:103460000AA900F0FBFB019A40200290052100F020
:10347000BDFE029800F0B0FEFFE7FFE710B080BD90
:1034800081B0009001B0704780B582B00190019882
:1034900040F20832C2F20002009240F22433C2F23B
:1034A00000030021FFF748FB009901980968FDF728
:1034B000C7FE02B080BD000081B0009001B070472F
:1034C00081B0009001B0704781B0009001B07047AA
:1034D00080B584B00290029890F8200001282FD186
:1034E000FFE70299022081F820000298016808682D
:1034F00020F00100086000F0A5FD0190FFE70298B0
:1035000000684068C007A8B1FFE700F09BFD019983
:10351000401A0B280DD3FFE70299486A40F40030A7
:1035200048620299052081F8200001208DF80F00E3
:103530000FE0E4E70299002048628DF80F0008E0F0
:103540000299486A40F40020486201208DF80F007B
:10355000FFE79DF80F0004B080BD000081B000902F
:1035600001B0704781B0009001B0704781B0009009
:1035700001B0704781B0009001B0704781B00090F9
:1035800001B0704781B0009001B0704781B00090E9
:1035900001B0704780B584B002900298806D0190B0
:1035A00000F050FD0090029890F8350002280DD0F0
:1035B000FFE7029980204865FFE70299002081F823
:1035C0003400FFE701208DF80F0055E002980168F4
:1035D000086820F01600086002980168486920F029
:1035E000800048610298006C20B9FFE70298806C67
:1035F00038B1FFE702980168086820F00800086009
:10360000FFE702980168086820F001000860FFE702
:10361000029800680068C007C8B1FFE700F012FD1B
:103620000099401A062811D3FFE702992020486527
:103630000299032081F83500FFE70299002081F804
:103640003400FFE703208DF80F0015E0E0E7029853
:10365000C16D3F208840019988600299012081F85E
:103660003500FFE70299002081F83400FFE7FFE70B
:1036700000208DF80F00FFE79DF80F0004B080BD1B
:1036800082B00090009890F83500022807D0FFE73C
:1036900000998020486501208DF807000EE0009910
:1036A000052081F8350000980168086820F00100C5
:1036B0000860FFE700208DF80700FFE79DF807008E
:1036C00002B0704780B586B005900020039040F2AC
:1036D000C400C2F20000006848F2B511C1F64E31D4
:1036E000A0FB0110800A02900598806D019001985E
:1036F0000068049004980599C96DC8400007002827
:103700001AD5FFE70598006800684007002812D521
:10371000FFE705980168086820F004000860059834
:10372000C16D08208840019988600599486D40F076
:1037300001004865FFE7FFE704980599C96DC84097
:10374000C007A0B1FFE7059800684069000600289F
:103750000CD5FFE70598C16D01208840019988606C
:103760000599486D40F002004865FFE7FFE70498BF
:103770000599C96DC8404007002814D5FFE7059892
:1037800000680068800700280CD5FFE70598C16D28
:1037900004208840019988600599486D40F0040034
:1037A0004865FFE7FFE704980599C96DC840C00662
:1037B000002847D5FFE70598006800680007002843
:1037C0003FD5FFE70598C16D1020884001998860BA
:1037D000059800680068400300281AD5FFE705989F
:1037E000006800680003002809D4FFE70598006C12
:1037F00020B1FFE70598016C8847FFE708E00598CE
:10380000806C20B1FFE70598816C8847FFE7FFE7F0
:1038100016E0059800680068C005002807D4FFE797
:1038200005980168086820F008000860FFE705981F
:10383000006C20B1FFE70598016C8847FFE7FFE7C0
:10384000FFE7FFE704980599C96DC8408006002886
:1038500040F18D80FFE7059800680068C0060028E9
:1038600040F18480FFE70598C16D202088400199D0
:103870008860059890F83500052834D1FFE7059851
:103880000168086820F0160008600598016848691A
:1038900020F0800048610598006C20B9FFE705988A
:1038A000806C38B1FFE705980168086820F00800CF
:1038B0000860FFE70598C16D3F2088400199886046
:1038C0000599012081F83500FFE70599002081F86E
:1038D0003400FFE70598006D20B1FFE70598016D02
:1038E0008847FFE77BE005980068006840030028F0
:1038F0001AD5FFE70598006800680003002809D47E
:10390000FFE70598406C20B1FFE70598416C8847B8
:10391000FFE708E00598C06B20B1FFE70598C16B91
:103920008847FFE7FFE720E0059800680068C005CA
:10393000002811D4FFE705980168086820F01000FE
:1039400008600599012081F83500FFE705990020FE
:1039500081F83400FFE7FFE70598C06B20B1FFE76F
:103960000598C16B8847FFE7FFE7FFE7FFE705988A
:10397000406DA0B3FFE70598406DC00730B3FFE787
:103980000599052081F8350005980168086820F040
:1039900001000860FFE70398013003900299884214
:1039A00001D9FFE707E0FFE7059800680068C00756
:1039B0000028F0D1FFE70599012081F83500FFE7E5
:1039C0000599002081F83400FFE7FFE70598C06CF7
:1039D00020B1FFE70598C16C8847FFE7FFE706B015
:1039E00080BD000080B586B004900020039000F0F8
:1039F00029FB0290049820B9FFE701208DF81700F9
:103A0000A3E00498406A08B1FFE7FFE704990220A9
:103A100081F83500FFE70499002081F83400FFE7C2
:103A200004980168086820F001000860FFE7049826
:103A300000680068C00790B1FFE700F003FB02993F
:103A4000401A06280AD3FFE7049920204865049904
:103A5000032081F835008DF8170076E0E7E7049839
:103A6000006800680390039848F23F01CFF210010C
:103A700008400390049900914868D1F808C0CB68C9
:103A80000A6940EA0C00184310434A6910438A69E6
:103A90001043CA691043096A01430398084303901D
:103AA0000498406A042808D1FFE70499C86A096BA2
:103AB0000143039808430390FFE7039804990968BA
:103AC00008600498006840690390039820F007009C
:103AD00003900498416A0398084303900498406A4D
:103AE00004281AD1FFE70498816A039808430390D9
:103AF0000498C06A80B1FFE70498FEF713FC50B148
:103B0000FFE70499402048650499012081F83500B9
:103B10008DF8170019E0FFE7FFE70398049909689B
:103B200048610498FEF7D2FB01900498C16D3F20D4
:103B3000884001998860049900204865049A012111
:103B400082F835108DF81700FFE79DF8170006B0D2
:103B500080BD000080B588B0069005910492039363
:103B600000208DF80B000698806D0190FFE7069805
:103B700090F83400012804D1FFE702208DF81F00DF
:103B800045E00699012081F83400FFE7FFE7069839
:103B900090F8350001282BD1FFE70699022081F823
:103BA000350006990020486506980599049A039BFC
:103BB000FEF730FC0698C16D3F208840019988606F
:103BC00006980168086840F0160008600698006CC6
:103BD00038B1FFE706980168086840F008000860FF
:103BE000FFE706980168086840F00100086009E0F6
:103BF000FFE70699002081F83400FFE702208DF8E6
:103C00000B00FFE79DF80B008DF81F00FFE79DF804
:103C10001F0008B080BD000080B584B0039000F0A4
:103C200011FA0290039801900198013048B1FFE722
:103C300040F2AC10C2F200000178019808440190F3
:103C4000FFE7FFE700F0FEF90299401A0199884268
:103C500001D2FFE7F6E704B080BD00008EB00D9002
:103C60000C9100200A90099008900B90FFE70B98A8
:103C70000F2800F2CC81FFE70B99012088400A90C1
:103C80000C9800680A990840099009980A99884296
:103C900040F0B881FFE70C98406800F0030001286D
:103CA00007D0FFE70C98406800F0030002282FD1EE
:103CB000FFE70D98806808900B984100032000FAF8
:103CC00001F10898884308900C98C0680B99490046
:103CD00000FA01F108980843089008980D99886047
:103CE0000D98406808900B99012000FA01F108989E
:103CF000884308900C984068C0F300100B9900FAB4
:103D000001F108980843089008980D994860FFE76A
:103D10000C98406800F00300032818D0FFE70D98C6
:103D2000C06808900B984100032000FA01F1089840
:103D3000884308900C9880680B99490000FA01F1BB
:103D400008980843089008980D99C860FFE70C98F8
:103D5000406800F00300022826D1FFE70D980B9978
:103D60006FF0030202EA51010844006A08900B98C0
:103D700000F0070081000F2000FA01F10898884345
:103D800008900C9800690B9901F00701890000FA6E
:103D900001F108980843089008980D990B9B02EAD6
:103DA000530211440862FFE70D98006808900B98D1
:103DB0004100032000FA01F10898884308900C980C
:103DC000406800F003000B99490000FA01F10898DF
:103DD0000843089008980D9908600C98807980072E
:103DE000002800F00E81FFE7FFE70020079043F670
:103DF0004400C4F20200016841F48041016000689F
:103E000000F4804007900798FFE70B9820F003002C
:103E100043F60801C4F20101405808900B9800F0E5
:103E2000030081000F2000FA01F1089888430890F0
:103E30000D980021C4F20201884203D1FFE700205F
:103E400006905EE00D9840F20041C4F20201884203
:103E500003D1FFE70120059050E00D9840F60001E6
:103E6000C4F20201884203D1FFE70220049042E03D
:103E70000D9840F60041C4F20201884203D1FFE7E9
:103E80000320039034E00D9841F20001C4F20201D6
:103E9000884203D1FFE70420029026E00D9841F20A
:103EA0000041C4F20201884203D1FFE705200190DE
:103EB00018E00D9841F60001C4F20201884203D1D6
:103EC000FFE7062000900AE00D9941F60042C4F297
:103ED00002020820914208BF07200090FFE70098E7
:103EE0000190FFE701980290FFE702980390FFE737
:103EF00003980490FFE704980590FFE70598069063
:103F0000FFE70698C0B20B9901F00301890000FA9F
:103F100001F108980843089008980B9921F00301D3
:103F200043F60802C4F20102885043F60840C4F286
:103F300001000068089009990898884308900C9837
:103F40008079C006002805D5FFE70999089808433D
:103F50000890FFE7089843F60841C4F201010860A1
:103F600043F60C40C4F201000068089009990898D3
:103F7000884308900C9880798006002805D5FFE7D3
:103F80000999089808430890FFE7089843F60C4100
:103F9000C4F20101086043F60440C4F20100006865
:103FA000089009990898884308900C9880798007B0
:103FB000002805D5FFE70999089808430890FFE70E
:103FC000089843F60441C4F20101086043F600403A
:103FD000C4F2010000680890099908988843089085
:103FE0000C988079C00728B1FFE709990898084321
:103FF0000890FFE7089843F60041C4F20101086009
:10400000FFE7FFE7FFE70B9801300B902FE60EB0BC
:104010007047000082B00190ADF802108DF80120C9
:104020009DF8010028B1FFE7BDF802000199886101
:1040300005E0BDF80200000401998861FFE702B0C5
:104040007047000046F60C60C2F20000006870473E
:1040500040F2AC10C2F20000027846F60C61C2F2E7
:1040600000010868104408607047000080B543F6FE
:104070000041C4F20201086840F40070086008685A
:1040800040F480600860086840F480700860032095
:1040900000F0C6F80F2000F005F800F071F80020DD
:1040A00080BD000080B58CB00B900020059004907E
:1040B000FFE70020019043F64400C4F202000168CB
:1040C00041F001010160006800F0010001900198D9
:1040D000FFE706A803A901F0A5FB01F0E5FB4000FE
:1040E000059005984DF68361C4F21B31A0FB0101D8
:1040F0004FF0FF3000EB9140049042F67060C2F246
:1041000000000021C4F20101016040F2E731C1600A
:1041100004994160002101618160816102F042FBEC
:104120008DF80B009DF80B0028BBFFE742F670608E
:10413000C2F2000002F0D0FB8DF80B009DF80B00DE
:10414000C0B9FFE7192000F047F80B980F280CD8EA
:10415000FFE70B991920002200F048F80B9840F275
:10416000B011C2F20001086003E001208DF80B00DD
:10417000FFE7FFE7FFE79DF80B000CB080BD0000F4
:1041800080B582B0FFE70020019043F64400C4F2FE
:104190000200016841F480410160006800F4804041
:1041A00001900198FFE7FFE70020009043F64000F0
:1041B000C4F20200016841F080510160006800F023
:1041C000805000900098FFE76FF001000F2100225F
:1041D00000F00CF802B080BD80B582B08DF8070009
:1041E0009DF907000DF08AFA02B080BD80B586B057
:1041F0008DF8170004910392002002900DF096FABA
:1042000002909DF91700019002980499039A06F014
:10421000DBF9014601980DF091FA06B080BD00006F
:1042200080B582B0019001980DF0AAFA02B080BD6D
:1042300082B001908DF8031002B0704782B00190F7
:10424000ADF80210BDF8020001990968486200202B
:1042500002B0704784B003908DF80B10ADF80820C1
:1042600003980068406A00909DF80B0048B9FFE78A
:10427000BDF80810009840EA014003990968886277
:1042800033E003980068816A009800EB11400090C9
:1042900000208DF80700FFE79DF807009DF80B1040
:1042A0000139884213D2FFE7039800689DF8071090
:1042B00000EB8100D0F80411009800EB1140009051
:1042C000FFE79DF8070001308DF80700E4E7BDF82F
:1042D0000810009840EA0140039909689DF80B20F6
:1042E00001EB8201C1F80001FFE7002004B0704734
:1042F00080B582B001900198D0F808050AF008FE58
:1043000002B080BD80B582B001908DF80310019A93
:10431000D2F808059DF8031001EBC10302EB8302FC
:10432000D26C0AF051FC02B080BD000080B582B0B2
:1043300001908DF80310019AD2F808059DF803103A
:1043400001EBC10302EB8302D2F88C220AF006FDD6
:1043500002B080BD80B582B001900198D0F8080508
:104360000AF0DCFD02B080BD80B584B003908DF80A
:104370000B109DF80B00000600280CD5FFE70398F2
:104380009DF80B1001F00F0101EBC10100EB810062
:104390003C3001900CE003989DF80B1001F00F01E8
:1043A00001EBC10100EB810000F51F700190FFE7F8
:1043B0000398006801990CF007FC8DF80A009DF83D
:1043C0000A0004B080BD000080B584B002908DF872
:1043D00007109DF80700000600280FD5FFE7029898
:1043E0009DF8071001F00F0101EBC10100EB810006
:1043F0003C3000900099012048700FE002989DF831
:10440000071001F00F0101EBC10100EB810000F585
:104410001F700090009900204870FFE79DF807008A
:1044200000F00F0000990870FFE7029890F8BC04B4
:10443000012804D1FFE702208DF80F0014E0029953
:10444000012081F8BC04FFE7FFE7029800680099AB
:104450000BF0E2FDFFE70299002081F8BC04FFE7C2
:1044600000208DF80F00FFE79DF80F0004B080BD1D
:1044700080B584B002908DF807109DF8070000F019
:104480000F0002994968884204D9FFE701208DF89E
:104490000F004DE09DF80700000600280FD5FFE74C
:1044A00002989DF8071001F00F0101EBC10100EB2C
:1044B00081003C3000900099012048700FE0029884
:1044C0009DF8071001F00F0101EBC10100EB810025
:1044D00000F51F700090009900204870FFE70099D8
:1044E000002088709DF8070000F00F000099087008
:1044F000FFE7029890F8BC04012804D1FFE70220EE
:104500008DF80F0014E00299012081F8BC04FFE748
:10451000FFE70298006800990CF0FEF8FFE70299A7
:10452000002081F8BC04FFE700208DF80F00FFE7B2
:104530009DF80F0004B080BD82B001908DF803108B
:1045400001989DF8031001F00F0101EBC10100EB90
:104550008100D0F89C0202B07047000080B586B0A0
:1045600004908DF80F10ADF80C208DF80B30002062
:104570008DF80A009DF80F00000600280FD5FFE710
:1045800004989DF80F1001F00F0101EBC10100EB41
:1045900081003C3001900199012048700FE004989F
:1045A0009DF80F1001F00F0101EBC10100EB81003C
:1045B00000F51F700190019900204870FFE79DF8F9
:1045C0000F0000F00F0001990870BDF80C00019970
:1045D000C8609DF80B00019908710198407820B1DE
:1045E000FFE7019908780881FFE79DF80B00022892
:1045F00004D1FFE7019900204871FFE7FFE7049825
:1046000090F8BC04012804D1FFE702208DF81700C0
:1046100015E00499012081F8BC04FFE7FFE7049846
:10462000006801990BF0B2FBFFE70499002081F8C4
:10463000BC04FFE79DF80A008DF81700FFE79DF81E
:10464000170006B080BD000080B586B005908DF8DB
:1046500013100392029305989DF8131001F00F01B7
:1046600001EBC10100EB810000F51F700190039880
:1046700001990861029801998861019900200862F6
:10468000019948709DF8130000F00F00019908701F
:1046900005980069012804D1FFE703980199486152
:1046A000FFE79DF81300000738B9FFE7059A106887
:1046B0000199127C0BF0E4FE06E0059A106801995E
:1046C000127C0CF0CDF8FFE7002006B080BD0000A2
:1046D00080B584B002908DF807109DF8070000F0B7
:1046E0000F0002994968884204D9FFE701208DF83C
:1046F0000F0058E09DF80700000600280FD5FFE7DF
:1047000002989DF8071001F00F0101EBC10100EBC9
:1047100081003C3000900099012048700DE0029823
:104720009DF8071001EBC10100EB810000F51F703F
:104730000090009900204870FFE7009901208870E0
:104740009DF8070000F00F0000990870FFE702983D
:1047500090F8BC04012804D1FFE702208DF80F0077
:1047600021E00299012081F8BC04FFE7FFE70298ED
:10477000006800990CF020F89DF80700000740B988
:10478000FFE7029A1068117C02F2C4420BF074FF3A
:10479000FFE7FFE70299002081F8BC04FFE7002053
:1047A0008DF80F00FFE79DF80F0004B080BD0000FA
:1047B00080B586B005908DF813100392029305988A
:1047C0009DF8131001F00F0101EBC10100EB810016
:1047D0003C30019003980199086102980199886121
:1047E0000199002008620199012048709DF813008A
:1047F00000F00F000199087005980069012804D1A4
:10480000FFE7039801994861FFE79DF8130000074F
:1048100038B9FFE7059A10680199127C0BF030FE59
:1048200006E0059A10680199127C0CF019F8FFE770
:10483000002006B080BD000080B58CB00B900B98B6
:1048400000680A900A9809900B9800680CF0FEFA2C
:10485000002840F00D84FFE70B9800680CF062FB25
:1048600010B9FFE700F004BC0998D0F80808C0F3BD
:104870000D200B99C1F8FC040B9800680CF052FB5A
:104880008007002807D5FFE70B980168486900F00A
:1048900002004861FFE70B9800680CF043FBC0067C
:1048A000002862D5FFE70B980168886920F01000A6
:1048B00088610A98006A02900B98029901F00F0132
:1048C00001EBC10100EB810000F51F700890029818
:1048D00000F4F0110220B0EB514F23D1FFE7BDF8F7
:1048E000080047F6F07108421BD0FFE70A980899C4
:1048F0000969029AC2F30A120CF022FB029847F6E9
:10490000F07100EA0103089A106900EB13101061BE
:10491000029800EA01020899086A00EB1210086286
:10492000FFE71BE0029800F4F0110620B0EB514FB6
:1049300012D1FFE70A980B9901F2C44108220CF04A
:10494000FFFA029847F6F07100EA01020899086A36
:1049500000EB1210086200E0FFE7FFE70B98016828
:10496000886940F010008861FFE70B9800680CF040
:10497000D9FA0003002840F1A680FFE70020049048
:104980000B9800680CF07CFA0690FFE70698002868
:1049900000F09880FFE79DF81800C007002800F09D
:1049A0008A80FFE70B9800689DF810100CF0A2FABF
:1049B00005909DF81400C00760B1FFE709980499BD
:1049C00000EB41110120C1F8080B0B98049905F088
:1049D0007FFEFFE79DF81400000700280CD5FFE7D5
:1049E0000998049900EB41110820C1F8080B0B98B5
:1049F000049905F027FEFFE79DF81400C006002883
:104A000008D5FFE70998049900EB41111020C1F87F
:104A1000080BFFE79DF81400800700282DD5FFE75D
:104A20000A9840690006002808D5FFE70999D1F8DF
:104A3000040840F48060C1F80408FFE70B9804996B
:104A400001EBC10100EB810000F51F700890089890
:104A5000C078012809D1FFE708990020C8700B9899
:104A60009DF8101000F014FBFFE70998049900EB83
:104A700041110220C1F8080BFFE79DF814008006E1
:104A8000002808D5FFE70998049900EB4111202080
:104A9000C1F8080BFFE79DF815008006002809D52E
:104AA000FFE70998049900EB41114FF40050C1F859
:104AB000080BFFE7FFE704980130049006984008D0
:104AC000069063E7FFE70B9800680CF02BFA4003B1
:104AD000002840F1C680FFE70B9800680CF0BEF993
:104AE000069000200490FFE70698002800F0B880A8
:104AF000FFE79DF81800C007002800F0AA80FFE734
:104B00000B9800689DF810100CF0CCF905909DF8FA
:104B10001400C00700283ED0FFE7049800F00F0102
:104B2000012000FA01F10391039B099AD2F834188D
:104B30009943C2F834180999049A01EB4211C1F85B
:104B400008090B98006901281FD1FFE70B98049909
:104B500001EBC10100EB81018A6CC86C1044C86490
:104B6000049888B9FFE70B98049901EBC10100EBA9
:104B70008100406D40B9FFE70B99086801F2C4421B
:104B800001210BF079FDFFE7FFE70B989DF810106E
:104B9000FFF7B8FBFFE79DF814000007002808D5D1
:104BA000FFE70998049900EB41110820C1F80809B2
:104BB000FFE79DF81400C006002808D5FFE7099814
:104BC000049900EB41111020C1F80809FFE79DF896
:104BD00014004006002808D5FFE70998049900EB67
:104BE00041114020C1F80809FFE79DF81400800733
:104BF000002822D5FFE70A9804990CF0BDF80B981D
:104C0000049901EBC10100EB81003C300890089849
:104C1000C078012809D1FFE708990020C8700B98D7
:104C20009DF8101000F026FAFFE70998049900EBB0
:104C300041110220C1F80809FFE79DF814000006A1
:104C4000002805D5FFE70B98049905F025FEFFE73E
:104C5000FFE704980130049006984008069043E767
:104C6000FFE70B9800680CF05DF9C00F00B3FFE799
:104C70000999D1F8040820F00100C1F804080B9844
:104C800090F8F404012808D1FFE70B98002180F880
:104C9000F4140B98FFF7CCFA03E00B9800F0E2FB5A
:104CA000FFE70B980168486900F000404861FFE7A2
:104CB0000B9800680CF036F90005002811D5FFE7C5
:104CC0000998D0F80808C00720B1FFE70B9800F05A
:104CD00057FCFFE70B980168486900F400604861E1
:104CE000FFE70B9800680CF01DF9C004002840F1A4
:104CF0008680FFE70999D1F8040820F00100C1F887
:104D000004080B98006810210CF036F8002007907A
:104D1000FFE707980B994968884231D2FFE7099865
:104D2000079900EB41114FF67F30C1F80809099946
:104D3000079A01EB4212D2F8001921F40011C2F8CF
:104D400000190999079A01EB4211C1F8080B09985B
:104D5000079900EB4111D1F8000B20F40010C1F8C5
:104D6000000B0998079900EB4111D1F8000B40F0B6
:104D70000060C1F8000BFFE7079801300790C8E713
:104D80000999D1F81C0840F00110C1F81C080B98D3
:104D9000006B78B1FFE70999D1F8840840F00B0067
:104DA000C1F884080999D1F8440840F00B00C1F813
:104DB00044080FE00999D1F8140842F22B0210437D
:104DC000C1F814080999D1F8100840F00B00C1F897
:104DD0001008FFE70999D1F8000820F4FE60C1F837
:104DE00000080B9A1068117C02F2C4420BF044FCDC
:104DF0000B980168486900F480504861FFE70B9800
:104E000000680CF08FF8800400281FD5FFE70B988E
:104E100000680BF02BF80B9800680BF0F1FF0B9972
:104E2000C8600B980068019000F026FD01460198CB
:104E30000B9A127B0CF07CF90B9800F0E9FA0B98B6
:104E40000168486900F400504861FFE70B9800686A
:104E50000CF068F8000700280AD5FFE70B9800F06F
:104E60000BFB0B980168486900F008004861FFE7F8
:104E70000B9800680CF056F80006002825D5FFE7CF
:104E80000A99886920F08000886101200490FFE77A
:104E900004980B994968884216D2FFE70B98049949
:104EA00001EBC10100EB810090F87F02012806D1DF
:104EB000FFE70B989DF81010FFF756FAFFE7FFE7A2
:104EC000049801300490E3E7FFE70B9800680CF0CA
:104ED00029F8C00200283ED5FFE701200490FFE733
:104EE00004980B99496888422ED2FFE709980499E3
:104EF00000EB4110D0F8000902900B98049901EBE7
:104F0000C10100EB810090F84000012817D1FFE7B4
:104F10009DF80B000006002811D5FFE70B980499B7
:104F200001EBC10100EB8101012081F83F000B98EA
:104F30009DF8101041F08001FFF716FAFFE7FFE738
:104F4000049801300490CBE70B980168486900F49D
:104F500080104861FFE70B9800680BF0E3FF8002C8
:104F6000002855D5FFE701200490FFE704980B992E
:104F70004968884245D2FFE70998049900EB41103F
:104F8000D0F8000B02900B98049901EBC10100EBE3
:104F9000810090F8800201282ED1FFE79DF80B00D8
:104FA0000006002828D5FFE7029800F480300B990E
:104FB000D1F8FC1401F0010188421DD1FFE70B98E4
:104FC000049901EBC10100EB8101012081F87F020E
:104FD0000A99886940F0800088610A984069000653
:104FE000002808D4FFE70999D1F8040840F40070BC
:104FF000C1F8040805E0FFE7FFE7049801300490DA
:10500000B4E70B980168486900F400104861FFE7B5
:105010000B9800680BF086FF400000280AD5FFE7D8
:105020000B98FFF765F90B980168486900F080401C
:105030004861FFE70B9800680BF074FF40070028F9
:1050400015D5FFE70B980068406802909DF80800AE
:105050004007002804D5FFE70B98FFF77BF9FFE72F
:10506000029A0B980168486810434860FFE7FFE721
:105070000CB080BD80B582B001908DF8031001980E
:10508000D0F808059DF8031009F0E4FF02B080BDD8
:1050900080B582B001908DF803100198D0F8080512
:1050A0009DF803100AF00EF802B080BD2DE9F04F14
:1050B00097B01590159820B9FFE701208DF85B0097
:1050C00049E1159800681490159890F8BD0440B90E
:1050D000FFE71599002081F8BC04159800F040F90D
:1050E000FFE71599032081F8BD041498C06BC00533
:1050F000002804D4FFE7159900200861FFE7159800
:1051000000680BF0B3F9159810900168119141688F
:105110008268C368D0F810C044698569C669076AA7
:10512000D0F82480D0F82890D0F82CA0D0F830B057
:10513000D0F834E068461290C0F824E01198DDF809
:1051400048E0CEF820B0CEF81CA0CEF81890CEF8EB
:105150001480CEF81070CEF80C60CEF80850CEF85F
:105160000440CEF800C00AF097FE40B1FFE7159961
:10517000022081F8BD0401208DF85B00EBE015985A
:10518000006800210F910BF035FF0F988DF84F004C
:10519000FFE79DF84F0015994968884245D2FFE71F
:1051A00015989DF84F1001EBC10100EB8101012022
:1051B00081F83D009DF84F00159900EBC00201EB0E
:1051C000820181F83C009DF84F00159900EBC00268
:1051D00001EB8201A1F8440015989DF84F1001EBF6
:1051E000C10100EB8101002081F8400015999DF874
:1051F0004F2002EBC20201EB8201886415999DF8F1
:105200004F2002EBC20201EB8201C86415999DF8A0
:105210004F2002EBC20201EB82014865FFE79DF8D7
:105220004F0001308DF84F00B3E700208DF84F009C
:10523000FFE79DF84F001599496888423ED2FFE785
:1052400015989DF84F1001EBC10100EB8101002082
:1052500081F87D029DF84F10159A01EBC10302EB16
:10526000830282F87C1215999DF84F2002EBC2024E
:1052700001EB820181F8800215999DF84F2002EB25
:10528000C20201EB8201C1F8880215999DF84F20F6
:1052900002EBC20201EB8201C1F88C0215999DF864
:1052A0004F2002EBC20201EB8201C1F89402FFE73A
:1052B0009DF84F0001308DF84F00BAE715980C901B
:1052C00001680D9141688268C368D0F810C04469D4
:1052D0008569C669076AD0F82480D0F82890D0F88C
:1052E0002CA0D0F830B0D0F834E068460E90C0F86A
:1052F00024E00D98DDF838E0CEF820B0CEF81CA000
:10530000CEF81890CEF81480CEF81070CEF80C605D
:10531000CEF80850CEF80440CEF800C00AF044FFA2
:1053200040B1FFE71599022081F8BD0401208DF8F6
:105330005B0010E0159900200B9081F8380015995A
:10534000012081F8BD04159800680AF017FF0B983A
:105350008DF85B00FFE79DF85B0017B0BDE8F08FAC
:1053600080B58AB0099000200890079006900590BB
:10537000049009980068B0F1A04F47D1FFE7FFE71C
:105380000020039043F63000C4F20200016841F0AF
:1053900001010160006800F0010003900398FFE73D
:1053A0004FF4C05004900220059000200690032086
:1053B00007900A2008900020C4F2020004A9FEF71A
:1053C0004DFCFFE743F63401C4F20201086840F0E7
:1053D00080000860FFE70020029043F64400C4F21A
:1053E0000200016841F480410160006800F48040DF
:1053F00002900298FFE7FFE7432001900521002279
:10540000FEF7F4FE0198FEF7E7FEFFE70AB080BD65
:1054100080B582B0019001208DF803000198C0682A
:1054200020B9FFE700208DF803000CE00198C06868
:10543000022804D1FFE701208DF8030002E0FDF708
:1054400013F8FFE7FFE70198D0F808059DF803106F
:1054500009F038FF0198D0F8080509F0B3FE02B052
:1054600080BD000080B582B001900198D0F8080599
:1054700009F0F6FE02B080BD80B582B001900198BF
:10548000D0F8080509F0FEFE02B080BD80B584B0FA
:1054900002908DF80710FFE7029890F8BC040128ED
:1054A00004D1FFE702208DF80F001AE002990120D5
:1054B00081F8BC04FFE7FFE79DF80700029981F837
:1054C0003800029800689DF807100BF003FEFFE714
:1054D0000299002081F8BC04FFE700208DF80F003E
:1054E000FFE79DF80F0004B080BD000080B582B0DA
:1054F00001900199D1F8080501F2C44109F00CFFAF
:1055000002B080BD80B584B002900298006801901E
:10551000FFE7029890F8BC04012804D1FFE70220BD
:105520008DF80F0027E00299012081F8BC04FFE705
:10553000FFE70298806A01280BD1FFE70298806993
:10554000012806D0FFE70199886B40F4803088631A
:10555000FFE7029800680BF0C5FB029800680AF0AC
:10556000F7FDFFE70299002081F8BC04FFE7002067
:105570008DF80F00FFE79DF80F0004B080BD00001C
:1055800080B582B001900198D0F8080509F046FF77
:1055900001980168D1F8000E40F00100C1F8000E3A
:1055A0000198006A48B1FFE74EF61051CEF20001B3
:1055B000086840F006000860FFE702B080BD000008
:1055C00080B584B002900191029820B9FFE70120D4
:1055D0008DF80F0021E1019843F60041C4F2020169
:1055E000096801F00701884212D9FFE7019943F6E3
:1055F0000040C4F202000170006800F00700019949
:10560000884204D0FFE701208DF80F0005E1FFE795
:1056100002980078800700282AD5FFE702980078D2
:105620004007002809D5FFE743F60801C4F202014C
:10563000086840F4E0500860FFE70298007800072F
:10564000002809D5FFE743F60801C4F20201086803
:1056500040F460400860FFE743F60801C4F202012D
:10566000086820F0F000029A926810430860FFE793
:1056700002980078C00700286ED0FFE702984068C3
:10568000012811D1FFE743F60000C4F202000068D0
:1056900000F400310020B0EB514F04D1FFE70120AE
:1056A0008DF80F00B9E02CE002984068022805D080
:1056B000FFE702984068032811D1FFE743F6000096
:1056C000C4F20200006800F000710020B0EB516FDE
:1056D00004D1FFE701208DF80F009EE010E043F6B3
:1056E0000000C4F20200006800F002010020B0EBEC
:1056F000510F04D1FFE701208DF80F008DE0FFE787
:10570000FFE743F60801C4F20201086820F0030035
:10571000029A526810430860FEF794FC0090FFE77D
:1057200043F60800C4F20200006800F00C00029981
:105730004968B0EB810F0ED0FFE7FEF783FC0099BC
:10574000401A41F28931884204D3FFE703208DF8E3
:105750000F0062E0E4E7FFE7019843F60041C4F27E
:105760000201096801F00701884212D2FFE701999E
:1057700043F60040C4F202000170006800F0070028
:105780000199884204D0FFE701208DF80F0044E022
:10579000FFE702980078400700280CD5FFE743F6A2
:1057A0000801C4F20201086820F4E050029AD268AD
:1057B00010430860FFE702980078000700280DD525
:1057C000FFE743F60801C4F20201086820F46040D4
:1057D000029A126940EAC2000860FFE700F076F81A
:1057E00043F60801C4F202010968C9B20A0946F683
:1057F000E471C0F60101895CC84040F2C401C2F204
:105800000001086040F2B010C2F200000068FEF72C
:1058100049FC00208DF80F00FFE79DF80F0004B051
:1058200080BD000082B00190009101990F200860B6
:1058300043F60800C4F20200016801F00301019A76
:105840005160016801F0F001019A9160016801F472
:10585000E051019AD160006800F46040C0080199ED
:10586000086143F60040C4F20200006800F007003F
:105870000099086002B0704740F2C400C2F2000014
:105880000068704780B5FFF7F7FF43F60801C4F2E0
:1058900002010968C1F3822246F6F471C0F60101E3
:1058A000895CC84080BD000080B5FFF7E5FF43F686
:1058B0000801C4F20201096889B24A0B46F6F47184
:1058C000C0F60101895CC84080BD000080B586B08B
:1058D0000020059004900390029043F60800C4F263
:1058E0000200006800F00C000146019140B1FFE7A2
:1058F000019804280AD0FFE7019808280CD04FE04F
:1059000042F20040C0F2F40002904FE041F6003055
:10591000C0F2B700029049E043F60400C4F202006E
:10592000016801F03F01059100684002002813D58D
:10593000FFE743F60400C4F202000068C0F38810D9
:1059400041F60031C0F2B701A0FB0101059A002326
:10595000FAF736FC049012E043F60400C4F20200A9
:105960000068C0F3881042F20041C0F2F401A0FBCD
:105970000101059A0023FAF723FC0490FFE743F6A0
:105980000400C4F20200006800F44031022000EB81
:10599000D130039004980399B0FBF1F0029005E038
:1059A00042F20040C0F2F4000290FFE7029806B015
:1059B00080BD000080B586B00490049820B9FFE750
:1059C00001208DF8170050E304980078C0070028E4
:1059D00000F0A580FFE743F60800C4F2020000686B
:1059E00000F00C00042813D0FFE743F60800C4F2CF
:1059F0000200006800F00C0008281ED1FFE743F603
:105A00000400C4F2020000684002002815D5FFE738
:105A100043F60000C4F20200006800F400310020E8
:105A2000B0EB514F08D0FFE70498406820B9FFE77A
:105A300001208DF8170018E370E0FFE70498406834
:105A4000B0F5803F09D1FFE743F60001C4F202013F
:105A5000086840F48030086020E004984068B0F5A1
:105A6000A02F0DD1FFE743F60001C4F20201086840
:105A700040F480200860086840F4803008600CE042
:105A800043F60001C4F20201086820F48030086087
:105A9000086820F480200860FFE7FFE7FFE704982C
:105AA0004068E8B1FFE7FEF7CDFA0390FFE743F661
:105AB0000000C4F20200006800F400310020B0EBE6
:105AC000514F0CD1FFE7FEF7BDFA0399401A652844
:105AD00004D3FFE703208DF81700C6E2E7E71CE0D8
