:020000040800F2
:10000000E07C00209D01000869B30008998A00087F
:1000100065B300080D140008C920010800000000A5
:10002000000000000000000000000000D1D2000825
:10003000492A00080000000021BD0008DDD40008A6
:10004000B7010008B7010008B7010008B7010008B0
:10005000B7010008B7010008B7010008B7010008A0
:10006000B7010008B7010008B7010008B701000890
:100070000D270008B70100081D270008B701000878
:10008000B7010008B7010008B7010008B701000870
:1000900011140008B7010008B7010008B7010008F3
:1000A000B7010008E9D50008B7010008B70100084A
:1000B00005D60008B7010008B7010008B70100081D
:1000C000B7010008B7010008B7010008B701000830
:1000D000B7010008F1E50008B70100080DE60008C7
:1000E000B7010008B7010008B7010008B701000810
:1000F000B7010008B7010008B70100082D27000864
:10010000B7010008B7010008B7010008B7010008EF
:10011000B7010008B7010008B7010008B7010008DF
:100120003D270008B70100084D2700085D2700089B
:10013000B7010008B7010008B7010008B7010008BF
:1001400021140008B7010008B70100085DB40008D9
:100150006D2700087D2700088D27000845E6000868
:10016000B7010008B7010008B7010008B70100088F
:10017000B7010008B7010008B7010008000000003F
:10018000B7010008B7010008DFF80CD000F00AFC46
:1001900000480047494C0108E07C002006488047A1
:1001A00006480047FEE7FEE7FEE7FEE7FEE7FEE75C
:1001B000FEE7FEE7FEE7FEE7D5D500088901000867
:1001C0002DE9F05F0546002092469B46884606468C
:1001D000814640241BE0284641464746224600F01F
:1001E000A9FA53465A46C01A914110D311461846EF
:1001F000224600F090FA2D1A67EB01084F4622467E
:100200000120002100F087FA17EB00094E41201E63
:10021000A4F10104DFDC484631462A464346BDE8E6
:10022000F09F40EA01039B0703D009E008C9121FB1
:1002300008C0042AFAD203E011F8013B00F8013BA0
:10024000521EF9D27047D2B201E000F8012B491ECC
:10025000FBD270470022F6E710B513460A46044663
:100260001946FFF7F0FF204610BD2DE9FE4F8046EE
:1002700081EA0300C00F0C46009021F0004123F0FA
:100280000045B8EB0200A94105D240462146904600
:100290001C460B46024623F00040104347D0270D72
:1002A000C7F30A00C3F30A510290401A0190402894
:1002B0006BDAC3F3130040F4801B0098924620B120
:1002C0000023D2EB030A63EB0B0B01985946C0F1F4
:1002D0004002504600F01FFA06460D465046594669
:1002E000019A00F037FA10EB08006141002487EA18
:1002F000115284EAE7731A4340D0009A62B3019A1C
:10030000012A4FEA075215DC001B61EB02014FF096
:10031000004202EA0752CDE90042001C41F580117B
:1003200032462B4600F06EFA03B0BDE8F08F40462F
:100330002146F9E7001B61EB0201001C41F5801327
:1003400000185B412018A2F5001747EB030140EAB3
:10035000D570B6196D4111E06D084FEA360645EAD1
:10036000C0754FEA0752001B61EB0201001C41F50A
:10037000801149084FEA30000019514132462B469E
:1003800003B0BDE8F04F00F02EBA00980122400003
:100390000023D0EB020263EBE073009821464FEAA2
:1003A000E074B8EB000061EB0401E9E783F000437F
:1003B0005BE781F0004158E72DE9FE4F81EA030435
:1003C00004F0004421F0004100944FF0000B23F0B2
:1003D000004350EA01045ED052EA03045BD0C3F349
:1003E0000A54C1F30A552C44A4F2F3340194A0FB3F
:1003F0000254C1F3130141F48011C3F3130343F416
:10040000801301FB024400FB034E840A970A44EA6E
:10041000815447EA8357A4FB076802958D0A05FBC0
:1004200007854FEA932C04FB0C542705029D4FEAE5
:10043000065847EA1637B5EB08056EEB070C870E32
:10044000920E47EA811742EA8312A7FB0201B6EB3C
:100450000B0164EB00042B0D43EA0C335E1844EBF4
:100460001C50DA465146E7FB0201C5F313044FEA7C
:100470000B3343EA14534FEA0432019C43EA060368
:10048000A4F10C040294009CCDE900B400F0BAF988
:1004900003B0BDE8F08F00200146F9E72DE9F04DEB
:1004A00081EA030404F0004B21F0004514464FF0AC
:1004B000000A23F0004150EA050220D054EA01026C
:1004C0001DD0C5F30A570246C5F31303C1F3130049
:1004D000C1F30A5640F4801543F48013A7EB0608D5
:1004E000101BD64608F2FD3873EB050002D308F165
:1004F000010801E092185B41B8F1000F03DA002017
:100500000146BDE8F08D00204FF480110646844678
:100510000EE0171B73EB050705D3121B63EB0503F6
:1005200006434CEA010C49084FEA300092185B413F
:1005300050EA0107EDD152EA030012D082EA04002A
:1005400083EA0501084305D0101BAB4106D2012206
:10055000002306E000224FF0004302E06FF00102AA
:1005600053101AEB06004CEB085110EB0A0041EB5C
:100570000B01BDE8F04D00F036B930B5041E71F145
:10058000000404DB4FF00044404264EB0101141E00
:1005900073F1000405DB1C464FF00043524263EB4D
:1005A0000403801A994101D3012030BD002030BDE1
:1005B00030B5041E71F1000404DB4FF000444042EA
:1005C00064EB0101141E73F1000405DB1C464FF0BF
:1005D0000043524263EB0403101A8B4101D3012004
:1005E00030BD002030BDF0B4CA17CB0F5040514091
:1005F000C61841F100054FEAC372314628004FF09A
:10060000960303D0B623F0BC00F0BFB830460021FB
:10061000F9E70EB5C10F80EAE0700844CA0700216F
:1006200040F233438DE80E000A460B4600F0EAF82C
:1006300003B000BD0EB540F2334102910021CDE977
:1006400000110A460B4600F0DDF803B000BD70B59E
:10065000C1F30A5201F000450024C1F3130140F236
:10066000FF3341F480119A4201DA002070BD40F25C
:1006700033439A42A2F2334203DC524200F05AF86A
:1006800000E090402C43F1D0404270BD00F00042A9
:1006900030F000400AD0C10D01F56071C0F31600C2
:1006A00042EA0151C2084007114370470020014649
:1006B000704701F0004330B421F0004150EA0102DC
:1006C00006D00A0DA2F56072C1F31301002A02DC04
:1006D00030BC00207047440F44EAC104C100E01858
:1006E00030BC00EBC25000F047B830B50B460146B5
:1006F00000202022012409E021FA02F59D4205D3C1
:1007000003FA02F5491B04FA02F52844151EA2F16A
:100710000102F1DC30BD202A04DB203A00FA02F1AC
:10072000002070479140C2F1200320FA03F31943DF
:1007300090407047202A04DB203A21FA02F0002181
:10074000704721FA02F3D040C2F1200291400843E1
:1007500019467047202A06DBCB17203A41FA02F0EF
:1007600043EAE07306E041FA02F3D040C2F120020E
:1007700091400843194670470029A8BF7047401CA4
:10078000490008BF20F00100704710B4B0FA80FCA7
:1007900000FA0CF050EA010404BF10BC704749B1E4
:1007A000CCF1200421FA04F411FA0CF118BF012154
:1007B00021430843A3EB0C01CB1D4FEA00614FEA34
:1007C000102042BF002010BC704700EBC350104403
:1007D0000029A4BF10BC7047401C490008BF20F08E
:1007E000010010BC704710B5141E73F1000408DA44
:1007F000401C41F1000192185B411A4301D120F0E5
:10080000010010BD2DE9F04D92469B4611B1B1FAA1
:1008100081F202E0B0FA80F220329046FFF77BFFCF
:1008200004460F4640EA0A0041EA0B0153465A4685
:10083000084313D0114653EA010019D0C8F1400211
:100840005046FFF777FF05460E465046594642464A
:10085000FFF761FF084305D0012004E02046394638
:10086000BDE8F08D0020054346EAE0762C4337438F
:100870000A986305E40AA0EB08000022FD0A44EA96
:1008800047540A3002D500200146E9E70105101956
:100890006941DDE9084500196941BDE8F04DA2E76D
:1008A0002DE9F04D00231A461B1A8A4103DB002074
:1008B0000146BDE8F08DC1F30A52C1F3130141F4C2
:1008C00080154FF0000BD10702D100186D41521E68
:1008D0000027044640F2FF11384601EB620A3E460B
:1008E0008046024600204FF48011FFF723FFC21913
:1008F0007141BB1846EB0100B4EB030C75EB000C27
:1009000004D3E41A65EB000517460E46241908F1D6
:1009100001006D4180463428E3DDF91946EB0600FD
:10092000091BA84103D24FF0FF32134601E0002219
:1009300013461BEB070046EB0A51BDE8F04DFFF7ED
:1009400052BFC1F30A52C1F3130140F2FF3341F425
:1009500080119A4202DA00200146704740F2334388
:100960009A42A2F2334202DC5242FFF7E3BEFFF7A3
:10097000D2BE000030B5041E71F1000404DB4FF05C
:100980000044404264EB0101141E73F1000405DBD6
:100990001C464FF00043524263EB0403994208BFE8
:1009A000904230BD064C074D06E0E06840F0010380
:1009B00094E8070098471034AC42F6D3FFF7E8FB01
:1009C000A09E0108C09E010870B58C1810F8015B4C
:1009D00015F0070301D110F8013B2A1106D110F8D8
:1009E000012B03E010F8016B01F8016B5B1EF9D1DC
:1009F0002B0705D40023521E0DD401F8013BFAE762
:100A000010F8013BCB1A921C03E013F8015B01F8CC
:100A1000015B521EF9D5A142D8D3002070BD000061
:100A200082B0019042F20030C4F2010000900099BF
:100A3000486820F44030486001984268009948684E
:100A40001043486001980168486820F4807048604D
:100A5000019801680269486840EA022048600198EC
:100A60000168486820F04070486001980168826819
:100A700048681043486001980168886820F4006065
:100A8000886001980168C26888681043886001988E
:100A9000806A0121C0F60071884219D0FFE70198F1
:100AA0000168886820F07060886001980168826A37
:100AB00088681043886001980168886820F0405079
:100AC000886001980168C26A8868104388600CE0F9
:100AD00001980168886820F070608860019801685A
:100AE000886820F040508860FFE7019801688868B6
:100AF00020F0020088600198027E0168886840EA60
:100B000042008860019890F82000C8B1FFE7019882
:100B10000168486840F400604860019801684868CE
:100B200020F46040486001980168426A4EF200007B
:100B3000CFF6FF7000EB423248681043486006E091
:100B400001980168486820F400604860FFE7019858
:100B50000168C86A20F47000C86201980168C2691F
:100B60000020CFF6F07000EB0252C86A1043C86252
:100B700001980168886820F400708860019890F8F6
:100B800030200168886840EA422088600198016846
:100B9000886820F4806088600198016842698868EC
:100BA00040EA8220886002B07047000080B584B0BF
:100BB00003900291039890EDA60AB8EEC00A40F2A5
:100BC000C440C2F2000090EDA81A30EE410AB5EE22
:100BD000400AF1EE10FA10DDFFE7039890EDA60A47
:100BE000B8EEC00A40F2C440C2F2000090EDA81A6C
:100BF00030EE410A8DED010A12E00398D0F8980218
:100C0000404200EE100AB8EEC00A40F2C440C2F200
:100C1000000090EDA81A30EE410A8DED010AFFE7C1
:100C20009DED010A9FED361AB4EE410AF1EE10FA7D
:100C300007DAFFE740F21831C2F2000100204875E0
:100C4000FFE740F21830C2F2000090F9150070B9C9
:100C5000FFE7039800F522700299002200F09AF84D
:100C600040F2C440C2F2000080EDA80AFFE740F263
:100C7000C440C2F2000000F5227000F03DF9F8B95E
:100C8000FFE7039890EDA60AB8EEC01A40F21831BB
:100C9000C2F2000191ED020A91F9042002EE102A3D
:100CA000B8EEC22A20EE020A30EE000A30EE010A47
:100CB00080EDA80A08794042087100200860FFE72B
:100CC000039800F01FF8039880ED060A039800F5DA
:100CD000A27000F017F8B1EE400A039880ED570AB1
:100CE00003980AF01BFF039800F5A2700AF016FFA4
:100CF000039800F522700AF07DFD012004B080BD4C
:100D00000000484281B0009040F26830C2F200001A
:100D100090F82E100120B0EB111F08D0FFE740F231
:100D20006830C2F20000C07B082808D1FFE740F21B
:100D30001830C2F20000C0680099886103E0009991
:100D400000208861FFE7009890ED060A01B0704727
:100D500081B0009040F21832C2F20002002111600E
:100D60000020C4F2107090604BF20000C4F20160E9
:100D7000D060012010711075009A9161009AC2F83C
:100D80005C11009991EDA60AB8EEC00A81EDA80A9F
:100D900001B0704784B0029001918DF80320019852
:100DA000807B022808D0FFE7019890F829100120E5
:100DB000B0EB111F22D1FFE740F21830C2F2000061
:100DC00090F91400D0B9FFE79DF8030068B1FFE780
:100DD0009DF80300012810D1FFE742F2C070C2F273
:100DE0000000407AC00740B1FFE740F21831C2F27C
:100DF0000001012008610875FFE73EE00198807B53
:100E0000012808D0FFE7019890F829100220B0EBE4
:100E1000111F1BD1FFE79DF8030068B1FFE79DF8A4
:100E20000300012811D1FFE742F2C070C2F20000B6
:100E3000407AC00748B1FFE740F21831C2F2000122
:100E40000120086100200875FFE715E00198807B0C
:100E5000032808D0FFE7019890F829100020B0EB94
:100E6000111F08D1FFE740F21831C2F20001002043
:100E700008750861FFE7FFE7FFE740F21830C2F2AC
:100E8000000090F91400012818D1FFE70198807B39
:100E9000032808D0FFE7019890F829100020B0EB54
:100EA000111F07D1FFE740F21831C2F20001002004
:100EB0000875FFE702988069039018E0029890EDAA
:100EC000040AB8EEC00A40F21831C2F2000191EDF6
:100ED000021A91ED042AB8EEC22A21EE021A30EE6F
:100EE000410A80ED060A029880690390FFE79DEDB4
:100EF000030A04B07047000086B00490049890ED97
:100F0000041A90ED060AB8EEC11A30EE410A8DEDD2
:100F1000030A40F21830C2F2000090ED020A9FED81
:100F2000471A80EE010AB5EE400AF1EE10FA0DDD27
:100F3000FFE740F21830C2F2000090ED020A9FED88
:100F40003F1A80EE010A8DED010A0CE040F21830E4
:100F5000C2F2000090ED020A9FED391A80EE010AFC
:100F60008DED010AFFE79DED010A8DED020A9DED71
:100F7000030AB5EE400AF1EE10FA08DDFFE79DED39
:100F8000030AB5EE400AF1EE10FA17D148E09DEDE4
:100F9000030AB1EE402A9DED023AB7EE001A9FED2A
:100FA000290AB4EE432AF1EE10FAA8BFB0EE410AC6
:100FB000B5EE400AF1EE10FA32D0FFE70498B0F92E
:100FC0000C00012805DBFFE70498B0F90C00009045
:100FD00005E00498B0F90C0040420090FFE700984B
:100FE00014281DDCFFE740F21830C2F20000006850
:100FF00064280ADBFFE740F21831C2F20001012049
:10100000487500208DF8170014E040F21831C2F244
:10101000000108680130086001208DF8170009E020
:1010200040F21831C2F200010020086001208DF862
:101030001700FFE79DF8170006B0704700009643C1
:10104000000096C30000000080B50020C4F202003A
:101050001021012203F092FD80BD000080B5002028
:10106000C4F202001021002203F088FD80BD0000C0
:101070007047000080B540F20040C4F20200012237
:10108000114603F07BFD80BD80B540F20040C4F204
:1010900002000121002203F071FD80BD70470000B5
:1010A00080B582B0ADF80600FFE7BDF80600411E2E
:1010B000ADF8061028B1FFE74FF47A7000F004F89D
:1010C000F3E702B080BD000086B0ADF81600002046
:1010D000049003900290019000904EF21400CEF222
:1010E000000000680090BDF81600A8214843049055
:1010F0004EF21800CEF2000000680390FFE74EF2B7
:101100001800CEF20000006802900298039988420D
:101110001ED0FFE702980399884207D2FFE70398A1
:101120000299411A01980844019008E00098029938
:10113000401A03990144019808440190FFE702987E
:10114000039001980499884201D3FFE701E0FFE78B
:10115000D5E706B07047000080B582B000208DF85A
:101160000700FFF785FFFFF799FF13F071F80146BD
:101170009DF8070008438DF8070013F031F9014688
:101180009DF8070008438DF807009DF8070002B09E
:1011900080BD000080B588B00790069105920020C0
:1011A000009004900390FFF759FF922000F006F999
:1011B000122003A90191062200F0CCF8FFF744FFAA
:1011C0009DF80C009DF80D1040EA0120ADF80A00D2
:1011D000BDF90A0000EE100AB8EEC00A40F208009D
:1011E000C2F2000090ED001A20EE010A069981ED8E
:1011F000000A9DF80E109DF80F2041EA0221ADF87B
:101200000A10BDF90A1000EE101AB8EEC00A90EDEF
:10121000001A20EE010A069981ED010A9DF81010CE
:101220009DF8112041EA0221ADF80A10BDF90A101B
:1012300000EE101AB8EEC00A90ED001A20EE010A76
:10124000069880ED020AFFF71FFF00980199082217
:1012500000F080F8FFF70EFF9DF80C000F2844D136
:10126000FFE79DF80E009DF80F1040EA0120ADF851
:101270000A00BDF90A0000EE100AB8EEC00A40F2FA
:101280000C00C2F2000090ED001A20EE010A07994E
:1012900081ED000A9DF810109DF8112041EA02210D
:1012A000ADF80A10BDF90A1000EE101AB8EEC00A27
:1012B00090ED001A20EE010A079981ED010A9DF8D0
:1012C00012109DF8132041EA0221ADF80A10BDF971
:1012D0000A1000EE101AB8EEC00A90ED001A20EEC7
:1012E000010A079880ED020AFFE7FFF7B7FEA22088
:1012F00000F064F8222003A9022200F02BF8FFF787
:10130000A3FE9DF80C009DF80D10C00040EA51109E
:10131000ADF80A00BDF90A00B0F5806F07DBFFE702
:10132000BDF80A00A0F50060ADF80A00FFE7BDF9BE
:101330000A0000EE100AB8EEC00AB4EE001A20EE61
:10134000010AB3EE071A30EE010A059880ED000A93
:1013500008B080BD80B584B08DF80F0002918DF883
:1013600007209DF80F0040F0800000F027F8FFE70D
:101370009DF8070070B1FFE7552000F01FF80299B3
:1013800008700298013002909DF8070001388DF82E
:101390000700EDE704B080BD80B582B08DF807008E
:1013A00000919DF8070040F0800000F007F85520FC
:1013B00000F004F80099087002B080BD80B582B0DA
:1013C0008DF8070069464FF47A70086043F2DC40FC
:1013D000C2F200000DF107010DF10602012305F034
:1013E000F1FC9DF8060002B080BD000080B582B01F
:1013F0008DF807008DF806109DF80700FFF7DEFF57
:101400009DF80600FFF7DAFF02B080BDFFE7FEE7B8
:1014100080B542F64040C2F2000002F0F9F980BD0A
:1014200080B542F66840C2F2000002F0F1F980BDDA
:1014300080B588B0079006910798006846F2004191
:10144000C4F2000188425ED1FFE70698059040F2A1
:101450000121884216D0FFE7059840F20221884218
:101460001BD0FFE7059840F20321884222D0FFE716
:101470000598B0F5017F2AD0FFE70598B0F5227FE7
:1014800032D03EE040F69000C2F2000040F24C3113
:10149000C2F2000109F048FA34E040F69000C2F2CE
:1014A000000000F5A27040F24C31C2F2000109F0D8
:1014B0003BFA27E040F69000C2F2000000F52270EF
:1014C00040F24C31C2F2000109F02EFA1AE040F667
:1014D0009000C2F2000000F5737040F24C31C2F28D
:1014E000000109F021FA0DE042F66000C2F20000AE
:1014F00000F1080140F24C30C2F2000000F0D6FECC
:1015000000E0FFE7FFE70798006846F60001C4F235
:101510000001884259D1FFE70698A0F20120014658
:10152000049107284FD80499DFE801F0242F3C4D9F
:101530004D044D1340F6A050C2F20000039040F25B
:101540004C31C2F2000109F0EFF9039809F010FAEA
:101550003AE040F6A050C2F2000000F5A2700290FE
:1015600040F24C31C2F2000109F0DEF9029809F0B4
:10157000FFF929E040F2C440C2F2000040F24C31D1
:10158000C2F2000109F0D0F91EE040F2C440C2F2FC
:10159000000000F5A27040F24C31C2F2000109F0E7
:1015A000C3F911E040F2C440C2F2000000F522701D
:1015B000019040F24C31C2F2000109F0B5F90198F6
:1015C00009F0D6F900E0FFE7FFE708B080BD0000B2
:1015D00010B58EB08C46864611981099CDF834E03F
:1015E000ADF832C0ADF83020ADF82E30ADF82C108B
:1015F000ADF82A0000200190BDF932100491059049
:1016000008210891069007909DF831008DF8080098
:101610009DF830008DF809009DF82F008DF80A0024
:101620009DF82E008DF80B009DF82D008DF80C0014
:101630009DF82C008DF80D009DF82B008DF80E0004
:101640009DF82A008DF80F000D9804A902AA01AB9D
:1016500001F052FE0EB010BD80B58AB00121089194
:101660000020049000900190029003900690079152
:101670000E210991059042F64040C2F200006946F1
:1016800001F0E6FE18B1FFE701F0E0F9FFE742F6EE
:101690004040C2F2000002F08FFC18B1FFE701F0F9
:1016A000D5F9FFE742F64040C2F20000022101F006
:1016B000F9FD18B1FFE701F0C9F9FFE742F6404034
:1016C000C2F20000012101F0EDFD18B1FFE701F0C9
:1016D000BDF9FFE70E200990059042F66840C2F27E
:1016E0000000694601F0B4FE18B1FFE701F0AEF961
:1016F000FFE742F66840C2F2000002F05DFC18B15C
:10170000FFE701F0A3F9FFE742F66840C2F20000EC
:10171000022101F0C7FD18B1FFE701F097F9FFE7DB
:1017200042F66840C2F20000012101F0BBFD18B191
:10173000FFE701F08BF9FFE70AB080BD84B08DF8B8
:101740000F000291ADF806209DF80F0001460091B0
:1017500023281DD80099DFE801F012131415161B79
:101760001B1B1B1B1B1B1B1B1B1B1B1B1B1B1B1BC9
:101770001B1B1B1B1B1B1B1B1B1B1718191A08E011
:1017800007E006E005E004E003E002E001E000E03D
:10179000FFE7002004B070470020704780B582B09A
:1017A00042F6D400C2F20000009041F61071C2F27D
:1017B0000001002201920DF021FB009841F210710E
:1017C000C2F200010DF0FCFA019802B080BD0000E9
:1017D00080B584B003900291039942F6D400C2F21E
:1017E000000000900DF0ECFA00980DF08FFA0398CD
:1017F0000021019110F06AFC019804B080BD000046
:1018000083B0029001918DF8032000208DF8020032
:101810009DF9020003B0704780B586B00490ADF822
:101820000E1000208DF80D0042F6D400C2F2000028
:10183000D0F8BC0202900298D0F8140220B1FFE761
:1018400001208DF8170013E00499BDF80E2042F630
:10185000D400C2F2000001900DF0D0FA01980DF012
:10186000D7FB8DF80D009DF80D008DF81700FFE7F0
:101870009DF8170006B080BD80B5A2B021902091E0
:1018800000201F901E901D9049F2F812C0F6010230
:10189000116852681C921B911A901990179016901B
:1018A00040F6A050C2F20000B0F9081000EE101A85
:1018B000B8EEC00A90ED091AB8EEC11A30EE410A2E
:1018C00010EE100AFEF7E2FE41EC100B40F2103071
:1018D000C2F200000F9080ED000B14F0C5F90F98D4
:1018E00090ED000B9FEDD61B53EC112B51EC100B20
:1018F000FEF762FD41EC100B40F20830C2F200002E
:1019000080ED000B2098B0F9041000EE101AB8EE2C
:10191000C01A90F82D1001F00F00C0EB111000EE6E
:10192000100AB8EEC00A9FEDC82A20EE020A30EE77
:10193000010AB2EE041A20EE010A8DED1F0A20986A
:10194000B0F9061000EE101AB8EEC03A90F82C105C
:1019500001F00F00A0EB111000EE100AB8EEC00A63
:1019600020EE020A30EE030A20EE010A8DED1E0A77
:101970002098B0F90C1000EE101AB8EEC01A90F8CA
:101980002E0000F00F0000EE100AB8EEC00A20EEA4
:10199000020A30EE010AB8EE081A20EE010A8DEDB7
:1019A0001D0A209890F83300000708B1FFE7FFE711
:1019B0002098B0F90C0000283ED1FFE7209890F85D
:1019C0002E000007C0BBFFE72098B0F9080000EE2A
:1019D000100AB8EEC00AB1EE001A20EE010A10EEAD
:1019E000100AFEF753FE41EC100B8DED160B40F282
:1019F0001030C2F2000090ED000B8DED100B9DF841
:101A0000470080F080008DF8470010981199FEF78C
:101A100050FE00EE900A40F2F430C2F200009FED5A
:101A2000CA0A09F00FFF8DED1D0A10EE100AFEF72D
:101A30002DFE41EC100B03E0002017901690FFE7FD
:101A40002098C07B012805D1FFE70020C4F2254083
:101A50001D9000E0FFE740F20830C2F20000019064
:101A600090ED000B15F0D4FE01988DED140B90ED68
:101A7000000B15F031FF8DED120B1E98FEF706FEE0
:101A800041EC100B8DED040B9DED120B8DED020B57
:101A90001F98FEF7FBFD41EC100B9DED141B53EC62
:101AA000112B51EC100BFEF787FC9DED021B9DEDF9
:101AB000040B41EC120B8DED062B53EC112B51EC6A
:101AC000100BFEF779FC9DED060B02460B4651EC20
:101AD000100B43EC102B53EC102BFEF767FC41EC82
:101AE000100B51EC100BFEF7E4FD1A901E98FEF758
:101AF000CDFD41EC100B8DED0A0B9DED140B8DED22
:101B0000080B1F98FEF7C2FD41EC100B9DED121B58
:101B100053EC112B51EC100BFEF74EFC9DED081B06
:101B20009DED0A0B41EC120B8DED0C2B53EC112BA0
:101B300051EC100BFEF740FC9DED0C0B41EC110B32
:101B400051EC110B53EC102BFEF78FFB41EC100BFB
:101B500051EC100BFEF7ADFD19902098807820B164
:101B6000FFE72199002088612AE09DED1A0A9DED8A
:101B7000191A30EE410A9DED1D2A9DED1B3A9DED8F
:101B80001C1A22EE032A30EE420A20EE010A10EE61
:101B9000100AFEF77BFD41EC110B9DED160B53EC8B
:101BA000112B51EC100BFEF760FB41EC100B51ECCC
:101BB000100BFEF77EFD00EE100A21998861FFE709
:101BC0002098807828B1FFE721990020C1F85C01B6
:101BD0002DE09DED1A0AB1EE400A9DED191A30EE86
:101BE000410A9DED1D2A9DED1B3A9DED1C1A22EE2A
:101BF000032A30EE420A20EE010A10EE100AFEF728
:101C000045FD41EC110B9DED160B53EC112B51ECE6
:101C1000100BFEF72AFB41EC100B51EC100BFEF7FA
:101C200048FD00EE100A2199C1F85C01FFE72098F9
:101C3000807858B1FFE721990020C1F8A00231E077
:101C400000000060FB21493F000025449DED1A1A69
:101C50009DED190A30EE410A9DED1D2A9DED1B3ABE
:101C60009DED1C1A22EE032A30EE420A20EE010AF4
:101C700010EE100AFEF70AFD41EC110B9DED160B5C
:101C800053EC112B51EC100BFEF7EFFA41EC100B5B
:101C900051EC100BFEF70DFD00EE100A2199C1F872
:101CA000A002FFE72098807828B1FFE72199002063
:101CB000C1F8E4032BE09DED1A0A9DED191A30EEF0
:101CC000010A9DED1D2A9DED1B3A9DED1C1A22EE89
:101CD000032A30EE420A20EE010A10EE100AFEF747
:101CE000D5FC41EC110B9DED160B53EC112B51EC77
:101CF000100BFEF7BAFA41EC100B51EC100BFEF78B
:101D0000D8FC00EE100A2199C1F8E403FFE72198FE
:101D1000209900F01BF8219809F01EFF219800F58A
:101D2000A27009F019FF219800F5227009F014FF44
:101D3000219800F5737009F00FFF2098C1780020FA
:101D400012F04CFC22B080BD0000000096B015904F
:101D500014911598B0F9DA0300EE100AB8EEC00A33
:101D6000B5EE400AF1EE10FA0ADDFFE71598B0F97A
:101D7000DA0300EE100AB8EEC00A8DED070A0BE098
:101D80001598B0F9DA0300EE100AB8EEC00AB1EE09
:101D9000400A8DED070AFFE79DED070A8DED130A56
:101DA0001598B0F90E0000EE100AB8EEC00AB5EEB4
:101DB000400AF1EE10FA0ADDFFE71598B0F90E00BF
:101DC00000EE100AB8EEC00A8DED060A0BE0159879
:101DD000B0F90E0000EE100AB8EEC00AB1EE400AEB
:101DE0008DED060AFFE79DED060A8DED120A1598A6
:101DF000B0F9960200EE100AB8EEC00AB5EE400A3D
:101E0000F1EE10FA0ADDFFE71598B0F9960200EE40
:101E1000100AB8EEC00A8DED050A0BE01598B0F96E
:101E2000960200EE100AB8EEC00AB1EE400A8DED3F
:101E3000050AFFE79DED050A8DED110A1598B0F929
:101E4000520100EE100AB8EEC00AB5EE400AF1EEFB
:101E500010FA0ADDFFE71598B0F9520100EE100AFA
:101E6000B8EEC00A8DED040A0BE01598B0F95201E6
:101E700000EE100AB8EEC00AB1EE400A8DED040A79
:101E8000FFE79DED040A8DED100A9DED130A9DED0F
:101E9000121A30EE410AB5EE400AF1EE10FA09DDF1
:101EA000FFE79DED130A9DED121A30EE410A8DED0C
:101EB000030A08E09DED131A9DED120A30EE410A67
:101EC0008DED030AFFE79DED030A8DED0F0A9DEDF1
:101ED000110A9DED101A30EE410AB5EE400AF1EEFE
:101EE00010FA09DDFFE79DED110A9DED101A30EEA5
:101EF000410A8DED020A08E09DED111A9DED100AD0
:101F000030EE410A8DED020AFFE79DED020A8DEDEC
:101F10000E0A42F6A800C2F20000019090ED000AFD
:101F20009DED131A9FEDDA3A21EE031A9FEDD92A9F
:101F300020EE020A30EE010A80ED000A90ED010A5F
:101F40009DED121A21EE031A20EE020A30EE010A6C
:101F500080ED010A90ED020A9DED111A21EE031A9F
:101F600020EE020A30EE010A80ED020A90ED030A2B
:101F70009DED101A21EE031A20EE020A30EE010A3E
:101F800080ED030A90ED000A90ED011A30EE010A8F
:101F9000B6EE001A20EE010A8DED0D0A90ED020A50
:101FA00090ED032A30EE020A20EE010A8DED0C0AB4
:101FB0009DED0D0A9DED0C1A30EE410AB5EE400A7A
:101FC000F1EE10FA09DDFFE79DED0D0A9DED0C1A0B
:101FD00030EE410A8DED000A08E09DED0D1A9DEDF1
:101FE0000C0A30EE410A8DED000AFFE79DED000A74
:101FF0008DED0B0A9DED0B0A9FEDA71A0020B4EEA4
:10200000410AF1EE10FAC8BF01208DF82B009DF8AF
:102010002B0038B3FFE743F62000C2F2000000783F
:1020200000BBFFE743F27670C2F200000188013185
:10203000018043F27472C2F2000200211180B0F9F3
:10204000000064280DDBFFE743F62001C2F2000127
:102050000120087043F27671C2F20001642008800A
:10206000FFE72BE09DF82B0038BBFFE743F620008D
:10207000C2F20000007800B3FFE743F27470C2F2CE
:10208000000001880131018043F27672C2F2000241
:1020900000211180B0F9000032280DDBFFE743F684
:1020A0002001C2F200010020087043F27471C2F2F4
:1020B000000132200880FFE7FFE7FFE743F620003A
:1020C000C2F2000000781499C8701498C0780028F3
:1020D00077D0FFE714988078002872D1FFE79DED54
:1020E0000B0A9FED6E1A80EE010AB7EE081A30EE69
:1020F000011AB0EE040AB4EE401AF1EE10FAB8BFBD
:10210000B0EE410A8DED090A9DED090AB7EE001AFD
:1021100081EE000A8DED080A40F21401C2F20001BE
:1021200091ED000A9DED082A20EE022A9FED5C0A3F
:10213000B4EE402AF1EE10FAC8BFB0EE420A81EDCB
:10214000000A9DED090A30EE410A91ED002A31EEB8
:10215000422A20EE020A30EE011A9FED520AB4EE36
:10216000401AF1EE10FAC8BFB0EE410A40F2180072
:10217000C2F2000080ED000A91ED001A159A92ED6E
:10218000F90A20EE010A82EDF90A91ED001A15997B
:1021900091ED060A20EE010A81ED060A90ED001A83
:1021A000159991EDA80A20EE010A81EDA80A90ED9B
:1021B000001A159890ED570A20EE010A80ED570A93
:1021C0002EE040F21400C2F2000090ED000A9FEDF4
:1021D000361A30EE012AB7EE000AB4EE402AF1EECC
:1021E00010FAB0EE401AB8BFB0EE421A80ED001AF5
:1021F00040F21800C2F2000090ED001A31EE401AD1
:102200009FED242A21EE021A31EE001AB4EE401A94
:10221000F1EE10FAC8BFB0EE410A80ED000AFFE708
:102220000B9847F2C051C2F20001086043F620004B
:10223000C2F20000007800EE100AB8EE400A81ED0C
:10224000010A43F27470C2F20000B0F9000000EE1F
:10225000100AB8EEC00A81ED020A43F27670C2F2AB
:102260000000B0F9000000EE100AB8EEC00A81EDDF
:10227000030A40F21400C2F200000068086140F254
:102280001800C2F200000068486116B0704700BF35
:10229000D0CCCC3D6666663F00409C4500007A4449
:1022A0003333333F3333B33FCDCC4C3D83B0029017
:1022B00001910020ADF802000298017842F660001A
:1022C000C2F200000172029949784172029949886C
:1022D000090409BA00EE101AB8EEC00A9FED0F1AF1
:1022E00080EE010A80ED050A02998988090409BA7D
:1022F00000EE101AB8EEC00A80EE010A80ED040A62
:102300000299C988090409BA00EE101AB8EEC00A89
:1023100080EE010A80ED030A03B070470000C84256
:1023200080B584B08DF80F00ADF80C1042F6600156
:10233000C2F2000137200870012088709DF80F005C
:10234000C870AA200871B1F90020B1F902306946BD
:102350004FF0000CC1F804C0086042F64040C2F2E1
:10236000000040F25221FFF733F904B080BD0000B5
:1023700080B584B0039002918DF8072003980FF088
:10238000CFFF0299CD2008700398016842F6A000A3
:10239000C2F20000009001600178029A5170417809
:1023A000029A91708178029AD170C178029A117163
:1023B0000399496801600178029A51714178029A43
:1023C00091718178029AD171C178029A1172029A40
:1023D000092151720399496901600178029A917249
:1023E0004178029AD1728178029A1173C078029969
:1023F00048730398007E029988730299DC20C873A1
:102400009DF8070038B9FFE702981021FFF704FA9A
:102410008DF8060010E09DF8070001280BD1FFE7BA
:10242000029943F25460C2F20000102206F0F2F961
:102430008DF80600FFE7FFE7012004B080BD000033
:1024400080B586B0059040F2DC30C2F20000049006
:102450004168C1F30131059A91734168C1F381313B
:10246000059AD17301686FF3DF21A1F58061059AA8
:1024700091800168C1F3CA21A1F58061059AD180DC
:1024800001684268890D41EA82216FF3DF21A1F5DD
:102490008061059A11814168C1F34A01A1F580610B
:1024A000059A5181018A6FF3DF21A1F58061059AB8
:1024B0009181817B01F00103059A92F82C1001F0C3
:1024C000F001194482F82C10C168C1F34043059A09
:1024D00092F82C1001F00F0141EA031182F82C1040
:1024E000C168C1F38043059A92F82D1001F0F00104
:1024F000194482F82D10C168C1F3C043059A92F8BF
:102500002D1001F00F0141EA031182F82D10C1686E
:10251000C1F30053059A92F82E1001F0F00119440E
:1025200082F82E10C168C1F38053059A92F82F10DB
:1025300001F0F001194482F82F10C168C1F3C053B3
:10254000059A92F82F1001F00F0141EA031182F869
:102550002F10C168C1F38073059A92F8331001F00F
:10256000F001194482F83310C268102101EAD263E5
:10257000059A92F8331001F00F01194482F83310D4
:10258000C168C1F3C063059A92F8311001F00F01E0
:1025900041EA031182F83110C168C1F30073059A52
:1025A00092F8321001F0F001194482F83210C1683B
:1025B000C1F34073059A92F8321001F00F0141EA1D
:1025C000031182F83210C168C1F34053059A92F8A2
:1025D0002E1001F00F0141EA031182F82E10059927
:1025E000D1F8111000EE101A8DED010AB0F90600B5
:1025F000C117FDF7F8FF9DED010A00EE900A9FED6F
:102600003C1A8DED031A12F0A1FB0498059A10EE06
:10261000101AC2F811100599D1F81D1000EE101A09
:102620008DED020AB0F90800C117FDF7DCFF9DED42
:10263000020A9DED031A00EE900A12F087FB04983F
:10264000059A10EE101AC2F81D10B0F90B00C11750
:10265000000A40EA016001281FD1FFE7059890F8C1
:102660002B0013280FDCFFE7059991F82B000130B0
:1026700081F82B00059991F82900012262F31F10BF
:1026800081F8290008E0059991F82900022262F3F7
:102690001F1081F82900FFE70BE00599002081F861
:1026A0002B00059991F8290000F00F0081F829000E
:1026B000FFE740F2DC30C2F20000427B059991F85E
:1026C000290002F00F0200F0F000104481F8290008
:1026D00040F26831C2F200010020887040F2A2305E
:1026E000C2F200003A22FDF79CFD06B080BD00BF9B
:1026F0000000FA4380B582B0019001983A21FDF7BD
:10270000A9FD01990120887002B080BD80B542F614
:102710007860C2F2000001F089FD80BD80B542F60C
:10272000D860C2F2000001F081FD80BD80B542F6A4
:102730005850C2F2000001F079FD80BD80B542F62C
:102740009840C2F2000001F071FD80BD80B542F6F4
:102750003870C2F2000001F069FD80BD80B542F61C
:10276000F840C2F2000001F061FD80BD80B542F684
:10277000B850C2F2000001F059FD80BD80B542F6AC
:102780009870C2F2000001F051FD80BD80B542F6A4
:102790001860C2F2000001F049FD80BD82B00190D6
:1027A0000198007810384AF6AB21CAF6AA21A0FB9E
:1027B000011000090090009949F23810C0F601009C
:1027C000405C0199C8650098042807D3FFE7019988
:1027D0000868042262F30900886506E00199086828
:1027E00040F2FF3290438865FFE70198806D02B0A8
:1027F0007047000086B0059000208DF81300059802
:10280000806A03900598806910BBFFE703980290E7
:1028100003281BD80299DFE801F0020D0218059881
:1028200090F82F00C00720B1FFE701208DF81300BA
:10283000FFE70CE00598C06AB0F1C07F04D1FFE764
:1028400001208DF81300FFE701E000E0FFE745E01D
:1028500005988069B0F5005F25D1FFE703980190E6
:1028600003281ED80199DFE801F0020602110120B9
:102870008DF8130016E0059890F82F00C00720B1DE
:10288000FFE701208DF81300FFE70BE00598C06A11
:10289000B0F1C07F04D1FFE701208DF81300FFE7FE
:1028A00000E0FFE719E003980090032804D3FFE756
:1028B0000098032804D00EE001208DF813000BE0EF
:1028C000059890F82F00C00720B1FFE701208DF890
:1028D0001300FFE700E0FFE7FFE7FFE79DF81300C5
:1028E00006B0704784B00390029101920093039860
:1028F0000168086820F4802008600098039909683E
:10290000486003988068402809D1FFE7019803993F
:1029100009688860029803990968C86008E002980D
:10292000039909688860019803990968C860FFE7FE
:1029300004B0704781B041F20400CEF2000000689C
:102940000090009840F26031C2F2000109688842AC
:1029500008D2FFE740F26431C2F20001086801309A
:102960000860FFE7009840F26031C2F200010860A1
:1029700001B0704780B584B0039041F20400CEF2FC
:10298000000000680290029803990968401A00EE5E
:10299000100AB8EE400A40F25430C2F2000090ED46
:1029A000001AB8EE411A80EE010A8DED010A029874
:1029B00003990860FFF7BEFF9DED010A04B080BDDA
:1029C00081B000904EF6FC51CEF20001086840F054
:1029D0008070086041F20401CEF20001002008601E
:1029E00041F20002CEF20002116841F001011160D3
:1029F000009944F24022C0F20F024A4340F254319F
:102A0000C2F200010A600A6844F6D353C1F26203BD
:102A1000A2FB0332920940F25833C2F200031A605B
:102A200009684DF68362C4F21B32A1FB0221890CB6
:102A300040F25C32C2F20002116040F26431C2F234
:102A40000001086001B070477047000072B6FFE7F0
:102A5000FEE7000080B586B005908DED040A039175
:102A6000CDED020AADF80620ADF8043004980599C2
:102A7000C1F88C00039880B1FFE7059868B1FFE7C3
:102A800003980068059908600398406805994860B4
:102A900003988068059988600AE00599002008601D
:102AA00005994860059988600599C1F88C00FFE791
:102AB000029805990862BDF8060005990886BDF8D8
:102AC00004000599A1F85C00BDF80600032807DBA7
:102AD000FFE705983230BDF8061008F07DFCFFE7EF
:102AE000BDF80400032807DBFFE705985E30BDF85A
:102AF000041008F071FCFFE7059900208861059932
:102B0000C1F8880006B080BD80B58AB009900891F0
:102B100007920898C07B013801460691032800F20D
:102B200049810699DFE811F005001D0104001C0130
:102B3000FFE70898B0F9081000EE101AB8EEC00AC6
:102B4000B1EE400A8DED050AD0F8110000EE100A32
:102B50009FED9A1A20EE010AB2EE0E1AB4EE410A67
:102B6000F1EE10FA05DDFFE7B2EE0E0A8DED040A74
:102B700026E00898D0F8110000EE100A9FED8F1A99
:102B800020EE010ABAEE0E1AB4EE410AF1EE10FA86
:102B900005DAFFE7BAEE0E0A8DED030A0BE008989E
:102BA000D0F8110000EE100A9FED841A20EE010A01
:102BB0008DED030AFFE79DED030A8DED040AFFE7A3
:102BC0009DED050A9DED041A9FED7D2A20EE020A77
:102BD00030EE411A089890F82F1001F00F00A0EB8A
:102BE000111000EE100AB8EEC00AB2EE0E2A20EE66
:102BF000020A30EE011A099890ED060A30EE010A39
:102C000080ED060A40F22441C2F200010020086073
:102C10000898B0F90A1000EE101AB8EEC01AD0F8F1
:102C20001D0000EE100A9FED672A20EE020A9FEDBC
:102C3000662A21EE021A30EE011A099890ED570A21
:102C400030EE010A80ED570A099890ED570A9FED82
:102C50005F1AB4EE410AF1EE10FA05DDFFE79FEDD1
:102C60005B0A8DED020A1AE0099890ED570A9FED74
:102C7000581AB4EE410AF1EE10FA05DAFFE79FEDBB
:102C8000540A8DED010A05E0099890ED570A8DED83
:102C9000010AFFE79DED010A8DED020AFFE79DEDB8
:102CA000020A099880ED570A0998B0F94C0100EE24
:102CB000100AB8EEC00A9FED471A30EE010AB5EED1
:102CC000400AF1EE10FA11DDFFE70998B0F94C0166
:102CD00000EE100AB8EEC00A9FED3E1A30EE010A6F
:102CE000B5EE400AF1EE10FA1ED128E00998B0F9CD
:102CF0004C0100EE100AB8EEC00A9FED361A30EE15
:102D0000012A9FED353AB7EE001A9FED340AB4EE72
:102D1000432AF1EE10FAC8BFB0EE410AB5EE400A00
:102D2000F1EE10FA0BD0FFE709990020C1F8A401D9
:102D300009990020C4F2A020C1F8A00107E0099978
:102D400046F26660C3F6E660C1F8A401FFE70998A1
:102D500008F034FE099800F5A27008F0B5FE2AE0EC
:102D600029E042F2C070C2F20000007AC00748B108
:102D7000FFE7099808F056FF099800F5A27008F0DF
:102D800015FFFFE741F24C20C2F20000C06840F29C
:102D90002441C2F2000108600998B0F94C0100EE2C
:102DA000100AB8EEC00A40F22040C2F2000080EDE6
:102DB000000A00E0FFE70AB080BD00BFCDCC4C3E6A
:102DC0000AD7233D8FC2753D0AD7A3BC00A03E455C
:102DD00000C0F34400C041C5000016C3000000005D
:102DE00084B002900191ADF80220029828B9FFE763
:102DF0004FF6FF70ADF80E0021E0FFE70198411E8D
:102E00000191B8B1FFE70298411C029100788DF85A
:102E10000100BDF802109DF801004840C2B249F619
:102E20009E40C0F6010030F8120080EA1120ADF893
:102E30000200E3E7BDF80200ADF80E00FFE7BDF8C1
:102E40000E0004B07047000082B00190ADF802108F
:102E50008DF80120FFE7BDF80200411EADF8021019
:102E600098B1FFE79DF8010001994A1C0192097889
:102E700048408DF800009DF8001048F63870C0F604
:102E80000100405C8DF80100E5E79DF8010002B00B
:102E90007047000041F25800C2F2000090ED690A4C
:102EA0007047000041F25800C2F2000090ED680A3D
:102EB0007047000080B584B047F61020C1F6FF705F
:102EC0000068039047F61420C1F6FF700068029076
:102ED00047F61820C1F6FF70006801900199039829
:102EE00008440390039888B1FFE7039840F28411E7
:102EF000C2F2000100910231082206F011FF009990
:102F000002981231042206F00BFFFFE704B080BDE7
:102F100041F25800C2F2000090ED6A0A70470000CA
:102F200085B00390029100200190FFE7039890F88C
:102F30003C00012804D1FFE702208DF81300F7E0E0
:102F40000399012081F83C00FFE7FFE70298006841
:102F50000A281CD3FFE70298008800EB4000A0F18C
:102F60001E01072000FA01F203980168C868904327
:102F7000C86002998868098801EB41011E3900FA8E
:102F800001F203980168C8681043C86018E002980D
:102F9000008800EB4001072000FA01F20398016865
:102FA00008699043086102998868098801EB41012A
:102FB00000FA01F203980168086910430861FFE70D
:102FC0000298406806281BD8FFE70298406800EB8B
:102FD0008000411F1F2000FA01F203980168486B2E
:102FE0009043486302990888496801EB81010539DB
:102FF00000FA01F203980168486B104348633DE012
:10300000029840680C281CD8FFE70298406800EB43
:103010008000A0F123011F2000FA01F2039801684B
:10302000086B9043086302990888496801EB8101A5
:10303000233900FA01F203980168086B1043086312
:103040001BE00298406800EB8000A0F141011F20C6
:1030500000FA01F203980168C86A9043C8620299B5
:103060000888496801EB8101413900FA01F20398AF
:103070000168C86A1043C862FFE7FFE742F2003008
:10308000C4F2010000900398006842F20001C4F20B
:10309000010188420BD1FFE702980068122806D18F
:1030A000FFE70099486840F480004860FFE7039814
:1030B000006842F20001C4F2010188422ED1FFE70C
:1030C00002980068102805D0FFE7029800681128D0
:1030D00024D1FFE70099486840F400004860029856
:1030E0000068102819D1FFE740F2CC00C2F20000BE
:1030F00000684DF68361C4F21B31A0FB0110800C07
:1031000000EB800040000190FFE7019820B1FFE74D
:10311000019801380190F8E7FFE7FFE7FFE703991F
:10312000002081F83C00FFE700208DF81300FFE746
:103130009DF8130005B0704780B584B00290002060
:103140008DF80700029820B9FFE701208DF80F00E5
:1031500042E00298806A0121C0F60071884201D0E5
:10316000FFE7FFE70298006C50B9FFE7029800F014
:1031700037F8029900204864029981F83C00FFE783
:103180000298006CC006002817D4FFE70298006C74
:1031900040F0020020F48850029908640298FDF77C
:1031A0003FFC0299002048640298006C40F0010046
:1031B00020F002000299086403E001208DF8070066
:1031C000FFE7FFE70299002081F83C00FFE79DF848
:1031D00007008DF80F00FFE79DF80F0004B080BDD9
:1031E00080B58AB00990002008900790069005905D
:1031F00004900998006842F20001C4F2010188427B
:1032000012D1FFE7FFE70020039043F64400C4F229
:103210000200016841F480710160006800F4807070
:1032200003900398FFE73AE00998006842F2002112
:10323000C4F20101884231D1FFE7FFE7002002908C
:1032400043F64400C4F20200016841F48061016069
:10325000006800F4806002900298FFE7FFE700201A
:10326000019043F63000C4F20200016841F02001F1
:103270000160006800F0200001900198FFE74FF422
:1032800080600490032005900020069041F20040E9
:10329000C4F2020004A901F095FAFFE7FFE70AB0C3
:1032A00080BD000084B002900191029890F8200047
:1032B0008DF803009DF80300012805D0FFE79DF875
:1032C000030002280AD1FFE7019A029801684869C1
:1032D0001043486100208DF80F0008E00299486A09
:1032E00040F48020486201208DF80F00FFE79DF830
:1032F0000F0004B07047000088B00690059104925A
:103300000393069890F820008DF80700069800684F
:10331000806800900598806808B9FFE700E0FFE743
:103320009DF80700012806D0FFE79DF80700022856
:1033300040F08080FFE79DF80300400700280CD490
:10334000FFE79DF803000007002806D4FFE79DF87B
:103350000300C006002864D5FFE70098C0F30160B1
:1033600002900299012088400399086005988068BE
:1033700068B9FFE705980168C06840EA41500699BE
:103380000968029A01EB0211C1F880010EE005996B
:103390004A688868C96840EAC20008430699096813
:1033A000029A01EB0211C1F88001FFE7059800695C
:1033B00006990968029A01EB0211C1F88401059887
:1033C000007D01280CD1FFE706980068029900EB08
:1033D0000111D1F8840140F48070C1F88401FFE745
:1033E0000498406806990968029A01EB0211C1F835
:1033F0008C010498006806990968029A01EB021191
:10340000C1F8880106980068029900EB0111D1F813
:10341000800140F00100C1F8800100208DF81F00FC
:1034200011E00699486A40F40010486201208DF8C6
:103430001F0008E00699486A40F480204862012095
:103440008DF81F00FFE79DF81F0008B070470000CF
:1034500086B004900391049800680190049890F855
:1034600020008DF803009DF80300012806D0FFE737
:103470009DF80300022840F0B080FFE746F20040CC
:10348000C4F2000001900199D1F8000240F001005F
:10349000C1F800020199D1F8000220F47C50C1F873
:1034A00000020398426A0199D1F8000240EA022022
:1034B000C1F800020398406900F01F010120884014
:1034C0000290029A0199D1F81C029043C1F81C02A3
:1034D0000398C069F0B9FFE7029A0199D1F80C028C
:1034E0009043C1F80C02039A9088D168526940EA6F
:1034F0000140019901EBC201C1F84002039A108812
:103500009168526940EA0140019901EBC201C1F89A
:103510004402FFE70398C06901281ED1FFE7029A21
:103520000199D1F80C021043C1F80C02039A90885B
:103530001168526940EA0140019901EBC201C1F8EA
:103540004002039A90899168526940EA01400199CA
:1035500001EBC201C1F84402FFE70398806940B95A
:10356000FFE7029A0199D1F804029043C1F80402DE
:1035700007E0029A0199D1F804021043C1F804024D
:10358000FFE70398006940B9FFE7029A0199D1F873
:1035900014029043C1F8140207E0029A0199D1F88D
:1035A00014021043C1F81402FFE70398006A0128CF
:1035B00008D1FFE7029A0199D1F81C021043C1F823
:1035C0001C02FFE70199D1F8000220F00100C1F8C8
:1035D000000200208DF8170008E00499486A40F4C2
:1035E0008020486201208DF81700FFE79DF8170042
:1035F00006B0704781B0009001B0704786B004906B
:10360000039102920193049890F820008DF8030032
:103610009DF80300012806D0FFE79DF8030002286B
:1036200040F0E880FFE7039880B9FFE7049800685E
:10363000C068800748B9FFE70499486A40F4001061
:10364000486201208DF81700DDE00FE00498006863
:103650000069800748B9FFE70499486A40F4001000
:10366000486201208DF81700CDE0FFE7049800685C
:10367000039900EB0110D0F8B00100F004000299AA
:1036800088600298806858B9FFE704980068039939
:1036900000EB0110D0F8B001400D029908600AE07B
:1036A00004980068039900EB0110D0F8B001C0083D
:1036B00002994860FFE704980068039900EB011045
:1036C000D0F8B00100F002000299C86004980068C8
:1036D000039900EB0110D0F8B40100F00F000828A6
:1036E00004D3FFE70299082008610BE00498006802
:1036F000039900EB0110D0F8B40100F00F0002991B
:103700000861FFE704980068039900EB0110D0F806
:10371000B40180B2000A0299886104980068039994
:1037200000EB0110D0F8B401000C02994861049834
:103730000068039900EB0110D0F8B80101990870F6
:1037400004980068039900EB0110D0F8B801000A52
:103750000199487004980068039900EB0110D0F8B3
:10376000B801000C0199887004980068039900EB77
:103770000110D0F8B801000E0199C87004980068D3
:10378000039900EB0110D0F8BC010199087104986D
:103790000068039900EB0110D0F8BC01000A019900
:1037A000487104980068039900EB0110D0F8BC013F
:1037B000000C0199887104980068039900EB0110CE
:1037C000D0F8BC01000E0199C871039838B9FFE721
:1037D00004980168C86840F02000C86006E00498BA
:1037E0000168086940F020000861FFE700208DF8BB
:1037F000170008E00499486A40F4802048620120DC
:103800008DF81700FFE79DF8170006B0704700001D
:1038100080B58AB009900020089009980068406936
:1038200007900998006840680690099800688068C9
:10383000059009980068C0680490099800680069BC
:10384000039009980068806902909DF81C00C007E9
:10385000002800F09480FFE79DF81400C00758B3DB
:10386000FFE709980168012088609DF8140080072F
:10387000002804D5FFE7099800F0E8FB1BE09DF85D
:1038800014004007002805D5FFE7089840F40060C1
:1038900008900FE09DF814000007002805D5FFE709
:1038A000089840F48050089003E0099800F0CAFBA3
:1038B000FFE7FFE7FFE7FFE79DF81500C00760B3EC
:1038C000FFE7099801684FF4807088609DF8150043
:1038D0008007002804D5FFE7099800F0BFFB1BE034
:1038E0009DF815004007002805D5FFE7089840F42B
:1038F000005008900FE09DF815000007002805D53E
:10390000FFE7089840F48040089003E0099800F031
:10391000A1FBFFE7FFE7FFE7FFE79DF81600C00701
:1039200060B3FFE7099801684FF4803088609DF824
:1039300016008007002804D5FFE7099800F096FBE1
:103940001BE09DF816004007002805D5FFE7089802
:1039500040F4004008900FE09DF816000007002892
:1039600005D5FFE7089840F48030089003E00998F7
:1039700000F078FBFFE7FFE7FFE7FFE7FFE79DF8D1
:103980001C000007002810D5FFE79DF81000C006B6
:10399000002809D5FFE7089840F4007008900998BE
:1039A00001681020C860FFE7FFE79DF81C00400792
:1039B00000280FD5FFE79DF810000007002808D564
:1039C000FFE7099801680820C860099800F0CCFA60
:1039D000FFE7FFE79DF81C00800700280BD5FFE7F5
:1039E00009980068C068800720B1FFE7099800F0D7
:1039F000BFFAFFE7FFE79DF81C004006002810D53E
:103A0000FFE79DF80C00C006002809D5FFE70898DD
:103A100040F4806008900998016810200861FFE771
:103A2000FFE79DF81C00800600280FD5FFE79DF8F2
:103A30000C000007002808D5FFE709980168082056
:103A40000861099800F0ACFAFFE7FFE79DF81C0059
:103A5000C00600280BD5FFE70998006800698007B9
:103A600020B1FFE7099800F09FFAFFE7FFE79DF814
:103A70001E00800700280FD5FFE79DF81800C0063C
:103A8000002808D5FFE709980168102048600998C8
:103A900000F08EFAFFE7FFE79DF81E00C00778B13F
:103AA000FFE79DF818000007002808D5FFE70998F0
:103AB000016808204860099800F0DCFAFFE7FFE79A
:103AC0009DF81D000006002840F18D80FFE79DF85D
:103AD00018004007002840F18180FFE79DF81D0095
:103AE000C00750B1FFE79DF80800C00728B1FFE705
:103AF000089840F001000890FFE79DF81D0080073E
:103B000000280BD5FFE79DF808008007002805D5A1
:103B1000FFE7089840F002000890FFE79DF81D00BD
:103B2000400700280BD5FFE79DF808004007002854
:103B300005D5FFE7089840F004000890FFE79DF8DE
:103B40001D000007002848D5FFE79DF8080010F089
:103B5000700F42D0FFE7029800F07000014601911B
:103B6000102814D0FFE70198202815D0FFE701980E
:103B7000302816D0FFE70198402817D0FFE70198BA
:103B8000502818D0FFE70198602819D01DE0089848
:103B900040F00800089019E0089840F010000890E4
:103BA00014E0089840F0200008900FE0089840F0DA
:103BB000400008900AE0089840F08000089005E076
:103BC000089840F48070089000E0FFE709980168C9
:103BD000886920F070008861FFE7FFE709980168B5
:103BE00004204860FFE7089848B1FFE7089A099960
:103BF000486A104348620998FFF7FCFCFFE70AB0E7
:103C000080BD000080B584B00290029820B9FFE723
:103C100001208DF80F00E0E0029890F8200020B914
:103C2000FFE7029800F0DEF8FFE7029801680868F5
:103C300040F00100086000F0B9FF0190FFE7029832
:103C400000684068C007A8B9FFE700F0AFFF01991E
:103C5000401A0B280DD3FFE70299486A40F4003060
:103C600048620299052081F8200001208DF80F009C
:103C7000B3E0E4E702980168086820F002000860F9
:103C800000F094FF0190FFE7029800684068800709
:103C9000002815D5FFE700F089FF0199401A0B288D
:103CA0000DD3FFE70299486A40F400304862029958
:103CB000052081F8200001208DF80F008DE0E3E75A
:103CC0000298007E012807D1FFE702980168086882
:103CD00040F08000086006E002980168086820F063
:103CE00080000860FFE70298407E012807D1FFE7C7
:103CF00002980168086840F04000086006E00298F9
:103D00000168086820F040000860FFE70298807EA4
:103D1000012807D1FFE702980168086840F02000F9
:103D2000086006E002980168086820F0200008603A
:103D3000FFE70298C07E012807D1FFE702980168DB
:103D4000086820F01000086006E002980168086822
:103D500040F010000860FFE70298007F012807D1BB
:103D6000FFE702980168086840F00800086006E074
:103D700002980168086820F008000860FFE70298D0
:103D8000407F012807D1FFE702980168086840F0EA
:103D90000400086006E002980168086820F004004A
:103DA0000860FFE7029B19685A689868D3F80CC04E
:103DB00040EA0C00D3F810C040EA0C005B691843DD
:103DC000013A1043C861029900204862029A012119
:103DD00082F820108DF80F00FFE79DF80F0004B067
:103DE00080BD000080B590B00F9000200E900D9027
:103DF0000C900B900A900F98006846F20041C4F2B4
:103E00000001884249D1FFE740F22840C2F2000099
:103E10000168013101600068012812D1FFE7FFE766
:103E20000020099043F64000C4F20200016841F00E
:103E300000710160006800F0007009900998FFE7C8
:103E4000FFE7FFE70020089043F63000C4F20200CD
:103E5000016841F008010160006800F00800089066
:103E60000898FFE703200A9002210B91002103919B
:103E70000C910D9009200E9040F60040C4F2020013
:103E80000AA900F09FFC039A14200490052100F079
:103E900061FF049800F054FF64E00F98006846F654
:103EA0000001C4F2000188425BD1FFE7FFE7002078
:103EB000079043F64000C4F20200016841F08061BF
:103EC0000160006800F0806007900798FFE740F20B
:103ED0002840C2F200000168013101600068012839
:103EE00012D1FFE7FFE70020069043F64000C4F23E
:103EF0000200016841F000710160006800F000708C
:103F000006900698FFE7FFE7FFE70020059043F6DD
:103F10003000C4F20200016841F002010160006853
:103F200000F0020005900598FFE760200A9002204B
:103F30000B90002001900C9003200D9009200E9012
:103F400040F20040C4F202000AA900F03BFC019AD2
:103F500040200290052100F0FDFE029800F0F0FEE6
:103F6000FFE7FFE710B080BD81B0009001B070475F
:103F700080B582B00190019840F23032C2F2000266
:103F8000009240F24C33C2F200030021FFF736FBEF
:103F9000009901980968FDF74BFA02B080BD000056
:103FA00081B0009001B0704781B0009001B07047BF
:103FB00081B0009001B0704780B584B00290029843
:103FC00090F8200001282FD1FFE70299022081F804
:103FD000200002980168086820F00100086000F0E5
:103FE000E5FD0190FFE7029800684068C007A8B1AE
:103FF000FFE700F0DBFD0199401A0B280DD3FFE726
:104000000299486A40F4003048620299052081F81C
:10401000200001208DF80F000FE0E4E70299002056
:1040200048628DF80F0008E00299486A40F40020C9
:10403000486201208DF80F00FFE79DF80F0004B0E3
:1040400080BD000081B0009001B0704781B0009049
:1040500001B0704781B0009001B0704781B000900E
:1040600001B0704781B0009001B0704781B00090FE
:1040700001B0704781B0009001B0704780B582B048
:104080000090009820B9FFE701208DF8070011E0AB
:104090000098407938B9FFE700990020087100982E
:1040A00000F00CF8FFE700990120487100208DF81E
:1040B0000700FFE79DF8070002B080BD82B00190C5
:1040C0000198006843F20001C4F20201884212D153
:1040D000FFE7FFE70020009043F63000C4F2020043
:1040E000016841F480510160006800F48050009044
:1040F0000098FFE7FFE702B07047000080B584B08A
:1041000002900298806D019000F050FD009002989E
:1041100090F8350002280DD0FFE70299802048650D
:10412000FFE70299002081F83400FFE701208DF8B5
:104130000F0055E002980168086820F0160008603A
:1041400002980168486920F0800048610298006C7C
:1041500020B9FFE70298806C38B1FFE70298016848
:10416000086820F008000860FFE702980168086806
:1041700020F001000860FFE7029800680068C007AF
:10418000C8B1FFE700F012FD0099401A062811D3CC
:10419000FFE70299202048650299032081F8350045
:1041A000FFE70299002081F83400FFE703208DF833
:1041B0000F0015E0E0E70298C16D3F2088400199AB
:1041C00088600299012081F83500FFE702990020FC
:1041D00081F83400FFE7FFE700208DF80F00FFE7CC
:1041E0009DF80F0004B080BD82B00090009890F858
:1041F0003500022807D0FFE700998020486501209C
:104200008DF807000EE00099052081F83500009830
:104210000168086820F001000860FFE700208DF8C1
:104220000700FFE79DF8070002B0704780B586B031
:1042300005900020039040F2CC00C2F2000000681C
:1042400048F2B511C1F64E31A0FB0110800A029070
:104250000598806D01900198006804900498059974
:10426000C96DC840000700281AD5FFE70598006807
:1042700000684007002812D5FFE705980168086824
:1042800020F0040008600598C16D0820884001995D
:1042900088600599486D40F001004865FFE7FFE739
:1042A00004980599C96DC840C007A0B1FFE70598FB
:1042B00000684069000600280CD5FFE70598C16D2D
:1042C00001208840019988600599486D40F00200FE
:1042D0004865FFE7FFE704980599C96DC8404007A6
:1042E000002814D5FFE705980068006880070028BB
:1042F0000CD5FFE70598C16D0420884001998860BE
:104300000599486D40F004004865FFE7FFE7049811
:104310000599C96DC840C006002847D5FFE7059834
:1043200000680068000700283FD5FFE70598C16DC9
:104330001020884001998860059800680068400353
:1043400000281AD5FFE705980068006800030028D8
:1043500009D4FFE70598006C20B1FFE70598016CD0
:104360008847FFE708E00598806C20B1FFE70598D3
:10437000816C8847FFE7FFE716E005980068006852
:10438000C005002807D4FFE705980168086820F0F9
:1043900008000860FFE70598006C20B1FFE705986A
:1043A000016C8847FFE7FFE7FFE7FFE704980599FF
:1043B000C96DC8408006002840F18D80FFE7059850
:1043C00000680068C006002840F18480FFE7059877
:1043D000C16D2020884001998860059890F83500CB
:1043E000052834D1FFE705980168086820F0160019
:1043F000086005980168486920F0800048610598C8
:10440000006C20B9FFE70598806C38B1FFE705988C
:104410000168086820F008000860FFE70598C16D92
:104420003F208840019988600599012081F8350076
:10443000FFE70599002081F83400FFE70598006D3B
:1044400020B1FFE70598016D8847FFE77BE00598FD
:1044500000680068400300281AD5FFE70598006847
:1044600000680003002809D4FFE70598406C20B1DC
:10447000FFE70598416C8847FFE708E00598C06BA7
:1044800020B1FFE70598C16B8847FFE7FFE720E011
:10449000059800680068C005002811D4FFE705985A
:1044A0000168086820F0100008600599012081F873
:1044B0003500FFE70599002081F83400FFE7FFE7AA
:1044C0000598C06B20B1FFE70598C16B8847FFE7EF
:1044D000FFE7FFE7FFE70598406DA0B3FFE705980A
:1044E000406DC00730B3FFE70599052081F835001E
:1044F00005980168086820F001000860FFE703984C
:10450000013003900299884201D9FFE707E0FFE7F5
:10451000059800680068C0070028F0D1FFE70599FA
:10452000012081F83500FFE70599002081F834006B
:10453000FFE7FFE70598C06C20B1FFE70598C16C65
:104540008847FFE7FFE706B080BD000080B586B072
:1045500004900020039000F029FB0290049820B9F9
:10456000FFE701208DF81700A3E00498406A08B126
:10457000FFE7FFE70499022081F83500FFE704997F
:10458000002081F83400FFE704980168086820F0F3
:1045900001000860FFE7049800680068C00790B158
:1045A000FFE700F003FB0299401A06280AD3FFE751
:1045B0000499202048650499032081F835008DF87E
:1045C000170076E0E7E70498006800680390039816
:1045D00048F23F01CFF21001084003900499009186
:1045E0004868D1F808C0CB680A6940EA0C00184353
:1045F00010434A6910438A691043CA691043096A23
:1046000001430398084303900498406A042808D1A2
:10461000FFE70499C86A096B0143039808430390B4
:10462000FFE70398049909680860049800684069E6
:104630000390039820F0070003900498416A0398C0
:10464000084303900498406A04281AD1FFE70498AD
:10465000816A0398084303900498C06A80B1FFE719
:104660000498FEF7C7F850B1FFE704994020486569
:104670000499012081F835008DF8170019E0FFE753
:10468000FFE703980499096848610498FEF786F8E3
:1046900001900498C16D3F20884001998860049979
:1046A00000204865049A012182F835108DF8170022
:1046B000FFE79DF8170006B080BD000080B588B008
:1046C000069005910492039300208DF80B00069844
:1046D000806D0190FFE7069890F83400012804D11E
:1046E000FFE702208DF81F0045E00699012081F8C0
:1046F0003400FFE7FFE7069890F8350001282BD13A
:10470000FFE70699022081F83500069900204865E8
:1047100006980599049A039BFEF7E4F80698C16D84
:104720003F2088400199886006980168086840F039
:10473000160008600698006C38B1FFE7069801681B
:10474000086840F008000860FFE7069801680868FC
:1047500040F00100086009E0FFE70699002081F8B9
:104760003400FFE702208DF80B00FFE79DF80B00F7
:104770008DF81F00FFE79DF81F0008B080BD000006
:1047800080B584B0039000F011FA02900398019074
:104790000198013048B1FFE740F2D410C2F20000A6
:1047A0000178019808440190FFE7FFE700F0FEF967
:1047B0000299401A0199884201D2FFE7F6E704B056
:1047C00080BD00008EB00D900C9100200A900990E1
:1047D00008900B90FFE70B980F2800F2CC81FFE7C1
:1047E0000B99012088400A900C9800680A990840AB
:1047F000099009980A99884240F0B881FFE70C981F
:10480000406800F00300012807D0FFE70C984068DB
:1048100000F0030002282FD1FFE70D988068089070
:104820000B984100032000FA01F108988843089092
:104830000C98C0680B99490000FA01F108980843E8
:10484000089008980D9988600D98406808900B9919
:10485000012000FA01F10898884308900C984068FC
:10486000C0F300100B9900FA01F108980843089072
:1048700008980D994860FFE70C98406800F0030025
:10488000032818D0FFE70D98C06808900B984100E6
:10489000032000FA01F10898884308900C9880687A
:1048A0000B99490000FA01F108980843089008980C
:1048B0000D99C860FFE70C98406800F003000228DB
:1048C00026D1FFE70D980B996FF0030202EA510120
:1048D0000844006A08900B9800F0070081000F2040
:1048E00000FA01F10898884308900C9800690B9928
:1048F00001F00701890000FA01F1089808430890C7
:1049000008980D990B9B02EA530211440862FFE7D5
:104910000D98006808900B984100032000FA01F1FF
:104920000898884308900C98406800F003000B99A1
:10493000490000FA01F108980843089008980D9979
:1049400008600C9880798007002800F00E81FFE74E
:10495000FFE70020079043F64400C4F2020001681C
:1049600041F480410160006800F48040079007989E
:10497000FFE70B9820F0030043F60801C4F20101A1
:10498000405808900B9800F0030081000F2000FAB7
:1049900001F10898884308900D980021C4F20201A3
:1049A000884203D1FFE7002006905EE00D9840F2B8
:1049B0000041C4F20201884203D1FFE701200590C3
:1049C00050E00D9840F60001C4F20201884203D184
:1049D000FFE70220049042E00D9840F60041C4F247
:1049E0000201884203D1FFE70320039034E00D98D1
:1049F00041F20001C4F20201884203D1FFE7042022
:104A0000029026E00D9841F20041C4F20201884272
:104A100003D1FFE70520019018E00D9841F6000151
:104A2000C4F20201884203D1FFE7062000900AE0A9
:104A30000D9941F60042C4F202020820914208BFDB
:104A400007200090FFE700980190FFE7019802908F
:104A5000FFE702980390FFE703980490FFE70498AC
:104A60000590FFE705980690FFE70698C0B20B99FE
:104A700001F00301890000FA01F108980843089049
:104A800008980B9921F0030143F60802C4F20102D1
:104A9000885043F60840C4F2010000680890099964
:104AA0000898884308900C988079C006002805D59E
:104AB000FFE70999089808430890FFE7089843F62C
:104AC0000841C4F20101086043F60C40C4F2010041
:104AD0000068089009990898884308900C98807994
:104AE0008006002805D5FFE7099908980843089033
:104AF000FFE7089843F60C41C4F20101086043F651
:104B00000440C4F20100006808900999089888439D
:104B100008900C9880798007002805D5FFE709994F
:104B2000089808430890FFE7089843F60441C4F248
:104B30000101086043F60040C4F2010000680890DB
:104B400009990898884308900C988079C00728B183
:104B5000FFE70999089808430890FFE7089843F68B
:104B60000041C4F201010860FFE7FFE7FFE70B988F
:104B700001300B902FE60EB07047000082B001901C
:104B8000ADF802108DF801209DF8010028B1FFE773
:104B9000BDF802000199886105E0BDF8020000043B
:104BA00001998861FFE702B07047000047F2A45006
:104BB000C2F200000068704740F2D410C2F2000058
:104BC000027847F2A451C2F200010868104408605C
:104BD0007047000080B543F60041C4F20201086846
:104BE00040F400700860086840F48060086008685D
:104BF00040F480700860032000F0C6F80F2000F039
:104C000005F800F071F8002080BD000080B58CB080
:104C10000B90002005900490FFE70020019043F6E0
:104C20004400C4F20200016841F001010160006823
:104C300000F0010001900198FFE706A803A901F028
:104C40004FFB01F08FFB4000059005984DF6836106
:104C5000C4F21B31A0FB01014FF0FF3000EB91408B
:104C6000049043F23450C2F200000021C4F201016A
:104C7000016040F2E731C1600499416000210161A7
:104C80008160816102F00AFB8DF80B009DF80B003A
:104C900028BBFFE743F23450C2F2000002F0E0FB11
:104CA0008DF80B009DF80B00C0B9FFE7192000F04C
:104CB00047F80B980F280CD8FFE70B991920002212
:104CC00000F048F80B9840F2D811C2F200010860D9
:104CD00003E001208DF80B00FFE7FFE7FFE79DF8F9
:104CE0000B000CB080BD000080B582B0FFE7002053
:104CF000019043F64400C4F20200016841F480418F
:104D00000160006800F4804001900198FFE7FFE730
:104D10000020009043F64000C4F20200016841F018
:104D200080510160006800F0805000900098FFE71B
:104D30006FF001000F21002200F00CF802B080BDDE
:104D400080B582B08DF807009DF907000DF05EFE7A
:104D500002B080BD80B586B08DF817000491039233
:104D6000002002900DF06AFE02909DF9170001905C
:104D700002980499039A06F0F9FA014601980DF099
:104D800065FE06B080BD000080B582B0019001983C
:104D90000DF07EFE02B080BD82B001908DF8031050
:104DA00002B0704782B00190ADF80210BDF8020069
:104DB000019909684862002002B0704784B00390EE
:104DC0008DF80B10ADF8082003980068406A009039
:104DD0009DF80B0048B9FFE7BDF80810009840EABD
:104DE000014003990968886233E003980068816A8A
:104DF000009800EB1140009000208DF80700FFE7BD
:104E00009DF807009DF80B100139884213D2FFE787
:104E1000039800689DF8071000EB8100D0F804119A
:104E2000009800EB11400090FFE79DF8070001306B
:104E30008DF80700E4E7BDF80810009840EA01404B
:104E4000039909689DF80B2001EB8201C1F800016C
:104E5000FFE7002004B0704780B582B00190019850
:104E6000D0F8E0040AF078FF02B080BD80B582B0CF
:104E700001908DF80310019AD2F8E0049DF8031018
:104E800001EBC10302EB8302126A0AF0C3FD02B018
:104E900080BD000080B582B001908DF80310019AAA
:104EA000D2F8E0049DF8031001EBC10302EB83028A
:104EB000D2F860220AF076FE02B080BD80B582B0E2
:104EC00001900198D0F8E0040AF04CFF02B080BDD8
:104ED00080B584B003908DF80B109DF80B00000690
:104EE00000280CD5FFE703989DF80B1001F00F0187
:104EF00001EBC10100EB8100143001900CE003983C
:104F00009DF80B1001F00F0101EBC10100EB8100D6
:104F100000F515700190FFE70398006801990CF007
:104F20009DFC8DF80A009DF80A0004B080BD0000C9
:104F300080B584B002908DF807109DF80700000638
:104F400000280FD5FFE702989DF8071001F00F0128
:104F500001EBC10100EB81001430009000990120A9
:104F600048700FE002989DF8071001F00F0101EB67
:104F7000C10100EB810000F5157000900099002040
:104F80004870FFE79DF8070000F00F0000990870D7
:104F9000FFE7029890F89404012804D1FFE702206B
:104FA0008DF80F0014E00299012081F89404FFE7C6
:104FB000FFE70298006800990BF040FFFFE70299B5
:104FC000002081F89404FFE700208DF80F00FFE730
:104FD0009DF80F0004B080BD80B584B002908DF8BC
:104FE00007109DF8070000F00F0002990979884228
:104FF00004D9FFE701208DF80F004DE09DF8070070
:10500000000600280FD5FFE702989DF8071001F071
:105010000F0101EBC10100EB8100143000900099F9
:10502000012048700FE002989DF8071001F00F0171
:1050300001EBC10100EB810000F5157000900099B3
:1050400000204870FFE70099002088709DF8070055
:1050500000F00F0000990870FFE7029890F89404A0
:10506000012804D1FFE702208DF80F0014E0029917
:10507000012081F89404FFE7FFE702980068009997
:105080000CF04CF9FFE70299002081F89404FFE747
:1050900000208DF80F00FFE79DF80F0004B080BDE1
:1050A00082B001908DF8031001989DF8031001F073
:1050B0000F0101EBC10100EB8100D0F8680202B0E2
:1050C0007047000080B586B004908DF80F10ADF8E1
:1050D0000C208DF80B3000208DF80A009DF80F0091
:1050E000000600280FD5FFE704989DF80F1001F087
:1050F0000F0101EBC10100EB810014300190019917
:10510000012048700FE004989DF80F1001F00F0186
:1051100001EBC10100EB810000F5157001900199D0
:1051200000204870FFE79DF80F0000F00F00019984
:105130000870BDF80C006FF3DF20019988609DF8BE
:105140000B00019908710198407820B1FFE701999F
:1051500008784883FFE79DF80B00022804D1FFE799
:10516000019900204871FFE7FFE7049890F8940444
:10517000012804D1FFE702208DF8170015E00499FB
:10518000012081F89404FFE7FFE704980068019983
:105190000BF026FDFFE70499002081F89404FFE757
:1051A0009DF80A008DF81700FFE79DF8170006B07C
:1051B00080BD000080B586B005908DF81310039275
:1051C000029305989DF8131001F00F0101EBC10146
:1051D00000EB810000F51570019003980199C860FB
:1051E000029801990861019900204861019948706D
:1051F0009DF8130000F00F00019908700598807960
:10520000012804D1FFE703980199C861FFE7059AD7
:105210001068019992790CF025F9002006B080BD44
:1052200080B584B002908DF807109DF8070000F05B
:105230000F0002990979884204D9FFE701208DF80F
:105240000F0058E09DF80700000600280FD5FFE783
:1052500002989DF8071001F00F0101EBC10100EB6E
:105260008100143000900099012048700DE00298F0
:105270009DF8071001EBC10100EB810000F51570EE
:105280000090009900204870FFE700990120887085
:105290009DF8070000F00F0000990870FFE70298E2
:1052A00090F89404012804D1FFE702208DF80F0044
:1052B00021E00299012081F89404FFE7FFE70298BA
:1052C000006800990CF07AF89DF80700000740B9D3
:1052D000FFE7029A1068917902F29C420BF0CEFF30
:1052E000FFE7FFE70299002081F89404FFE7002020
:1052F0008DF80F00FFE79DF80F0004B080BD00009F
:1053000080B586B005908DF813100392029305982E
:105310009DF8131001F00F0101EBC10100EB8100BA
:105320001430019003980199C860029801990861AE
:105330000199002048610199012048709DF81300EF
:1053400000F00F000199087005988079012804D1B8
:10535000FFE703980199C861FFE7059A1068019972
:1053600092790CF07FF8002006B080BD80B58CB03B
:105370000B900B9800680A900A9809900B980068A7
:105380000CF0A2FB002840F00B84FFE70B980068AC
:105390000CF006FC10B9FFE700F002BC0998D0F849
:1053A0000808C0F30D200B99C1F8D4040B980068CD
:1053B0000CF0F6FB8007002807D5FFE70B98016883
:1053C000486900F002004861FFE70B9800680CF0A4
:1053D000E7FBC006002862D5FFE70B9801688869E3
:1053E00020F0100088610A98006A02900B980299D8
:1053F00001F00F0101EBC10100EB810000F5157018
:105400000890029800F4F0110220B0EB514F23D124
:10541000FFE7BDF8080047F6F07108421BD0FFE730
:105420000A980899C968029AC2F30A120CF0C6FBDE
:10543000029847F6F07100EA0103089AD06800EB81
:105440001310D060029800EA01020899486900EB45
:1054500012104861FFE71BE0029800F4F0110620EB
:10546000B0EB514F12D1FFE70A980B9901F29C4122
:1054700008220CF0A3FB029847F6F07100EA010243
:105480000899486900EB1210486100E0FFE7FFE768
:105490000B980168886940F010008861FFE70B985D
:1054A00000680CF07DFB0003002840F1A680FFE7B8
:1054B000002004900B9800680CF020FB0690FFE79A
:1054C0000698002800F09880FFE79DF81800C007B4
:1054D000002800F08A80FFE70B9800689DF8101004
:1054E0000CF046FB05909DF81400C00760B1FFE783
:1054F0000998049900EB41110120C1F8080B0B98A1
:10550000049905F0F9FFFFE79DF814000007002853
:105510000CD5FFE70998049900EB41110820C1F868
:10552000080B0B98049905F0A1FFFFE79DF8140004
:10553000C006002808D5FFE70998049900EB41113F
:105540001020C1F8080BFFE79DF814008007002821
:105550002DD5FFE70A9840690006002808D5FFE727
:105560000999D1F8040840F48060C1F80408FFE705
:105570000B98049901EBC10100EB810000F5157057
:1055800008900898C078012809D1FFE70899002001
:10559000C8700B989DF8101000F012FBFFE70998F7
:1055A000049900EB41110220C1F8080BFFE79DF8B8
:1055B00014008006002808D5FFE70998049900EB3D
:1055C00041112020C1F8080BFFE79DF81500800667
:1055D000002809D5FFE70998049900EB41114FF421
:1055E0000050C1F8080BFFE7FFE704980130049072
:1055F00006984008069063E7FFE70B9800680CF0F8
:10560000CFFA4003002840F1C680FFE70B980068FE
:105610000CF062FA069000200490FFE7069800283C
:1056200000F0B880FFE79DF81800C007002800F0E0
:10563000AA80FFE70B9800689DF810100CF070FA34
:1056400005909DF81400C00700283ED0FFE704989D
:1056500000F00F01012000FA01F10391039B099A68
:10566000D2F834189943C2F834180999049A01EB16
:105670004211C1F808090B98807901281FD1FFE772
:105680000B98049901EBC10100EB8101CA69086A1A
:1056900010440862049888B9FFE70B98049901EB5D
:1056A000C10100EB8100406A40B9FFE70B9908682F
:1056B00001F29C4201210BF0E1FDFFE7FFE70B98AF
:1056C0009DF81010FFF7D2FBFFE79DF814000007CC
:1056D000002808D5FFE70998049900EB411108203C
:1056E000C1F80809FFE79DF81400C006002808D596
:1056F000FFE70998049900EB41111020C1F808094F
:10570000FFE79DF814004006002808D5FFE7099838
:10571000049900EB41114020C1F80809FFE79DF80A
:1057200014008007002822D5FFE70A9804990CF09E
:1057300067F90B98049901EBC10100EB810014306B
:1057400008900898C078012809D1FFE7089900203F
:10575000C8700B989DF8101000F024FAFFE7099824
:10576000049900EB41110220C1F80809FFE79DF8F8
:1057700014000006002805D5FFE70B98049905F0F2
:105780009FFFFFE7FFE70498013004900698400868
:10579000069043E7FFE70B9800680CF001FAC00F92
:1057A00000B3FFE70999D1F8040820F00100C1F81F
:1057B00004080B9890F8CC04012808D1FFE70B9857
:1057C000002180F8CC140B98FFF7E6FA03E00B9861
:1057D00000F0A8FBFFE70B980168486900F0004063
:1057E0004861FFE70B9800680CF0DAF90005002823
:1057F00011D5FFE70998D0F80808C00720B1FFE7E6
:105800000B9800F01BFCFFE70B980168486900F457
:1058100000604861FFE70B9800680CF0C1F9C00414
:10582000002840F18680FFE70999D1F8040820F0AC
:105830000100C1F804080B98006810210CF0E0F892
:1058400000200790FFE707980B990979884231D229
:10585000FFE70998079900EB41114FF67F30C1F837
:1058600008090999079A01EB4212D2F8001921F4AC
:105870000011C2F800190999079A01EB4211C1F809
:10588000080B0998079900EB4111D1F8000B20F49F
:105890000010C1F8000B0998079900EB4111D1F8ED
:1058A000000B40F00060C1F8000BFFE707980130E3
:1058B0000790C8E70999D1F81C0840F00110C1F819
:1058C0001C080B98C07B78B1FFE70999D1F88408D0
:1058D00040F00B00C1F884080999D1F8440840F061
:1058E0000B00C1F844080FE00999D1F8140842F2FE
:1058F0002B021043C1F814080999D1F8100840F0A0
:105900000B00C1F81008FFE70999D1F8000820F44E
:10591000FE60C1F800080B9A1068917902F29C426F
:105920000BF0ACFC0B980168486900F480504861AA
:10593000FFE70B9800680CF033F9800400281FD5AE
:10594000FFE70B9800680BF0BBF90B9800680CF0B0
:1059500095F80B99C8710B980068019000F0EAFC6B
:10596000014601980B9AD2790CF020FA0B9800F0BE
:10597000AFFA0B980168486900F400504861FFE7EE
:105980000B9800680CF00CF9000700280AD5FFE717
:105990000B9800F0D1FA0B980168486900F00800F4
:1059A0004861FFE70B9800680CF0FAF80006002841
:1059B00025D5FFE70A99886920F0800088610120D9
:1059C0000490FFE704980B990979884216D2FFE703
:1059D0000B98049901EBC10100EB810090F857028C
:1059E000012806D1FFE70B989DF81010FFF770FA19
:1059F000FFE7FFE7049801300490E3E7FFE70B9827
:105A000000680CF0CDF8C00200283CD5FFE701206B
:105A10000490FFE704980B99097988422CD2FFE79C
:105A20000998049900EB4110D0F8000902900B98F6
:105A3000049901EBC10100EB8100007E012816D121
:105A4000FFE79DF80B000006002810D5FFE70B9834
:105A5000049901EBC10100EB81010120C8750B988D
:105A60009DF8101041F08001FFF732FAFFE7FFE7E1
:105A7000049801300490CDE70B980168486900F460
:105A800080104861FFE70B9800680CF089F88002ED
:105A9000002855D5FFE701200490FFE704980B99F3
:105AA0000979884245D2FFE70998049900EB411033
:105AB000D0F8000B02900B98049901EBC10100EBA8
:105AC000810090F8580201282ED1FFE79DF80B00C5
:105AD0000006002828D5FFE7029800F480300B99D3
