:020000040800F2
:10000000A01100209D010008B1520008694C0008B1
:10001000AD520008E50700084D7900080000000017
:100020000000000000000000000000003968000827
:100030003D1200080000000021550008E56C000892
:10004000B7010008B7010008B7010008B7010008B0
:10005000B7010008B7010008B7010008B7010008A0
:10006000B7010008B7010008B7010008B701000890
:1000700055100008B7010008B7010008B7010008D3
:10008000B7010008B7010008B7010008B701000870
:10009000E9070008B7010008B7010008B701000828
:1000A000BD6D0008B7010008B7010008B7010008DE
:1000B000CD6D0008B7010008DD6D0008B70100082C
:1000C000B7010008B7010008B7010008B701000830
:1000D000B701000899770008B7010008B577000854
:1000E000B7010008B7010008B7010008B701000810
:1000F000B7010008B7010008B7010008B701000800
:10010000B7010008B7010008B7010008B7010008EF
:10011000B7010008B7010008ED6D0008B70100083D
:1001200065100008B7010008751000088510000868
:10013000B7010008B7010008B7010008B7010008BF
:10014000F9070008B7010008B7010008B701000867
:10015000B701000895100008B7010008ED77000806
:10016000B7010008B7010008B7010008B70100088F
:10017000B7010008B7010008B7010008000000003F
:10018000B7010008B7010008DFF80CD000F09AFAB8
:1001900000480047197B0008A0110020064880474E
:1001A00006480047FEE7FEE7FEE7FEE7FEE7FEE75C
:1001B000FEE7FEE7FEE7FEE7A96D000889010008FB
:1001C0002DE9F05F0546002092469B46884606468C
:1001D000814640241BE0284641464746224600F01F
:1001E000BAF953465A46C01A914110D311461846DF
:1001F000224600F0A1F92D1A67EB01084F4622466E
:100200000120002100F098F917EB00094E41201E53
:10021000A4F10104DFDC484631462A464346BDE8E6
:10022000F09F40EA01039B0703D009E008C9121FB1
:1002300008C0042AFAD203E011F8013B00F8013BA0
:10024000521EF9D27047D2B201E000F8012B491ECC
:10025000FBD270470022F6E710B513460A46044663
:100260001946FFF7F0FF204610BD2DE9FE4F8046EE
:1002700081EA0300C00F0C46009021F0004123F0FA
:100280000045B8EB0200A94105D240462146904600
:100290001C460B46024623F00040104347D0270D72
:1002A000C7F30A00C3F30A510290401A0190402894
:1002B0006BDAC3F3130040F4801B0098924620B120
:1002C0000023D2EB030A63EB0B0B01985946C0F1F4
:1002D0004002504600F030F906460D465046594659
:1002E000019A00F048F910EB08006141002487EA08
:1002F000115284EAE7731A4340D0009A62B3019A1C
:10030000012A4FEA075215DC001B61EB02014FF096
:10031000004202EA0752CDE90042001C41F580117B
:1003200032462B4600F07FF903B0BDE8F08F40461F
:100330002146F9E7001B61EB0201001C41F5801327
:1003400000185B412018A2F5001747EB030140EAB3
:10035000D570B6196D4111E06D084FEA360645EAD1
:10036000C0754FEA0752001B61EB0201001C41F50A
:10037000801149084FEA30000019514132462B469E
:1003800003B0BDE8F04F00F03FB9009801224000F3
:100390000023D0EB020263EBE073009821464FEAA2
:1003A000E074B8EB000061EB0401E9E783F000437F
:1003B0005BE781F0004158E72DE9FE4F81EA030435
:1003C00004F0004421F0004100944FF0000B23F0B2
:1003D000004350EA01045ED052EA03045BD0C3F349
:1003E0000A54C1F30A552C44A4F2F3340194A0FB3F
:1003F0000254C1F3130141F48011C3F3130343F416
:10040000801301FB024400FB034E840A970A44EA6E
:10041000815447EA8357A4FB076802958D0A05FBC0
:1004200007854FEA932C04FB0C542705029D4FEAE5
:10043000065847EA1637B5EB08056EEB070C870E32
:10044000920E47EA811742EA8312A7FB0201B6EB3C
:100450000B0164EB00042B0D43EA0C335E1844EBF4
:100460001C50DA465146E7FB0201C5F313044FEA7C
:100470000B3343EA14534FEA0432019C43EA060368
:10048000A4F10C040294009CCDE900B400F0CBF878
:1004900003B0BDE8F08F00200146F9E730B4044610
:1004A00096230800214604D0B62330BC002200F079
:1004B0007DB820460021F8E70EB5C10F80EAE07054
:1004C0000844CA07002140F233438DE80E000A4673
:1004D0000B4600F0A8F803B000BD00F0004230F079
:1004E00000400AD0C10D01F56071C0F3160042EA68
:1004F0000151C20840071143704700200146704770
:1005000001F0004330B421F0004150EA010206D06E
:100510000A0DA2F56072C1F31301002A02DC30BC9F
:1005200000207047440F44EAC104C100E01830BC09
:1005300000EBC25000F031B8202A04DB203A00FA68
:1005400002F1002070479140C2F1200320FA03F32A
:10055000194390407047202A04DB203A21FA02F028
:100560000021704721FA02F3D040C2F120029140ED
:10057000084319467047202A06DBCB17203A41FA78
:1005800002F043EAE07306E041FA02F3D040C2F120
:10059000200291400843194670470029A8BF7047C0
:1005A000401C490008BF20F00100704710B4B0FAA9
:1005B00080FC00FA0CF050EA010404BF10BC704744
:1005C00049B1CCF1200421FA04F411FA0CF118BF5E
:1005D000012121430843A3EB0C01CB1D4FEA00612D
:1005E0004FEA102042BF002010BC704700EBC35000
:1005F00010440029A4BF10BC7047401C490008BF2C
:1006000020F0010010BC704710B5141E73F10004F7
:1006100008DA401C41F1000192185B411A4301D1F4
:1006200020F0010010BD2DE9F04D92469B4611B11E
:10063000B1FA81F202E0B0FA80F220329046FFF780
:100640007BFF04460F4640EA0A0041EA0B0153468D
:100650005A46084313D0114653EA010019D0C8F195
:1006600040025046FFF777FF05460E465046594672
:100670004246FFF761FF084305D0012004E0204611
:100680003946BDE8F08D0020054346EAE0762C436C
:1006900037430A986305E40AA0EB08000022FD0A2C
:1006A00044EA47540A3002D500200146E9E7010533
:1006B00010196941DDE9084500196941BDE8F04DAF
:1006C000A2E70000064C074D06E0E06840F0010399
:1006D00094E8070098471034AC42F6D3FFF758FD72
:1006E0001C8000083C80000880B586B0059040F270
:1006F000A830C2F20000039090ED210A8DED000AAF
:1007000090ED4E0A07F0F0F90398B0EE401A9DED17
:10071000000A30EE010A8DED010A90ED7B0A07F028
:10072000E3F90398B0EE401A9DED010A30EE010A9C
:100730008DED020A90EDA80A07F0D6F9B0EE401A46
:100740009DED020A30EE010A07F0CEF903998DED16
:10075000040A9DED050AB8EEC00A91ED211A9DED3F
:10076000042A81EE021A20EE010ABDEEC00A10EE44
:10077000100A08849DED050AB8EEC00A91ED4E1AE4
:100780009DED042A81EE021A20EE010ABDEEC00A98
:1007900010EE100AA1F8D4009DED050AB8EEC00ACB
:1007A00091ED7B1A9DED042A81EE021A20EE010ADA
:1007B000BDEEC00A10EE100AA1F888019DED050AF1
:1007C000B8EEC00A91EDA81A9DED042A81EE021A36
:1007D00020EE010ABDEEC00A10EE100AA1F83C029C
:1007E00006B080BDFFE7FEE780B540F62800C2F204
:1007F000000001F037F880BD80B540F65000C2F22D
:10080000000001F02FF880BD80B588B007900691F8
:100810000798006846F20041C4F2000188425DD1A9
:10082000FFE70698059040F20121884216D0FFE7C5
:10083000059840F2022188421BD0FFE7059840F25C
:100840000321884221D0FFE70598B0F5017F29D028
:10085000FFE70598B0F5107F31D03DE040F2A830B9
:10086000C2F2000040F22C11C2F2000104F0FEF9C5
:1008700033E040F2A830C2F20000B43040F22C1154
:10088000C2F2000104F0F2F927E040F2A830C2F20F
:10089000000000F5B47040F22C11C2F2000104F027
:1008A000E5F91AE040F2A830C2F2000000F5077046
:1008B00040F22C11C2F2000104F0D8F90DE040F62C
:1008C0000800C2F2000000F1080140F22C10C2F250
:1008D000000000F03DFAFFE7FFE7FFE70798006838
:1008E00046F60001C4F20001884258D1FFE706989D
:1008F000A0F203200146049108284ED80499DFE8AD
:1009000001F03B4C4C4C2F24144C050040F2786015
:10091000C2F20000039040F22C11C2F2000104F078
:10092000A5F9039804F0C6F938E040F27860C2F205
:100930000000B430029040F22C11C2F2000104F029
:1009400095F9029804F0B6F928E040F28C10C2F252
:10095000000040F22C11C2F2000104F087F91DE002
:1009600040F28C10C2F20000B43040F22C11C2F2FE
:10097000000104F07BF911E040F28C10C2F200009B
:1009800000F5B470019040F22C11C2F2000104F0A5
:100990006DF9019804F08EF900E0FFE7FFE708B079
:1009A00080BD000010B58EB08C4686461198109917
:1009B000CDF834E0ADF832C0ADF83020ADF82E30CF
:1009C000ADF82C10ADF82A0000200190BDF93210CE
:1009D0000491059008210891069007909DF8310038
:1009E0008DF808009DF830008DF809009DF82F0063
:1009F0008DF80A009DF82E008DF80B009DF82D0053
:100A00008DF80C009DF82C008DF80D009DF82B0042
:100A10008DF80E009DF82A008DF80F000D9804A99E
:100A200002AA01AB00F098FC0EB010BD80B58AB0F0
:100A30000121089100200490009001900290039001
:100A4000069007910E210991059040F62800C2F208
:100A50000000694600F038FD18B1FFE700F0F0FB38
:100A6000FFE740F62800C2F2000001F0D1FA18B109
:100A7000FFE700F0E5FBFFE740F62800C2F20000C8
:100A8000022100F03FFC18B1FFE700F0D9FBFFE7BF
:100A900040F62800C2F20000012100F033FC18B13A
:100AA000FFE700F0CDFBFFE70E200990059040F630
:100AB0005000C2F20000694600F006FD18B1FFE7E1
:100AC00000F0BEFBFFE740F65000C2F2000001F06C
:100AD0009FFA18B1FFE700F0B3FBFFE740F65000C4
:100AE000C2F20000022100F00DFC18B1FFE700F097
:100AF000A7FBFFE740F65000C2F20000012100F022
:100B000001FC18B1FFE700F09BFBFFE70AB080BDD6
:100B100080B594B01390129100200290ADF8460079
:100B200010900F900E904FF07E510D9147F6146289
:100B3000C0F60002116852680C920B91099008905F
:100B400007900690059004901298B0F9020000EE0C
:100B5000100AB8EEC00A9DED0D1A20EE010A8DEDC7
:100B6000100A1298B0F9040000EE100AB8EEC00A9C
:100B70009DED0D1A20EE010A8DED0F0A9DED100A74
:100B80009DED0F1A30EE010A9DED0E2A9DED0B3AF8
:100B90009DED0C1A22EE032A30EE420A20EE010AE5
:100BA00010EE100AFFF799FC41EC110B9DED040BC0
:100BB00053EC112B51EC100BFFF757FB41EC100BD2
:100BC00051EC100BFFF79CFC139988619DED101AF6
:100BD0009DED0F0A30EE410A9DED0E2A9DED0B3A78
:100BE0009DED0C1A22EE032A30EE420A20EE010A95
:100BF00010EE100AFFF771FC41EC110B9DED040B98
:100C000053EC112B51EC100BFFF72FFB41EC100BA9
:100C100051EC100BFFF774FC1399C1F8CC009DED5B
:100C2000100AB1EE400A9DED0F1A30EE410A9DED1B
:100C30000E2A9DED0B3A9DED0C1A22EE032A30EEA2
:100C4000420A20EE010A10EE100AFFF746FC41ECC2
:100C5000110B9DED040B53EC112B51EC100BFFF716
:100C600004FB41EC100B51EC100BFFF749FC1399FE
:100C7000C1F880019DED100A9DED0F1A30EE410A7A
:100C80009DED0E2A9DED0B3A9DED0C1A22EE032AE6
:100C900030EE420A20EE010A10EE100AFFF71DFCAA
:100CA00041EC110B9DED040B53EC112B51EC100B8F
:100CB000FFF7DBFA41EC100B51EC100BFFF720FCB7
:100CC0001399C1F83402139804F00CFC1398B43053
:100CD00004F008FC139800F5B47004F003FC1398BA
:100CE00000F5077004F0FEFB02980390FFE70398FD
:100CF000032828DCFFE7139A0398B42100FB0120A6
:100D0000B0F92000012809DBFFE7139A0398B4210A
:100D100000FB0120B0F92000019009E0139A03982C
:100D2000B42100FB0120B0F9200040420190FFE710
:100D30000199BDF846000844ADF84600FFE7039866
:100D400001300390D3E7BDF9460014B080BD000028
:100D500083B0029001910020ADF802000298008853
:100D6000000400BA00EE100AB8EEC00A40F608000F
:100D7000C2F2000080ED030A90ED030A9FED1A1AFB
:100D800020EE010A80ED030A02998A78C97841EAC7
:100D90000221ADF80210BDF9021000EE101AB8EEF3
:100DA000C00A80ED040A90ED040A9FED101A20EEAF
:100DB000010A80ED040A02998A79C97941EA02217F
:100DC000818290ED040A40F6C841C2F20001B1F8F8
:100DD000431001EE101AB8EEC11A30EE410A80ED50
:100DE000060A03B0704700BFCDCCCC3D0AD7233CE8
:100DF00080B584B08DF80F008DF80E10ADF80C2082
:100E00009DF80F0000EE100AB8EE400A9FED251A7B
:100E100080EE010A9FED241A20EE010A40F6C04040
:100E2000C2F20000029080ED000A90ED001A9FEDE2
:100E30001F0ADFED1F0A05F001FD029880ED000A90
:100E400040F6C840C2F2000090F8431040F6080097
:100E5000C2F2000041709DF80F1001709DF80E1055
:100E6000C170BDF80C10323981700121417140F21E
:100E70006C11C2F20001C968C1F340710171B0F98F
:100E80000020B0F90230B0F9040069464B600860F8
:100E900040F65000C2F200004FF40171FFF782FDEE
:100EA00004B080BD0000704200007A430000484357
:100EB0000000344281B0009040F26C10C2F2000099
:100EC0004168C1F30131009A11734168C1F3813166
:100ED000009A517301686FF3DF21A1F58061009AD8
:100EE00051800168C1F3CA21A1F58061009A918007
:100EF00001684268890D41EA82216FF3DF21A1F583
:100F00008061009AD1804168C1F34A01A1F58061F6
:100F1000009A1181018A6FF3DF21A1F58061009AA7
:100F20005181817B01F00103009A92F82A1001F0AF
:100F3000F001194482F82A10C168C1F34043009AB5
:100F400092F82A1001F00F0141EA031182F82A10E9
:100F5000C168C1F38043009A92F82B1001F0F001B0
:100F6000194482F82B10C168C1F3C043009A92F86B
:100F70002B1001F00F0141EA031182F82B10C16818
:100F8000C1F30053009A92F82C1001F0F0011944BB
:100F900082F82C10C168C1F38053009A92F82D108A
:100FA00001F0F001194482F82D10C168C1F3C0535B
:100FB000009A92F82D1001F00F0141EA031182F816
:100FC0002D10C168C1F38073009A92F8311001F0BE
:100FD000F001194482F83110C268102101EAD2638D
:100FE000009A92F8311001F00F01194482F8311083
:100FF000C168C1F3C063009A92F82F1001F00F018D
:1010000041EA031182F82F10C168C1F30073009AFE
:1010100092F8301001F0F001194482F83010C168E4
:10102000C1F34073009A92F8301001F00F0141EAC9
:10103000031182F83010C068C0F34052009991F853
:101040002C0000F00F0040EA021081F82C0001B0E3
:101050007047000080B540F63810C2F2000001F081
:10106000D1F880BD80B540F67800C2F2000001F0F2
:10107000C9F880BD80B540F69810C2F2000001F0BA
:10108000C1F880BD80B540F6D800C2F2000001F082
:10109000B9F880BD80B540F6F810C2F2000001F04A
:1010A000B1F880BD82B001900198007810384AF6FE
:1010B000AB21CAF6AA21A0FB0110000900900099FB
:1010C00047F60C60C0F60000405C0199C8650098C6
:1010D000042807D3FFE701990868042262F3090096
:1010E000886506E00199086840F2FF329043886500
:1010F000FFE70198806D02B07047000086B0059050
:1011000000208DF813000598806A03900598806987
:1011100010BBFFE70398029003281BD80299DFE871
:1011200001F0020D0218059890F82F00C00720B1B9
:10113000FFE701208DF81300FFE70CE00598C06A77
:10114000B0F1C07F04D1FFE701208DF81300FFE765
:1011500001E000E0FFE745E005988069B0F5005F39
:1011600025D1FFE70398019003281ED80199DFE8F5
:1011700001F00206021101208DF8130016E0059817
:1011800090F82F00C00720B1FFE701208DF8130071
:10119000FFE70BE00598C06AB0F1C07F04D1FFE71C
:1011A00001208DF81300FFE700E0FFE719E0039846
:1011B0000090032804D3FFE70098032804D00EE032
:1011C00001208DF813000BE0059890F82F00C00760
:1011D00020B1FFE701208DF81300FFE700E0FFE7F3
:1011E000FFE7FFE79DF8130006B0704784B0039057
:1011F00002910192009303980168086820F480200E
:10120000086000980399096848600398806840283E
:1012100009D1FFE70198039909688860029803994A
:101220000968C86008E00298039909688860019815
:1012300003990968C860FFE704B070477047000071
:1012400081B0EFF3108072B60090FFE7FEE7000078
:1012500084B002900191ADF80220029828B9FFE70E
:101260004FF6FF70ADF80E0021E0FFE70198411E38
:101270000191B8B1FFE70298411C029100788DF806
:101280000100BDF802109DF801004840C2B247F6C7
:101290001C60C0F6000030F8120080EA1120ADF8A2
:1012A0000200E3E7BDF80200ADF80E00FFE7BDF86D
:1012B0000E0004B07047000082B00190ADF802103B
:1012C0008DF80120FFE7BDF80200411EADF80210C5
:1012D00098B1FFE79DF8010001994A1C0192097835
:1012E00048408DF800009DF8001047F60C50C0F6FD
:1012F0000000405C8DF80100E5E79DF8010002B0B8
:101300007047000084B002900191029890F820008C
:101310008DF803009DF80300012805D0FFE79DF834
:10132000030002280AD1FFE7019A02980168486980
:101330001043486100208DF80F0008E00299486AC8
:1013400040F48020486201208DF80F00FFE79DF8EF
:101350000F0004B07047000088B006900591049219
:101360000393069890F820008DF80700069800680F
:10137000806800900598806808B9FFE700E0FFE703
:101380009DF80700012806D0FFE79DF80700022816
:1013900040F08D80FFE79DF80300400700280CD443
:1013A000FFE79DF803000007002806D4FFE79DF83B
:1013B0000300C006002871D5FFE70098C0F3016064
:1013C00002900298032809D3FFE70699486A40F47F
:1013D0000000486201208DF81F0071E00299012091
:1013E0008840039908600598806868B9FFE7059808
:1013F0000168C06840EA415006990968029A01EB09
:101400000211C1F880010EE005994A688868C96830
:1014100040EAC200084306990968029A01EB0211EA
:10142000C1F88001FFE70598006906990968029AEA
:1014300001EB0211C1F884010598007D01280CD14F
:10144000FFE706980068029900EB0111D1F88401CA
:1014500040F48070C1F88401FFE704984068069961
:101460000968029A01EB0211C1F88C010498006826
:1014700006990968029A01EB0211C1F888010698E1
:101480000068029900EB0111D1F8800140F00100E1
:10149000C1F8800100208DF81F0011E00699486A0C
:1014A00040F40010486201208DF81F0008E0069902
:1014B000486A40F48020486201208DF81F00FFE751
:1014C0009DF81F0008B0704786B0049003910498FF
:1014D00000680190049890F820008DF803009DF8B2
:1014E0000300012806D0FFE79DF80300022840F022
:1014F000B080FFE746F20040C4F20000019001997D
:10150000D1F8000240F00100C1F800020199D1F8C1
:10151000000220F47C50C1F800020398426A01994D
:10152000D1F8000240EA0220C1F8000203984069A5
:1015300000F01F01012088400290029A0199D1F821
:101540001C029043C1F81C020398C069F0B9FFE780
:10155000029A0199D1F80C029043C1F80C02039A47
:101560009088D168526940EA0140019901EBC201BB
:10157000C1F84002039A10889168526940EA01401C
:10158000019901EBC201C1F84402FFE70398C06969
:1015900001281ED1FFE7029A0199D1F80C021043ED
:1015A000C1F80C02039A90881168526940EA014020
:1015B000019901EBC201C1F84002039A9089916838
:1015C000526940EA0140019901EBC201C1F84402AD
:1015D000FFE70398806940B9FFE7029A0199D1F8C3
:1015E00004029043C1F8040207E0029A0199D1F87D
:1015F00004021043C1F80402FFE70398006940B9F0
:10160000FFE7029A0199D1F814029043C1F814023D
:1016100007E0029A0199D1F814021043C1F81402AC
:10162000FFE70398006A012808D1FFE7029A0199B1
:10163000D1F81C021043C1F81C02FFE70199D1F850
:10164000000220F00100C1F8000200208DF8170010
:1016500008E00499486A40F48020486201208DF82F
:101660001700FFE79DF8170006B0704781B00090A3
:1016700001B0704786B004900391029201930498E0
:1016800090F820008DF803009DF80300012806D093
:10169000FFE79DF80300022840F0D780FFE703989A
:1016A00080B9FFE704980068C068800748B9FFE781
:1016B0000499486A40F40010486201208DF8170030
:1016C000CCE00FE0049800680069800748B9FFE7A4
:1016D0000499486A40F40010486201208DF8170010
:1016E000BCE0FFE704980068039900EB0110D0F814
:1016F000B00100F00400029988600298806858B92F
:10170000FFE704980068039900EB0110D0F8B001DE
:10171000400D029908600AE004980068039900EB04
:101720000110D0F8B001C00802994860FFE70498A2
:101730000068039900EB0110D0F8B00100F002003E
:101740000299C86004980068039900EB0110D0F872
:10175000B40100F00F000299086104980068039931
:1017600000EB0110D0F8B40180B2000A0299886140
:1017700004980068039900EB0110D0F8B401000C44
:101780000299486104980068039900EB0110D0F8B1
:10179000B8010199087004980068039900EB0110E2
:1017A000D0F8B801000A01994870049800680399BC
:1017B00000EB0110D0F8B801000C01998870049872
:1017C0000068039900EB0110D0F8B801000E0199F0
:1017D000C87004980068039900EB0110D0F8BC01B0
:1017E0000199087104980068039900EB0110D0F882
:1017F000BC01000A0199487104980068039900EB44
:101800000110D0F8BC01000C01998871049800689F
:10181000039900EB0110D0F8BC01000E0199C871CA
:10182000039838B9FFE704980168C86840F02000C1
:10183000C86006E004980168086940F0200008616B
:10184000FFE700208DF8170008E00499486A40F48B
:101850008020486201208DF81700FFE79DF81700EF
:1018600006B0704780B58AB00990002008900998AA
:1018700000684069079009980068406806900998D8
:1018800000688068059009980068C068049009980D
:1018900000680069039009980068806902909DF8CB
:1018A0001C00C007002800F09480FFE79DF814009A
:1018B000C00758B3FFE709980168012088609DF8C8
:1018C00014008007002804D5FFE7099800F0EAFB20
:1018D0001BE09DF814004007002805D5FFE7089895
:1018E00040F4006008900FE09DF814000007002805
:1018F00005D5FFE7089840F48050089003E0099868
:1019000000F0CCFBFFE7FFE7FFE7FFE79DF81500DE
:10191000C00760B3FFE7099801684FF480708860E2
:101920009DF815008007002804D5FFE7099800F00E
:10193000C1FB1BE09DF815004007002805D5FFE717
:10194000089840F4005008900FE09DF8150000073B
:10195000002805D5FFE7089840F48040089003E090
:10196000099800F0A3FBFFE7FFE7FFE7FFE79DF81B
:101970001600C00760B3FFE7099801684FF4803094
:1019800088609DF816008007002804D5FFE70998B5
:1019900000F098FB1BE09DF816004007002805D5D5
:1019A000FFE7089840F4004008900FE09DF816000B
:1019B0000007002805D5FFE7089840F4803008901C
:1019C00003E0099800F07AFBFFE7FFE7FFE7FFE796
:1019D000FFE79DF81C000007002810D5FFE79DF8E1
:1019E0001000C006002809D5FFE7089840F40070F1
:1019F0000890099801681020C860FFE7FFE79DF88C
:101A00001C00400700280FD5FFE79DF810000007D5
:101A1000002808D5FFE7099801680820C8600998E0
:101A200000F0CEFAFFE7FFE79DF81C0080070028D2
:101A30000BD5FFE709980068C068800720B1FFE771
:101A4000099800F0C1FAFFE7FFE79DF81C00400687
:101A5000002810D5FFE79DF80C00C006002809D526
:101A6000FFE7089840F4806008900998016810200A
:101A70000861FFE7FFE79DF81C00800600280FD5EE
:101A8000FFE79DF80C000007002808D5FFE709983C
:101A9000016808200861099800F0AEFAFFE7FFE747
:101AA0009DF81C00C00600280BD5FFE709980068C8
:101AB0000069800720B1FFE7099800F0A1FAFFE76D
:101AC000FFE79DF81E00800700280FD5FFE79DF86F
:101AD0001800C006002808D5FFE709980168102003
:101AE0004860099800F090FAFFE7FFE79DF81E00B4
:101AF000C00778B1FFE79DF818000007002808D557
:101B0000FFE70998016808204860099800F0DEFAAC
:101B1000FFE7FFE79DF81D000006002840F18D80DB
:101B2000FFE79DF818004007002840F18180FFE79B
:101B30009DF81D00C00750B1FFE79DF80800C007E1
:101B400028B1FFE7089840F001000890FFE79DF8F2
:101B50001D00800700280BD5FFE79DF808008007CF
:101B6000002805D5FFE7089840F002000890FFE73D
:101B70009DF81D00400700280BD5FFE79DF80800E1
:101B80004007002805D5FFE7089840F004000890BA
:101B9000FFE79DF81D000007002848D5FFE79DF8E6
:101BA000080010F0700F42D0FFE7029800F07000BC
:101BB00001460191102814D0FFE70198202815D084
:101BC000FFE70198302816D0FFE70198402817D08A
:101BD000FFE70198502818D0FFE70198602819D036
:101BE0001DE0089840F00800089019E0089840F0BF
:101BF0001000089014E0089840F0200008900FE0D2
:101C0000089840F0400008900AE0089840F08000F2
:101C1000089005E0089840F48070089000E0FFE725
:101C200009980168886920F070008861FFE7FFE784
:101C30000998016804204860FFE7089848B1FFE769
:101C4000089A0999486A104348620998FFF70EFDFF
:101C5000FFE70AB080BD000080B584B00290029812
:101C600020B9FFE701208DF80F00E0E0029890F81E
:101C7000200020B9FFE7029800F0DEF8FFE70298A5
:101C80000168086840F00100086000F07BFF0190E7
:101C9000FFE7029800684068C007A8B9FFE700F0B6
:101CA00071FF0199401A0B280DD3FFE70299486A8A
:101CB00040F4003048620299052081F8200001209C
:101CC0008DF80F00B3E0E4E702980168086820F09F
:101CD0000200086000F056FF0190FFE702980068DC
:101CE00040688007002815D5FFE700F04BFF0199F9
:101CF000401A0B280DD3FFE70299486A40F40030E0
:101D000048620299052081F8200001208DF80F001B
:101D10008DE0E3E70298007E012807D1FFE70298F3
:101D20000168086840F08000086006E002980168D9
:101D3000086820F080000860FFE70298407E0128D4
:101D400007D1FFE702980168086840F0400008608A
:101D500006E002980168086820F040000860FFE78C
:101D60000298807E012807D1FFE702980168086881
:101D700040F02000086006E002980168086820F042
:101D800020000860FFE70298C07E012807D1FFE726
:101D900002980168086820F01000086006E00298C8
:101DA0000168086840F010000860FFE70298007FB3
:101DB000012807D1FFE702980168086840F0080091
:101DC000086006E002980168086820F008000860D2
:101DD000FFE70298407F012807D1FFE702980168DA
:101DE000086840F00400086006E00298016808688E
:101DF00020F004000860FFE7029B19685A689868A1
:101E0000D3F80CC040EA0C00D3F810C040EA0C0034
:101E10005B691843013A1043C86102990020486287
:101E2000029A012182F820108DF80F00FFE79DF83B
:101E30000F0004B080BD000080B592B0119000206A
:101E400010900F900E900D900C901198006846F233
:101E50000041C4F2000188424AD1FFE740F28410F9
:101E6000C2F200000168013101600068012812D14E
:101E7000FFE7FFE700200B9043F64000C4F20200AA
:101E8000016841F000710160006800F000700B9083
:101E90000B98FFE7FFE7FFE700200A9043F63000CA
:101EA000C4F20200016841F008010160006800F01E
:101EB00008000A900A98FFE703200C900221049181
:101EC0000D91002105910E910F900920109040F680
:101ED0000040C4F202000CA900F060FC0499059ACD
:101EE0001420069000F0E6FE069800F0D9FE65E0AA
:101EF0001198006846F60001C4F2000188425CD1E6
:101F0000FFE7FFE70020099043F64000C4F202001B
:101F1000016841F080610160006800F08060099014
:101F20000998FFE740F28410C2F200000168013115
:101F300001600068012812D1FFE7FFE70020089048
:101F400043F64000C4F20200016841F000710160F4
:101F5000006800F0007008900898FFE7FFE7FFE7CF
:101F60000020079043F63000C4F20200016841F0FF
:101F700002010160006800F0020007900798FFE787
:101F800060200C90022001900D90002002900E9095
:101F900003200F900920109040F20040C4F202008C
:101FA0000CA900F0FBFB0199029A4020039000F07D
:101FB00081FE039800F074FEFFE7FFE712B080BDDA
:101FC00081B0009001B0704780B582B00190019857
:101FD00040F21012C2F20002009240F22C13C2F240
:101FE00000030021FFF746FB009901980968FEF7FE
:101FF0000BFC02B080BD000081B0009001B07047C2
:1020000081B0009001B0704781B0009001B070477E
:1020100080B584B00290029890F8200001282FD15A
:10202000FFE70299022081F8200002980168086801
:1020300020F00100086000F0A5FD0190FFE7029884
:1020400000684068C007A8B1FFE700F09BFD019958
:10205000401A0B280DD3FFE70299486A40F400307C
:1020600048620299052081F8200001208DF80F00B8
:102070000FE0E4E70299002048628DF80F0008E0C5
:102080000299486A40F40020486201208DF80F0050
:10209000FFE79DF80F0004B080BD000081B0009004
:1020A00001B0704781B0009001B0704781B00090DE
:1020B00001B0704781B0009001B0704781B00090CE
:1020C00001B0704781B0009001B0704781B00090BE
:1020D00001B0704780B584B002900298806D019085
:1020E00000F050FD0090029890F8350002280DD0C5
:1020F000FFE7029980204865FFE70299002081F8F8
:102100003400FFE701208DF80F0055E002980168C8
:10211000086820F01600086002980168486920F0FD
:10212000800048610298006C20B9FFE70298806C3B
:1021300038B1FFE702980168086820F008000860DD
:10214000FFE702980168086820F001000860FFE7D7
:10215000029800680068C007C8B1FFE700F012FDF0
:102160000099401A062811D3FFE7029920204865FC
:102170000299032081F83500FFE70299002081F8D9
:102180003400FFE703208DF80F0015E0E0E7029828
:10219000C16D3F208840019988600299012081F833
:1021A0003500FFE70299002081F83400FFE7FFE7E0
:1021B00000208DF80F00FFE79DF80F0004B080BDF0
:1021C00082B00090009890F83500022807D0FFE711
:1021D00000998020486501208DF807000EE00099E5
:1021E000052081F8350000980168086820F001009A
:1021F0000860FFE700208DF80700FFE79DF8070063
:1022000002B0704780B586B005900020039040F280
:102210000400C2F20000006848F2B511C1F64E3168
:10222000A0FB0110800A02900598806D0190019832
:102230000068049004980599C96DC84000070028FB
:102240001AD5FFE70598006800684007002812D5F6
:10225000FFE705980168086820F004000860059809
:10226000C16D08208840019988600599486D40F04B
:1022700001004865FFE7FFE704980599C96DC8406C
:10228000C007A0B1FFE70598006840690006002874
:102290000CD5FFE70598C16D012088400199886041
:1022A0000599486D40F002004865FFE7FFE7049894
:1022B0000599C96DC8404007002814D5FFE7059867
:1022C00000680068800700280CD5FFE70598C16DFD
:1022D00004208840019988600599486D40F0040009
:1022E0004865FFE7FFE704980599C96DC840C00637
:1022F000002847D5FFE70598006800680007002818
:102300003FD5FFE70598C16D10208840019988608E
:10231000059800680068400300281AD5FFE7059873
:10232000006800680003002809D4FFE70598006CE6
:1023300020B1FFE70598016C8847FFE708E00598A2
:10234000806C20B1FFE70598816C8847FFE7FFE7C5
:1023500016E0059800680068C005002807D4FFE76C
:1023600005980168086820F008000860FFE70598F4
:10237000006C20B1FFE70598016C8847FFE7FFE795
:10238000FFE7FFE704980599C96DC840800600285B
:1023900040F18D80FFE7059800680068C0060028BE
:1023A00040F18480FFE70598C16D202088400199A5
:1023B0008860059890F83500052834D1FFE7059826
:1023C0000168086820F016000860059801684869EF
:1023D00020F0800048610598006C20B9FFE705985F
:1023E000806C38B1FFE705980168086820F00800A4
:1023F0000860FFE70598C16D3F208840019988601B
:102400000599012081F83500FFE70599002081F842
:102410003400FFE70598006D20B1FFE70598016DD6
:102420008847FFE77BE005980068006840030028C4
:102430001AD5FFE70598006800680003002809D452
:10244000FFE70598406C20B1FFE70598416C88478D
:10245000FFE708E00598C06B20B1FFE70598C16B66
:102460008847FFE7FFE720E0059800680068C0059F
:10247000002811D4FFE705980168086820F01000D3
:1024800008600599012081F83500FFE705990020D3
:1024900081F83400FFE7FFE70598C06B20B1FFE744
:1024A0000598C16B8847FFE7FFE7FFE7FFE705985F
:1024B000406DA0B3FFE70598406DC00730B3FFE75C
:1024C0000599052081F8350005980168086820F015
:1024D00001000860FFE703980130039002998842E9
:1024E00001D9FFE707E0FFE7059800680068C0072B
:1024F0000028F0D1FFE70599012081F83500FFE7BA
:102500000599002081F83400FFE7FFE70598C06CCB
:1025100020B1FFE70598C16C8847FFE7FFE706B0E9
:1025200080BD000080B586B004900020039000F0CC
:1025300029FB0290049820B9FFE701208DF81700CD
:10254000A3E00498406A08B1FFE7FFE7049902207E
:1025500081F83500FFE70499002081F83400FFE797
:1025600004980168086820F001000860FFE70498FB
:1025700000680068C00790B1FFE700F003FB029914
:10258000401A06280AD3FFE70499202048650499D9
:10259000032081F835008DF8170076E0E7E704980E
:1025A000006800680390039848F23F01CFF21001E1
:1025B00008400390049900914868D1F808C0CB689E
:1025C0000A6940EA0C00184310434A6910438A69BB
:1025D0001043CA691043096A0143039808430390F2
:1025E0000498406A042808D1FFE70499C86A096B77
:1025F0000143039808430390FFE70398049909688F
:1026000008600498006840690390039820F0070070
:1026100003900498416A0398084303900498406A21
:1026200004281AD1FFE70498816A039808430390AD
:102630000498C06A80B1FFE70498FEF75FFD50B1CF
:10264000FFE70499402048650499012081F835008E
:102650008DF8170019E0FFE7FFE703980499096870
:1026600048610498FEF71EFD01900498C16D3F205B
:10267000884001998860049900204865049A0121E6
:1026800082F835108DF81700FFE79DF8170006B0A7
:1026900080BD000080B588B0069005910492039338
:1026A00000208DF80B000698806D0190FFE70698DA
:1026B00090F83400012804D1FFE702208DF81F00B4
:1026C00045E00699012081F83400FFE7FFE706980E
:1026D00090F8350001282BD1FFE70699022081F8F8
:1026E000350006990020486506980599049A039BD1
:1026F000FEF77CFD0698C16D3F20884001998860F7
:1027000006980168086840F0160008600698006C9A
:1027100038B1FFE706980168086840F008000860D3
:10272000FFE706980168086840F00100086009E0CA
:10273000FFE70699002081F83400FFE702208DF8BA
:102740000B00FFE79DF80B008DF81F00FFE79DF8D9
:102750001F0008B080BD000080B584B0039000F079
:1027600011FA0290039801900198013048B1FFE7F7
:1027700040F20800C2F2000001780198084401907C
:10278000FFE7FFE700F0FEF90299401A019988423D
:1027900001D2FFE7F6E704B080BD00008EB00D90D7
:1027A0000C9100200A90099008900B90FFE70B987D
:1027B0000F2800F2CC81FFE70B99012088400A9096
:1027C0000C9800680A990840099009980A9988426B
:1027D00040F0B881FFE70C98406800F00300012842
:1027E00007D0FFE70C98406800F0030002282FD1C3
:1027F000FFE70D98806808900B984100032000FACD
:1028000001F10898884308900C98C0680B9949001A
:1028100000FA01F108980843089008980D9988601B
:102820000D98406808900B99012000FA01F1089872
:10283000884308900C984068C0F300100B9900FA88
:1028400001F108980843089008980D994860FFE73F
:102850000C98406800F00300032818D0FFE70D989B
:10286000C06808900B984100032000FA01F1089815
:10287000884308900C9880680B99490000FA01F190
:1028800008980843089008980D99C860FFE70C98CD
:10289000406800F00300022826D1FFE70D980B994D
:1028A0006FF0030202EA51010844006A08900B9895
:1028B00000F0070081000F2000FA01F1089888431A
:1028C00008900C9800690B9901F00701890000FA43
:1028D00001F108980843089008980D990B9B02EAAB
:1028E000530211440862FFE70D98006808900B98A6
:1028F0004100032000FA01F10898884308900C98E1
:10290000406800F003000B99490000FA01F10898B3
:102910000843089008980D9908600C988079800702
:10292000002800F00E81FFE7FFE70020079043F644
:102930004400C4F20200016841F480410160006873
:1029400000F4804007900798FFE70B9820F0030001
:1029500043F60801C4F20101405808900B9800F0BA
:10296000030081000F2000FA01F1089888430890C5
:102970000D980021C4F20201884203D1FFE7002034
:1029800006905EE00D9840F20041C4F202018842D8
:1029900003D1FFE70120059050E00D9840F60001BB
:1029A000C4F20201884203D1FFE70220049042E012
:1029B0000D9840F60041C4F20201884203D1FFE7BE
:1029C0000320039034E00D9841F20001C4F20201AB
:1029D000884203D1FFE70420029026E00D9841F2DF
:1029E0000041C4F20201884203D1FFE705200190B3
:1029F00018E00D9841F60001C4F20201884203D1AB
:102A0000FFE7062000900AE00D9941F60042C4F26B
:102A100002020820914208BF07200090FFE70098BB
:102A20000190FFE701980290FFE702980390FFE70B
:102A300003980490FFE704980590FFE70598069037
:102A4000FFE70698C0B20B9901F00301890000FA74
:102A500001F108980843089008980B9921F00301A8
:102A600043F60802C4F20102885043F60840C4F25B
:102A700001000068089009990898884308900C980C
:102A80008079C006002805D5FFE709990898084312
:102A90000890FFE7089843F60841C4F20101086076
:102AA00043F60C40C4F201000068089009990898A8
:102AB000884308900C9880798006002805D5FFE7A8
:102AC0000999089808430890FFE7089843F60C41D5
:102AD000C4F20101086043F60440C4F2010000683A
:102AE000089009990898884308900C988079800785
:102AF000002805D5FFE70999089808430890FFE7E3
:102B0000089843F60441C4F20101086043F600400E
:102B1000C4F2010000680890099908988843089059
:102B20000C988079C00728B1FFE7099908980843F5
:102B30000890FFE7089843F60041C4F201010860DD
:102B4000FFE7FFE7FFE70B9801300B902FE60EB091
:102B50007047000082B00190ADF802108DF801209E
:102B60009DF8010028B1FFE7BDF8020001998861D6
:102B700005E0BDF80200000401998861FFE702B09A
:102B80007047000040F69850C2F20000006870479D
:102B900040F20800C2F20000027840F69851C2F2FA
:102BA00000010868104408607047000080B543F6D3
:102BB0000041C4F20201086840F40070086008682F
:102BC00040F480600860086840F48070086003206A
:102BD00000F08AF80F2000F005F800F03BF8002024
:102BE00080BD000080B582B0009040F20400C2F2C7
:102BF0000000006840F20801C2F200010A784FF4B8
:102C00007A71B1FBF2F1B0FBF1F000F0EFFE20B110
:102C1000FFE701208DF8070018E000980F280DD875
:102C2000FFE700994FF0FF30002200F043F80098D2
:102C300040F20C01C2F20001086003E001208DF8AF
:102C4000070003E000208DF80700FFE79DF807006C
:102C500002B080BD82B0FFE70020019043F644003F
:102C6000C4F20200016841F480410160006800F490
:102C7000804001900198FFE7FFE70020009043F6B5
:102C80004000C4F20200016841F080510160006818
:102C900000F0805000900098FFE702B070470000FD
:102CA00080B582B08DF807009DF9070004F0BCFEE6
:102CB00002B080BD80B586B08DF8170004910392F4
:102CC0000020029004F0C8FE02909DF917000190C8
:102CD00002980499039A02F0EDFA0146019804F073
:102CE000C3FE06B080BD000080B582B0019001989F
:102CF00004F0DCFE02B080BD80B584B0029001918A
:102D0000029820B9FFE701208DF80F0021E101981A
:102D100043F60041C4F20201096801F0070188424C
:102D200012D9FFE7019943F60040C4F20200017096
:102D3000006800F007000199884204D0FFE70120F5
:102D40008DF80F0005E1FFE7029800788007002862
:102D50002AD5FFE7029800784007002809D5FFE749
:102D600043F60801C4F20201086840F4E05008602C
:102D7000FFE7029800780007002809D5FFE743F62F
:102D80000801C4F20201086840F460400860FFE7EF
:102D900043F60801C4F20201086820F0F000029A2C
:102DA000926810430860FFE702980078C007002887
:102DB0006ED0FFE702984068012811D1FFE743F683
:102DC0000000C4F20200006800F400310020B0EB03
:102DD000514F04D1FFE701208DF80F00B9E02CE03E
:102DE00002984068022805D0FFE70298406803284F
:102DF00011D1FFE743F60000C4F20200006800F0C2
:102E000000710020B0EB516F04D1FFE701208DF875
:102E10000F009EE010E043F60000C4F202000068DC
:102E200000F002010020B0EB510F04D1FFE70120B8
:102E30008DF80F008DE0FFE7FFE743F60801C4F2CD
:102E40000201086820F00300029A526810430860EB
:102E5000FFF798FE0090FFE743F60800C4F2020077
:102E6000006800F00C0002994968B0EB810F0ED0A9
:102E7000FFE7FFF787FE0099401A41F28931884247
:102E800004D3FFE703208DF80F0062E0E4E7FFE7DB
:102E9000019843F60041C4F20201096801F00701FC
:102EA000884212D2FFE7019943F60040C4F20200C3
:102EB0000170006800F007000199884204D0FFE724
:102EC00001208DF80F0044E0FFE7029800784007EA
:102ED00000280CD5FFE743F60801C4F20201086898
:102EE00020F4E050029AD26810430860FFE702988D
:102EF0000078000700280DD5FFE743F60801C4F26B
:102F00000201086820F46040029A126940EAC20097
:102F10000860FFE700F04CF843F60801C4F2020134
:102F20000968C9B20A0947F6F441C0F60001895C94
:102F3000C84040F20401C2F20001086040F20C00F7
:102F4000C2F200000068FFF74DFE00208DF80F0070
:102F5000FFE79DF80F0004B080BD000040F20400C0
:102F6000C2F200000068704780B5FFF7F7FF43F634
:102F70000801C4F202010968C1F3822247F6045134
:102F8000C0F60001895CC84080BD000080B5FFF735
:102F9000E5FF43F60801C4F20201096889B24A0B51
:102FA00047F60451C0F60001895CC84080BD0000AE
:102FB00080B586B00020059004900390029043F6FF
:102FC0000800C4F20200006800F00C000146019104
:102FD00040B1FFE7019804280AD0FFE701980828CC
:102FE0000CD04FE042F20040C0F2F40002904FE0FB
:102FF00041F60030C0F2B700029049E043F6040009
:10300000C4F20200016801F03F010591006840022E
:10301000002813D5FFE743F60400C4F2020000685D
:10302000C0F3881041F60031C0F2B701A0FB0101E6
:10303000059A0023FDF7C4F8049012E043F604005B
:10304000C4F202000068C0F3881042F20041C0F2EE
:10305000F401A0FB0101059A0023FDF7B1F80490EB
:10306000FFE743F60400C4F20200006800F44031B8
:10307000022000EBD130039004980399B0FBF1F0EB
:10308000029005E042F20040C0F2F4000290FFE737
:10309000029806B080BD000080B586B00490049808
:1030A00020B9FFE701208DF8170050E3049800785D
:1030B000C007002800F0A580FFE743F60800C4F22F
:1030C0000200006800F00C00042813D0FFE743F66C
:1030D0000800C4F20200006800F00C0008281ED1AD
:1030E000FFE743F60400C4F2020000684002002833
:1030F00015D5FFE743F60000C4F20200006800F4B3
:1031000000310020B0EB514F08D0FFE70498406831
:1031100020B9FFE701208DF8170018E370E0FFE702
:1031200004984068B0F5803F09D1FFE743F60001FD
:10313000C4F20201086840F48030086020E004987E
:103140004068B0F5A02F0DD1FFE743F60001C4F2AF
:103150000201086840F480200860086840F480306C
:1031600008600CE043F60001C4F20201086820F494
:1031700080300860086820F480200860FFE7FFE7DF
:10318000FFE704984068E8B1FFE7FFF7FBFC039016
:10319000FFE743F60000C4F20200006800F40031CB
:1031A0000020B0EB514F0CD1FFE7FFF7EBFC039988
:1031B000401A652804D3FFE703208DF81700C6E204
:1031C000E7E71CE0FFF7DEFC0390FFE743F60000B3
:1031D000C4F20200006800F400310020B0EB514F4F
:1031E0000CD0FFE7FFF7CEFC0399401A652804D303
:1031F000FFE703208DF81700A9E2E7E7FFE7FFE705
:10320000FFE7049800788007002840F19680FFE7E8
:1032100043F60800C4F20200006810F00C0F13D04F
:10322000FFE743F60800C4F20200006800F00C005B
:1032300008282CD1FFE743F60400C4F2020000681E
:103240004002002823D4FFE743F60000C4F2020046
:10325000006800F002010020B0EB510F09D0FFE739
:103260000498C068012804D0FFE701208DF81700FA
:103270006DE243F60001C4F20201086820F0F80094
:10328000049A126940EAC2000860FFE754E004981B
:10329000C06870B3FFE70021C4F247210120086035
:1032A000FFF770FC0390FFE743F60000C4F2020052
:1032B000006800F002010020B0EB510F0CD1FFE7D5
:1032C000FFF760FC0399401A032804D3FFE70320AB
:1032D0008DF817003BE2E7E743F60001C4F2020174
:1032E000086820F0F800049A126940EAC2000860F9
:1032F00021E00021C4F2472100200860FFF742FCD2
:103300000390FFE743F60000C4F20200006800F0FB
:1033100002010020B0EB510F0CD0FFE7FFF732FCA9
:103320000399401A032804D3FFE703208DF8170000
:103330000DE2E7E7FFE7FFE7FFE704980078000703
:1033400000284BD5FFE70498406918B3FFE740F623
:103350008061C4F2472101200860FFF713FC03904D
:10336000FFE743F67400C4F20200006800F00201B7
:103370000020B0EB510F0CD1FFE7FFF703FC0399DE
:10338000401A032804D3FFE703208DF81700DEE17D
:10339000E7E722E040F68061C4F2472100200860A0
:1033A000FFF7F0FB0390FFE743F67400C4F202005E
:1033B000006800F002010020B0EB510F0CD0FFE7D5
:1033C000FFF7E0FB0399401A032804D3FFE703202B
:1033D0008DF81700BBE1E7E7FFE7FFE70498007807
:1033E0004007002840F1CE80FFE700208DF807005D
:1033F00043F64000C4F202000068C000002815D463
:10340000FFE7FFE70020009043F64000C4F202000F
:10341000016841F080510160006800F08050009028
:103420000098FFE701208DF80700FFE747F2000052
:10343000C4F200000068C005002822D4FFE747F26C
:103440000001C4F20001086840F480700860FFF7D2
:1034500099FB0390FFE747F20000C4F20000006808
:10346000C00500280CD4FFE7FFF78CFB0399401A36
:10347000032804D3FFE703208DF8170067E1EAE78C
:10348000FFE7FFE704988068012809D1FFE743F6CA
:103490007001C4F20201086840F0010008601FE0FA
:1034A0000498806805280DD1FFE743F67001C4F247
:1034B0000201086840F004000860086840F001005C
:1034C00008600CE043F67001C4F20201086820F0C5
:1034D00001000860086820F004000860FFE7FFE7CB
:1034E000FFE704988068F8B1FFE7FFF74BFB039014
:1034F000FFE743F67000C4F20200006800F002012A
:103500000020B0EB510F0ED1FFE7FFF73BFB039913
:10351000401A41F28931884204D3FFE703208DF835
:10352000170014E1E5E71EE0FFF72CFB0390FFE72F
:1035300043F67000C4F20200006800F002010020AF
:10354000B0EB510F0ED0FFE7FFF71CFB0399401AB9
:1035500041F28931884204D3FFE703208DF8170038
:10356000F5E0E5E7FFE79DF80700012809D1FFE74F
:1035700043F64001C4F20201086820F08050086060
:10358000FFE7FFE704988069002800F0DC80FFE790
:1035900043F60800C4F20200006800F00C0008289E
:1035A00000F08580FFE70498806902285CD1FFE77E
:1035B0006021C4F2472100200860FFF7E3FA03907E
:1035C000FFE743F60000C4F20200006800F000715B
:1035D0000020B0EB516F0CD0FFE7FFF7D3FA03994F
:1035E000401A032804D3FFE703208DF81700AEE04C
:1035F000E7E70499C869D1F820C04B6A8A6A40EAB3
:103600000C0040EA8310D2034FF6FF739A43A2F5F1
:1036100080321043C96A40EA016043F60401C4F2F3
:10362000020108606021C4F2472101200860FFF711
:10363000A9FA0390FFE743F60000C4F20200006815
:1036400000F000710020B0EB516F0CD1FFE7FFF7E5
:1036500099FA0399401A032804D3FFE703208DF851
:10366000170074E0E7E721E06021C4F24721002061
:103670000860FFF787FA0390FFE743F60000C4F203
:103680000200006800F000710020B0EB516F0CD018
:10369000FFE7FFF777FA0399401A032804D3FFE7FF
:1036A00003208DF8170052E0E7E7FFE74AE00498AF
:1036B0008069012804D1FFE701208DF8170046E05A
:1036C00043F60400C4F20200006802900498806986
:1036D000012831D0FFE7029800F480000499C969FD
:1036E000884229D1FFE7029800F03F000499096A57
:1036F000884221D1FFE7029847F6C071084004993B
:10370000496AB0EB811F17D1FFE7029800F44030FF
:103710000499896AC9034FF6FF729143A1F580317C
:10372000884209D1FFE7029800F070600499C96AE5
:10373000B0EB016F04D0FFE701208DF8170006E021
:10374000FFE7FFE7FFE700208DF81700FFE79DF890
:10375000170006B080BD000080B584B002900298CA
:1037600020B9FFE701208DF80F0071E00298406A50
:1037700060B9FFE702984068B0F5827F01D1FFE7AA
:1037800003E002990020C861FFE705E002990020EC
:10379000086102994861FFE7029900208862029857
:1037A00090F8510040B9FFE70299002081F85000DD
:1037B000029800F051F8FFE70299022081F85100C9
:1037C00002980168086820F040000860029A01929F
:1037D00011685068D2F808C0D36800F482700CF405
:1037E000044C604403F400631844136903F00203BB
:1037F0001844536903F001031844936903F40073F8
:103800001844D36903F038031844136A03F08003A3
:103810001843926A02F4005210430860029A508BD7
:1038200000F004001168526A02F01002104448606F
:1038300002980168C86920F40060C86102990020FC
:103840004865029A012182F851108DF80F00FFE7B8
:103850009DF80F0004B080BD80B590B00F9000209F
:103860000E900D900C900B900A900F98006843F208
:103870000001C4F20101884240F0B680FFE7FFE793
:103880000020099043F64400C4F20200016841F4AC
:1038900080510160006800F4805009900998FFE7AA
:1038A000FFE70020089043F63000C4F202000168F0
:1038B00041F002010160006800F0020008900898E1
:1038C000FFE7FFE70020079043F63000C4F2020054
:1038D000016841F001010160006800F001000790FB
:1038E0000798FFE718200A90022001900B90012012
:1038F00002900C90032003900D90052004900E90F0
:1039000040F20040C4F202000AA90591FEF746FF0A
:10391000DDF804C0029B039A049805994FF0800ECD
:10392000CDF828E0CDF82CC00C930D920E9000201D
:10393000C4F20200FEF732FF40F67800C2F2000047
:10394000069046F21041C4F2020101604FF0C061DE
:10395000416000218160C1604FF480620261416179
:103960008161C1614FF4403202624162FEF7DAFDCB
:1039700018B1FFE7FDF764FCFFE7FFE70F9840F69B
:103980007801C2F20001C1640F988863FFE740F636
:10399000D800C2F20000009046F25841C4F2020181
:1039A00001604FF0C0614160402181600021C16031
:1039B0004FF48062026141618161C1614FF4403224
:1039C00002624162FEF7AEFD18B1FFE7FDF738FC79
:1039D000FFE7FFE70F9840F6D801C2F200018164CB
:1039E0000F988863FFE7FFE710B080BD80B582B015
:1039F0000190019803F04CF902B080BD81B00090B5
:103A000001B0704781B0009001B0704785B003905D
:103A10000291FFE7039890F83C00012804D1FFE7EA
:103A200002208DF813007EE00399012081F83C000C
:103A3000FFE7FFE70399022081F83D000398006843
:103A4000406801900398006880680090019820F019
:103A50007000019002980168019808430190019854
:103A6000039909684860039800680021C4F20101C5
:103A700088423CD0FFE703980068B0F1804F36D011
:103A8000FFE70398006840F20041C4F20001884259
:103A90002DD0FFE70398006840F60001C4F2000152
:103AA000884224D0FFE70398006840F60041C4F242
:103AB000000188421BD0FFE70398006840F20041F4
:103AC000C4F20101884212D0FFE70398006844F273
:103AD0000001C4F20101884209D0FFE703980068A1
:103AE00041F60001C4F2000188420ED1FFE70098C0
:103AF00020F08000009002984168009808430090F0
:103B00000098039909688860FFE70399012081F80C
:103B10003D00FFE70399002081F83C00FFE700200B
:103B20008DF81300FFE79DF8130005B07047000003
:103B300080B582B00090009820B9FFE701208DF891
:103B400007003FE0009890F83D0040B9FFE700997A
:103B5000002081F83C00009800F038F8FFE7009959
:103B6000022081F83D00009951F8040B03F046F95A
:103B70000099012081F84600FFE70099012081F8B3
:103B80003E00009981F83F00009981F840000099BB
:103B900081F84100FFE7FFE70099012081F842002A
:103BA000009981F84300009981F84400009981F858
:103BB0004500FFE70099012081F83D0000208DF8C5
:103BC0000700FFE79DF8070002B080BD80B58AB00E
:103BD000099009980068B0F1804F1BD1FFE7FFE71B
:103BE0000020089043F64000C4F20200016841F052
:103BF00001010160006800F0010008900898FFE7EB
:103C00001C20049003210022FFF754F80498FFF7CA
:103C100047F86EE00998006840F60001C4F2000120
:103C200088421BD1FFE7FFE70020079043F64000E2
:103C3000C4F20200016841F004010160006800F074
:103C4000040007900798FFE71E200390032100223D
:103C5000FFF730F80398FFF723F849E00998006868
:103C600041F20001C4F2000188421BD1FFE7FFE7E7
:103C70000020069043F64000C4F20200016841F0C3
:103C800010010160006800F0100006900698FFE740
:103C90003620029003210022FFF70CF80298FEF76D
:103CA000FFFF24E00998006844F20001C4F201011A
:103CB00088421BD1FFE7FFE70020059043F6440050
:103CC000C4F20200016841F480310160006800F430
:103CD000803005900598FFE718200190042100220C
:103CE000FEF7E8FF0198FEF7DBFFFFE7FFE7FFE7DE
:103CF000FFE70AB080BD000083B00190019890F802
:103D00003D00012804D0FFE701208DF80B006AE098
:103D10000199022081F83D0001980168C86840F0CF
:103D20000100C860019800680021C4F201018842C6
:103D30003CD0FFE701980068B0F1804F36D0FFE734
:103D40000198006840F20041C4F2000188422DD081
:103D5000FFE70198006840F60001C4F200018842C4
:103D600024D0FFE70198006840F60041C4F200014A
:103D700088421BD0FFE70198006840F20041C4F27E
:103D80000101884212D0FFE70198006844F2000167
:103D9000C4F20101884209D0FFE70198006841F6AA
:103DA0000001C4F20001884212D1FFE701980068C7
:103DB000806800F0070000900098062807D0FFE711
:103DC00001980168086840F001000860FFE706E01C
:103DD00001980168086840F001000860FFE70020D2
:103DE0008DF80B00FFE79DF80B0003B07047000053
:103DF00080B586B00490039100208DF80B00FFE79A
:103E0000049890F83C00012804D1FFE702208DF8C7
:103E10001700ABE00499012081F83C00FFE7FFE7C1
:103E20000499022081F83D000498006880680190A0
:103E3000019820F077000190019820F47F400190D4
:103E40000198049909688860039800680090002828
:103E500072D0FFE7009810286ED0FFE70098202866
:103E60006AD0FFE70098302866D0FFE70098402826
:103E700055D0FFE70098502837D0FFE7009860281A
:103E800040D0FFE7009870280BD0FFE70098B0F50E
:103E9000805F05D0FFE70098B0F5005F16D052E0D4
:103EA00055E004980068039B5A689968DB6803F042
:103EB00073F80498006880680190019840F07700DA
:103EC0000190019804990968886040E004980068AE
:103ED000039B5A689968DB6803F05EF804980168F0
:103EE000886840F48040886031E004980068039A54
:103EF0005168D26803F080F804980068502103F0FC
:103F000065F824E004980068039A5168D26803F0C9
:103F10009BF804980068602103F058F817E00498B3
:103F20000068039A5168D26803F066F80498006844
:103F3000402103F04BF80AE00498006803990968EF
:103F400003F044F803E001208DF80B00FFE704992B
:103F5000012081F83D00FFE70499002081F83C0032
:103F6000FFE79DF80B008DF81700FFE79DF817009D
:103F700006B080BD81B0009001B0704780B582B0BE
:103F8000019001980068006900F002010020B0EB88
:103F9000510F28D0FFE701980068C06800F00201C7
:103FA0000020B0EB510F1DD0FFE7019801686FF0C2
:103FB0000200086101990120087701980068806972
:103FC000800720B1FFE70198FFF7D4FF06E00198D2
:103FD00000F012F9019800F013F9FFE701990020B1
:103FE0000877FFE7FFE701980068006900F0040127
:103FF0000020B0EB910F29D0FFE701980068C0685E
:1040000000F004010020B0EB910F1ED0FFE70198F3
:1040100001686FF004000861019902200877019897
:104020000068806910F4407F04D0FFE70198FFF733
:10403000A1FF06E0019800F0DFF8019800F0E0F839
:10404000FFE7019900200877FFE7FFE70198006884
:10405000006900F008010020B0EBD10F28D0FFE785
:1040600001980068C06800F008010020B0EBD10F93
:104070001DD0FFE7019801686FF008000861019901
:104080000420087701980068C069800720B1FFE725
:104090000198FFF76FFF06E0019800F0ADF8019876
:1040A00000F0AEF8FFE7019900200877FFE7FFE78F
:1040B00001980068006900F010010020B0EB111FAA
:1040C00029D0FFE701980068C06800F010010020C7
:1040D000B0EB111F1ED0FFE7019801686FF01000D0
:1040E000086101990820087701980068C06910F4F8
:1040F000407F04D0FFE70198FFF73CFF06E00198FE
:1041000000F07AF8019800F07BF8FFE701990020B1
:104110000877FFE7FFE7019800680069C00780B1F2
:10412000FFE701980068C068C00748B1FFE7019841
:1041300001686FF001000861019800F065F8FFE781
:10414000FFE7019800680069C1B20020B0EBD11F01
:1041500013D0FFE701980068C068C1B20020B0EB3F
:10416000D11F09D0FFE7019801686FF08000086156
:104170000198FFF743FCFFE7FFE70198006800693B
:1041800000F040010020B0EB911F14D0FFE7019830
:104190000068C06800F040010020B0EB911F09D01A
:1041A000FFE7019801686FF040000861019800F096
:1041B000C1F8FFE7FFE701980068006900F02001FF
:1041C0000020B0EB511F14D0FFE701980068C068D1
:1041D00000F020010020B0EB511F09D0FFE701984B
:1041E00001686FF0200008610198FFF70BFCFFE702
:1041F000FFE702B080BD000081B0009001B07047C1
:1042000081B0009001B0704780B584B003900398EE
:104210000068B0F1804F44D1FFE740F2A830C2F20D
:104220000000029040F23411C2F20001FCF770FC71
:10423000014640F6A040C2F200000180B0F9001033
:1042400040F2F070C2F2000002684368012002F000
:104250004DFB0299B1F92020B1F9D430B1F98801B0
:10426000B1F93CC26946C1F804C0086040F62800B4
:10427000C2F200004FF40071FCF794FB40F6C84214
:10428000C2F2000292F84E00D2F84A1000EE101A64
:10429000BDEEC00A10EE101AB2F84620FCF7A8FDD9
:1042A000FFE70398006840F60001C4F2000188426D
:1042B00001D1FFE7FFE70398006841F20001C4F273
:1042C0000001884219D1FFE740F28C10C2F20000D1
:1042D000B0F92020B0F9D430B0F9880169464FF028
:1042E000000CC1F804C0086040F65000C2F20000A3
:1042F00040F2FF11FCF756FBFFE70398006844F219
:104300000001C4F20101884212D1FFE740F23410EB
:10431000C2F2000001F0EEF940F2F071C2F20001C9
:104320000A684868013240F100000A604860FFE70F
:1043300004B080BD81B0009001B0704782B00190A0
:10434000ADF8021002B0704780B584B00390002031
:104350000290039800684069C0B2C00902900398B7
:1043600090F83D00212823D1FFE7029800B3FFE732
:10437000FFE7FFE70398006850E8050F20F0800092
:104380000190FFE701990398026842E805100028B0
:10439000F0D1FFE7FFE70398406B28B1FFE70398F0
:1043A000406BFDF797FEFFE7039802F0B3FFFFE7CE
:1043B000039800684069C0F380100290039890F859
:1043C0003E00222823D1FFE7029800B3FFE7FFE772
:1043D000FFE70398006850E8050F20F040000090C8
:1043E000FFE700990398026842E805100028F0D121
:1043F000FFE7FFE70398806B28B1FFE70398806B26
:10440000FDF768FEFFE7039802F026FFFFE70020B4
:1044100004B080BD81B0009001B0704780B592B00B
:104420001190119800680068109011980068C06899
:104430000F901198006840690E9000200D900C902C
:10444000109800F00F000D900D9888B9FFE79DF8C7
:104450004000800600280AD5FFE79DF83C00800652
:10446000002804D5FFE7119802F070FFE3E1FFE7B1
:104470000D98002800F0C280FFE79DF83800C007C3
:1044800038B9FFE7BDF83C0010F4907F00F0B6802B
:10449000FFE79DF84000C00758B1FFE79DF83D00D9
:1044A000C00730B1FFE71199086C40F001000864C3
:1044B000FFE79DF84000400700280BD5FFE79DF877
:1044C0003800C00730B1FFE71199086C40F00200D6
:1044D0000864FFE79DF84000800700280BD5FFE740
:1044E0009DF83800C00730B1FFE71199086C40F023
:1044F00004000864FFE79DF840000007002811D57C
:10450000FFE79DF83C008006002805D4FFE79DF8F2
:104510003800C00730B1FFE71199086C40F008007F
:104520000864FFE71198006C002866D0FFE79DF84B
:104530004000800600280AD5FFE79DF83C00800671
:10454000002804D5FFE7119802F000FFFFE711985B
:1045500000684069C0F380100C901198006C00074F
:10456000002804D4FFE70C9800283ED0FFE71198FC
:1045700002F072FE119800684069400600282FD5AD
:10458000FFE7FFE7FFE71198006850E8050F20F00C
:1045900040000B90FFE70B991198026842E8051064
:1045A0000028F0D1FFE7FFE71198806B98B1FFE793
:1045B0001198816B47F29D00C0F6000008651198C4
:1045C000806BFDF7FDFD28B1FFE71198806B016D51
:1045D0008847FFE703E01198FFF71CFFFFE703E0C0
:1045E0001198FFF717FFFFE706E01198FFF712FF9A
:1045F000119900200864FFE7FFE71CE11198006BA8
:10460000012840F0F880FFE79DF84000C006002830
:1046100040F1F180FFE79DF83C00C006002840F122
:10462000EA80FFE7FFE700200A9011980068006821
:104630000A901198006840680A900A98FFE711985C
:1046400000684069400600287ED5FFE71198806B1E
:1046500000684068ADF82600BDF82600002872D03A
:10466000FFE7BDF826001199898D88426BDAFFE7D4
:10467000BDF826001199C8851198806BC069B0F506
:10468000807F58D0FFE7FFE7FFE71198006850E808
:10469000030F20F480700890FFE7089911980268D2
:1046A00042E803100028F0D1FFE7FFE7FFE7FFE74C
:1046B0001198006850E8050F20F001000790FFE70F
:1046C00007991198026842E805100028F0D1FFE729
:1046D000FFE7FFE7FFE71198006850E8050F20F0BB
:1046E00040000690FFE706991198026842E805101D
:1046F0000028F0D1FFE7FFE71199202081F83E0064
:10470000119900200863FFE7FFE71198006850E85F
:10471000030F20F010000590FFE70599119802683B
:1047200042E803100028F0D1FFE7FFE71198806B03
:10473000FDF7D0FCFFE71198818DC28D891A89B2EF
:10474000FFF7FCFDFFE776E01199888DC98D401ACF
:10475000ADF812001198C08D00284BD0FFE7BDF8CE
:104760001200002846D0FFE7FFE7FFE71198006836
:1047700050E8030F20F490700390FFE7039911981D
:10478000026842E803100028F0D1FFE7FFE7FFE7E7
:10479000FFE71198006850E8050F20F00100029033
:1047A000FFE702991198026842E805100028F0D14D
:1047B000FFE7FFE71199202081F83E0011990020C2
:1047C0000863FFE7FFE71198006850E8030F20F047
:1047D00010000190FFE701991198026842E8031068
:1047E0000028F0D1FFE7FFE71198BDF81210FFF79E
:1047F000A5FDFFE71FE09DF84000000600280AD550
:10480000FFE79DF83C000006002804D5FFE711985B
:1048100002F078FF0FE09DF84000400600280AD51E
:10482000FFE79DF83C004006002804D5FFE71198FB
:1048300002F05CFDFFE712B080BD000080B582B0E1
:104840000090009820B9FFE701208DF807003EE0B6
:104850000098806908B1FFE700E0FFE7009890F852
:104860003D0040B9FFE70099002081F83C00009826
:1048700000F032F8FFE70099242081F83D0000980D
:104880000168C86820F40050C860009802F010FE6B
:1048900000980168086920F4904008610098016858
:1048A000486920F02A00486100980168C86840F40F
:1048B0000050C860009900200864009A202182F806
:1048C0003D10009A82F83E108DF80700FFE79DF832
:1048D000070002B080BD000080B598B0179000209E
:1048E000169015901490139012901798006841F24A
:1048F0000001C4F2010188425ED1FFE7FFE700201A
:10490000119043F64400C4F20200016841F0100126
:104910000160006800F0100011901198FFE7FFE7B8
:104920000020109043F63000C4F20200016841F00C
:1049300002010160006800F0020010901098FFE78B
:10494000FFE700200F9043F63000C4F20200016838
:1049500041F001010160006800F001000F900F9824
:10496000FFE780201290022006901390002007900D
:10497000149003200890159007200990169040F29B
:104980000040C4F2020012A90A91FDF707FFDDF80A
:1049900018C0079B089A09980A994FF4007ECDF831
:1049A00048E0CDF84CC01493159216900020C4F244
:1049B0000200FDF7F3FE0DE11798006844F60001D0
:1049C000C4F2000188426AD1FFE7FFE700200E90A1
:1049D00043F64000C4F20200016841F48021016006
:1049E000006800F480200E900E98FFE7FFE700209B
:1049F0000D9043F63000C4F20200016841F004015A
:104A00000160006800F004000D900D98FFE74FF47E
:104A10004060129002201390002004901490032014
:104A200015900720169040F60000C4F2020012A96B
:104A3000FDF7B4FE049940F63810C2F2000005906C
:104A400046F22802C4F2020202604FF000624260A5
:104A50008160C1604FF48062026141618161C16126
:104A60004FF4403202624162FDF75CFD18B1FFE78E
:104A7000FCF7E6FBFFE7FFE7179840F63811C2F2B4
:104A80000001816317988863FFE7272003900621C0
:104A90000022FEF70FF90398FEF702F999E0179844
:104AA000006841F20041C4F20101884240F0908068
:104AB000FFE7FFE700200C9043F64400C4F2020039
:104AC000016841F020010160006800F020000C90B6
:104AD0000C98FFE7FFE700200B9043F63000C4F28C
:104AE0000200016841F040010160006800F04000F0
:104AF0000B900B98FFE74FF4844012900220139024
:104B0000002001901490032015900820169041F683
:104B10000000C4F2020012A9FDF740FE019940F620
:104B20009810C2F20000029046F24042C4F2020223
:104B300002604FF0206242608160C1604FF4806289
:104B4000026141618161C1614FF4003202624162E0
:104B5000FDF7E8FC18B1FFE7FCF772FBFFE7FFE7A2
:104B6000179840F69811C2F2000181631798886384
:104B7000FFE740F6F810C2F20000009046F2A041B4
:104B8000C4F2020101604FF0206141604021816068
:104B90000021C1604FF480620261416181614FF484
:104BA0008072C2614FF4003202624162FDF7BAFCCA
:104BB00018B1FFE7FCF744FBFFE7FFE7179840F663
:104BC000F811C2F20001416317988863FFE7FFE71D
:104BD000FFE7FFE718B080BD80B584B00290019177
:104BE000ADF80220029890F83E00202828D1FFE777
:104BF000019820B1FFE7BDF8020020B9FFE70120CE
:104C00008DF80F0020E0FFE7029890F83C000128A3
:104C100004D1FFE702208DF80F0015E00299012072
:104C200081F83C00FFE7FFE7029900200863029843
:104C30000199BDF8022002F0D9FC8DF80F0003E0C5
:104C400002208DF80F00FFE79DF80F0004B080BD33
:104C500081B0009001B0704781B0009001B0704702
:104C600081B0009001B07047FFE7FEE782B001908D
:104C7000009101990889C880019988894881009824
:104C80000178407840EA01200199088100988178F4
:104C9000C07840EA01200199888100980179407923
:104CA00040EA01200199C8810098807901994884DF
:104CB00002B0704781B000900098B0F90610B0F9CA
:104CC0000800401A10F5805F05DAFFE70099C88AEE
:104CD0000130C882FFE70098B0F90610B0F908006B
:104CE000401AB0F5805F05DDFFE70099C88A0138FA
:104CF000C882FFE70099B1F90800B1F9162000EB6E
:104D00004230086101B0704780B582B040F628009B
:104D1000C2F20000019046F20041C4F200010160BD
:104D20000321416000218160C1604FF4C022026113
:104D30004FF4A00242610176417681760122C2766B
:104D400001774177FCF788FF18B1FFE7FCF778FAA5
:104D5000FFE702B080BD000080B582B040F6500091
:104D6000C2F20000019046F60001C4F200010160A9
:104D70000321416000218160C1604FF4C0220261C3
:104D80004FF4A00242610176417681760122C2761B
:104D900001774177FCF760FF18B1FFE7FCF750FAA5
:104DA000FFE702B080BD000080B588B0FFE70020BB
:104DB000079043F63000C4F20200016841F480011C
:104DC0000160006800F4800007900798FFE7FFE7A4
:104DD0000020069043F63000C4F20200016841F45E
:104DE00000110160006800F4001006900698FFE7CB
:104DF0000C200090002204921146FDF75BFF009802
:104E0000FDF74EFF049A382001901146FDF752FF3E
:104E10000198FDF745FF049A3A2002901146FDF7EC
:104E200049FF0298FDF73CFF049A3B20039011468E
:104E3000FDF740FF0398FDF733FF049A45200590E6
:104E40001146FDF737FF0598FDF72AFF08B080BD32
:104E500080B592B00020119010900F900E900D90A0
:104E6000FFE700200C9043F63000C4F20200016816
:104E700041F002010160006800F002000C900C9803
:104E8000FFE7FFE700200B9043F63000C4F202007A
:104E9000016841F040010160006800F040000B90A3
:104EA0000B98FFE7FFE700200A9043F63000C4F2BA
:104EB0000200016841F001010160006800F001009A
:104EC0000A900A98FFE7FFE70020099043F63000B8
:104ED000C4F20200016841F008010160006800F0BE
:104EE000080009900998FFE7FFE70020089043F6C3
:104EF0003000C4F20200016841F004010160006862
:104F000000F0040008900898FFE7FFE700200790F2
:104F100043F63000C4F20200016841F080010160F4
:104F2000006800F0800007900798FFE70020C4F2B7
:104F3000020002901021019100220092FDF70AFE6A
:104F4000009A40F20040C4F2020005900121039152
:104F5000FDF700FE019A029803990D920E910F91B0
:104F60000221049110910DA90691FDF717FC0398F9
:104F7000069930220D924FF488120E920F9040F64F
:104F80000000C4F20200FDF709FC039B049A059897
:104F900006990D930E930F931092FDF7FFFB12B03D
:104FA00080BD000080B584B025200190052100223D
:104FB0000292FDF77FFE0198FDF772FE029A4720EC
:104FC00003900221FDF776FE0398FDF769FE04B019
:104FD00080BD000080B582B040F65820C2F20000CB
:104FE000019043F20001C4F2010101604FF48271AB
:104FF000416000218160C1600222026101224261A0
:105000004FF4007282611022C261016241628162CA
:105010000A21C162FEF7A0FB18B1FFE7FCF710F907
:10502000FFE702B080BD000080B588B0002101918B
:1050300007910691059104910391029140F6B020E9
:10504000C2F200004FF080420260A72242608160FD
:1050500040F2E732C26001618161FEF769FD18B17B
:10506000FFE7FCF7EDF8FFE74FF48050049040F6BF
:10507000B020C2F2000004A9FEF7BAFE18B1FFE7A3
:10508000FCF7DEF8FFE700200290039040F6B02026
:10509000C2F2000002A9FEF7B9FC18B1FFE7FCF765
:1050A000CFF8FFE708B080BD80B588B0002101913E
:1050B00007910691059104910391029140F6F82021
:1050C000C2F2000040F60002C4F200020260A72211
:1050D0004260816040F2E732C26001618161FEF7A7
:1050E00027FD18B1FFE7FCF7ABF8FFE74FF480505E
:1050F000049040F6F820C2F2000004A9FEF778FE02
:1051000018B1FFE7FCF79CF8FFE70020029003903E
:1051100040F6F820C2F2000002A9FEF777FC18B1B1
:10512000FFE7FCF78DF8FFE708B080BD80B582B0DF
:1051300000210191009140F64030C2F2000041F29E
:105140000002C4F200020260A7224260816040F2C5
:10515000E732C2608161FEF7EBFC18B1FFE7FCF7B4
:105160006FF8FFE700200090019040F64030C2F257
:1051700000006946FEF74AFC18B1FFE7FCF760F84B
:10518000FFE702B080BD000080B584B0002103912C
:1051900002910191009140F68830C2F2000044F281
:1051A0000002C4F201020260A7224260816040F264
:1051B000E732C26001618161FEF7BAFC18B1FFE716
:1051C000FCF73EF8FFE74FF48050009040F688303F
:1051D000C2F200006946FEF70BFE18B1FFE7FCF7CC
:1051E0002FF8FFE704B080BD80B582B040F6D03024
:1051F000C2F20000019041F20001C4F2010101601D
:105200004FF4E131416000218160C16001610C22F5
:1052100042618161C161FFF711FB18B1FFE7FCF743
:105220000FF8FFE702B080BD80B582B040F61440B1
:10523000C2F20000019044F60001C4F200010160D6
:1052400048F2A061C0F20101416000218160C160AB
:1052500001610C2242618161C161FFF7EFFA18B16F
:10526000FFE7FBF7EDFFFFE702B080BD80B582B03E
:1052700040F65840C2F20000019041F20041C4F2F1
:10528000010101604FF4E131416000218160C160A2
:1052900001610C2242618161C161FFF7CFFA18B14F
:1052A000FFE7FBF7CDFFFFE702B080BDFFE7FEE7BA
:1052B000FFE7FEE788B0079006910592079800F097
:1052C000070004900498C0F10700052803D3FFE706
:1052D0000420019004E00498C0F107000190FFE76A
:1052E0000198039004980430062803D8FFE70020B3
:1052F000009003E0049803380090FFE700980290C4
:1053000006980399012202FA01F101390840029B33
:10531000984005999A40013A1140084308B07047F7
:1053200088B006908DED050ACDED040A069818B9EF
:10533000FFE700200790ABE09DED050A9DED041A04
:1053400030EE410A069880ED060A069890ED000AB4
:1053500090ED061A20EE010A80ED070A069890EDFE
:10536000010A90ED062A90ED081A20EE020A30EEAE
:10537000010A80ED080A069890ED031A90ED080ADC
:10538000B4EE410AF1EE10FA06DDFFE7069890ED63
:10539000030A8DED030A1FE0069890ED031A90EDC5
:1053A000080AB1EE411AB4EE410AF1EE10FA08DA39
:1053B000FFE7069890ED030AB1EE400A8DED020A70
:1053C00005E0069890ED080A8DED020AFFE79DEDD5
:1053D000020A8DED030AFFE79DED030A069880EDB2
:1053E000080A069890ED020A90ED052A90ED061A3B
:1053F00031EE421A20EE010A80ED090A069890ED7E
:10540000070A90ED082A90ED091A30EE020A30EEF4
:10541000010A80ED0A0A069890ED041A90ED0A0A36
:10542000B4EE410AF1EE10FA06DDFFE7069890EDC2
:10543000040A8DED010A1FE0069890ED041A90ED24
:105440000A0AB1EE411AB4EE410AF1EE10FA08DA96
:10545000FFE7069890ED040AB1EE400A8DED000AD0
:1054600005E0069890ED0A0A8DED000AFFE79DED34
:10547000000A8DED010AFFE79DED010A069880ED17
:105480000A0A0699886948610698806A0790FFE7CA
:105490009DED070A08B0704782B001900091019815
:1054A00018B1FFE7009808B9FFE719E00098006815
:1054B00001990860009840680199486000988068E8
:1054C000019988600098C0680199C86000980069D7
:1054D0000199086101990020486101998861FFE7FD
:1054E00002B0704780B582B00190019901F15C0073
:1054F00091ED060AB1F90C1001EE101AF8EEC10A8E
:10550000FFF70EFF019880ED210A019991ED210A24
:10551000BDEEC00A10EE100A0884012002B080BD62
:105520007047000080B58EB0ADF836008DED0C0AE6
:105530000B910020C4F2701005900A900020099091
:1055400008900790BDF8360000EE100AB8EEC00AC9
:1055500040F60800C2F20000009090ED021A90EDB3
:10556000042A30EE420AB9EE082A30EE020A9FED14
:10557000502A20EE020A30EE010A80ED020A90ED78
:10558000021A9FED4C0ADFED4C0A01F057F9009822
:1055900080ED020A9DED0C0AB2EE0E1A30EE410AC1
:1055A0008DED0C0A9DED0C0A30EE411A9FED430A79
:1055B000DFED430A01F042F98DED0C0A9DED0C0A76
:1055C0009FED401A80EE010A10EE100AFAF785FFEF
:1055D00041EC100B40F2E070C2F20000069080ED4A
:1055E000000B90ED000B51EC100BFAF789FF01EE68
:1055F000100AB7EE000ADFED340A01F01FF910EED1
:10560000100AFAF76AFF0246069801920A460199C3
:1056100042EC101B80ED000B90ED000B53EC102BB7
:1056200010461946FAF7C8FE41EC100B8DED080B39
:105630009DED080B8DED020B0B98FAF73DFF9DEDEC
:10564000021B41EC100B51EC110B53EC102BFAF731
:10565000B3FE41EC100B51EC100BFAF751FF00EECA
:10566000100ABDEEC00A8DED070A0798FBF73CF85B
:105670000599069840F6B842C2F20002116090ED1A
:10568000000B40F6A840C2F2000080ED000B9DED3B
:10569000080B40F6B040C2F2000080ED000B079806
:1056A00040F69C41C2F20001086007980EB080BD30
:1056B0006F12833A000070420AD7233C000048432F
:1056C0000000000000003442CDCCCC3D80B500F09D
:1056D00029F840F28C11C2F200014AF20000C4F233
:1056E0008C50C1F8CC0040F27861C2F20001002079
:1056F000486280BD80B582B0019040F2E870C2F28D
:1057000000000178013101700078322808DBFFE7E2
:1057100040F23410C2F200003821FAF79BFDFFE797
:1057200002B080BD80B5C2B047F6904CC0F6000C08
:10573000DCF80000DCF80410DCF80820DCF80C30A1
:10574000DCF810C0CDF804C140933F923E913D90EB
:1057500047F67C4CC0F6000CDCF80000DCF80410C6
:10576000DCF80820DCF80C30DCF810C0CDF8F0C014
:105770003B933A923991389047F6E04CC0F6000CD2
:10578000DCF80000DCF80410DCF80820DCF80C3051
:10579000DCF810C0CDF8DCC03693359234913390EC
:1057A00047F6CC4CC0F6000CDCF80000DCF8041026
:1057B000DCF80820DCF80C30DCF810C0CDF8C8C0EC
:1057C000319330922F912E9047F6B84CC0F6000CD2
:1057D000DCF80000DCF80410DCF80820DCF80C3001
:1057E000DCF810C0CDF8B4C02C932B922A912990EC
:1057F00047F6A44CC0F6000CDCF80000DCF80410FE
:10580000DCF80820DCF80C30DCF810C0CDF8A0C0C3
:10581000279326922591249047F6404CC0F6000C21
:10582000DCF80000DCF80410DCF80820DCF80C30B0
:10583000DCF810C0CDF88CC02293219220911F90EB
:1058400047F6684CC0F6000CDCF80000DCF80410E9
:10585000DCF80820DCF80C30DCF810C0CDF878C09B
:105860001D931C921B911A9047F6184CC0F6000C21
:10587000DCF80000DCF80410DCF80820DCF80C3060
:10588000DCF810C0CDF864C01893179216911590EB
:1058900047F6044CC0F6000CDCF80000DCF80410FD
:1058A000DCF80820DCF80C30DCF810C0CDF850C073
:1058B000139312921191109047F62C4CC0F6000CE5
:1058C000DCF80000DCF80410DCF80820DCF80C3010
:1058D000DCF810C0CDF83CC00E930D920C910B90EB
:1058E00047F6544CC0F6000CDCF80000DCF804105D
:1058F000DCF80820DCF80C30DCF810C0CDF828C04B
:10590000099308920791069040F2A830C2F2000075
:1059100002905C303DA90191FFF7BEFD019902980C
:1059200000F58870FFF7B8FD0199029800F5E27064
:10593000FFF7B2FD0199029800F51E70FFF7ACFD6C
:105940000298883038A90391FFF7A6FD02980399C1
:1059500000F59E70FFF7A0FD0298039900F5F8701E
:10596000FFF79AFD0298039900F52970FFF794FD5F
:1059700040F27860C2F2000004905C3033A9FFF777
:105980008BFD049830302EA9FFF786FD049800F5B2
:10599000887029A9FFF780FD0498E43024A9FFF757
:1059A0007BFD40F28C10C2F2000005905C301FA914
:1059B000FFF772FD059800F588701AA9FFF76CFDD6
:1059C000059800F5E27015A9FFF766FD059800F54A
:1059D000CC7010A9FFF760FD059888300BA9FFF780
:1059E0005BFD059800F59E7006A9FFF755FD0120A7
:1059F00042B080BD80B584B003900291ADF806201E
:105A00000398029900F032F840F28011C2F20001CE
:105A1000088000208DF80500FFE79DF80500BDF81F
:105A2000061088421FDAFFE703989DF80510405CD6
:105A3000A52811D1FFE703989DF80510014496228F
:105A4000FAF7EFFB0398029900F010F840F280118A
:105A5000C2F200010880FFE7FFE79DF80500013072
:105A60008DF80500D9E704B080BD000080B584B092
:105A70000290019102980078A52840F0AD86FFE7DA
:105A80000298052101F0A2FF012840F0A586FFE75A
:105A90000298B0F8050001460091012800F09280BC
:105AA000FFE70098022800F0BA80FFE7009803287B
:105AB00000F0C380FFE7009840F20111884200F037
:105AC0001681FFE70098B0F5817F00F0D081FFE7F5
:105AD0000098B0F5827F00F0E881FFE7009840F27F
