:020000040800F2
:10000000600F00209D010008E948000875430008C2
:10001000E5480008A90200081D5A00080000000079
:10002000000000000000000000000000E14E000899
:10003000450A000800000000C14B0008394F0008C5
:10004000B7010008B7010008B7010008B7010008B0
:10005000B7010008B7010008B7010008B7010008A0
:10006000B7010008B7010008B7010008B701000890
:100070005D080008B7010008B7010008B7010008D3
:10008000B7010008B7010008B7010008B701000870
:10009000AD020008B7010008B7010008B701000869
:1000A00011500008B7010008B7010008B7010008A7
:1000B00021500008B701000831500008B7010008BE
:1000C000B7010008B7010008B7010008B701000830
:1000D000B7010008ED590008FD5900080D5A000845
:1000E000B7010008B7010008B7010008B701000810
:1000F000B7010008B7010008B7010008B701000800
:10010000B7010008B7010008B7010008B7010008EF
:10011000B7010008B701000841500008B701000806
:100120006D080008B70100087D0800088D08000868
:10013000B7010008B7010008B7010008B7010008BF
:10014000BD020008B7010008B7010008B7010008A8
:10015000B7010008B70100089D080008B7010008B2
:10016000B7010008B7010008B7010008B70100088F
:10017000B7010008B7010008B7010008000000003F
:10018000B7010008B7010008DFF80CD000F07AF8DA
:1001900000480047E15A0008600F002006488047E9
:1001A00006480047FEE7FEE7FEE7FEE7FEE7FEE75C
:1001B000FEE7FEE7FEE7FEE7FD4F000889010008C5
:1001C0002DE9F05F0546002092469B46884606468C
:1001D000814640241BE0284641464746224600F01F
:1001E00041F853465A46C01A914110D31146184659
:1001F000224600F028F82D1A67EB01084F462246E8
:100200000120002100F01FF817EB00094E41201ECD
:10021000A4F10104DFDC484631462A464346BDE8E6
:10022000F09FD2B201E000F8012B491EFBD27047CB
:100230000022F6E710B513460A4604461946FFF7B2
:10024000F0FF204610BD202A04DB203A00FA02F11C
:10025000002070479140C2F1200320FA03F31943B4
:1002600090407047202A04DB203A21FA02F0002156
:10027000704721FA02F3D040C2F1200291400843B6
:1002800019467047064C074D06E0E06840F0010350
:1002900094E8070098471034AC42F6D3FFF778FF94
:1002A000B05C0008D05C0008FFE7FEE780B540F2D4
:1002B000E460C2F2000000F0DBFE80BD80B540F2D9
:1002C0000C70C2F2000000F0D3FE80BD80B588B093
:1002D000079006910798006846F20041C4F20001B9
:1002E00088423FD1FFE70698A0F201200146059120
:1002F000032835D80599DFE801F0020D192640F2F0
:10030000A820C2F2000040F22C01C2F2000104F069
:1003100033F826E040F2A820C2F20000B43040F2E8
:100320002C01C2F2000104F027F81AE040F2A820E4
:10033000C2F2000000F5B47040F22C01C2F20001DC
:1003400004F01AF80DE040F2A820C2F2000000F517
:10035000077040F22C01C2F2000104F00DF800E039
:10036000FFE7FFE70798006846F60001C4F20001C6
:10037000884258D1FFE70698A0F203200146049175
:1003800008284ED80499DFE801F03B4C4C4C2F2450
:10039000144C050040F27850C2F20000039040F285
:1003A0002C01C2F2000103F0E7FF039804F008F803
:1003B00038E040F27850C2F20000B430029040F2CF
:1003C0002C01C2F2000103F0D7FF029803F0F8FFFE
:1003D00028E040F28C00C2F2000040F22C01C2F290
:1003E000000103F0C9FF1DE040F28C00C2F20000E2
:1003F000B43040F22C01C2F2000103F0BDFF11E065
:1004000040F28C00C2F2000000F5B470019040F29E
:100410002C01C2F2000103F0AFFF019803F0D0FFFE
:1004200000E0FFE7FFE708B080BD000010B58EB028
:100430008C46864611981099CDF834E0ADF832C05C
:10044000ADF83020ADF82E30ADF82C10ADF82A0004
:1004500000200190BDF93210049105900821089107
:10046000069007909DF831008DF808009DF8300047
:100470008DF809009DF82F008DF80A009DF82E00D8
:100480008DF80B009DF82D008DF80C009DF82C00C8
:100490008DF80D009DF82B008DF80E009DF82A00B8
:1004A0008DF80F000D9804A902AA01AB00F05AFBC9
:1004B0000EB010BD80B58AB00121089100200490D3
:1004C0000090019002900390069007910E210991EF
:1004D000059040F2E460C2F20000694600F0FAFBC9
:1004E00018B1FFE700F0B0FAFFE740F2E460C2F2B3
:1004F000000001F093F918B1FFE700F0A5FAFFE75B
:1005000040F2E460C2F20000022100F001FB18B1E9
:10051000FFE700F099FAFFE740F2E460C2F2000062
:10052000012100F0F5FA18B1FFE700F08DFAFFE7BE
:100530000E200990059040F20C70C2F2000069464E
:1005400000F0C8FB18B1FFE700F07EFAFFE740F2C9
:100550000C70C2F2000001F061F918B1FFE700F081
:1005600073FAFFE740F20C70C2F20000022100F0C3
:10057000CFFA18B1FFE700F067FAFFE740F20C701E
:10058000C2F20000012100F0C3FA18B1FFE700F049
:100590005BFAFFE70AB080BD80B594B0139012916A
:1005A00000200790119010900F904FF07E510E9107
:1005B0000D900C900B900A90099008901298B0F949
:1005C000020000EE100AB8EEC00A9DED0E1A20EEF1
:1005D000010A8DED110A1298B0F9040000EE100A1C
:1005E000B8EEC00A9DED0E1A20EE010A8DED100A3C
:1005F0009DED110A9FED751AB4EE410AF1EE10FA65
:1006000005DDFFE79FED710A8DED060A18E09DED0F
:10061000110A9FED6F1AB4EE410AF1EE10FA05DAF5
:10062000FFE79FED6B0A8DED050A04E09DED110AD1
:100630008DED050AFFE79DED050A8DED060AFFE742
:100640009DED060A8DED110A9DED100A9FED5F1AD2
:10065000B4EE410AF1EE10FA05DDFFE79FED5B0A0B
:100660008DED040A18E09DED100A9FED591AB4EEC5
:10067000410AF1EE10FA05DAFFE79FED550A8DED1C
:10068000030A04E09DED100A8DED030AFFE79DEDDE
:10069000030A8DED040AFFE79DED040A8DED100AB3
:1006A0009DED0F0A9FED4B1AB4EE410AF1EE10FAE0
:1006B00005DDFFE79FED470A8DED020A18E09DED8D
:1006C0000F0A9FED451AB4EE410AF1EE10FA05DA71
:1006D000FFE79FED410A8DED010A04E09DED0F0A51
:1006E0008DED010AFFE79DED010A8DED020AFFE79E
:1006F0009DED020A8DED0F0A9DED110A9DED101A78
:1007000030EE010A9DED0F2A9DED0C3A9DED0D1A7C
:1007100022EE032A30EE420A20EE010A139880ED01
:10072000060A9DED111A9DED100A30EE410A9DED6D
:100730000F2A9DED0C3A9DED0D1A22EE032A30EEA4
:10074000420A20EE010A139880ED330A9DED110A4A
:10075000B1EE400A9DED101A30EE410A9DED0F2AD0
:100760009DED0C3A9DED0D1A22EE032A30EE420A61
:1007700020EE010A139880ED600A9DED110A9DEDAF
:10078000101A30EE410A9DED0F2A9DED0C3A9DEDB9
:100790000D1A22EE032A30EE420A20EE010A1398C7
:1007A00080ED8D0A139804F0E1F91398B43004F049
:1007B000DDF9139800F5B47004F0D8F9139800F53A
:1007C000077004F0D3F914B080BD00BF00803B4532
:1007D00000803BC500007A4400007AC481B00090DC
:1007E00040F27000C2F200004168C1F30131009A8A
:1007F00011734168C1F38131009A517301686FF33D
:10080000DF21A1F58061009A51800168C1F3CA21FE
:10081000A1F58061009A918001684268890D41EAE2
:1008200082216FF3DF21A1F58061009AD1804168B8
:10083000C1F34A01A1F58061009A1181C0886FF36C
:10084000DF20A0F580600099488140F2E061C2F2AB
:1008500000010020087001B07047000080B540F62C
:10086000B400C2F2000001F0D3F880BD80B540F2C0
:100870003470C2F2000001F0CBF880BD80B540F2C8
:10088000F470C2F2000001F0C3F880BD80B540F200
:100890009470C2F2000001F0BBF880BD80B540F654
:1008A0005400C2F2000001F0B3F880BD82B00190A4
:1008B0000198007810384AF6AB21CAF6AA21A0FBAD
:1008C000011000090090009945F6A840C0F600000C
:1008D000405C0199C8650098042807D3FFE7019997
:1008E0000868042262F30900886506E00199086837
:1008F00040F2FF3290438865FFE70198806D02B0B7
:100900007047000086B0059000208DF81300059810
:10091000806A03900598806910BBFFE703980290F6
:1009200003281BD80299DFE801F0020D0218059890
:1009300090F82F00C00720B1FFE701208DF81300C9
:10094000FFE70CE00598C06AB0F1C07F04D1FFE773
:1009500001208DF81300FFE701E000E0FFE745E02C
:1009600005988069B0F5005F25D1FFE703980190F5
:1009700003281ED80199DFE801F0020602110120C8
:100980008DF8130016E0059890F82F00C00720B1ED
:10099000FFE701208DF81300FFE70BE00598C06A20
:1009A000B0F1C07F04D1FFE701208DF81300FFE70D
:1009B00000E0FFE719E003980090032804D3FFE765
:1009C0000098032804D00EE001208DF813000BE0FE
:1009D000059890F82F00C00720B1FFE701208DF89F
:1009E0001300FFE700E0FFE7FFE7FFE79DF81300D4
:1009F00006B0704784B0039002910192009303986F
:100A00000168086820F4802008600098039909684C
:100A1000486003988068402809D1FFE7019803994E
:100A200009688860029803990968C86008E002981C
:100A3000039909688860019803990968C860FFE70D
:100A400004B070477047000081B0EFF3108072B6B9
:100A50000090FFE7FEE7000080B582B001900091B2
:100A60000098B0F9060000EE100AB8EEC01A01981E
:100A700090ED060A9FED232A21EE021A30EE410A7C
:100A800080ED060A0098B0F9080000EE100AB8EEF2
:100A9000C00A019890ED331A20EE020A30EE010AE6
:100AA00080ED330A019890ED330A9FED171AB4EEEA
:100AB000410AF1EE10FA08DDFFE7019942F2000069
:100AC000C4F2CB50C1F8CC0013E0019890ED330A8A
:100AD0009FED0E1AB4EE410AF1EE10FA08DAFFE7C4
:100AE00001994AF20000C4F28C50C1F8CC00FFE733
:100AF000FFE7019803F030FF0198B43003F02CFFBA
:100B000002B080BD6F12033B0020CB4500A08C4596
:100B100084B002900191029890F820008DF80300B3
:100B20009DF80300012805D0FFE79DF80300022887
:100B30000AD1FFE7019A02980168486910434861A9
:100B400000208DF80F0008E00299486A40F48020E8
:100B5000486201208DF80F00FFE79DF80F0004B0F8
:100B60007047000088B006900591049203930698A0
:100B700090F820008DF807000698006880680090C3
:100B80000598806808B9FFE700E0FFE79DF80700D7
:100B9000012806D0FFE79DF80700022840F08D806D
:100BA000FFE79DF80300400700280CD4FFE79DF8FD
:100BB00003000007002806D4FFE79DF80300C006E5
:100BC000002871D5FFE70098C0F3016002900298F9
:100BD000032809D3FFE70699486A40F400004862F9
:100BE00001208DF81F0071E00299012088400399CF
:100BF00008600598806868B9FFE705980168C068D3
:100C000040EA415006990968029A01EB0211C1F8C5
:100C100080010EE005994A688868C96840EAC20008
:100C2000084306990968029A01EB0211C1F8800194
:100C3000FFE70598006906990968029A01EB02111D
:100C4000C1F884010598007D01280CD1FFE70698C2
:100C50000068029900EB0111D1F8840140F4807022
:100C6000C1F88401FFE70498406806990968029A70
:100C700001EB0211C1F88C0104980068069909681B
:100C8000029A01EB0211C1F88801069800680299E6
:100C900000EB0111D1F8800140F00100C1F88001A2
:100CA00000208DF81F0011E00699486A40F40010FA
:100CB000486201208DF81F0008E00699486A40F458
:100CC0008020486201208DF81F00FFE79DF81F007B
:100CD00008B0704786B004900391049800680190B2
:100CE000049890F820008DF803009DF80300012877
:100CF00006D0FFE79DF80300022840F0B080FFE730
:100D000046F20040C4F2000001900199D1F80002BF
:100D100040F00100C1F800020199D1F8000220F46E
:100D20007C50C1F800020398426A0199D1F8000290
:100D300040EA0220C1F800020398406900F01F0158
:100D4000012088400290029A0199D1F81C02904338
:100D5000C1F81C020398C069F0B9FFE7029A019933
:100D6000D1F80C029043C1F80C02039A9088D16824
:100D7000526940EA0140019901EBC201C1F8400209
:100D8000039A10889168526940EA0140019901EB89
:100D9000C201C1F84402FFE70398C06901281ED1CF
:100DA000FFE7029A0199D1F80C021043C1F80C0236
:100DB000039A90881168526940EA0140019901EB59
:100DC000C201C1F84002039A90899168526940EAD1
:100DD0000140019901EBC201C1F84402FFE7039809
:100DE000806940B9FFE7029A0199D1F80402904363
:100DF000C1F8040207E0029A0199D1F804021043F5
:100E0000C1F80402FFE70398006940B9FFE7029ABE
:100E10000199D1F814029043C1F8140207E0029A34
:100E20000199D1F814021043C1F81402FFE70398A6
:100E3000006A012808D1FFE7029A0199D1F81C0243
:100E40001043C1F81C02FFE70199D1F8000220F01D
:100E50000100C1F8000200208DF8170008E0049995
:100E6000486A40F48020486201208DF81700FFE7AF
:100E70009DF8170006B0704781B0009001B0704730
:100E800086B00490039102920193049890F8200098
:100E90008DF803009DF80300012806D0FFE79DF8B8
:100EA0000300022840F0D780FFE7039880B9FFE7EE
:100EB00004980068C068800748B9FFE70499486A49
:100EC00040F40010486201208DF81700CCE00FE0DC
:100ED000049800680069800748B9FFE70499486AE8
:100EE00040F40010486201208DF81700BCE0FFE7D5
:100EF00004980068039900EB0110D0F8B00100F0ED
:100F00000400029988600298806858B9FFE7049845
:100F10000068039900EB0110D0F8B001400D029970
:100F200008600AE004980068039900EB0110D0F80B
:100F3000B001C00802994860FFE70498006803996F
:100F400000EB0110D0F8B00100F002000299C86077
:100F500004980068039900EB0110D0F8B40100F088
:100F60000F000299086104980068039900EB0110D2
:100F7000D0F8B40180B2000A029988610498006830
:100F8000039900EB0110D0F8B401000C02994861FC
:100F900004980068039900EB0110D0F8B80101999A
:100FA000087004980068039900EB0110D0F8B801AC
:100FB000000A0199487004980068039900EB011039
:100FC000D0F8B801000C0199887004980068039962
:100FD00000EB0110D0F8B801000E0199C870049818
:100FE0000068039900EB0110D0F8BC010199087169
:100FF00004980068039900EB0110D0F8BC01000AC6
:101000000199487104980068039900EB0110D0F829
:10101000BC01000C0199887104980068039900EBE9
:101020000110D0F8BC01000E0199C871039838B9BD
:10103000FFE704980168C86840F02000C86006E037
:1010400004980168086940F020000861FFE700206B
:101050008DF8170008E00499486A40F4802048623F
:1010600001208DF81700FFE79DF8170006B07047C4
:1010700080B58AB0099000200890099800684069FE
:101080000790099800684068069009980068806891
:10109000059009980068C068049009980068006984
:1010A000039009980068806902909DF81C00C007B1
:1010B000002800F09480FFE79DF81400C00758B3A3
:1010C000FFE709980168012088609DF814008007F7
:1010D000002804D5FFE7099800F0EAFB1BE09DF823
:1010E00014004007002805D5FFE7089840F4006089
:1010F00008900FE09DF814000007002805D5FFE7D1
:10110000089840F48050089003E0099800F0CCFB68
:10111000FFE7FFE7FFE7FFE79DF81500C00760B3B3
:10112000FFE7099801684FF4807088609DF815000A
:101130008007002804D5FFE7099800F0C1FB1BE0F9
:101140009DF815004007002805D5FFE7089840F4F2
:10115000005008900FE09DF815000007002805D505
:10116000FFE7089840F48040089003E0099800F0F9
:10117000A3FBFFE7FFE7FFE7FFE79DF81600C007C7
:1011800060B3FFE7099801684FF4803088609DF8EC
:1011900016008007002804D5FFE7099800F098FBA7
:1011A0001BE09DF816004007002805D5FFE70898CA
:1011B00040F4004008900FE09DF81600000700285A
:1011C00005D5FFE7089840F48030089003E00998BF
:1011D00000F07AFBFFE7FFE7FFE7FFE7FFE79DF897
:1011E0001C000007002810D5FFE79DF81000C0067E
:1011F000002809D5FFE7089840F400700890099886
:1012000001681020C860FFE7FFE79DF81C00400759
:1012100000280FD5FFE79DF810000007002808D52B
:10122000FFE7099801680820C860099800F0CEFA25
:10123000FFE7FFE79DF81C00800700280BD5FFE7BC
:1012400009980068C068800720B1FFE7099800F09E
:10125000C1FAFFE7FFE79DF81C004006002810D503
:10126000FFE79DF80C00C006002809D5FFE70898A5
:1012700040F4806008900998016810200861FFE739
:10128000FFE79DF81C00800600280FD5FFE79DF8BA
:101290000C000007002808D5FFE70998016808201E
:1012A0000861099800F0AEFAFFE7FFE79DF81C001F
:1012B000C00600280BD5FFE7099800680069800781
:1012C00020B1FFE7099800F0A1FAFFE7FFE79DF8DA
:1012D0001E00800700280FD5FFE79DF81800C00604
:1012E000002808D5FFE70998016810204860099890
:1012F00000F090FAFFE7FFE79DF81E00C00778B105
:10130000FFE79DF818000007002808D5FFE70998B7
:10131000016808204860099800F0DEFAFFE7FFE75F
:101320009DF81D000006002840F18D80FFE79DF824
:1013300018004007002840F18180FFE79DF81D005C
:10134000C00750B1FFE79DF80800C00728B1FFE7CC
:10135000089840F001000890FFE79DF81D00800705
:1013600000280BD5FFE79DF808008007002805D569
:10137000FFE7089840F002000890FFE79DF81D0085
:10138000400700280BD5FFE79DF80800400700281C
:1013900005D5FFE7089840F004000890FFE79DF8A6
:1013A0001D000007002848D5FFE79DF8080010F051
:1013B000700F42D0FFE7029800F0700001460191E3
:1013C000102814D0FFE70198202815D0FFE70198D6
:1013D000302816D0FFE70198402817D0FFE7019882
:1013E000502818D0FFE70198602819D01DE0089810
:1013F00040F00800089019E0089840F010000890AC
:1014000014E0089840F0200008900FE0089840F0A1
:10141000400008900AE0089840F08000089005E03D
:10142000089840F48070089000E0FFE70998016890
:10143000886920F070008861FFE7FFE7099801687C
:1014400004204860FFE7089848B1FFE7089A099927
:10145000486A104348620998FFF70EFDFFE70AB09B
:1014600080BD000080B584B00290029820B9FFE7EB
:1014700001208DF80F00E0E0029890F8200020B9DC
:10148000FFE7029800F0DEF8FFE7029801680868BD
:1014900040F00100086000F063FF0190FFE7029850
:1014A00000684068C007A8B9FFE700F059FF01993C
:1014B000401A0B280DD3FFE70299486A40F4003028
:1014C00048620299052081F8200001208DF80F0064
:1014D000B3E0E4E702980168086820F002000860C1
:1014E00000F03EFF0190FFE7029800684068800727
:1014F000002815D5FFE700F033FF0199401A0B28AB
:101500000DD3FFE70299486A40F40030486202991F
:10151000052081F8200001208DF80F008DE0E3E721
:101520000298007E012807D1FFE702980168086849
:1015300040F08000086006E002980168086820F02A
:1015400080000860FFE70298407E012807D1FFE78E
:1015500002980168086840F04000086006E00298C0
:101560000168086820F040000860FFE70298807E6C
:10157000012807D1FFE702980168086840F02000C1
:10158000086006E002980168086820F02000086002
:10159000FFE70298C07E012807D1FFE702980168A3
:1015A000086820F01000086006E0029801680868EA
:1015B00040F010000860FFE70298007F012807D183
:1015C000FFE702980168086840F00800086006E03C
:1015D00002980168086820F008000860FFE7029898
:1015E000407F012807D1FFE702980168086840F0B2
:1015F0000400086006E002980168086820F0040012
:101600000860FFE7029B19685A689868D3F80CC015
:1016100040EA0C00D3F810C040EA0C005B691843A4
:10162000013A1043C861029900204862029A0121E0
:1016300082F820108DF80F00FFE79DF80F0004B02E
:1016400080BD000080B592B01190002010900F90E6
:101650000E900D900C901198006846F20041C4F273
:10166000000188424AD1FFE740F28800C2F2000040
:101670000168013101600068012812D1FFE7FFE72E
:1016800000200B9043F64000C4F20200016841F0D4
:1016900000710160006800F000700B900B98FFE78C
:1016A000FFE7FFE700200A9043F63000C4F2020093
:1016B000016841F008010160006800F008000A902C
:1016C0000A98FFE703200C90022104910D9100215C
:1016D00005910E910F900920109040F60040C4F241
:1016E00002000CA900F060FC0499059A14200690F1
:1016F00000F0CEFE069800F0C1FE65E0119800688B
:1017000046F60001C4F2000188425CD1FFE7FFE722
:101710000020099043F64000C4F20200016841F045
:1017200080610160006800F0806009900998FFE71F
:1017300040F28800C2F200000168013101600068D7
:10174000012812D1FFE7FFE70020089043F6400090
:10175000C4F20200016841F000710160006800F00D
:10176000007008900898FFE7FFE7FFE70020079068
:1017700043F63000C4F20200016841F0020101604A
:10178000006800F0020007900798FFE760200C90C7
:10179000022001900D90002002900E9003200F90E7
:1017A0000920109040F20040C4F202000CA900F0A1
:1017B000FBFB0199029A4020039000F069FE039818
:1017C00000F05CFEFFE7FFE712B080BD81B0009043
:1017D00001B0704780B582B00190019840F21002CC
:1017E000C2F20002009240F22C03C2F20003002178
:1017F000FFF746FB009901980968FEF767FD02B004
:1018000080BD000081B0009001B0704781B00090B1
:1018100001B0704781B0009001B0704780B584B0CE
:101820000290029890F8200001282FD1FFE702993A
:10183000022081F8200002980168086820F0010069
:10184000086000F08DFD0190FFE702980068406895
:10185000C007A8B1FFE700F083FD0199401A0B28EB
:101860000DD3FFE70299486A40F4003048620299BC
:10187000052081F8200001208DF80F000FE0E4E73B
:101880000299002048628DF80F0008E00299486A2A
:1018900040F40020486201208DF80F00FFE79DF81A
:1018A0000F0004B080BD000081B0009001B070470F
:1018B00081B0009001B0704781B0009001B07047D6
:1018C00081B0009001B0704781B0009001B07047C6
:1018D00081B0009001B0704781B0009001B07047B6
:1018E00080B584B002900298806D019000F038FDC0
:1018F0000090029890F8350002280DD0FFE7029979
:1019000080204865FFE70299002081F83400FFE756
:1019100001208DF80F0055E002980168086820F05A
:101920001600086002980168486920F0800048614C
:101930000298006C20B9FFE70298806C38B1FFE78D
:1019400002980168086820F008000860FFE7029824
:101950000168086820F001000860FFE7029800684D
:101960000068C007C8B1FFE700F0FAFC0099401A10
:10197000062811D3FFE70299202048650299032029
:1019800081F83500FFE70299002081F83400FFE775
:1019900003208DF80F0015E0E0E70298C16D3F20AD
:1019A0008840019988600299012081F83500FFE79D
:1019B0000299002081F83400FFE7FFE700208DF84E
:1019C0000F00FFE79DF80F0004B080BD82B00090CB
:1019D000009890F83500022807D0FFE70099802092
:1019E000486501208DF807000EE00099052081F878
:1019F000350000980168086820F001000860FFE7E2
:101A000000208DF80700FFE79DF8070002B070473F
:101A100080B586B005900020039040F20000C2F22D
:101A20000000006848F2B511C1F64E31A0FB01106C
:101A3000800A02900598806D0190019800680490DA
:101A400004980599C96DC840000700281AD5FFE71A
:101A50000598006800684007002812D5FFE7059840
:101A60000168086820F0040008600598C16D08202E
:101A70008840019988600599486D40F001004865EB
:101A8000FFE7FFE704980599C96DC840C007A0B1FA
:101A9000FFE7059800684069000600280CD5FFE7BD
:101AA0000598C16D01208840019988600599486DAD
:101AB00040F002004865FFE7FFE704980599C96D0B
:101AC000C8404007002814D5FFE705980068006863
:101AD000800700280CD5FFE70598C16D04208840D9
:101AE000019988600599486D40F004004865FFE75A
:101AF000FFE704980599C96DC840C006002847D57E
:101B0000FFE7059800680068000700283FD5FFE759
:101B10000598C16D1020884001998860059800687B
:101B20000068400300281AD5FFE7059800680068A0
:101B30000003002809D4FFE70598006C20B1FFE7F7
:101B40000598016C8847FFE708E00598806C20B194
:101B5000FFE70598816C8847FFE7FFE716E00598E7
:101B600000680068C005002807D4FFE705980168F1
:101B7000086820F008000860FFE70598006C20B1B5
:101B8000FFE70598016C8847FFE7FFE7FFE7FFE7FE
:101B900004980599C96DC8408006002840F18D80E1
:101BA000FFE7059800680068C006002840F18480BF
:101BB000FFE70598C16D202088400199886005984D
:101BC00090F83500052834D1FFE7059801680868CA
:101BD00020F01600086005980168486920F0800030
:101BE00048610598006C20B9FFE70598806C38B112
:101BF000FFE705980168086820F008000860FFE723
:101C00000598C16D3F2088400199886005990120A1
:101C100081F83500FFE70599002081F83400FFE7DF
:101C20000598006D20B1FFE70598016D8847FFE733
:101C30007BE0059800680068400300281AD5FFE79C
:101C40000598006800680003002809D4FFE705989C
:101C5000406C20B1FFE70598416C8847FFE708E03A
:101C60000598C06B20B1FFE70598C16B8847FFE777
:101C7000FFE720E0059800680068C005002811D43F
:101C8000FFE705980168086820F0100008600599D2
:101C9000012081F83500FFE70599002081F8340024
:101CA000FFE7FFE70598C06B20B1FFE70598C16B20
:101CB0008847FFE7FFE7FFE7FFE70598406DA0B320
:101CC000FFE70598406DC00730B3FFE70599052091
:101CD00081F8350005980168086820F00100086067
:101CE000FFE70398013003900299884201D9FFE78A
:101CF00007E0FFE7059800680068C0070028F0D1FA
:101D0000FFE70599012081F83500FFE705990020DC
:101D100081F83400FFE7FFE70598C06C20B1FFE7CA
:101D20000598C16C8847FFE7FFE706B080BD00005B
:101D300080B586B004900020039000F011FB029063
:101D4000049820B9FFE701208DF81700A3E004985C
:101D5000406A08B1FFE7FFE70499022081F83500E7
:101D6000FFE70499002081F83400FFE70498016838
:101D7000086820F001000860FFE704980068006828
:101D8000C00790B1FFE700F0EBFA0299401A06286D
:101D90000AD3FFE70499202048650499032081F8BD
:101DA00035008DF8170076E0E7E7049800680068D2
:101DB0000390039848F23F01CFF2100108400390CE
:101DC000049900914868D1F808C0CB680A6940EAD4
:101DD0000C00184310434A6910438A691043CA69CA
:101DE0001043096A01430398084303900498406A2A
:101DF000042808D1FFE70499C86A096B01430398D6
:101E000008430390FFE70398049909680860049861
:101E1000006840690390039820F00700039004983D
:101E2000416A0398084303900498406A04281AD131
:101E3000FFE70498816A0398084303900498C06AF6
:101E400080B1FFE70498FEF75DFD50B1FFE704990C
:101E5000402048650499012081F835008DF817006D
:101E600019E0FFE7FFE703980499096848610498BF
:101E7000FEF71CFD01900498C16D3F208840019938
:101E80008860049900204865049A012182F8351081
:101E90008DF81700FFE79DF8170006B080BD000021
:101EA00080B588B0069005910492039300208DF8C8
:101EB0000B000698806D0190FFE7069890F83400BB
:101EC000012804D1FFE702208DF81F0045E00699A4
:101ED000012081F83400FFE7FFE7069890F835000D
:101EE00001282BD1FFE70699022081F835000699D9
:101EF0000020486506980599049A039BFEF77AFD31
:101F00000698C16D3F208840019988600698016855
:101F1000086840F0160008600698006C38B1FFE7CA
:101F200006980168086840F008000860FFE7069816
:101F30000168086840F00100086009E0FFE70699C1
:101F4000002081F83400FFE702208DF80B00FFE746
:101F50009DF80B008DF81F00FFE79DF81F0008B0EB
:101F600080BD000080B584B0039000F0F9F90290C4
:101F7000039801900198013048B1FFE740F2040056
:101F8000C2F200000178019808440190FFE7FFE7E2
:101F900000F0E6F90299401A0199884201D2FFE760
:101FA000F6E704B080BD00008EB00D900C910020CB
:101FB0000A90099008900B90FFE70B980F2800F209
:101FC000CC81FFE70B99012088400A900C980068AB
:101FD0000A990840099009980A99884240F0B88106
:101FE000FFE70C98406800F00300012807D0FFE7E6
:101FF0000C98406800F0030002282FD1FFE70D98ED
:10200000806808900B984100032000FA01F10898BD
:10201000884308900C98C0680B99490000FA01F1B8
:1020200008980843089008980D9988600D984068B2
:1020300008900B99012000FA01F108988843089054
:102040000C984068C0F300100B9900FA01F1089851
:102050000843089008980D994860FFE70C9840687D
:1020600000F00300032818D0FFE70D98C06808901F
:102070000B984100032000FA01F10898884308906A
:102080000C9880680B99490000FA01F10898084300
:10209000089008980D99C860FFE70C98406800F018
:1020A0000300022826D1FFE70D980B996FF0030279
:1020B00002EA51010844006A08900B9800F00700FA
:1020C00081000F2000FA01F10898884308900C98CD
:1020D00000690B9901F00701890000FA01F10898E5
:1020E0000843089008980D990B9B02EA530211448B
:1020F0000862FFE70D98006808900B9841000320E4
:1021000000FA01F10898884308900C98406800F0A4
:1021100003000B99490000FA01F108980843089060
:1021200008980D9908600C9880798007002800F0C5
:102130000E81FFE7FFE70020079043F64400C4F25A
:102140000200016841F480410160006800F48040B1
:1021500007900798FFE70B9820F0030043F608016B
:10216000C4F20101405808900B9800F00300810070
:102170000F2000FA01F10898884308900D9800217B
:10218000C4F20201884203D1FFE7002006905EE01E
:102190000D9840F20041C4F20201884203D1FFE7EA
:1021A0000120059050E00D9840F60001C4F20201B4
:1021B000884203D1FFE70220049042E00D9840F6E8
:1021C0000041C4F20201884203D1FFE703200390DB
:1021D00034E00D9841F20001C4F20201884203D1BB
:1021E000FFE70420029026E00D9841F20041C4F27E
:1021F0000201884203D1FFE70520019018E00D9805
:1022000041F60001C4F20201884203D1FFE7062033
:1022100000900AE00D9941F60042C4F20202082043
:10222000914208BF07200090FFE700980190FFE768
:1022300001980290FFE702980390FFE7039804904B
:10224000FFE704980590FFE705980690FFE70698DA
:10225000C0B20B9901F00301890000FA01F108985E
:102260000843089008980B9921F0030143F60802EF
:10227000C4F20102885043F60840C4F2010000682D
:10228000089009990898884308900C988079C006AE
:10229000002805D5FFE70999089808430890FFE74B
:1022A000089843F60841C4F20101086043F60C4067
:1022B000C4F20100006808900999089888430890C2
:1022C0000C9880798006002805D5FFE709990898C1
:1022D00008430890FFE7089843F60C41C4F2010157
:1022E000086043F60440C4F20100006808900999B0
:1022F0000898884308900C9880798007002805D5B5
:10230000FFE70999089808430890FFE7089843F603
:102310000441C4F20101086043F60040C4F2010028
:102320000068089009990898884308900C9880796B
:10233000C00728B1FFE70999089808430890FFE70C
:10234000089843F60041C4F201010860FFE7FFE787
:10235000FFE70B9801300B902FE60EB0704700009E
:1023600040F65830C2F200000068704740F20400A6
:10237000C2F20000027840F65831C2F2000108684B
:10238000104408607047000080B543F60041C4F275
:102390000201086840F400700860086840F480603A
:1023A0000860086840F480700860032000F08AF834
:1023B0000F2000F005F800F03BF8002080BD000081
:1023C00080B582B0009040F20000C2F200000068C8
:1023D00040F20401C2F200010A784FF47A71B1FBB5
:1023E000F2F1B0FBF1F000F0EFFE20B1FFE70120C9
:1023F0008DF8070018E000980F280DD8FFE7009926
:102400004FF0FF30002200F043F8009840F208013E
:10241000C2F20001086003E001208DF8070003E02C
:1024200000208DF80700FFE79DF8070002B080BD8F
:1024300082B0FFE70020019043F64400C4F202009E
:10244000016841F480410160006800F4804001901F
:102450000198FFE7FFE70020009043F64000C4F238
:102460000200016841F080510160006800F0805076
:1024700000900098FFE702B07047000080B582B07E
:102480008DF807009DF9070003F0CAFA02B080BD7D
:1024900080B586B08DF81700049103920020029059
:1024A00003F0D6FA02909DF9170001900298049962
:1024B000039A02F01BFA0146019803F0D1FA06B024
:1024C00080BD000080B582B00190019803F0EAFA67
:1024D00002B080BD80B584B002900191029820B90D
:1024E000FFE701208DF80F0021E1019843F600413C
:1024F000C4F20201096801F00701884212D9FFE71E
:10250000019943F60040C4F202000170006800F037
:1025100007000199884204D0FFE701208DF80F00E1
:1025200005E1FFE702980078800700282AD5FFE739
:10253000029800784007002809D5FFE743F6080114
:10254000C4F20201086840F4E0500860FFE7029816
:1025500000780007002809D5FFE743F60801C4F218
:102560000201086840F460400860FFE743F6080194
:10257000C4F20201086820F0F000029A9268104349
:102580000860FFE702980078C00700286ED0FFE7D8
:1025900002984068012811D1FFE743F60000C4F219
:1025A0000200006800F400310020B0EB514F04D16C
:1025B000FFE701208DF80F00B9E02CE00298406899
:1025C000022805D0FFE702984068032811D1FFE7F1
:1025D00043F60000C4F20200006800F00071002021
:1025E000B0EB516F04D1FFE701208DF80F009EE0A2
:1025F00010E043F60000C4F20200006800F002019F
:102600000020B0EB510F04D1FFE701208DF80F003F
:102610008DE0FFE7FFE743F60801C4F20201086816
:1026200020F00300029A526810430860FFF798FEFA
:102630000090FFE743F60800C4F20200006800F0D3
:102640000C0002994968B0EB810F0ED0FFE7FFF74D
:1026500087FE0099401A41F28931884204D3FFE78E
:1026600003208DF80F0062E0E4E7FFE7019843F6EE
:102670000041C4F20201096801F00701884212D248
:10268000FFE7019943F60040C4F2020001700068C0
:1026900000F007000199884204D0FFE701208DF87F
:1026A0000F0044E0FFE702980078400700280CD5AF
:1026B000FFE743F60801C4F20201086820F4E05085
:1026C000029AD26810430860FFE70298007800077A
:1026D00000280DD5FFE743F60801C4F2020108689F
:1026E00020F46040029A126940EAC2000860FFE7E5
:1026F00000F04CF843F60801C4F202010968C9B2BF
:102700000A0945F69041C0F60001895CC84040F2D4
:102710000001C2F20001086040F20800C2F20000AD
:102720000068FFF74DFE00208DF80F00FFE79DF8D1
:102730000F0004B080BD000040F20000C2F20000B3
:102740000068704780B5FFF7F7FF43F60801C4F251
:1027500002010968C1F3822245F6A041C0F60001DA
:10276000895CC84080BD000080B5FFF7E5FF43F6F7
:102770000801C4F20201096889B24A0B45F6A0417A
:10278000C0F60001895CC84080BD000080B586B0FD
:102790000020059004900390029043F60800C4F2D4
:1027A0000200006800F00C000146019140B1FFE713
:1027B000019804280AD0FFE7019808280CD04FE0C0
:1027C00042F20040C0F2F40002904FE041F60030C7
:1027D000C0F2B700029049E043F60400C4F20200E0
:1027E000016801F03F01059100684002002813D5FF
:1027F000FFE743F60400C4F202000068C0F388104B
:1028000041F60031C0F2B701A0FB0101059A002397
:10281000FDF7D6FC049012E043F60400C4F2020077
:102820000068C0F3881042F20041C0F2F401A0FB3E
:102830000101059A0023FDF7C3FC0490FFE743F66E
:102840000400C4F20200006800F44031022000EBF2
:10285000D130039004980399B0FBF1F0029005E0A9
:1028600042F20040C0F2F4000290FFE7029806B086
:1028700080BD000080B586B00490049820B9FFE7C1
:1028800001208DF8170050E304980078C007002855
:1028900000F0A580FFE743F60800C4F202000068DC
:1028A00000F00C00042813D0FFE743F60800C4F240
:1028B0000200006800F00C0008281ED1FFE743F674
:1028C0000400C4F2020000684002002815D5FFE7AA
:1028D00043F60000C4F20200006800F4003100205A
:1028E000B0EB514F08D0FFE70498406820B9FFE7EC
:1028F00001208DF8170018E370E0FFE704984068A6
:10290000B0F5803F09D1FFE743F60001C4F20201B0
:10291000086840F48030086020E004984068B0F512
:10292000A02F0DD1FFE743F60001C4F202010868B1
:1029300040F480200860086840F4803008600CE0B3
:1029400043F60001C4F20201086820F480300860F8
:10295000086820F480200860FFE7FFE7FFE704989D
:102960004068E8B1FFE7FFF7FBFC0390FFE743F6A1
:102970000000C4F20200006800F400310020B0EB57
:10298000514F0CD1FFE7FFF7EBFC0399401A652884
:1029900004D3FFE703208DF81700C6E2E7E71CE049
:1029A000FFF7DEFC0390FFE743F60000C4F20200ED
:1029B000006800F400310020B0EB514F0CD0FFE76D
:1029C000FFF7CEFC0399401A652804D3FFE70320E4
:1029D0008DF81700A9E2E7E7FFE7FFE7FFE70498B4
:1029E00000788007002840F19680FFE743F6080052
:1029F000C4F20200006810F00C0F13D0FFE743F69A
:102A00000800C4F20200006800F00C0008282CD175
:102A1000FFE743F60400C4F2020000684002002809
:102A200023D4FFE743F60000C4F20200006800F080
:102A300002010020B0EB510F09D0FFE70498C068F5
:102A4000012804D0FFE701208DF817006DE243F65E
:102A50000001C4F20201086820F0F800049A12692B
:102A600040EAC2000860FFE754E00498C06870B311
:102A7000FFE70021C4F2472101200860FFF770FC46
:102A80000390FFE743F60000C4F20200006800F084
:102A900002010020B0EB510F0CD1FFE7FFF760FC03
:102AA0000399401A032804D3FFE703208DF8170089
:102AB0003BE2E7E743F60001C4F20201086820F0B8
:102AC000F800049A126940EAC200086021E000217F
:102AD000C4F2472100200860FFF742FC0390FFE7A3
:102AE00043F60000C4F20200006800F0020100207A
:102AF000B0EB510F0CD0FFE7FFF732FC0399401AFF
:102B0000032804D3FFE703208DF817000DE2E7E761
:102B1000FFE7FFE7FFE704980078000700284BD5A0
:102B2000FFE70498406918B3FFE740F68061C4F2FC
:102B3000472101200860FFF713FC0390FFE743F6ED
:102B40007400C4F20200006800F002010020B0EB43
:102B5000510F0CD1FFE7FFF703FC0399401A03283C
:102B600004D3FFE703208DF81700DEE1E7E722E05A
:102B700040F68061C4F2472100200860FFF7F0FBB7
:102B80000390FFE743F67400C4F20200006800F00F
:102B900002010020B0EB510F0CD0FFE7FFF7E0FB84
:102BA0000399401A032804D3FFE703208DF8170088
:102BB000BBE1E7E7FFE7FFE704980078400700285C
:102BC00040F1CE80FFE700208DF8070043F640007B
:102BD000C4F202000068C000002815D4FFE7FFE738
:102BE0000020009043F64000C4F20200016841F06A
:102BF00080510160006800F0805000900098FFE76D
:102C000001208DF80700FFE747F20000C4F2000042
:102C10000068C005002822D4FFE747F20001C4F293
:102C20000001086840F480700860FFF799FB03908A
:102C3000FFE747F20000C4F200000068C00500286A
:102C40000CD4FFE7FFF78CFB0399401A032804D349
:102C5000FFE703208DF8170067E1EAE7FFE7FFE7EA
:102C600004988068012809D1FFE743F67001C4F297
:102C70000201086840F0010008601FE004988068C5
:102C800005280DD1FFE743F67001C4F20201086880
:102C900040F004000860086840F0010008600CE0A3
:102CA00043F67001C4F20201086820F001000860D8
:102CB000086820F004000860FFE7FFE7FFE70498DA
:102CC0008068F8B1FFE7FFF74BFB0390FFE743F69F
:102CD0007000C4F20200006800F002010020B0EBB6
:102CE000510F0ED1FFE7FFF73BFB0399401A41F26A
:102CF0008931884204D3FFE703208DF8170014E1DF
:102D0000E5E71EE0FFF72CFB0390FFE743F67000BA
:102D1000C4F20200006800F002010020B0EB510F85
:102D20000ED0FFE7FFF71CFB0399401A41F28931EF
:102D3000884204D3FFE703208DF81700F5E0E5E7AC
:102D4000FFE79DF80700012809D1FFE743F640019E
:102D5000C4F20201086820F080500860FFE7FFE736
:102D600004988069002800F0DC80FFE743F6080043
:102D7000C4F20200006800F00C00082800F0858012
:102D8000FFE70498806902285CD1FFE76021C4F264
:102D9000472100200860FFF7E3FA0390FFE743F6BE
:102DA0000000C4F20200006800F000710020B0EBE7
:102DB000516F0CD0FFE7FFF7D3FA0399401A0328AD
:102DC00004D3FFE703208DF81700AEE0E7E704998E
:102DD000C869D1F820C04B6A8A6A40EA0C0040EA10
:102DE0008310D2034FF6FF739A43A2F5803210434B
:102DF000C96A40EA016043F60401C4F202010860B6
:102E00006021C4F2472101200860FFF7A9FA03906E
:102E1000FFE743F60000C4F20200006800F0007112
:102E20000020B0EB516F0CD1FFE7FFF799FA03993F
:102E3000401A032804D3FFE703208DF8170074E03D
:102E4000E7E721E06021C4F2472100200860FFF796
:102E500087FA0390FFE743F60000C4F2020000681F
:102E600000F000710020B0EB516F0CD0FFE7FFF7CE
:102E700077FA0399401A032804D3FFE703208DF85B
:102E8000170052E0E7E7FFE74AE00498806901286D
:102E900004D1FFE701208DF8170046E043F6040057
:102EA000C4F202000068029004988069012831D0C1
:102EB000FFE7029800F480000499C969884229D18B
:102EC000FFE7029800F03F000499096A884221D187
:102ED000FFE7029847F6C07108400499496AB0EBD1
:102EE000811F17D1FFE7029800F440300499896AE6
:102EF000C9034FF6FF729143A1F58031884209D191
:102F0000FFE7029800F070600499C96AB0EB016FA6
:102F100004D0FFE701208DF8170006E0FFE7FFE788
:102F2000FFE700208DF81700FFE79DF8170006B0B7
:102F300080BD000080B584B00290029820B9FFE700
:102F400001208DF80F0071E00298406A60B9FFE738
:102F500002984068B0F5827F01D1FFE703E0029953
:102F60000020C861FFE705E002990020086102998E
:102F70004861FFE7029900208862029890F85100AA
:102F800040B9FFE70299002081F85000029800F054
:102F900051F8FFE70299022081F851000298016878
:102FA000086820F040000860029A01921168506899
:102FB000D2F808C0D36800F482700CF4044C60446A
:102FC00003F400631844136903F0020318445369BF
:102FD00003F001031844936903F400731844D369A0
:102FE00003F038031844136A03F080031843926A0D
:102FF00002F4005210430860029A508B00F0040063
:103000001168526A02F01002104448600298016888
:10301000C86920F40060C861029900204865029ADE
:10302000012182F851108DF80F00FFE79DF80F0085
:1030300004B080BD80B590B00F9000200E900D9030
:103040000C900B900A900F98006843F20001C4F2B4
:103050000101884240F0B680FFE7FFE700200990B9
:1030600043F64400C4F20200016841F4805101605B
:10307000006800F4805009900998FFE7FFE70020FE
:10308000089043F63000C4F20200016841F00201EA
:103090000160006800F0020008900898FFE7FFE771
:1030A0000020079043F63000C4F20200016841F0AE
:1030B00001010160006800F0010007900798FFE738
:1030C00018200A90022001900B90002005900C908F
:1030D000032002900D90052003900E9040F20040D6
:1030E000C4F202000AA90491FEF75EFFDDF804C0F5
:1030F000029A03980499059B4FF0800ECDF828E0C2
:10310000CDF82CC00C930D920E900020C4F202005A
:10311000FEF74AFF059940F23470C2F200000690B3
:1031200046F21042C4F2020202604FF0C0624260F6
:103130008160C1604FF48062026141618161C1615F
:103140004FF4403202624162FEF7F2FD18B1FFE730
:10315000FDF77AFCFFE7FFE70F9840F23471C2F207
:103160000001C1640F988863FFE740F29470C2F2D7
:103170000000009046F25841C4F2020101604FF095
:10318000C0614160402181600021C1604FF48062D4
:10319000026141618161C1614FF44032026241626A
:1031A000FEF7C6FD18B1FFE7FDF74EFCFFE7FFE7AE
:1031B0000F9840F29471C2F2000181640F98886305
:1031C000FFE7FFE710B080BD80B582B001900198A5
:1031D00001F088FE02B080BD81B0009001B0704760
:1031E00081B0009001B0704785B003900291FFE775
:1031F000039890F83C00012804D1FFE702208DF8E5
:1032000013007EE00399012081F83C00FFE7FFE70F
:103210000399022081F83D000398006840680190FE
:103220000398006880680090019820F07000019079
:103230000298016801980843019001980399096870
:103240004860039800680021C4F2010188423CD024
:10325000FFE703980068B0F1804F36D0FFE703988E
:10326000006840F20041C4F2000188422DD0FFE71F
:103270000398006840F60001C4F20001884224D09F
:10328000FFE70398006840F60041C4F2000188425D
:103290001BD0FFE70398006840F20041C4F201012F
:1032A000884212D0FFE70398006844F20001C4F29C
:1032B0000101884209D0FFE70398006841F6000148
:1032C000C4F2000188420ED1FFE7009820F0800090
:1032D0000090029841680098084300900098039974
:1032E00009688860FFE70399012081F83D00FFE746
:1032F0000399002081F83C00FFE700208DF81300BF
:10330000FFE79DF8130005B07047000080B582B05C
:103310000090009820B9FFE701208DF807003FE0FA
:10332000009890F83D0040B9FFE70099002081F82F
:103330003C00009800F038F8FFE70099022081F87F
:103340003D00009951F8040B01F082FE0099012024
:1033500081F84600FFE70099012081F83E000099BE
:1033600081F83F00009981F84000009981F8410000
:10337000FFE7FFE70099012081F84200009981F8FA
:103380004300009981F84400009981F84500FFE767
:103390000099012081F83D0000208DF80700FFE72B
:1033A0009DF8070002B080BD80B58AB009900998E9
:1033B0000068B0F1804F1BD1FFE7FFE700200890C5
:1033C00043F64000C4F20200016841F001010160CF
:1033D000006800F0010008900898FFE71C200490A6
:1033E00003210022FFF754F80498FFF747F86EE036
:1033F0000998006840F60001C4F2000188421BD120
:10340000FFE7FFE70020079043F64000C4F2020008
:10341000016841F004010160006800F004000790B9
:103420000798FFE71E20039003210022FFF730F8E2
:103430000398FFF723F849E00998006841F200017A
:10344000C4F2000188421BD1FFE7FFE7002006908D
:1034500043F64000C4F20200016841F0100101602F
:10346000006800F0100006900698FFE736200290F2
:1034700003210022FFF70CF80298FEF7FFFF24E07B
:103480000998006844F20001C4F2010188421BD18E
:10349000FFE7FFE70020059043F64400C4F2020076
:1034A000016841F480310160006800F480300590CB
:1034B0000598FFE71820019004210022FEF7E8FF9D
:1034C0000198FEF7DBFFFFE7FFE7FFE7FFE70AB042
:1034D00080BD000083B00190019890F83D00012864
:1034E00004D0FFE701208DF80B006AE0019902206B
:1034F00081F83D0001980168C86840F00100C8608B
:10350000019800680021C4F2010188423CD0FFE725
:1035100001980068B0F1804F36D0FFE7019800684D
:1035200040F20041C4F2000188422DD0FFE701982B
:10353000006840F60001C4F20001884224D0FFE791
:103540000198006840F60041C4F2000188421BD097
:10355000FFE70198006840F20041C4F2010188428F
:1035600012D0FFE70198006844F20001C4F20101A3
:10357000884209D0FFE70198006841F60001C4F2D3
:103580000001884212D1FFE701980068806800F0CE
:10359000070000900098062807D0FFE7019801680F
:1035A000086840F001000860FFE706E00198016844
:1035B000086840F001000860FFE700208DF80B006C
:1035C000FFE79DF80B0003B07047000080B586B0A0
:1035D0000490039100208DF80B00FFE7049890F809
:1035E0003C00012804D1FFE702208DF81700ABE072
:1035F0000499012081F83C00FFE7FFE704990220CD
:1036000081F83D000498006880680190019820F0DE
:1036100077000190019820F47F400190019804996F
:1036200009688860039800680090002872D0FFE75E
:10363000009810286ED0FFE7009820286AD0FFE796
:103640000098302866D0FFE70098402855D0FFE763
:103650000098502837D0FFE70098602840D0FFE757
:10366000009870280BD0FFE70098B0F5805F05D078
:10367000FFE70098B0F5005F16D052E055E00498DF
:103680000068039B5A689968DB6801F0AFFD0498F5
:10369000006880680190019840F0770001900198DF
:1036A00004990968886040E004980068039B5A68A0
:1036B0009968DB6801F09AFD04980168886840F415
:1036C0008040886031E004980068039A5168D268AD
:1036D00001F0BCFD04980068502101F0A1FD24E038
:1036E00004980068039A5168D26801F0D7FD0498E5
:1036F0000068602101F094FD17E004980068039AC7
:103700005168D26801F0A2FD04980068402101F0E0
:1037100087FD0AE0049800680399096801F080FDBC
:1037200003E001208DF80B00FFE70499012081F8E8
:103730003D00FFE70499002081F83C00FFE79DF879
:103740000B008DF81700FFE79DF8170006B080BD4D
:1037500081B0009001B0704780B582B001900198AF
:103760000068006900F002010020B0EB510F28D082
:10377000FFE701980068C06800F002010020B0EB8C
:10378000510F1DD0FFE7019801686FF0020008613A
:10379000019901200877019800688069800720B1AD
:1037A000FFE70198FFF7D4FF06E0019800F012F957
:1037B000019800F013F9FFE7019900200877FFE76F
:1037C000FFE701980068006900F004010020B0EBF9
:1037D000910F29D0FFE701980068C06800F004014C
:1037E0000020B0EB910F1ED0FFE7019801686FF049
:1037F0000400086101990220087701980068806937
:1038000010F4407F04D0FFE70198FFF7A1FF06E026
:10381000019800F0DFF8019800F0E0F8FFE7019967
:1038200000200877FFE7FFE701980068006900F0D3
:1038300008010020B0EBD10F28D0FFE70198006805
:10384000C06800F008010020B0EBD10F1DD0FFE7E9
:10385000019801686FF00800086101990420087759
:1038600001980068C069800720B1FFE70198FFF761
:103870006FFF06E0019800F0ADF8019800F0AEF897
:10388000FFE7019900200877FFE7FFE7019800684C
:10389000006900F010010020B0EB111F29D0FFE7F4
:1038A00001980068C06800F010010020B0EB111F03
:1038B0001ED0FFE7019801686FF0100008610199C0
:1038C0000820087701980068C06910F4407F04D090
:1038D000FFE70198FFF73CFF06E0019800F07AF857
:1038E000019800F07BF8FFE7019900200877FFE7D7
:1038F000FFE7019800680069C00780B1FFE7019801
:103900000068C068C00748B1FFE7019801686FF020
:1039100001000861019800F065F8FFE7FFE70198F2
:1039200000680069C1B20020B0EBD11F13D0FFE7DF
:1039300001980068C068C1B20020B0EBD11F09D067
:10394000FFE7019801686FF0800008610198FFF7B8
:1039500043FCFFE7FFE701980068006900F04001C1
:103960000020B0EB911F14D0FFE701980068C068F9
:1039700000F040010020B0EB911F09D0FFE7019853
:1039800001686FF040000861019800F097F8FFE7C8
:10399000FFE701980068006900F020010020B0EB0B
:1039A000511F14D0FFE701980068C06800F02001A3
:1039B0000020B0EB511F09D0FFE7019801686FF0BC
:1039C000200008610198FFF70BFCFFE7FFE702B05A
:1039D00080BD000081B0009001B0704781B00090C0
:1039E00001B0704780B586B0059005980068B0F1C9
:1039F000804F21D1FFE740F2A820C2F200000490DE
:103A000040F23401C2F20001FCF7C6FD0499B1F99D
:103A10002020B1F9D430B1F98801B1F93CC269462E
:103A2000C1F804C0086040F2E460C2F200004FF444
:103A30000071FCF7FBFCFFE70598006840F6000109
:103A4000C4F2000188421DD1FFE740F27850C2F273
:103A50000000039040F23401C2F20001FCF7FCFFC9
:103A60000399B1F92000B1F9D420694600234B60D5
:103A7000086040F20C70C2F2000040F2FF21FCF737
:103A8000D5FCFFE70598006841F20001C4F200018F
:103A9000884201D1FFE7FFE70598006844F2000182
:103AA000C4F20101884207D1FFE740F23400C2F2BC
:103AB000000001F095F8FFE706B080BD81B00090EE
:103AC00001B0704782B00190ADF8021002B07047AB
:103AD00081B0009001B0704780B592B011901198FC
:103AE00000680068109011980068C0680F901198E5
:103AF000006840690E9000200D900C90109800F026
:103B00000F000D900D9888B9FFE79DF840008006E2
:103B100000280AD5FFE79DF83C008006002804D560
:103B2000FFE7119801F03CFDE3E1FFE70D98002865
:103B300000F0C280FFE79DF83800C00738B9FFE702
:103B4000BDF83C0010F4907F00F0B680FFE79DF8D0
:103B50004000C00758B1FFE79DF83D00C00730B1F5
:103B6000FFE71199086C40F001000864FFE79DF839
:103B70004000400700280BD5FFE79DF83800C0073C
:103B800030B1FFE71199086C40F002000864FFE7CC
:103B90009DF84000800700280BD5FFE79DF838000E
:103BA000C00730B1FFE71199086C40F004000864C9
:103BB000FFE79DF840000007002811D5FFE79DF8BA
:103BC0003C008006002805D4FFE79DF83800C007B8
:103BD00030B1FFE71199086C40F008000864FFE776
:103BE0001198006C002866D0FFE79DF84000800621
:103BF00000280AD5FFE79DF83C008006002804D580
:103C0000FFE7119801F0CCFCFFE7119800684069CC
:103C1000C0F380100C901198006C0007002804D4A9
:103C2000FFE70C9800283ED0FFE7119801F03EFC1A
:103C3000119800684069400600282FD5FFE7FFE78C
:103C4000FFE71198006850E8050F20F040000B9046
:103C5000FFE70B991198026842E805100028F0D19F
:103C6000FFE7FFE71198806B98B1FFE71198816B30
:103C700045F2F120C0F6000008651198806BFDF751
:103C8000A5FE28B1FFE71198806B016D8847FFE71B
:103C900003E01198FFF71CFFFFE703E01198FFF71F
:103CA00017FFFFE706E01198FFF712FF11990020B8
:103CB0000864FFE7FFE71CE11198006B012840F062
:103CC000F880FFE79DF84000C006002840F1F18031
:103CD000FFE79DF83C00C006002840F1EA80FFE7BE
:103CE000FFE700200A901198006800680A90119878
:103CF000006840680A900A98FFE7119800684069D8
:103D0000400600287ED5FFE71198806B0068406868
:103D1000ADF82600BDF82600002872D0FFE7BDF8F8
:103D200026001199898D88426BDAFFE7BDF82600DD
:103D30001199C8851198806BC069B0F5807F58D003
:103D4000FFE7FFE7FFE71198006850E8030F20F452
:103D500080700890FFE708991198026842E8031004
:103D60000028F0D1FFE7FFE7FFE7FFE711980068C1
:103D700050E8050F20F001000790FFE70799119820
:103D8000026842E805100028F0D1FFE7FFE7FFE7EF
:103D9000FFE71198006850E8050F20F040000690FA
:103DA000FFE706991198026842E805100028F0D153
:103DB000FFE7FFE71199202081F83E0011990020CC
:103DC0000863FFE7FFE71198006850E8030F20F051
:103DD00010000590FFE705991198026842E803106A
:103DE0000028F0D1FFE7FFE71198806BFDF778FD21
:103DF000FFE71198818DC28D891A89B2FFF762FEA3
:103E0000FFE776E01199888DC98D401AADF8120050
:103E10001198C08D00284BD0FFE7BDF81200002894
:103E200046D0FFE7FFE7FFE71198006850E8030F6F
:103E300020F490700390FFE703991198026842E81C
:103E400003100028F0D1FFE7FFE7FFE7FFE7119835
:103E5000006850E8050F20F001000290FFE702998A
:103E60001198026842E805100028F0D1FFE7FFE74B
:103E70001199202081F83E00119900200863FFE786
:103E8000FFE71198006850E8030F20F01000019040
:103E9000FFE701991198026842E803100028F0D169
:103EA000FFE7FFE71198BDF81210FFF70BFEFFE7E1
:103EB0001FE09DF84000000600280AD5FFE79DF8A6
:103EC0003C000006002804D5FFE7119801F044FDEE
:103ED0000FE09DF84000400600280AD5FFE79DF856
:103EE0003C004006002804D5FFE7119801F028FBAC
:103EF000FFE712B080BD000080B582B0009000984E
:103F000020B9FFE701208DF807003EE000988069A6
:103F100008B1FFE700E0FFE7009890F83D0040B9E6
:103F2000FFE70099002081F83C00009800F032F88B
:103F3000FFE70099242081F83D0000980168C868D7
:103F400020F40050C860009801F0DCFB0098016884
:103F5000086920F49040086100980168486920F0E1
:103F60002A00486100980168C86840F40050C860A1
:103F7000009900200864009A202182F83D10009AE0
:103F800082F83E108DF80700FFE79DF8070002B0A9
:103F900080BD000080B59CB01B9000201A90199045
:103FA0001890179016901B98006841F20001C4F217
:103FB0000101884240F0BB80FFE7FFE70020159039
:103FC00043F64400C4F20200016841F010010160B0
:103FD000006800F0100015901598FFE7FFE700203B
:103FE000149043F63000C4F20200016841F002016F
:103FF0000160006800F0020014901498FFE7FFE7EA
:104000000020139043F63000C4F20200016841F032
:1040100001010160006800F0010013901398FFE7B0
:104020008020169002200990179000200D90189083
:1040300003200A90199007200B901A9040F200403C
:10404000C4F2020016A90C91FDF7AEFFDDF824C002
:104050000A9A0B980C990D9B4FF4007ECDF858E00E
:10406000CDF85CC0189319921A900020C4F2020097
:10407000FDF79AFF0D9940F2F470C2F200000E9025
:1040800046F24042C4F2020202604FF00062426017
:104090008160C1604FF48062026141618161C161F0
:1040A00001624162FDF744FE18B1FFE7FCF7CCFC6A
:1040B000FFE7FFE71B9840F2F471C2F20001816351
:1040C0001B988863FFE740F65400C2F20000089096
:1040D00046F2B841C4F2020101604FF00061416054
:1040E000402181600021C1604FF480620261416122
:1040F0008161C16101624162FDF71AFE18B1FFE7FB
:10410000FCF7A2FCFFE7FFE71B9840F65401C2F260
:10411000000141631B988863FFE725200790052174
:104120000022FEF7B5F90798FEF7A8F9BCE01B9846
:10413000006844F20041C4F2000188423FD1FFE729
:10414000FFE70020129043F64000C4F2020001682D
:1041500041F400310160006800F4003012901298C0
:10416000FFE7FFE70020119043F63000C4F20200A1
:10417000016841F008010160006800F0080011903A
:104180001198FFE7602016900220049017900020FD
:10419000059018900320199007201A9040F60040CF
:1041A000C4F2020016A9FDF7FFFE0499059A262025
:1041B0000690FEF76DF90698FEF760F973E01B981C
:1041C000006844F60001C4F2000188426AD1FFE7AA
:1041D000FFE70020109043F64000C4F2020001689F
:1041E00041F480210160006800F480201090109854
:1041F000FFE7FFE700200F9043F63000C4F2020013
:10420000016841F004010160006800F004000F90B3
:104210000F98FFE74FF4406016900220179000209F
:10422000029018900320199007201A9040F6000081
:10423000C4F2020016A9FDF7B7FE029940F6B400D9
:10424000C2F20000039046F22802C4F202020260A9
:104250004FF0006242608160C1604FF48062026191
:1042600041618161C1614FF4403202624162FDF7F8
:104270005FFD18B1FFE7FCF7E7FBFFE7FFE71B98DF
:1042800040F6B401C2F2000181631B988863FFE726
:104290002720019003210022FEF7FAF80198FEF78B
:1042A000EDF8FFE7FFE7FFE71CB080BD80B584B005
:1042B00002900191ADF80220029890F83E0020286B
:1042C00028D1FFE7019820B1FFE7BDF8020020B92F
:1042D000FFE701208DF80F0020E0FFE7029890F83B
:1042E0003C00012804D1FFE702208DF80F0015E003
:1042F0000299012081F83C00FFE7FFE702990020C6
:10430000086302980199BDF8022001F099FA8DF82E
:104310000F0003E002208DF80F00FFE79DF80F006B
:1043200004B080BD80B582B001900198006844F669
:104330000001C4F20001884212D1FFE740F23400CC
:10434000C2F20000FCF74AFA40F61430C2F2000054
:1043500040F27001C2F200011322FFF7A7FFFFE74E
:1043600002B080BD81B0009001B0704781B0009074
:1043700001B07047FFE7FEE782B00190009101991C
:104380000889C88001998889488100980178407817
:1043900040EA01200199088100988178C07840EABC
:1043A00001200199888100980179407940EA012033
:1043B0000199C881009880790199488402B07047BA
:1043C00081B000900098B0F90610B0F90800401ACA
:1043D00010F5805F05DAFFE70099C88A0130C882CE
:1043E000FFE70098B0F90610B0F90800401AB0F5E0
:1043F000805F05DDFFE70099C88A0138C882FFE7C2
:104400000099B1F90800B1F9162000EB42300861BB
:1044100001B0704780B582B040F2E460C2F20000A3
:10442000019046F20041C4F20001016003214160A5
:1044300000218160C1604FF4C02202614FF4A002EC
:1044400042610176417681760122C2760177417719
:10445000FDF708F818B1FFE7FCF7F6FAFFE702B03E
:1044600080BD000080B582B040F20C70C2F2000046
:10447000019046F60001C4F2000101600321416091
:1044800000218160C1604FF4C02202614FF4A0029C
:1044900042610176417681760122C27601774177C9
:1044A000FCF7E0FF18B1FFE7FCF7CEFAFFE702B038
:1044B00080BD000080B588B0FFE70020079043F67C
:1044C0003000C4F20200016841F48001016000681C
:1044D00000F4800007900798FFE7FFE700200690B0
:1044E00043F63000C4F20200016841F4001101609B
:1044F000006800F4001006900698FFE70C2000907A
:10450000032100220492FDF7C3FF0098FDF7B6FFD8
:10451000049A382001901146FDF7BAFF0198FDF783
:10452000ADFF049A3A2002901146FDF7B1FF0298C0
:10453000FDF7A4FF049A3B2003901146FDF7A8FF66
:104540000398FDF79BFF049A462005901146FDF75E
:104550009FFF0598FDF792FF08B080BD85B0FFE78B
:104560000020049043F63000C4F20200016841F0DC
:1045700002010160006800F0020004900498FFE767
:10458000FFE70020039043F63000C4F20200016808
:1045900041F001010160006800F001000390039800
:1045A000FFE7FFE70020029043F63000C4F202006C
:1045B000016841F008010160006800F00800029005
:1045C0000298FFE7FFE70020019043F63000C4F2B5
:1045D0000200016841F004010160006800F004007D
:1045E00001900198FFE7FFE70020009043F63000BC
:1045F000C4F20200016841F080010160006800F02F
:10460000800000900098FFE705B0704780B582B049
:1046100040F61410C2F20000019043F20001C4F20F
:10462000010101604FF48271416000218160C1602D
:1046300002220261012242614FF400728261102263
:10464000C2610162416281620A21C162FEF772FCAD
:1046500018B1FFE7FCF7F8F9FFE702B080BD0000F2
:1046600080B588B0002101910791069105910491D0
:104670000391029140F66C10C2F200004FF08042AC
:104680000260A7224260816040F2E732C2600161AD
:104690008161FEF73BFE18B1FFE7FCF7D5F9FFE7B4
:1046A0004FF48050049040F66C10C2F2000004A950
:1046B000FEF78CFF18B1FFE7FCF7C6F9FFE7002013
:1046C0000290039040F66C10C2F2000002A9FEF7BF
:1046D0008BFD18B1FFE7FCF7B7F9FFE708B080BD25
:1046E00080B588B000210191079106910591049150
:1046F0000391029140F6B410C2F2000040F60002AD
:10470000C4F200020260A7224260816040F2E732F8
:10471000C26001618161FEF7F9FD18B1FFE7FCF7A6
:1047200093F9FFE74FF48050049040F6B410C2F2C2
:10473000000004A9FEF74AFF18B1FFE7FCF784F96F
:10474000FFE700200290039040F6B410C2F2000090
:1047500002A9FEF749FD18B1FFE7FCF775F9FFE77D
:1047600008B080BD80B582B000210191009140F673
:10477000FC10C2F2000041F20002C4F2000202602A
:10478000A7224260816040F2E732C2608161FEF799
:10479000BDFD18B1FFE7FCF757F9FFE700200090D7
:1047A000019040F6FC10C2F200006946FEF71CFDC5
:1047B00018B1FFE7FCF748F9FFE702B080BD000041
:1047C00080B584B00021039102910191009140F6DF
:1047D0004420C2F2000044F20002C4F2010202606E
:1047E000A7224260816040F2E732C26001618161CC
:1047F000FEF78CFD18B1FFE7FCF726F9FFE74FF451
:104800008050009040F64420C2F200006946FEF756
:10481000DDFE18B1FFE7FCF717F9FFE704B080BD34
:1048200080B582B040F68C20C2F20000019041F2C7
:104830000001C4F2010101604FF4E1314160002147
:104840008160C16001610C2242618161C161FFF739
:1048500053FB18B1FFE7FCF7F7F8FFE702B080BDA4
:1048600080B582B040F6D020C2F20000019044F240
:104870000041C4F2000101604FF4E13141600021C8
:104880008160C16001610C2242618161C161FFF7F9
:1048900033FB18B1FFE7FCF7D7F8FFE702B080BDA4
:1048A00080B582B040F61430C2F20000019044F6A8
:1048B0000001C4F20001016048F2A061C0F20101F0
:1048C000416000218160C16001610C22426181610F
:1048D000C161FFF711FB18B1FFE7FCF7B5F8FFE77F
:1048E00002B080BDFFE7FEE7FFE7FEE788B0079074
:1048F00006910592079800F0070004900498C0F113
:104900000700052803D3FFE70420019004E0049882
:10491000C0F107000190FFE701980390049804306C
:10492000062803D8FFE70020009003E0049803382E
:104930000090FFE70098029006980399012202FA7E
:1049400001F101390840029B984005999A40013ACB
:104950001140084308B0704780B582B001900199BA
:1049600001F1300091ED041A91ED060AF8EEC10A4A
:1049700000F01AF8019880ED160A019901F15C0027
:1049800091ED160AB1F90C1001EE101AF8EEC10AF9
:1049900000F00AF8BDEEC00A10EE100A0199088472
:1049A000012002B080BD000088B006908DED050AA0
:1049B000CDED040A069818B9FFE700200790ABE098
:1049C0009DED050A9DED041A30EE410A069880ED32
:1049D000060A069890ED000A90ED061A20EE010AEC
:1049E00080ED070A069890ED010A90ED062A90EDF9
:1049F000081A20EE020A30EE010A80ED080A069835
:104A000090ED031A90ED080AB4EE410AF1EE10FAA7
:104A100006DDFFE7069890ED030A8DED030A1FE01F
:104A2000069890ED031A90ED080AB1EE411AB4EE23
:104A3000410AF1EE10FA08DAFFE7069890ED030A52
:104A4000B1EE400A8DED020A05E0069890ED080AE5
:104A50008DED020AFFE79DED020A8DED030AFFE7E7
:104A60009DED030A069880ED080A069890ED020A6B
:104A700090ED052A90ED061A31EE421A20EE010A59
:104A800080ED090A069890ED070A90ED082A90ED4E
:104A9000091A30EE020A30EE010A80ED0A0A069881
:104AA00090ED041A90ED0A0AB4EE410AF1EE10FA04
:104AB00006DDFFE7069890ED040A8DED010A1FE080
:104AC000069890ED041A90ED0A0AB1EE411AB4EE80
:104AD000410AF1EE10FA08DAFFE7069890ED040AB1
:104AE000B1EE400A8DED000A05E0069890ED0A0A45
:104AF0008DED000AFFE79DED000A8DED010AFFE74D
:104B00009DED010A069880ED0A0A069988694861B8
:104B10000698806A0790FFE79DED070A08B0704786
:104B200082B001900091019818B1FFE7009808B990
:104B3000FFE719E000980068019908600098406854
:104B40000199486000988068019988600098C06861
:104B50000199C860009800690199086101990020D5
:104B6000486101998861FFE702B0704780B582B063
:104B70000190019901F15C0091ED060AB1F90C1068
:104B800001EE101AF8EEC10AFFF70EFF019880ED52
:104B9000210A019901F1880091ED210AB1F90E1065
:104BA00001EE101AF8EEC10AFFF7FEFEBDEEC00AD4
:104BB00010EE100A01990884012002B080BD0000A7
:104BC0007047000080B500F023F840F28C01C2F27B
:104BD00000014AF20000C4F28C50C1F8CC0080BD44
:104BE00080B582B0019040F2E060C2F2000001782E
:104BF000013101700078322808DBFFE740F2340011
:104C0000C2F200003C21FBF713FBFFE702B080BDBE
:104C100080B5C2B045F62C4CC0F6000CDCF80000A4
:104C2000DCF80410DCF80820DCF80C30DCF810C0EC
:104C3000CDF804C140933F923E913D9045F6184C0B
:104C4000C0F6000CDCF80000DCF80410DCF80820EA
:104C5000DCF80C30DCF810C0CDF8F0C03B933A9291
:104C60003991389045F67C4CC0F6000CDCF8000019
:104C7000DCF80410DCF80820DCF80C30DCF810C09C
:104C8000CDF8DCC0369335923491339045F6684CBC
:104C9000C0F6000CDCF80000DCF80410DCF808209A
:104CA000DCF80C30DCF810C0CDF8C8C0319330927D
:104CB0002F912E9045F6544CC0F6000CDCF8000005
:104CC000DCF80410DCF80820DCF80C30DCF810C04C
:104CD000CDF8B4C02C932B922A91299045F6404CE4
:104CE000C0F6000CDCF80000DCF80410DCF808204A
:104CF000DCF80C30DCF810C0CDF8A0C02793269269
:104D00002591249045F6DC3CC0F6000CDCF8000050
:104D1000DCF80410DCF80820DCF80C30DCF810C0FB
:104D2000CDF88CC02293219220911F9045F6044C1F
:104D3000C0F6000CDCF80000DCF80410DCF80820F9
:104D4000DCF80C30DCF810C0CDF878C01D931C9254
:104D50001B911A9045F6B43CC0F6000CDCF800003C
:104D6000DCF80410DCF80820DCF80C30DCF810C0AB
:104D7000CDF864C0189317921691159045F6A03C93
:104D8000C0F6000CDCF80000DCF80410DCF80820A9
:104D9000DCF80C30DCF810C0CDF850C01393129240
:104DA0001191109045F6C83CC0F6000CDCF80000EC
:104DB000DCF80410DCF80820DCF80C30DCF810C05B
:104DC000CDF83CC00E930D920C910B9045F6F03C43
:104DD000C0F6000CDCF80000DCF80410DCF8082059
:104DE000DCF80C30DCF810C0CDF828C0099308922C
:104DF0000791069040F2A820C2F2000002905C30B9
:104E00003DA90191FFF78CFE0199029800F5887089
:104E1000FFF786FE0199029800F5E270FFF780FE29
:104E20000199029800F51E70FFF77AFE029888300B
:104E300038A90391FFF774FE0298039900F59E705C
:104E4000FFF76EFE0298039900F5F870FFF768FE11
:104E50000298039900F52970FFF762FE40F278503E
:104E6000C2F2000004905C3033A9FFF759FE0498A9
:104E700030302EA9FFF754FE049800F5887029A958
:104E8000FFF74EFE0498E43024A9FFF749FE40F2F4
:104E90008C00C2F2000005905C301FA9FFF740FEB5
:104EA000059800F588701AA9FFF73AFE059800F5F5
:104EB000E27015A9FFF734FE059800F5CC7010A933
:104EC000FFF72EFE059888300BA9FFF729FE0598FD
:104ED00000F59E7006A9FFF723FE42B080BD0000DA
:104EE0007047000080B582B0009000980138B0F1A2
:104EF000807F03D3FFE70120019019E0009801387B
:104F00004EF21401CEF2000108604FF0FF300F2185
:104F100000F0A6FD4EF21801CEF20001002008605C
:104F20004EF21002CEF20002072111600190FFE75D
:104F3000019802B080BD000080B5FDF717FA80BD72
:104F400080B594B008A83021FBF772F900200790D3
:104F50000690059004900390FFE70020029043F62E
:104F60004000C4F20200016841F080510160006815
:104F700000F0805002900298FFE7FFE700200190C8
:104F800047F20000C4F20000016841F48041016072
:104F9000006800F4804001900198FFE7012008902C
:104FA0004FF48030099002200E904FF480010F9151
:104FB00006211091A821119112900420139008A8A5
:104FC000FDF758FC18B1FFE7FBF73EFDFFE70F20A8
:104FD000039002200490002005904FF4A05006900A
:104FE0004FF48050079003A80521FDF773FA18B11C
:104FF000FFE7FBF729FDFFE714B080BD4EF68851AF
:10500000CEF20001086840F47000086070470000AC
:1050100080B540F64420C2F20000FEF79DFB80BD43
:1050200080B540F66C10C2F20000FEF795FB80BD23
:1050300080B540F6B410C2F20000FEF78DFB80BDD3
:1050400080B540F6FC10C2F20000FEF785FB80BD83
:1050500083B00290019102980068009002980021AC
:10506000C4F20101884225D0FFE70298B0F1804FD9
:1050700020D0FFE7029840F20041C4F200018842CC
:1050800018D0FFE7029840F60001C4F20001884200
:1050900010D0FFE7029840F60041C4F200018842B8
:1050A00008D0FFE7029840F20041C4F201018842B3
:1050B0000AD1FFE7009820F0700000900198416845
:1050C000009808430090FFE702980021C4F2010114
:1050D000884255D0FFE70298B0F1804F50D0FFE7EB
:1050E000029840F20041C4F20001884248D0FFE734
:1050F000029840F60001C4F20001884240D0FFE768
:10510000029840F60041C4F20001884238D0FFE71F
:10511000029840F20041C4F20101884230D0FFE71A
:10512000029844F20001C4F20101884228D0FFE74E
:10513000029844F20041C4F20101884220D0FFE706
:10514000029844F60001C4F20101884218D0FFE73A
:10515000029841F60001C4F20001884210D0FFE736
:10516000029841F60041C4F20001884208D0FFE7EE
:10517000029842F20001C4F2000188420AD1FFE71E
:10518000009820F4407000900198C168009808438E
:105190000090FFE7009820F08000019949690843DA
:1051A0000090009802990860019880680299C8628E
:1051B000019800680299886202980021C4F20101F6
:1051C000884208D0FFE7029840F20041C4F2010192
:1051D000884205D1FFE70198006902990863FFE75B
:1051E00002990120486103B07047000085B0049027
:1051F000039102920193049880680090009820F433
:105200007F40009003980299019A41EA02210143EC
:1052100000980843009000980499886005B0704792
:1052200083B002900191029880680090009820F06D
:105230007000009001980099084340F0070000902A
:1052400000980299886003B07047000085B0049010
:10525000039102920498006A00900499086A20F071
:1052600001000862049880690190019820F0F00024
:1052700001900299019840EA01100190009820F0F5
:105280000A0000900399009808430090019804993F
:10529000886100980499086205B0704785B0049051
:1052A000039102920499086A20F0100008620498A1
:1052B000806901900498006A0090019820F4704081
:1052C00001900299019840EA01300190009820F085
:1052D000A00000900399009840EA01100090019806
:1052E0000499886100980499086205B0704700002D
:1052F00080B582B001900198806B009000990020E9
:10530000C8850099C8840098FEF7E2FB02B080BD12
:1053100080B584B00390002002900398806B0190C8
:10532000019800684069C0B2C0090290019890F8E5
:105330003D0021280AD1FFE7029838B1FFE7019923
:105340000020C884019800F00FF9FFE70198006879
:105350004069C0F380100290019890F83E00222826
:105360000AD1FFE7029838B1FFE701990020C8850C
:10537000019800F09BF8FFE70199086C40F01000DD
:1053800008640198FEF7A4FB04B080BD80B586B028
:1053900005900598806B0490059800680068C0052A
:1053A00000285AD4FFE704990020C885FFE7FFE7EB
:1053B0000498006850E8030F20F480700390FFE722
:1053C00003990498026842E803100028F0D1FFE72F
:1053D000FFE7FFE7FFE70498006850E8050F20F0BB
:1053E00001000290FFE702990498026842E8051064
:1053F0000028F0D1FFE7FFE7FFE7FFE70498006828
:1054000050E8050F20F040000190FFE70199049853
:10541000026842E805100028F0D1FFE7FFE7049991
:10542000202081F83E000498006B012814D1FFE78A
:10543000FFE7FFE70498006850E8030F20F0100032
:105440000090FFE700990498026842E803100028E2
:10545000F0D1FFE7FFE7FFE7FFE70498006B0128C3
:1054600005D1FFE70498818DFEF72CFB03E004983B
:10547000FEF758FFFFE706B080BD000080B582B0A0
:1054800001900198806B00900098006B012806D174
:10549000FFE70098818D4908FEF714FB03E00098B0
:1054A000FEF760FFFFE702B080BD000084B003900C
:1054B000FFE7FFE70398006850E8030F20F49070BF
:1054C0000290FFE702990398026842E8031000285F
:1054D000F0D1FFE7FFE7FFE7FFE70398006850E838
:1054E000050F20F001000190FFE701990398026881
:1054F00042E805100028F0D1FFE7FFE70398006BB2
:10550000012814D1FFE7FFE7FFE70398006850E8A0
:10551000030F20F010000090FFE700990398026845
:1055200042E803100028F0D1FFE7FFE7FFE7039907
:10553000202081F83E0003990020086304B07047E2
:1055400080B582B0019001980168C86820F04000E1
:10555000C8600199202081F83D000198FEF706FF00
:10556000002002B080BD000082B00190FFE7FFE79D
:105570000198006850E8030F20F0C0000090FFE79A
:1055800000990198026842E803100028F0D1FFE773
:10559000FFE70199202081F83D0002B0704700002C
:1055A00080B586B00490049890F83E00222840F020
:1055B000A180FFE704988068B0F5805F15D1FFE710
:1055C0000498006988B9FFE7002003900498806A76
:1055D00002900498006840686FF35F200299088089
:1055E0000499886A0230886225E00498806A0390F2
:1055F0000020029004988068B0F5805F08D0FFE733
:105600000498806850B9FFE70498006930B9FFE753
:105610000498006840680399087007E004980068DF
:10562000406800F07F0003990870FFE70499886ADA
:1056300001308862FFE70499C88D0138C8850004ED
:10564000002853D1FFE704980168C86820F02000C3
:10565000C86004980168C86820F48070C860049825
:105660000168486920F0010048610499202081F810
:105670003E000498006B012830D1FFE70499002018
:105680000863FFE7FFE70498006850E8030F20F085
:1056900010000190FFE701990498026842E80310A6
:1056A0000028F0D1FFE7FFE7049800680068C00613
:1056B00000280ED5FFE7FFE700200090049800685F
:1056C0000068009004980068406800900098FFE728
:1056D000FFE70498818DFEF7F5F903E00498FEF7E3
:1056E00021FEFFE700208DF8170007E000208DF86D
:1056F000170003E002208DF81700FFE79DF8170060
:1057000006B080BD80B586B0059005980068006938
:1057100020F44050059A1168D26810430861059939
:1057200088680B694A69C9691843104308430490A3
:1057300005980068C06849F20C61884304990843E1
:1057400005990968C86005980068406920F44070B0
:10575000059A11689269104348610598006841F202
:105760000001C4F20101884209D0FFE705980068F2
:1057700041F20041C4F20101884204D1FFE7FCF785
:10578000F3FF039003E0FCF7DDFF0390FFE70598CC
:10579000C069B0F5004F29D1FFE703981921A0FB9C
:1057A0000101059A1368029353685A00DB0FFAF758
:1057B00007FD0299864648F21F53C5F2EB13AEFB74
:1057C0000320420910014FF0640C02FB1CEC322252
:1057D00002EBCC02A2FB0332F82303EA521300EBE4
:1057E0004300C2F342121044886026E00398192156
:1057F000A0FB0101059A1368019353689A009B0F5F
:10580000FAF7DEFC0199844648F21F52C5F2EB120A
:10581000ACFB02304309642003FB10CC322000EBC8
:105820000C10A0FB0202F02000EA521000EB031063
:10583000C2F3431210448860FFE706B080BD000049
:1058400080B588B007900691ADF8162006980799A4
:105850008862BDF8160007998885079900200864BA
:10586000079A222182F83E1007998A6B45F28D3102
:10587000C0F60001D16307998A6B45F27D41C0F6FD
:105880000001116407998A6B45F21131C0F60001DD
:10589000D1640799896B086506A804900798016888
:1058A000806B0431049A1268BDF81630FCF7F8FAE0
:1058B000FFE70020039007980068006803900798AE
:1058C0000068406803900398FFE7FFE7079900200E
:1058D00081F83C00FFE707980069A0B1FFE7FFE708
:1058E000FFE70798006850E8030F40F480700290CB
:1058F000FFE702990798026842E803100028F0D1F8
:10590000FFE7FFE7FFE7FFE7FFE70798006850E8DA
:10591000050F40F001000190FFE701990798026828
:1059200042E805100028F0D1FFE7FFE7FFE7FFE7B7
:105930000798006850E8050F40F040000090FFE72E
:1059400000990798026842E805100028F0D1FFE7A7
:10595000FFE7002008B080BD83B00190019890F867
:105960003D0021283AD1FFE701988068B0F5805FBB
:1059700013D1FFE70198006978B9FFE70198006A41
:105980000090009800886FF35F20019909684860D3
:105990000199086A0230086208E0019A106A411C05
:1059A00011620078019909684860FFE70199C88C85
:1059B0000138C884000468B9FFE701980168C86825
:1059C00020F08000C86001980168C86840F040007D
:1059D000C860FFE700208DF80B0003E002208DF87F
:1059E0000B00FFE79DF80B0003B0704780B540F651
:1059F0008C20C2F20000FEF76FF880BD80B540F643
:105A0000D020C2F20000FEF767F880BD80B540F6F6
:105A10001430C2F20000FEF75FF880BDFFE7FEE73A
:105A200081B08DF803009DF9030000280ED4FFE734
:105A30009DF9031001F01F02012090404A094EF227
:105A40000011CEF2000141F82200FFE701B07047DB
:105A50004EF60C50CEF200000068C0F302207047F2
:105A600082B08DF8070000919DF9070000280AD444
:105A7000FFE7009800019DF907104EF20042CEF2B8
:105A8000000288540BE0009800019DF8071001F017
:105A90000F014EF61452CEF200028854FFE702B016
:105AA0007047000083B00290029800F00700009059
:105AB0004EF60C51CEF200010868019001984FF6A5
:105AC000FF02104001900198009A40EA0220002253
:105AD000C0F2FA52104301900198086003B0704779
