:020000040800F2
:10000000688100209D01000869B90008619000081E
:1000100065B90008ED140008692B01080000000014
:1000200000000000000000000000000031DD0008BA
:10003000B52F00080000000001C5000851DF0008CE
:10004000B7010008B7010008B7010008B7010008B0
:10005000B7010008B7010008B7010008B7010008A0
:10006000B7010008B7010008B7010008B701000890
:10007000CD2A0008B7010008DD2A0008B7010008F2
:10008000B7010008B7010008B7010008B701000870
:10009000F1140008B7010008B7010008B701000813
:1000A000B70100085DE00008B7010008B7010008CB
:1000B00079E00008B7010008B7010008B70100089F
:1000C000B7010008B7010008B7010008B701000830
:1000D000B701000865F00008B701000881F00008CA
:1000E000B7010008B7010008B7010008B701000810
:1000F000B7010008B7010008B7010008ED2A0008A1
:10010000B7010008B7010008B7010008B7010008EF
:10011000B7010008B7010008B7010008B7010008DF
:10012000FD2A0008B70100080D2B00081D2B000850
:10013000B7010008B7010008B7010008B7010008BF
:1001400001150008B7010008B70100085DBA0008F2
:100150002D2B00083D2B00084D2B0008B9F000089E
:10016000B7010008B7010008B7010008B70100088F
:10017000B7010008B7010008B7010008000000003F
:10018000B7010008B7010008DFF80CD000F01AFC36
:1001900000480047F1870108688100200648804731
:1001A00006480047FEE7FEE7FEE7FEE7FEE7FEE75C
:1001B000FEE7FEE7FEE7FEE749E0000889010008E8
:1001C0002DE9F05F0546002092469B46884606468C
:1001D000814640241BE0284641464746224600F01F
:1001E000B9FA53465A46C01A914110D311461846DF
:1001F000224600F0A0FA2D1A67EB01084F4622466E
:100200000120002100F097FA17EB00094E41201E53
:10021000A4F10104DFDC484631462A464346BDE8E6
:10022000F09F40EA01039B0703D009E008C9121FB1
:1002300008C0042AFAD203E011F8013B00F8013BA0
:10024000521EF9D27047D2B201E000F8012B491ECC
:10025000FBD270470022F6E710B513460A46044663
:100260001946FFF7F0FF204610BD421C10F8011B95
:100270000029FBD1801A7047034611F8012B00F8C2
:10028000012B002AF9D1184670472DE9FE4F804610
:1002900081EA0300C00F0C46009021F0004123F0DA
:1002A0000045B8EB0200A94105D2404621469046E0
:1002B0001C460B46024623F00040104347D0270D52
:1002C000C7F30A00C3F30A510290401A0190402874
:1002D0006BDAC3F3130040F4801B0098924620B100
:1002E0000023D2EB030A63EB0B0B01985946C0F1D4
:1002F0004002504600F01FFA06460D465046594649
:10030000019A00F037FA10EB08006141002487EAF7
:10031000115284EAE7731A4340D0009A62B3019AFB
:10032000012A4FEA075215DC001B61EB02014FF076
:10033000004202EA0752CDE90042001C41F580115B
:1003400032462B4600F06EFA03B0BDE8F08F40460F
:100350002146F9E7001B61EB0201001C41F5801307
:1003600000185B412018A2F5001747EB030140EA93
:10037000D570B6196D4111E06D084FEA360645EAB1
:10038000C0754FEA0752001B61EB0201001C41F5EA
:10039000801149084FEA30000019514132462B467E
:1003A00003B0BDE8F04F00F02EBA009801224000E3
:1003B0000023D0EB020263EBE073009821464FEA82
:1003C000E074B8EB000061EB0401E9E783F000435F
:1003D0005BE781F0004158E72DE9FE4F81EA030415
:1003E00004F0004421F0004100944FF0000B23F092
:1003F000004350EA01045ED052EA03045BD0C3F329
:100400000A54C1F30A552C44A4F2F3340194A0FB1E
:100410000254C1F3130141F48011C3F3130343F4F5
:10042000801301FB024400FB034E840A970A44EA4E
:10043000815447EA8357A4FB076802958D0A05FBA0
:1004400007854FEA932C04FB0C542705029D4FEAC5
:10045000065847EA1637B5EB08056EEB070C870E12
:10046000920E47EA811742EA8312A7FB0201B6EB1C
:100470000B0164EB00042B0D43EA0C335E1844EBD4
:100480001C50DA465146E7FB0201C5F313044FEA5C
:100490000B3343EA14534FEA0432019C43EA060348
:1004A000A4F10C040294009CCDE900B400F0BAF968
:1004B00003B0BDE8F08F00200146F9E72DE9F04DCB
:1004C00081EA030404F0004B21F0004514464FF08C
:1004D000000A23F0004150EA050220D054EA01024C
:1004E0001DD0C5F30A570246C5F31303C1F3130029
:1004F000C1F30A5640F4801543F48013A7EB0608B5
:10050000101BD64608F2FD3873EB050002D308F144
:10051000010801E092185B41B8F1000F03DA0020F6
:100520000146BDE8F08D00204FF480110646844658
:100530000EE0171B73EB050705D3121B63EB0503D6
:1005400006434CEA010C49084FEA300092185B411F
:1005500050EA0107EDD152EA030012D082EA04000A
:1005600083EA0501084305D0101BAB4106D20122E6
:10057000002306E000224FF0004302E06FF001028A
:1005800053101AEB06004CEB085110EB0A0041EB3C
:100590000B01BDE8F04D00F036B930B5041E71F125
:1005A000000404DB4FF00044404264EB0101141EE0
:1005B00073F1000405DB1C464FF00043524263EB2D
:1005C0000403801A994101D3012030BD002030BDC1
:1005D00030B5041E71F1000404DB4FF000444042CA
:1005E00064EB0101141E73F1000405DB1C464FF09F
:1005F0000043524263EB0403101A8B4101D30120E4
:1006000030BD002030BDF0B4CA17CB0F5040514070
:10061000C61841F100054FEAC372314628004FF079
:10062000960303D0B623F0BC00F0BFB830460021DB
:10063000F9E70EB5C10F80EAE0700844CA0700214F
:1006400040F233438DE80E000A460B4600F0EAF80C
:1006500003B000BD0EB540F2334102910021CDE957
:1006600000110A460B4600F0DDF803B000BD70B57E
:10067000C1F30A5201F000450024C1F3130140F216
:10068000FF3341F480119A4201DA002070BD40F23C
:1006900033439A42A2F2334203DC524200F05AF84A
:1006A00000E090402C43F1D0404270BD00F0004289
:1006B00030F000400AD0C10D01F56071C0F31600A2
:1006C00042EA0151C2084007114370470020014629
:1006D000704701F0004330B421F0004150EA0102BC
:1006E00006D00A0DA2F56072C1F31301002A02DCE4
:1006F00030BC00207047440F44EAC104C100E01838
:1007000030BC00EBC25000F047B830B50B46014694
:1007100000202022012409E021FA02F59D4205D3A0
:1007200003FA02F5491B04FA02F52844151EA2F14A
:100730000102F1DC30BD202A04DB203A00FA02F18C
:10074000002070479140C2F1200320FA03F31943BF
:1007500090407047202A04DB203A21FA02F0002161
:10076000704721FA02F3D040C2F1200291400843C1
:1007700019467047202A06DBCB17203A41FA02F0CF
:1007800043EAE07306E041FA02F3D040C2F12002EE
:1007900091400843194670470029A8BF7047401C84
:1007A000490008BF20F00100704710B4B0FA80FC87
:1007B00000FA0CF050EA010404BF10BC704749B1C4
:1007C000CCF1200421FA04F411FA0CF118BF012134
:1007D00021430843A3EB0C01CB1D4FEA00614FEA14
:1007E000102042BF002010BC704700EBC3501044E3
:1007F0000029A4BF10BC7047401C490008BF20F06E
:10080000010010BC704710B5141E73F1000408DA23
:10081000401C41F1000192185B411A4301D120F0C4
:10082000010010BD2DE9F04D92469B4611B1B1FA81
:1008300081F202E0B0FA80F220329046FFF77BFFAF
:1008400004460F4640EA0A0041EA0B0153465A4665
:10085000084313D0114653EA010019D0C8F14002F1
:100860005046FFF777FF05460E465046594642462A
:10087000FFF761FF084305D0012004E02046394618
:10088000BDE8F08D0020054346EAE0762C4337436F
:100890000A986305E40AA0EB08000022FD0A44EA76
:1008A00047540A3002D500200146E9E70105101936
:1008B0006941DDE9084500196941BDE8F04DA2E74D
:1008C0002DE9F04D00231A461B1A8A4103DB002054
:1008D0000146BDE8F08DC1F30A52C1F3130141F4A2
:1008E00080154FF0000BD10702D100186D41521E48
:1008F0000027044640F2FF11384601EB620A3E46EB
:100900008046024600204FF48011FFF723FFC219F2
:100910007141BB1846EB0100B4EB030C75EB000C06
:1009200004D3E41A65EB000517460E46241908F1B6
:1009300001006D4180463428E3DDF91946EB0600DD
:10094000091BA84103D24FF0FF32134601E00022F9
:1009500013461BEB070046EB0A51BDE8F04DFFF7CD
:1009600052BFC1F30A52C1F3130140F2FF3341F405
:1009700080119A4202DA00200146704740F2334368
:100980009A42A2F2334202DC5242FFF7E3BEFFF783
:10099000D2BE000030B5041E71F1000404DB4FF03C
:1009A0000044404264EB0101141E73F1000405DBB6
:1009B0001C464FF00043524263EB0403994208BFC8
:1009C000904230BD064C074D06E0E06840F0010360
:1009D00094E8070098471034AC42F6D3FFF7D8FBF1
:1009E0007CD501089CD5010870B58C1810F8015B06
:1009F00015F0070301D110F8013B2A1106D110F8B8
:100A0000012B03E010F8016B01F8016B5B1EF9D1BB
:100A10002B0705D40023521E0DD401F8013BFAE741
:100A200010F8013BCB1A921C03E013F8015B01F8AC
:100A3000015B521EF9D5A142D8D3002070BD000041
:100A400082B0019042F20030C4F20100009000999F
:100A5000486820F44030486001984268009948682E
:100A60001043486001980168486820F4807048602D
:100A7000019801680269486840EA022048600198CC
:100A80000168486820F040704860019801688268F9
:100A900048681043486001980168886820F4006045
:100AA000886001980168C26888681043886001986E
:100AB000806A0121C0F60071884219D0FFE70198D1
:100AC0000168886820F07060886001980168826A17
:100AD00088681043886001980168886820F0405059
:100AE000886001980168C26A8868104388600CE0D9
:100AF00001980168886820F070608860019801683A
:100B0000886820F040508860FFE701980168886895
:100B100020F0020088600198027E0168886840EA3F
:100B200042008860019890F82000C8B1FFE7019862
:100B30000168486840F400604860019801684868AE
:100B400020F46040486001980168426A4EF200005B
:100B5000CFF6FF7000EB423248681043486006E071
:100B600001980168486820F400604860FFE7019838
:100B70000168C86A20F47000C86201980168C269FF
:100B80000020CFF6F07000EB0252C86A1043C86232
:100B900001980168886820F400708860019890F8D6
:100BA00030200168886840EA422088600198016826
:100BB000886820F4806088600198016842698868CC
:100BC00040EA8220886002B0704700000000000008
:100BD00080B584B003900291039890F89A0268B9A6
:100BE000FFE7039890F8990240B1FFE7039890ED72
:100BF000AB0AB8EEC00A80EDAD0AFFE7039991F8A1
:100C00009A0281F89902039890EDAB1A90EDAD0A23
:100C1000B8EEC11A30EE410A10EE100AFFF746FD99
:100C200041EC100B51EC100B9FED350B52EC103BCF
:100C3000D20F62F3DF7141EC100B51EC100BFFF798
:100C400048FD014642F64410C2F20000016090EDFA
:100C5000000A9FED2D1AB4EE410AF1EE10FA07DA00
:100C6000FFE740F2C431C2F200010020887506E0BF
:100C700040F2C431C2F2000101208875FFE740F262
:100C8000C430C2F20000807D70B9FFE7039800F520
:100C90002670029991F8292002F00F0200F0B2F8B4
:100CA000039880EDAD0AFFE7039800F02FF8B1EE4E
:100CB000400A039880ED070A039800F5A67000F03B
:100CC00025F8039880ED5A0A039800F5267000F085
:100CD0006BF940F27450C2F2000001900BF04CFA34
:100CE000019800F5A6700BF047FA039800F52670FE
:100CF0000BF080F8012004B080BD00BF00BF00BF32
:100D0000000000000000000000409C4581B0009001
:100D100040F2B830C2F200000078012812D1FFE79B
:100D200040F23040C2F20000C07B03280AD1FFE746
:100D300040F2C431C2F20001C868009AD0610120BB
:100D4000087608E000990020C86140F2C431C2F280
:100D500000010876FFE740F23040C2F2000090F850
:100D60002F100020B0EB111F14D0FFE740F23040ED
:100D7000C2F2000090F83A008008C00750B9FFE7BF
:100D800040F2B831C2F200010878B0FA80F04009B0
:100D90000870FFE740F23041C2F2000191F82F30B5
:100DA00091F83A00042202EA930200F0FB0010449A
:100DB00081F83A00009890ED070A01B070470000F2
:100DC00081B0009040F2C432C2F2000200211160F2
:100DD0000020C4F2107090600020C4F2E150D06096
:100DE000012010711075009AD161009AC2F8681143
:100DF000009991EDAB0AB8EEC00A81EDAD0A01B0E1
:100E00007047000083B0029001918DF80320019893
:100E1000807B022822D1FFE740F20800C2F20000E6
:100E20000078022819D0FFE79DF8030068B1FFE7BA
:100E30009DF8030001280FD1FFE742F6C400C2F27B
:100E40000000407AC00738B1FFE740F2C431C2F277
:100E5000000101200861FFE7FFE75DE0019890F8DD
:100E600029100120B0EB111F21D1FFE740F2C4305F
:100E7000C2F20000C07D012819D0FFE79DF80300F1
:100E800068B1FFE79DF8030001280FD1FFE742F6A4
:100E9000C400C2F20000407AC00738B1FFE740F258
:100EA000C431C2F2000101200861FFE733E001987C
:100EB000807B012808D0FFE7019890F829100220D4
:100EC000B0EB111F19D1FFE79DF8030068B1FFE7F0
:100ED0009DF8030001280FD1FFE742F6C400C2F2DB
:100EE0000000407AC00738B1FFE740F2C431C2F2D7
:100EF000000101200861FFE70CE00198807B0328D6
:100F000007D1FFE740F2C431C2F2000100200861BE
:100F1000FFE7FFE7FFE7FFE740F2C430C2F200005F
:100F2000006901282ADBFFE7029890ED050AB8EE78
:100F3000C00A40F2C431C2F2000191ED021A91EDF3
:100F4000042AB8EEC22A21EE021A30EE410A80EDE0
:100F5000070A0198807B022808D0FFE7019890F8E3
:100F600029100120B0EB111F07D1FFE740F2C43177
:100F7000C2F2000100200861FFE7FFE7019890F846
:100F80002900000940F2C431C2F20001C87501987D
:100F9000807B40F20801C2F200010870029890EDD7
:100FA000070A03B07047000080B586B004900020A7
:100FB000C4F22010039001F00FFF8DED020A40F201
:100FC000C430C2F20000807D012851D1FFE740F219
:100FD000C030C2F20000007868B9FFE7029840F222
:100FE000BC31C2F20001086040F2C031C2F200011F
:100FF00001200870FFE79DED020A40F2BC30C2F20A
:10100000000090ED001A30EE410A8DED010A0198C2
:1010100043F68011C2F2000108609DED010AB2EEB4
:10102000041AB4EE410AF1EE10FA20DBFFE740F2B9
:10103000B930C2F200000078C8B9FFE70499002077
:1010400081F8340040F2B931C2F200010120087089
:1010500042F67411C2F2000191ED000AB7EE001AD7
:1010600030EE010A81ED000A8DF8170055E019E015
:1010700040F2C030C2F200000078012807D1FFE73B
:1010800040F2C031C2F2000100200870FFE704996D
:10109000012081F8340040F2B931C2F20001002091
:1010A0000870FFE740F2C430C2F20000807D00EE1D
:1010B000100AB8EE400A40F2BC30C2F20000D0ED97
:1010C000000A9DED021A43F68010C2F20000D0ED36
:1010D000001A42F67410C2F2000090ED002A049843
:1010E00090F8341003EE101AF8EE432A90ED054AFA
:1010F00090ED073AF8EEC43A42F64410C2F200000E
:1011000090ED004A002000900A21DFED064A11F020
:1011100027FE00988DF81700FFE79DF8170006B02E
:1011200080BD00BF0000000080B50020C4F20200B6
:101130001021012204F006F880BD000080B50020D7
:10114000C4F202001021002203F0FCFF80BD000069
:101150007047000080B540F20040C4F20200012256
:10116000114603F0EFFF80BD80B540F20040C4F2AD
:1011700002000121002203F0E5FF80BD704700005E
:1011800080B582B0ADF80600FFE7BDF80600411E4D
:10119000ADF8061028B1FFE74FF47A7000F004F8BC
:1011A000F3E702B080BD000086B0ADF81600002065
:1011B000049003900290019000904EF21400CEF241
:1011C000000000680090BDF81600A8214843049074
:1011D0004EF21800CEF2000000680390FFE74EF2D6
:1011E0001800CEF20000006802900298039988422D
:1011F0001ED0FFE702980399884207D2FFE70398C1
:101200000299411A01980844019008E00098029957
:10121000401A03990144019808440190FFE702989D
:10122000039001980499884201D3FFE701E0FFE7AA
:10123000D5E706B07047000080B582B000208DF879
:101240000700FFF785FFFFF799FF16F0BDFD014688
:101250009DF8070008438DF8070016F07DFE014653
:101260009DF8070008438DF807009DF8070002B0BD
:1012700080BD000080B588B00790069105920020DF
:10128000009004900390FFF759FF922000F006F9B8
:10129000122003A90191062200F0CCF8FFF744FFC9
:1012A0009DF80C009DF80D1040EA0120ADF80A00F1
:1012B000BDF90A0000EE100AB8EEC00A40F20C00B8
:1012C000C2F2000090ED001A20EE010A069981EDAD
:1012D000000A9DF80E109DF80F2041EA0221ADF89A
:1012E0000A10BDF90A1000EE101AB8EEC00A90ED0F
:1012F000001A20EE010A069981ED010A9DF81010EE
:101300009DF8112041EA0221ADF80A10BDF90A103A
:1013100000EE101AB8EEC00A90ED001A20EE010A95
:10132000069880ED020AFFF71FFF00980199082236
:1013300000F080F8FFF70EFF9DF80C000F2844D155
:10134000FFE79DF80E009DF80F1040EA0120ADF870
:101350000A00BDF90A0000EE100AB8EEC00A40F219
:101360001000C2F2000090ED001A20EE010A079969
:1013700081ED000A9DF810109DF8112041EA02212C
:10138000ADF80A10BDF90A1000EE101AB8EEC00A46
:1013900090ED001A20EE010A079981ED010A9DF8EF
:1013A00012109DF8132041EA0221ADF80A10BDF990
:1013B0000A1000EE101AB8EEC00A90ED001A20EEE6
:1013C000010A079880ED020AFFE7FFF7B7FEA220A7
:1013D00000F064F8222003A9022200F02BF8FFF7A6
:1013E000A3FE9DF80C009DF80D10C00040EA5110BE
:1013F000ADF80A00BDF90A00B0F5806F07DBFFE722
:10140000BDF80A00A0F50060ADF80A00FFE7BDF9DD
:101410000A0000EE100AB8EEC00AB4EE001A20EE80
:10142000010AB3EE071A30EE010A059880ED000AB2
:1014300008B080BD80B584B08DF80F0002918DF8A2
:1014400007209DF80F0040F0800000F027F8FFE72C
:101450009DF8070070B1FFE7552000F01FF80299D2
:1014600008700298013002909DF8070001388DF84D
:101470000700EDE704B080BD80B582B08DF80700AD
:1014800000919DF8070040F0800000F007F855201B
:1014900000F004F80099087002B080BD80B582B0F9
:1014A0008DF8070069464FF47A70086043F2F450F3
:1014B000C2F200000DF107010DF10602012305F053
:1014C00065FF9DF8060002B080BD000080B582B0C7
:1014D0008DF807008DF806109DF80700FFF7DEFF76
:1014E0009DF80600FFF7DAFF02B080BDFFE7FEE7D8
:1014F00080B542F65850C2F2000002F06DFC80BD8B
:1015000080B542F68050C2F2000002F065FC80BD5A
:1015100080B588B0079006910798006846F20041B0
:10152000C4F2000188425ED1FFE70698059040F2C0
:101530000121884216D0FFE7059840F20221884237
:101540001BD0FFE7059840F20321884222D0FFE735
:101550000598B0F5017F2AD0FFE70598B0F5227F06
:1015600032D03EE040F65810C2F2000040F2044192
:10157000C2F2000109F0BCFC34E040F65810C2F29F
:10158000000000F5A67040F20441C2F2000109F02B
:10159000AFFC27E040F65810C2F2000000F52670BC
:1015A00040F20441C2F2000109F0A2FC1AE040F648
:1015B0005810C2F2000000F5797040F20441C2F206
:1015C000000109F095FC0DE042F65810C2F200004F
:1015D00000F1080140F20440C2F2000000F0D2FF26
:1015E00000E0FFE7FFE70798006846F60001C4F255
:1015F0000001884259D1FFE70698A0F20120014678
:10160000049107284FD80499DFE801F0242F3C4DBE
:101610004D044D1340F68860C2F20000039040F282
:101620000441C2F2000109F063FC039809F08AFC4E
:101630003AE040F68860C2F2000000F5A670029021
:1016400040F20441C2F2000109F052FC029809F094
:1016500079FC29E040F27450C2F2000040F20441EB
:10166000C2F2000109F044FC1EE040F27450C2F2E4
:10167000000000F5A67040F20441C2F2000109F03A
:1016800037FC11E040F27450C2F2000000F5267001
:10169000019040F20441C2F2000109F029FC0198D6
:1016A00009F050FC00E0FFE7FFE708B080BD000054
:1016B00010B58EB08C46864611981099CDF834E05E
:1016C000ADF832C0ADF83020ADF82E30ADF82C10AA
:1016D000ADF82A0000200190BDF932100491059068
:1016E00008210891069007909DF831008DF80800B8
:1016F0009DF830008DF809009DF82F008DF80A0044
:101700009DF82E008DF80B009DF82D008DF80C0033
:101710009DF82C008DF80D009DF82B008DF80E0023
:101720009DF82A008DF80F000D9804A902AA01ABBC
:1017300002F0C6F80EB010BD80B58AB00121089144
:101740000020049000900190029003900690079171
:101750000E210991059042F65850C2F200006946E8
:1017600002F05AF918B1FFE701F026FCFFE742F654
:101770005850C2F2000002F003FF18B1FFE701F079
:101780001BFCFFE742F65850C2F20000022102F0B3
:101790006DF818B1FFE701F00FFCFFE742F6585073
:1017A000C2F20000012102F061F818B1FFE701F078
:1017B00003FCFFE70E200990059042F68050C2F22C
:1017C0000000694602F028F918B1FFE701F0F4FBC8
:1017D000FFE742F68050C2F2000002F0D1FE18B1DD
:1017E000FFE701F0E9FBFFE742F68050C2F200009C
:1017F000022102F03BF818B1FFE701F0DDFBFFE743
:1018000042F68050C2F20000012102F02FF818B118
:10181000FFE701F0D1FBFFE70AB080BD84B08DF88F
:101820000F000291ADF806209DF80F0001460091CF
:1018300023281DD80099DFE801F012131415161B98
:101840001B1B1B1B1B1B1B1B1B1B1B1B1B1B1B1BE8
:101850001B1B1B1B1B1B1B1B1B1B1718191A08E030
:1018600007E006E005E004E003E002E001E000E05C
:10187000FFE7002004B070470020704780B582B0B9
:1018800042F6EC10C2F20000009042F21001C2F2E7
:101890000001002201920DF0F1FF009841F61001C5
:1018A000C2F200010DF0CCFF019802B080BD000033
:1018B00080B584B003900291039942F6EC10C2F215
:1018C000000001900DF0BCFF01980DF05FFF0020BB
:1018D00004B080BD83B0029001918DF803200020F8
:1018E0008DF802009DF9020003B0704780B586B004
:1018F0000490ADF80E1000208DF80D0042F6EC10AB
:10190000C2F20000D0F8BC0202900298D0F8140293
:1019100020B1FFE701208DF8170013E00499BDF80E
:101920000E2042F6EC10C2F2000001900DF0A6FF6E
:1019300001980EF0ADF88DF80D009DF80D008DF8B2
:101940001700FFE79DF8170006B080BD00000000FB
:1019500080B5A2B02190209100201F901E901D9074
:101960004CF6D002C0F60102116852681C921B911D
:101970001A9019901790169040F68860C2F20000F5
:10198000B0F90A1000EE101AB8EEC00A90ED0A1A6B
:10199000B8EEC11A30EE410A10EE100AFEF786FECC
:1019A00041EC100B40F2B030C2F200000F9080ED1D
:1019B000000B17F04DFE0F9890ED000B9FEDDE1B16
:1019C00053EC112B51EC100BFEF706FD41EC100B04
:1019D00040F2A830C2F2000080ED000B2098B0F970
:1019E000041000EE101AB8EEC01A90F82E1001F094
:1019F0000F00C0EB111000EE100AB8EEC00A9FED08
:101A0000D03A20EE030A30EE010AB2EE001A20EEC0
:101A1000010A8DED1F0A2098B0F9061000EE101A89
:101A2000B8EEC02A90F82D1001F00F00A0EB1110B5
:101A300000EE100AB8EEC00A20EE030A30EE020AE9
:101A400020EE010A8DED1E0A2098B0F90C1000EE70
:101A5000101AB8EEC02A90F82F0000F00F0000EE28
:101A6000100AB8EEC00A20EE030A30EE020A20EE99
:101A7000410A8DED1D0A209890F832000007A8B1A8
:101A8000FFE79DED1D0A9FEDAF1A20EE010A8DEDD7
:101A90001D0A9DED1F0A20EE010A8DED1F0A9DED26
:101AA0001E0A20EE010A8DED1E0AFFE72098C07B7A
:101AB000012849D0FFE72098B0F90C0000283ED15A
:101AC000FFE7209890F82F000007C0BBFFE72098A1
:101AD000B0F9080000EE100AB8EEC00AB1EE081A1C
:101AE00020EE010A10EE100AFEF7E0FD41EC100BAB
:101AF0008DED160B40F2B030C2F2000090ED000BFD
:101B00008DED100B9DF8470080F080008DF84700A8
:101B100010981199FEF7DDFD00EE900A40F2A44006
:101B2000C2F200009FED880A0AF09CF98DED1D0AB3
:101B300010EE100AFEF7BAFD41EC100B03E0002096
:101B400017901690FFE7FFE740F2A830C2F20000BE
:101B5000019090ED000B19F0C7F901988DED140B71
:101B600090ED000B19F024FA8DED120B1E98FEF784
:101B70009DFD41EC100B8DED040B9DED120B8DEDD9
:101B8000020B1F98FEF792FD41EC100B9DED141B0C
:101B900053EC112B51EC100BFEF71EFC9DED021BBC
:101BA0009DED040B41EC120B8DED062B53EC112B2C
:101BB00051EC100BFEF710FC9DED060B02460B4698
:101BC00051EC100B43EC102B53EC102BFEF7FEFBEB
:101BD00041EC100B51EC100BFEF77BFD1A901E9898
:101BE000FEF764FD41EC100B8DED0A0B9DED140B1F
:101BF0008DED080B1F98FEF759FD41EC100B9DED84
:101C0000121B53EC112B51EC100BFEF7E5FB9DED75
:101C1000081B9DED0A0B41EC120B8DED0C2B53ECC8
:101C2000112B51EC100BFEF7D7FB9DED0C0B41EC8B
:101C3000110B51EC110B53EC102BFEF726FB41EC72
:101C4000100B51EC100BFEF744FD19902098807892
:101C500020B1FFE721990020C8612AE09DED1A0A12
:101C60009DED191A30EE410A9DED1D2A9DED1B3A9E
:101C70009DED1C1A22EE032A30EE420A20EE010AE4
:101C800010EE100AFEF712FD41EC110B9DED160B44
:101C900053EC112B51EC100BFEF7F7FA41EC100B43
:101CA00051EC100BFEF715FD00EE100A2199C861EA
:101CB000FFE72098807828B1FFE721990020C1F83C
:101CC00068012DE09DED1A0AB1EE400A9DED191A4A
:101CD00030EE410A9DED1D2A9DED1B3A9DED1C1A2B
:101CE00022EE032A30EE420A20EE010A10EE100A1C
:101CF000FEF7DCFC41EC110B9DED160B53EC112BA8
:101D000051EC100BFEF7C1FA41EC100B51EC100B2B
:101D1000FEF7DFFC00EE100A2199C1F86801FFE729
:101D20002098807890B1FFE721990020C1F8B40293
:101D300038E000BF00BF00BF00000060FB21493F4A
:101D400000002544CDCCCC3D000000009DED1A1ACA
:101D50009DED190A30EE410A9DED1D2A9DED1B3ABD
:101D60009DED1C1A22EE032A30EE420A20EE010AF3
:101D700010EE100AFEF79AFC41EC110B9DED160BCC
:101D800053EC112B51EC100BFEF77FFA41EC100BCA
:101D900051EC100BFEF79DFC00EE100A2199C1F8E2
:101DA000B402FFE72098807828B1FFE7219900204E
:101DB000C1F800042BE09DED1A0A9DED191A30EED2
:101DC000010A9DED1D2A9DED1B3A9DED1C1A22EE88
:101DD000032A30EE420A20EE010A10EE100AFEF746
:101DE00065FC41EC110B9DED160B53EC112B51ECE6
:101DF000100BFEF74AFA41EC100B51EC100BFEF7FA
:101E000068FC00EE100A2199C1F80004FFE7219850
:101E100000F044FB2198209900F08EF8209890F86B
:101E200033100020B0EB111F12D0FFE7209890F87C
:101E300039100020B0EBD11F0AD1FFE740F20C416E
:101E4000C2F200010878B0FA80F040090870FFE79C
:101E5000209991F8332091F8390002F0100200F037
:101E60007F0040EAC20081F83900209991F83130B2
:101E700091F83900082202EA530200F0F7001044FA
:101E800081F83900209991F8322091F8390002F058
:101E9000010200F0EF0040EA021081F839002098BA
:101EA00090F831100020B0EB111F23D0FFE72198EC
:101EB00000F5806090ED000A9FED1D1A20EE010AEA
:101EC00080ED000A219890ED070A20EE010A80EDCE
:101ED000070A219890EDAD0A9FED161A20EE010A2F
:101EE00080EDAD0A219890ED5A0A20EE010A80EDAE
:101EF0005A0AFFE721980AF03FF9219800F5A670E9
:101F00000AF03AF9219800F526700AF035F921987F
:101F100000F579700AF030F940F20C40C2F200008E
:101F200000782099C97816F015F922B080BD00BF5D
:101F30003333333F3333B33F96B015901491159834
:101F4000B0F9F40300EE100AB8EEC00AB5EE400A8C
:101F5000F1EE10FA0ADDFFE71598B0F9F40300EE90
:101F6000100AB8EEC00A8DED070A0BE01598B0F91B
:101F7000F40300EE100AB8EEC00AB1EE400A8DED8F
:101F8000070AFFE79DED070A8DED130A1598B0F9D2
:101F9000100000EE100AB8EEC00AB5EE400AF1EEED
:101FA00010FA0ADDFFE71598B0F9100000EE100AEC
:101FB000B8EEC00A8DED060A0BE01598B0F91000D6
:101FC00000EE100AB8EEC00AB1EE400A8DED060A26
:101FD000FFE79DED060A8DED120A1598B0F9A802EB
:101FE00000EE100AB8EEC00AB5EE400AF1EE10FAA3
:101FF0000ADDFFE71598B0F9A80200EE100AB8EE66
:10200000C00A8DED050A0BE01598B0F9A80200EEA4
:10201000100AB8EEC00AB1EE400A8DED050AFFE7DE
:102020009DED050A8DED110A1598B0F95C0100EEE1
:10203000100AB8EEC00AB5EE400AF1EE10FA0ADD59
:10204000FFE71598B0F95C0100EE100AB8EEC00A7F
:102050008DED040A0BE01598B0F95C0100EE100A52
:10206000B8EEC00AB1EE400A8DED040AFFE79DED1F
:10207000040A8DED100A9DED130A9DED121A30EE43
:10208000410AB5EE400AF1EE10FA09DDFFE79DEDD9
:10209000130A9DED121A30EE410A8DED030A08E095
:1020A0009DED131A9DED120A30EE410A8DED030AE3
:1020B000FFE79DED030A8DED0F0A9DED110A9DEDE1
:1020C000101A30EE410AB5EE400AF1EE10FA09DDC1
:1020D000FFE79DED110A9DED101A30EE410A8DEDDE
:1020E000020A08E09DED111A9DED100A30EE410A3A
:1020F0008DED020AFFE79DED020A8DED0E0A42F614
:10210000C010C2F20000019090ED000A9DED131A7C
:102110009FEDDB3A21EE031A9FEDDA2A20EE020A48
:1021200030EE010A80ED000A90ED010A9DED121AD1
:1021300021EE031A20EE020A30EE010A80ED010AB8
:1021400090ED020A9DED111A21EE031A20EE020A0B
:1021500030EE010A80ED020A90ED030A9DED101A9F
:1021600021EE031A20EE020A30EE010A80ED030A86
:1021700090ED000A90ED011A30EE010AB6EE001A59
:1021800020EE010A8DED0D0A90ED020A90ED032A72
:1021900030EE020A20EE010A8DED0C0A9DED0D0ACB
:1021A0009DED0C1A30EE410AB5EE400AF1EE10FA40
:1021B00009DDFFE79DED0D0A9DED0C1A30EE410A99
:1021C0008DED000A08E09DED0D1A9DED0C0A30EE34
:1021D000410A8DED000AFFE79DED000A8DED0B0A27
:1021E0009DED0B0A9FEDA81A0020B4EE410AF1EE16
:1021F00010FAC8BF01208DF82B009DF82B0038B3D2
:10220000FFE743F64C10C2F20000007800BBFFE786
:1022100043F6A000C2F2000001880131018043F6BC
:102220008C02C2F2000200211180B0F90000642883
:102230000DDBFFE743F64C11C2F2000101200870EC
:1022400043F6A001C2F2000164200880FFE72BE002
:102250009DF82B0038BBFFE743F64C10C2F200009C
:10226000007800B3FFE743F68C00C2F2000001885B
:102270000131018043F6A002C2F200020021118068
:10228000B0F9000032280DDBFFE743F64C11C2F233
:1022900000010020087043F68C01C2F200013220D8
:1022A0000880FFE7FFE7FFE743F64C10C2F20000AB
:1022B00000781499C8701498C078002879D0FFE786
:1022C00014988078002874D1FFE79DED0B0A9FEDEC
:1022D0006F1A80EE010AB7EE081A30EE011AB0EE5E
:1022E000040AB4EE401AF1EE10FAB8BFB0EE410A9B
:1022F0008DED090A9DED090AB7EE001A81EE000A7C
:102300008DED080A40F21801C2F2000191ED000AB9
:102310009DED082A20EE022A9FED5D0AB4EE402AC8
:10232000F1EE10FAC8BFB0EE420A81ED000A9DED51
:10233000090A30EE410A91ED002A31EE422A20EEE0
:10234000020A30EE011A9FED530AB4EE401AF1EE84
:1023500010FAC8BFB0EE410A40F21C00C2F2000001
:1023600080ED000A91ED001A159A02F5806292ED57
:10237000000A20EE010A82ED000A91ED001A15997B
:1023800091ED070A20EE010A81ED070A90ED001A8F
:10239000159991EDAD0A20EE010A81EDAD0A90ED9F
:1023A000001A159890ED5A0A20EE010A80ED5A0A9B
:1023B0002EE040F21800C2F2000090ED000A9FEDFE
:1023C000361A30EE012AB7EE000AB4EE402AF1EEDA
:1023D00010FAB0EE401AB8BFB0EE421A80ED001A03
:1023E00040F21C00C2F2000090ED001A31EE401ADB
:1023F0009FED242A21EE021A31EE001AB4EE401AA3
:10240000F1EE10FAC8BFB0EE410A80ED000AFFE716
:102410000B9847F64C21C2F20001086043F64C10BD
:10242000C2F20000007800EE100AB8EE400A81ED1A
:10243000010A43F68C00C2F20000B0F9000000EE81
:10244000100AB8EEC00A81ED020A43F6A000C2F2FB
:102450000000B0F9000000EE100AB8EEC00A81EDED
:10246000030A40F21800C2F200000068086140F25E
:102470001C00C2F200000068486116B0704700BF3F
:10248000D0CCCC3D6666663F00803B4500007A4478
:102490003333333F3333B33FCDCC4C3D84B0039023
:1024A00000208DF80B00FFE79DF80B00032860DC8F
:1024B000FFE7039A9DF80B004FF4A67110FB012073
:1024C000C06901909DED010A9DF80B1043F6900044
:1024D000C2F2000000EB810090ED001A30EE410ADC
:1024E0008DED000A43F67A10C2F20000007860B168
:1024F000FFE79DED000AB0EEC00AB3EE041AB4EE99
:10250000410AF1EE10FA0ADAFFE701989DF80B2074
:1025100043F69001C2F2000141F8220014E09DED63
:10252000000A9DF80B1043F69000C2F2000000EB89
:10253000810090ED001AB6EE002A20EE020A30EE7D
:10254000010A80ED000AFFE79DF80B1043F69000AA
:10255000C2F2000050F82100039B4FF4A67211FB59
:102560000231C861FFE79DF80B0001308DF80B00C8
:102570009AE743F67A11C2F200010120087004B014
:102580007047000083B0029001910020ADF8020076
:102590000298017842F65810C2F2000001720299C6
:1025A0004978417202994988090409BA00EE101A63
:1025B000B8EEC00A9FED0F1A80EE010A80ED050A01
:1025C00002998988090409BA00EE101AB8EEC00A07
:1025D00080EE010A80ED040A0299C988090409BA4B
:1025E00000EE101AB8EEC00A80EE010A80ED030A70
:1025F00003B070470000C84280B586B08DF8170060
:10260000ADF8141040F23040C2F2000090F83300F0
:102610000007A0B1FFE740F23040C2F2000090F89E
:1026200039008009C00750B9FFE740F22201C2F229
:1026300000010878B0FA80F040090870FFE747F61B
:102640005C10C2F2000090F8432042F65811C2F22A
:1026500000010A70B0F83B200020002AC8BF01200A
:10266000887040F23040C2F20000C07B03281AD1CB
:10267000FFE747F65C10C2F20000B0F83B10002004
:10268000012904900ADBFFE740F22200C2F20000B9
:102690000078002818BF01200490FFE7049800F09C
:1026A0000100039002E000200390FFE7039942F647
:1026B0005810C2F2000041709DF81710C170AA2195
:1026C0004171B0F90020B0F90230B0F90400694658
:1026D0004FF0000CC1F804C0086042F65850C2F236
:1026E000000040F25221FEF7E3FF40F23041C2F217
:1026F000000191F8332091F8390002F0010200F056
:10270000BF0040EA821081F8390006B080BD0000A9
:1027100080B584B0039002918DF80720039810F0E3
:10272000FBFB0299CD2008700398016842F68810DF
:10273000C2F20000009001600178029A5170417865
:10274000029A91708178029AD170C178029A1171BF
:102750000399496801600178029A51714178029A9F
:1027600091718178029AD171C178029A117203999C
:10277000497E029A51720399496901600178029A6F
:1027800091724178029AD1728178029A1173C0785D
:10279000029948730398007E029988730299DC209D
:1027A000C8739DF8070038B9FFE702981021FFF7BA
:1027B0009DF88DF8060010E09DF8070001280BD168
:1027C000FFE7029943F26C70C2F20000102206F09B
:1027D00005FB8DF80600FFE7FFE7012004B080BD90
:1027E00080B586B0059040F27540C2F200000490BA
:1027F0004168C1F30131059A91734168C1F3813198
:10280000059AD17301686FF3DF21A1F58061059A04
:1028100091800168C1F3CA21A1F58061059AD18038
:1028200001684268890D41EA82216FF3DF21A1F539
:102830008061059A11814168C1F34A01A1F5806167
:10284000059A5181018A6FF3DF21A1F58061059A14
:102850009181817B01F00103059A92F82D1001F01E
:10286000F001194482F82D10C168C1F34043059A64
:1028700092F82D1001F00F0141EA031182F82D109A
:10288000C168C1F38043059A92F82E1001F0F0015F
:10289000194482F82E10C168C1F3C043059A92F81A
:1028A0002E1001F00F0141EA031182F82E10C168C9
:1028B000C1F30053059A92F82F1001F0F00119446A
:1028C00082F82F10C168C1F38053059A92F8301036
:1028D00001F0F001194482F83010C168C1F3C0530F
:1028E000059A92F8301001F00F0141EA031182F8C5
:1028F0003010C168C1F38073059A92F8341001F06A
:10290000F001194482F83410C268102101EAD26340
:10291000059A92F8341001F00F01194482F834102E
:10292000C168C1F3C063059A92F8321001F00F013B
:1029300041EA031182F83210C168C1F30073059AAD
:1029400092F8331001F0F001194482F83310C16895
:10295000C1F34073059A92F8331001F00F0141EA78
:10296000031182F83310C168C1F34063059A92F8ED
:10297000311001F00F0141EA031182F83110C168F2
:10298000C1F38063059A92F8321001F0F001194406
:1029900082F83210C168C1F34053059A92F82F10A3
:1029A00001F00F0141EA031182F82F100599D1F8C7
:1029B000111000EE101A8DED010AB0F90600C117D2
:1029C000FDF721FE9DED010A00EE900A9FED381AF9
:1029D0008DED031A15F092FF0498059A10EE101A67
:1029E000C2F811100599D1F81D1000EE101A8DEDE6
:1029F000020AB0F90800C117FDF705FE9DED020AB5
:102A00009DED031A00EE900A15F078FF0498059AE0
:102A100010EE101AC2F81D10B0F90B00C117000A11
:102A200040EA016001281FD1FFE7059890F82B00CC
:102A300013280FDCFFE7059991F82B00013081F88E
:102A40002B00059991F82900012262F31F1081F8EB
:102A5000290008E0059991F82900022262F31F106D
:102A600081F82900FFE70BE00599002081F82B0091
:102A7000059991F8290000F00F0081F82900FFE77F
:102A800040F27540C2F20000427B059991F829009E
:102A900002F00F0200F0F000104481F8290040F22B
:102AA0003041C2F200010020887006B080BD00BF36
:102AB0000000FA4380B582B0019001984521FDF7EE
:102AC000C9FB01990120887002B080BD80B542F633
:102AD0009070C2F2000001F08DFE80BD80B542F61C
:102AE000F070C2F2000001F085FE80BD80B542F6B4
:102AF0007060C2F2000001F07DFE80BD80B542F63C
:102B0000B050C2F2000001F075FE80BD80B543F206
:102B10005000C2F2000001F06DFE80BD80B542F6AB
:102B20001060C2F2000001F065FE80BD80B542F683
:102B3000D060C2F2000001F05DFE80BD80B543F2BE
:102B4000B000C2F2000001F055FE80BD80B542F633
:102B50003070C2F2000001F04DFE80BD82B00190E5
:102B60000198007810384AF6AB21CAF6AA21A0FBDA
:102B700001100009009000994CF61000C0F6010009
:102B8000405C0199C8650098042807D3FFE70199C4
:102B90000868042262F30900886506E00199086864
:102BA00040F2FF3290438865FFE70198806D02B0E4
:102BB0007047000086B0059000208DF8130005983E
:102BC000806A03900598806910BBFFE70398029024
:102BD00003281BD80299DFE801F0020D02180598BE
:102BE00090F82F00C00720B1FFE701208DF81300F7
:102BF000FFE70CE00598C06AB0F1C07F04D1FFE7A1
:102C000001208DF81300FFE701E000E0FFE745E059
:102C100005988069B0F5005F25D1FFE70398019022
:102C200003281ED80199DFE801F0020602110120F5
:102C30008DF8130016E0059890F82F00C00720B11A
:102C4000FFE701208DF81300FFE70BE00598C06A4D
:102C5000B0F1C07F04D1FFE701208DF81300FFE73A
:102C600000E0FFE719E003980090032804D3FFE792
:102C70000098032804D00EE001208DF813000BE02B
:102C8000059890F82F00C00720B1FFE701208DF8CC
:102C90001300FFE700E0FFE7FFE7FFE79DF8130001
:102CA00006B0704784B0039002910192009303989C
:102CB0000168086820F4802008600098039909687A
:102CC000486003988068402809D1FFE7019803997C
:102CD00009688860029803990968C86008E002984A
:102CE000039909688860019803990968C860FFE73B
:102CF00004B0704781B041F20400CEF200000068D9
:102D00000090009840F22841C2F200010968884210
:102D100008D2FFE740F22C41C2F2000108680130FE
:102D20000860FFE7009840F22841C2F20001086005
:102D300001B0704783B08DED020A41F20400CEF27B
:102D400000000068019002980090FFE741F2040043
:102D5000CEF2000000680199401A00EE100AB8EEA9
:102D6000400A9DED001A40F21040C2F2000090EDC2
:102D7000002AB8EE422A21EE021AB4EE410AF1EE20
:102D800010FA01DAFFE7E1E703B0704780B584B0DD
:102D9000039041F20400CEF2000000680290029815
:102DA00003990968401A00EE100AB8EE400A40F292
:102DB0001040C2F2000090ED001AB8EE411A80EE09
:102DC000010A8DED010A029803990860FFF792FF4E
:102DD0009DED010A04B080BD80B582B000F06CF8B2
:102DE00041F24430C2F2000090ED000AB8EE401A01
:102DF000818800EE101AB8EEC00A9FED0B2A20EE73
:102E0000020A30EE011AC08800EE100AB8EEC00ABD
:102E10009FED062A20EE020A30EE010A8DED010A2E
:102E20009DED010A02B080BD6F12833ABD37863531
:102E300081B000904EF6FC51CEF20001086840F0DF
:102E40008070086041F20401CEF2000100200860A9
:102E500041F20002CEF20002116841F0010111605E
:102E6000009944F24022C0F20F024A4340F210415E
:102E7000C2F200010A600A6844F6D353C1F2620349
:102E8000A2FB0332920940F21443C2F200031A601B
:102E900009684DF68362C4F21B32A1FB0221890C42
:102EA00040F21842C2F20002116040F22C41C2F21C
:102EB0000001086001B07047B0B586B041F204006F
:102EC000CEF2000000680590FFF714FF40F22C409E
:102ED000C2F2000001680598002302934FF0FF3C06
:102EE0001A46E1FB0C0240F22041C2F200010091BF
:102EF0004A6008600868496840F21044C2F2000461
:102F00002268FDF75DF9029B02468C46009940F26B
:102F10008840C2F20000C0F804C00260D1F800C0CE
:102F20004968D0F800E042682468AEFB04E502FB83
:102F30000452BCEB0E0C61EB020240F29041C2F273
:102F400000010391C1F800C04A60006841F24432B8
:102F5000C2F20002049210600868496840F214420C
:102F6000C2F2000201921268FDF72AF9DDF804C0EE
:102F7000029B049A014603989180016840689288F8
:102F8000DCF800C002FB0CF28A1A60F1000040F28B
:102F90009841C2F200010A6048600868496840F23E
:102FA0001842C2F200021268FDF70AF90499C880BB
:102FB00006B0B0BD7047000072B6FFE7FEE7000044
:102FC00080B586B005908DED040A0391CDED020A1F
:102FD000ADF80620ADF8043004980599C1F88C00CE
:102FE000039880B1FFE7059868B1FFE70398006890
:102FF00005990860039840680599486003988068BF
:10300000059988600AE005990020086005994860E4
:10301000059988600599C1F88C00FFE70298059929
:103020000862BDF8060005990886BDF804000599F8
:10303000A1F85C00BDF80600032807DBFFE7059850
:103040003230BDF8061008F0C7FCFFE7BDF80400F9
:10305000032807DBFFE705985E30BDF8041008F091
:10306000BBFCFFE70599002088610599C1F888003D
:1030700006B080BD80B58AB0099008910792089883
:1030800090F82900000740B9FFE742F6C400C2F2F9
:10309000000090F8290038B1FFE742F65011C2F263
:1030A00000010120087006E042F65011C2F2000152
:1030B00000200870FFE7089890F82900000770B911
:1030C000FFE7089890F82C00C00740B1FFE741F2F5
:1030D0004C30C2F20000C0680999C861FFE7089946
:1030E00091F8292091F82C0002F0010200F0FE0076
:1030F000104481F82C0042F65010C2F20000007813
:1031000028B9FFE70898C07B022821D1FFE742F6E3
:10311000C400C2F20000007AC007C8B1FFE70998F6
:1031200009F090F8099800F5A67009F04FF841F2FF
:103130004C30C2F20000C16840F2D442C2F2000238
:103140001160406C40F2D041C2F2000108601EE103
:1031500042F65010C2F20000007828B9FFE7089844
:10316000C07B022811D1FFE742F6C400C2F2000082
:10317000007AC00748B9FFE7099809F063F8099891
:1031800000F5A67009F022F800E10898C07B01461E
:103190000691032800F2F8800699DFE801F0C703E2
:1031A000C802FFE70898B0F9081000EE101AB8EE50
:1031B000C00AB1EE400A8DED050AD0F8110000EE0C
:1031C000100A9FED741A20EE010AB2EE0E1AB4EE48
:1031D000410AF1EE10FA05DDFFE7B2EE0E0A8DEDC1
:1031E000040A26E00898D0F8110000EE100A9FEDBE
:1031F000691A20EE010ABAEE0E1AB4EE410AF1EE97
:1032000010FA05DAFFE7BAEE0E0A8DED030A0BE0BD
:103210000898D0F8110000EE100A9FED5E1A20EE1B
:10322000010A8DED030AFFE79DED030A8DED040A07
:10323000FFE79DED050A9DED041A9FED572A20EE4C
:10324000020A30EE411A089890F8301001F00F0091
:10325000A0EB111000EE100AB8EEC00AB0EE082A7A
:1032600020EE020A30EE011A099890ED070A30EEBE
:10327000010A80ED070A40F2D441C2F200010020A9
:1032800008600898B0F90A1000EE101AB8EEC00AEB
:10329000D0F81D0001EE100A9FED402A21EE021A1F
:1032A0009FED3F2A20EE020A30EE011A099890EDB8
:1032B0005A0A30EE010A80ED5A0A099890ED5A0A2E
:1032C0009FED381AB4EE410AF1EE10FA05DDFFE782
:1032D0009FED340A8DED020A1AE0099890ED5A0A22
:1032E000BBEE041AB4EE410AF1EE10FA05DAFFE77C
:1032F000BBEE040A8DED010A05E0099890ED5A0A2B
:103300008DED010AFFE79DED010A8DED020AFFE751
:103310009DED020A099880ED5A0A099808F05EFEB0
:10332000099800F5A67008F0F5FE2EE0FFE7089872
:10333000807850B1FFE741F24C30C2F2000090EDCE
:10334000030A099880ED070A03E0099890ED070A3F
:10335000FFE70898807850B1FFE741F24C30C2F2A5
:10336000000090ED110A099880ED5A0A03E00998CF
:1033700090ED5A0AFFE7099808F030FE099800F529
:10338000A67008F0C7FE00E0FFE7FFE7FFE70AB01E
:1033900080BD00BF0AD7A33DBC74133C6F12833BB2
:1033A00052499D390000704284B002900191ADF8FD
:1033B0000220029828B9FFE74FF6FF70ADF80E0023
:1033C00021E0FFE70198411E0191B8B1FFE70298A3
:1033D000411C029100788DF80100BDF802109DF8A3
:1033E00001004840C2B24DF27C30C0F6010030F816
:1033F000120080EA1120ADF80200E3E7BDF80200F8
:10340000ADF80E00FFE7BDF80E0004B070470000F5
:1034100082B00190ADF802108DF80120FFE7BDF8F1
:103420000200411EADF8021098B1FFE79DF80100BF
:1034300001994A1C0192097848408DF800009DF8D6
:1034400000104CF21060C0F60100405C8DF80100E5
:10345000E5E79DF8010002B07047000041F250100E
:10346000C2F2000090ED690A7047000041F250106E
:10347000C2F2000090ED680A7047000080B584B089
:1034800047F61020C1F6FF700068039047F614203D
:10349000C1F6FF700068029047F61820C1F6FF7071
:1034A000006801900199039808440390039888B13B
:1034B000FFE7039840F28C11C2F200010091023143
:1034C000082206F011FF009902981231042206F03A
:1034D0000BFFFFE704B080BD41F25010C2F20000C4
:1034E00090ED6A0A7047000085B0039002910020B9
:1034F0000190FFE7039890F83C00012804D1FFE712
:1035000002208DF81300F7E00399012081F83C00B8
:10351000FFE7FFE7029800680A281CD3FFE702983C
:10352000008800EB4000A0F11E01072000FA01F224
:1035300003980168C8689043C86002998868098840
:1035400001EB41011E3900FA01F203980168C868D5
:103550001043C86018E00298008800EB4001072083
:1035600000FA01F203980168086990430861029922
:103570008868098801EB410100FA01F203980168AB
:10358000086910430861FFE70298406806281BD8C5
:10359000FFE70298406800EB8000411F1F2000FAFF
:1035A00001F203980168486B9043486302990888C8
:1035B000496801EB8101053900FA01F203980168BD
:1035C000486B104348633DE0029840680C281CD8C3
:1035D000FFE70298406800EB8000A0F123011F2064
:1035E00000FA01F203980168086B9043086302999E
:1035F0000888496801EB8101233900FA01F2039838
:103600000168086B104308631BE00298406800EBF8
:103610008000A0F141011F2000FA01F20398016827
:10362000C86A9043C86202990888496801EB810121
:10363000413900FA01F203980168C86A1043C86270
:10364000FFE7FFE742F20030C4F201000090039868
:10365000006842F20001C4F2010188420BD1FFE789
:1036600002980068122806D1FFE70099486840F4E4
:1036700080004860FFE70398006842F20001C4F24E
:10368000010188422ED1FFE702980068102805D07A
:10369000FFE702980068112824D1FFE700994868E5
:1036A00040F40000486002980068102819D1FFE734
:1036B00040F2D400C2F2000000684DF68361C4F20B
:1036C0001B31A0FB0110800C00EB8000400001903A
:1036D000FFE7019820B1FFE7019801380190F8E772
:1036E000FFE7FFE7FFE70399002081F83C00FFE7D1
:1036F00000208DF81300FFE79DF8130005B0704718
:1037000080B584B0029000208DF80700029820B99F
:10371000FFE701208DF80F0042E00298806A012146
:10372000C0F60071884201D0FFE7FFE70298006C05
:1037300050B9FFE7029800F037F80299002048647A
:10374000029981F83C00FFE70298006CC00600284F
:1037500017D4FFE70298006C40F0020020F4885074
:10376000029908640298FDF76BF9029900204864F9
:103770000298006C40F0010020F0020002990864F9
:1037800003E001208DF80700FFE7FFE70299002022
:1037900081F83C00FFE79DF807008DF80F00FFE778
:1037A0009DF80F0004B080BD80B58AB0099000205C
:1037B000089007900690059004900998006842F2DE
:1037C0000001C4F20101884212D1FFE7FFE70020A7
:1037D000039043F64400C4F20200016841F4807192
:1037E0000160006800F4807003900398FFE73AE0FE
:1037F0000998006842F20021C4F20101884231D1E7
:10380000FFE7FFE70020029043F64400C4F2020005
:10381000016841F480610160006800F480600290FA
:103820000298FFE7FFE70020019043F63000C4F262
:103830000200016841F020010160006800F02000F2
:1038400001900198FFE74FF48060049003200590F9
:103850000020069041F20040C4F2020004A901F0E9
:1038600095FAFFE7FFE70AB080BD000084B0029040
:103870000191029890F820008DF803009DF8030054
:10388000012805D0FFE79DF8030002280AD1FFE7D1
:10389000019A0298016848691043486100208DF838
:1038A0000F0008E00299486A40F480204862012035
:1038B0008DF80F00FFE79DF80F0004B0704700007F
:1038C00088B00690059104920393069890F8200022
:1038D0008DF8070006980068806800900598806859
:1038E00008B9FFE700E0FFE79DF80700012806D0D0
:1038F000FFE79DF80700022840F08080FFE79DF871
:103900000300400700280CD4FFE79DF803000007E0
:10391000002806D4FFE79DF80300C006002864D500
:10392000FFE70098C0F301600290029901208840EF
:10393000039908600598806868B9FFE705980168F1
:10394000C06840EA415006990968029A01EB0211E9
:10395000C1F880010EE005994A688868C96840EAA4
:10396000C200084306990968029A01EB0211C1F8E6
:103970008001FFE70598006906990968029A01EB42
:103980000211C1F884010598007D01280CD1FFE7E0
:1039900006980068029900EB0111D1F8840140F407
:1039A0008070C1F88401FFE70498406806990968AF
:1039B000029A01EB0211C1F88C0104980068069983
:1039C0000968029A01EB0211C1F8880106980068A3
:1039D000029900EB0111D1F8800140F00100C1F81B
:1039E000800100208DF81F0011E00699486A40F41C
:1039F0000010486201208DF81F0008E00699486A0F
:103A000040F48020486201208DF81F00FFE79DF8F8
:103A10001F0008B07047000086B00490039104981E
:103A200000680190049890F820008DF803009DF83C
:103A30000300012806D0FFE79DF80300022840F0AC
:103A4000B080FFE746F20040C4F200000190019907
:103A5000D1F8000240F00100C1F800020199D1F84C
:103A6000000220F47C50C1F800020398426A0199D8
:103A7000D1F8000240EA0220C1F800020398406930
:103A800000F01F01012088400290029A0199D1F8AC
:103A90001C029043C1F81C020398C069F0B9FFE70B
:103AA000029A0199D1F80C029043C1F80C02039AD2
:103AB0009088D168526940EA0140019901EBC20146
:103AC000C1F84002039A10889168526940EA0140A7
:103AD000019901EBC201C1F84402FFE70398C069F4
:103AE00001281ED1FFE7029A0199D1F80C02104378
:103AF000C1F80C02039A90881168526940EA0140AB
:103B0000019901EBC201C1F84002039A90899168C2
:103B1000526940EA0140019901EBC201C1F8440237
:103B2000FFE70398806940B9FFE7029A0199D1F84D
:103B300004029043C1F8040207E0029A0199D1F807
:103B400004021043C1F80402FFE70398006940B97A
:103B5000FFE7029A0199D1F814029043C1F81402C8
:103B600007E0029A0199D1F814021043C1F8140237
:103B7000FFE70398006A012808D1FFE7029A01993C
:103B8000D1F81C021043C1F81C02FFE70199D1F8DB
:103B9000000220F00100C1F8000200208DF817009B
:103BA00008E00499486A40F48020486201208DF8BA
:103BB0001700FFE79DF8170006B0704781B000902E
:103BC00001B0704786B0049003910292019304986B
:103BD00090F820008DF803009DF80300012806D01E
:103BE000FFE79DF80300022840F0E880FFE7039814
:103BF00080B9FFE704980068C068800748B9FFE70C
:103C00000499486A40F40010486201208DF81700BA
:103C1000DDE00FE0049800680069800748B9FFE71D
:103C20000499486A40F40010486201208DF817009A
:103C3000CDE0FFE704980068039900EB0110D0F88D
:103C4000B00100F00400029988600298806858B9B9
:103C5000FFE704980068039900EB0110D0F8B00169
:103C6000400D029908600AE004980068039900EB8F
:103C70000110D0F8B001C00802994860FFE704982D
:103C80000068039900EB0110D0F8B00100F00200C9
:103C90000299C86004980068039900EB0110D0F8FD
:103CA000B40100F00F00082804D3FFE702990820B0
:103CB00008610BE004980068039900EB0110D0F84C
:103CC000B40100F00F0002990861FFE70498006852
:103CD000039900EB0110D0F8B40180B2000A0299F8
:103CE000886104980068039900EB0110D0F8B401D2
:103CF000000C0299486104980068039900EB0110D8
:103D0000D0F8B8010199087004980068039900EB95
:103D10000110D0F8B801000A0199487004980068B1
:103D2000039900EB0110D0F8B801000C01998870DC
:103D300004980068039900EB0110D0F8B801000E58
:103D40000199C87004980068039900EB0110D0F83D
:103D5000BC010199087104980068039900EB0110F7
:103D6000D0F8BC01000A01994871049800680399D1
:103D700000EB0110D0F8BC01000C01998871049887
:103D80000068039900EB0110D0F8BC01000E019906
:103D9000C871039838B9FFE704980168C86840F013
:103DA0002000C86006E004980168086940F020001F
:103DB0000861FFE700208DF8170008E00499486AC1
:103DC00040F48020486201208DF81700FFE79DF83D
:103DD000170006B07047000080B58AB00990002037
:103DE0000890099800684069079009980068406841
:103DF0000690099800688068059009980068C06876
:103E00000490099800680069039009980068806927
:103E100002909DF81C00C007002800F09480FFE786
:103E20009DF81400C00758B3FFE709980168012006
:103E300088609DF814008007002804D5FFE70998E2
:103E400000F0E8FB1BE09DF814004007002805D5B2
:103E5000FFE7089840F4006008900FE09DF8140018
:103E60000007002805D5FFE7089840F48050089027
:103E700003E0099800F0CAFBFFE7FFE7FFE7FFE771
:103E80009DF81500C00760B3FFE7099801684FF47B
:103E9000807088609DF815008007002804D5FFE732
:103EA000099800F0BFFB1BE09DF8150040070028B3
:103EB00005D5FFE7089840F4005008900FE09DF802
:103EC00015000007002805D5FFE7089840F480405A
:103ED000089003E0099800F0A1FBFFE7FFE7FFE788
:103EE000FFE79DF81600C00760B3FFE70998016877
:103EF0004FF4803088609DF816008007002804D5B4
:103F0000FFE7099800F096FB1BE09DF816004007BC
:103F1000002805D5FFE7089840F4004008900FE01E
:103F20009DF816000007002805D5FFE7089840F423
:103F30008030089003E0099800F078FBFFE7FFE786
:103F4000FFE7FFE7FFE79DF81C000007002810D5FA
:103F5000FFE79DF81000C006002809D5FFE7089884
:103F600040F400700890099801681020C860FFE7CD
:103F7000FFE79DF81C00400700280FD5FFE79DF8DC
:103F800010000007002808D5FFE7099801680820FD
:103F9000C860099800F0CCFAFFE7FFE79DF81C0025
:103FA000800700280BD5FFE709980068C0688007E4
:103FB00020B1FFE7099800F0BFFAFFE7FFE79DF89F
:103FC0001C004006002810D5FFE79DF80C00C00635
:103FD000002809D5FFE7089840F480600890099808
:103FE000016810200861FFE7FFE79DF81C008006CC
:103FF00000280FD5FFE79DF80C000007002808D522
:10400000FFE70998016808200861099800F0ACFAF8
:10401000FFE7FFE79DF81C00C00600280BD5FFE76F
:10402000099800680069800720B1FFE7099800F04F
:104030009FFAFFE7FFE79DF81E00800700280FD5D5
:10404000FFE79DF81800C006002808D5FFE709988B
:10405000016810204860099800F08EFAFFE7FFE73A
:104060009DF81E00C00778B1FFE79DF81800000713
:10407000002808D5FFE709980168082048600998DA
:1040800000F0DCFAFFE7FFE79DF81D0000060028BE
:1040900040F18D80FFE79DF818004007002840F1AF
:1040A0008180FFE79DF81D00C00750B1FFE79DF834
:1040B0000800C00728B1FFE7089840F00100089009
:1040C000FFE79DF81D00800700280BD5FFE79DF84E
:1040D00008008007002805D5FFE7089840F0020097
:1040E0000890FFE79DF81D00400700280BD5FFE76B
:1040F0009DF808004007002805D5FFE7089840F024
:1041000004000890FFE79DF81D000007002848D52F
:10411000FFE79DF8080010F0700F42D0FFE702980B
:1041200000F0700001460191102814D0FFE70198BB
:10413000202815D0FFE70198302816D0FFE7019816
:10414000402817D0FFE70198502818D0FFE70198C2
:10415000602819D01DE0089840F00800089019E088
:10416000089840F01000089014E0089840F02000F3
:1041700008900FE0089840F0400008900AE0089886
:1041800040F08000089005E0089840F480700890A6
:1041900000E0FFE709980168886920F070008861F5
:1041A000FFE7FFE70998016804204860FFE70898E7
:1041B00048B1FFE7089A0999486A1043486209988C
:1041C000FFF7FCFCFFE70AB080BD000080B584B0BB
:1041D0000290029820B9FFE701208DF80F00E0E07F
:1041E000029890F8200020B9FFE7029800F0DEF86E
:1041F000FFE702980168086840F00100086000F0DD
:10420000B9FF0190FFE7029800684068C007A8B9AD
:10421000FFE700F0AFFF0199401A0B280DD3FFE72D
:104220000299486A40F4003048620299052081F8FA
:10423000200001208DF80F00B3E0E4E70298016848
:10424000086820F00200086000F094FF0190FFE78A
:104250000298006840688007002815D5FFE700F045
:1042600089FF0199401A0B280DD3FFE70299486A8C
:1042700040F4003048620299052081F820000120B6
:104280008DF80F008DE0E3E70298007E012807D14A
:10429000FFE702980168086840F08000086006E0C7
:1042A00002980168086820F080000860FFE7029823
:1042B000407E012807D1FFE702980168086840F0B6
:1042C0004000086006E002980168086820F040009D
:1042D0000860FFE70298807E012807D1FFE7029877
:1042E0000168086840F02000086006E00298016854
:1042F000086820F020000860FFE70298C07E0128CF
:1043000007D1FFE702980168086820F010000860F4
:1043100006E002980168086840F010000860FFE7B6
:104320000298007F012807D1FFE70298016808681A
:1043300040F00800086006E002980168086820F074
:1043400008000860FFE70298407F012807D1FFE7D7
:1043500002980168086840F00400086006E00298CE
:104360000168086820F004000860FFE7029B1968F4
:104370005A689868D3F80CC040EA0C00D3F810C013
:1043800040EA0C005B691843013A1043C861029986
:1043900000204862029A012182F820108DF80F0057
:1043A000FFE79DF80F0004B080BD000080B590B01D
:1043B0000F9000200E900D900C900B900A900F988B
:1043C000006846F20041C4F20001884249D1FFE78B
:1043D00040F2D840C2F2000001680131016000687B
:1043E000012812D1FFE7FFE70020099043F64000C3
:1043F000C4F20200016841F000710160006800F041
:10440000007009900998FFE7FFE7FFE70020089098
:1044100043F63000C4F20200016841F00801016077
:10442000006800F0080008900898FFE703200A9051
:1044300002210B91002103910C910D9009200E9007
:1044400040F60040C4F202000AA900F09FFC039A63
:1044500014200490052100F061FF049800F054FF3F
:1044600064E00F98006846F60001C4F2000188423B
:104470005BD1FFE7FFE70020079043F64000C4F25E
:104480000200016841F080610160006800F0806016
:1044900007900798FFE740F2D840C2F20000016899
:1044A000013101600068012812D1FFE7FFE7002019
:1044B000069043F64000C4F20200016841F000712A
:1044C0000160006800F0007006900698FFE7FFE7C3
:1044D000FFE70020059043F63000C4F202000168B7
:1044E00041F002010160006800F0020005900598AB
:1044F000FFE760200A9002200B90002001900C90B2
:1045000003200D9009200E9040F20040C4F20200FA
:104510000AA900F03BFC019A40200290052100F01E
:10452000FDFE029800F0F0FEFFE7FFE710B080BD4F
:1045300081B0009001B0704780B582B001900198C1
:1045400040F2E832C2F20002009240F20443C2F2AA
:1045500000030021FFF736FB009901980968FCF77A
:10456000D7FF02B080BD000081B0009001B070475D
:1045700081B0009001B0704781B0009001B07047E9
:1045800080B584B00290029890F8200001282FD1C5
:10459000FFE70299022081F820000298016808686C
:1045A00020F00100086000F0E5FD0190FFE70298AF
:1045B00000684068C007A8B1FFE700F0DBFD019983
:1045C000401A0B280DD3FFE70299486A40F40030E7
:1045D00048620299052081F8200001208DF80F0023
:1045E0000FE0E4E70299002048628DF80F0008E030
:1045F0000299486A40F40020486201208DF80F00BB
:10460000FFE79DF80F0004B080BD000081B000906E
:1046100001B0704781B0009001B0704781B0009048
:1046200001B0704781B0009001B0704781B0009038
:1046300001B0704781B0009001B0704781B0009028
:1046400001B0704780B582B00090009820B9FFE7B4
:1046500001208DF8070011E00098407938B9FFE794
:10466000009900200871009800F00CF8FFE700990D
:104670000120487100208DF80700FFE79DF8070032
:1046800002B080BD82B001900198006843F2000141
:10469000C4F20201884212D1FFE7FFE70020009038
:1046A00043F63000C4F20200016841F48051016019
:1046B000006800F4805000900098FFE7FFE702B028
:1046C0007047000080B584B002900298806D019020
:1046D00000F050FD0090029890F8350002280DD0AF
:1046E000FFE7029980204865FFE70299002081F8E2
:1046F0003400FFE701208DF80F0055E002980168B3
:10470000086820F01600086002980168486920F0E7
:10471000800048610298006C20B9FFE70298806C25
:1047200038B1FFE702980168086820F008000860C7
:10473000FFE702980168086820F001000860FFE7C1
:10474000029800680068C007C8B1FFE700F012FDDA
:104750000099401A062811D3FFE7029920204865E6
:104760000299032081F83500FFE70299002081F8C3
:104770003400FFE703208DF80F0015E0E0E7029812
:10478000C16D3F208840019988600299012081F81D
:104790003500FFE70299002081F83400FFE7FFE7CA
:1047A00000208DF80F00FFE79DF80F0004B080BDDA
:1047B00082B00090009890F83500022807D0FFE7FB
:1047C00000998020486501208DF807000EE00099CF
:1047D000052081F8350000980168086820F0010084
:1047E0000860FFE700208DF80700FFE79DF807004D
:1047F00002B0704780B586B005900020039040F26B
:10480000D400C2F20000006848F2B511C1F64E3182
:10481000A0FB0110800A02900598806D019001981C
:104820000068049004980599C96DC84000070028E5
:104830001AD5FFE70598006800684007002812D5E0
:10484000FFE705980168086820F0040008600598F3
:10485000C16D08208840019988600599486D40F035
:1048600001004865FFE7FFE704980599C96DC84056
:10487000C007A0B1FFE7059800684069000600285E
:104880000CD5FFE70598C16D01208840019988602B
:104890000599486D40F002004865FFE7FFE704987E
:1048A0000599C96DC8404007002814D5FFE7059851
:1048B00000680068800700280CD5FFE70598C16DE7
:1048C00004208840019988600599486D40F00400F3
:1048D0004865FFE7FFE704980599C96DC840C00621
:1048E000002847D5FFE70598006800680007002802
:1048F0003FD5FFE70598C16D102088400199886079
:10490000059800680068400300281AD5FFE705985D
:10491000006800680003002809D4FFE70598006CD0
:1049200020B1FFE70598016C8847FFE708E005988C
:10493000806C20B1FFE70598816C8847FFE7FFE7AF
:1049400016E0059800680068C005002807D4FFE756
:1049500005980168086820F008000860FFE70598DE
:10496000006C20B1FFE70598016C8847FFE7FFE77F
:10497000FFE7FFE704980599C96DC8408006002845
:1049800040F18D80FFE7059800680068C0060028A8
:1049900040F18480FFE70598C16D2020884001998F
:1049A0008860059890F83500052834D1FFE7059810
:1049B0000168086820F016000860059801684869D9
:1049C00020F0800048610598006C20B9FFE7059849
:1049D000806C38B1FFE705980168086820F008008E
:1049E0000860FFE70598C16D3F2088400199886005
:1049F0000599012081F83500FFE70599002081F82D
:104A00003400FFE70598006D20B1FFE70598016DC0
:104A10008847FFE77BE005980068006840030028AE
:104A20001AD5FFE70598006800680003002809D43C
:104A3000FFE70598406C20B1FFE70598416C884777
:104A4000FFE708E00598C06B20B1FFE70598C16B50
:104A50008847FFE7FFE720E0059800680068C00589
:104A6000002811D4FFE705980168086820F01000BD
:104A700008600599012081F83500FFE705990020BD
:104A800081F83400FFE7FFE70598C06B20B1FFE72E
:104A90000598C16B8847FFE7FFE7FFE7FFE7059849
:104AA000406DA0B3FFE70598406DC00730B3FFE746
:104AB0000599052081F8350005980168086820F0FF
:104AC00001000860FFE703980130039002998842D3
:104AD00001D9FFE707E0FFE7059800680068C00715
:104AE0000028F0D1FFE70599012081F83500FFE7A4
:104AF0000599002081F83400FFE7FFE70598C06CB6
:104B000020B1FFE70598C16C8847FFE7FFE706B0D3
:104B100080BD000080B586B004900020039000F0B6
:104B200029FB0290049820B9FFE701208DF81700B7
:104B3000A3E00498406A08B1FFE7FFE70499022068
:104B400081F83500FFE70499002081F83400FFE781
:104B500004980168086820F001000860FFE70498E5
:104B600000680068C00790B1FFE700F003FB0299FE
:104B7000401A06280AD3FFE70499202048650499C3
:104B8000032081F835008DF8170076E0E7E70498F8
:104B9000006800680390039848F23F01CFF21001CB
:104BA00008400390049900914868D1F808C0CB6888
:104BB0000A6940EA0C00184310434A6910438A69A5
:104BC0001043CA691043096A0143039808430390DC
:104BD0000498406A042808D1FFE70499C86A096B61
:104BE0000143039808430390FFE703980499096879
:104BF00008600498006840690390039820F007005B
:104C000003900498416A0398084303900498406A0B
:104C100004281AD1FFE70498816A03980843039097
:104C20000498C06A80B1FFE70498FDF7C3FF50B154
:104C3000FFE70499402048650499012081F8350078
:104C40008DF8170019E0FFE7FFE70398049909685A
:104C500048610498FDF782FF01900498C16D3F20E0
:104C6000884001998860049900204865049A0121D0
:104C700082F835108DF81700FFE79DF8170006B091
:104C800080BD000080B588B0069005910492039322
:104C900000208DF80B000698806D0190FFE70698C4
:104CA00090F83400012804D1FFE702208DF81F009E
:104CB00045E00699012081F83400FFE7FFE70698F8
:104CC00090F8350001282BD1FFE70699022081F8E2
:104CD000350006990020486506980599049A039BBB
:104CE000FDF7E0FF0698C16D3F208840019988607C
:104CF00006980168086840F0160008600698006C85
:104D000038B1FFE706980168086840F008000860BD
:104D1000FFE706980168086840F00100086009E0B4
:104D2000FFE70699002081F83400FFE702208DF8A4
:104D30000B00FFE79DF80B008DF81F00FFE79DF8C3
:104D40001F0008B080BD000080B584B0039000F063
:104D500011FA0290039801900198013048B1FFE7E1
:104D600040F27820C2F200000178019808440190D6
:104D7000FFE7FFE700F0FEF90299401A0199884227
:104D800001D2FFE7F6E704B080BD00008EB00D90C1
:104D90000C9100200A90099008900B90FFE70B9867
:104DA0000F2800F2CC81FFE70B99012088400A9080
:104DB0000C9800680A990840099009980A99884255
:104DC00040F0B881FFE70C98406800F0030001282C
:104DD00007D0FFE70C98406800F0030002282FD1AD
:104DE000FFE70D98806808900B984100032000FAB7
:104DF00001F10898884308900C98C0680B99490005
:104E000000FA01F108980843089008980D99886005
:104E10000D98406808900B99012000FA01F108985C
:104E2000884308900C984068C0F300100B9900FA72
:104E300001F108980843089008980D994860FFE729
:104E40000C98406800F00300032818D0FFE70D9885
:104E5000C06808900B984100032000FA01F10898FF
:104E6000884308900C9880680B99490000FA01F17A
:104E700008980843089008980D99C860FFE70C98B7
:104E8000406800F00300022826D1FFE70D980B9937
:104E90006FF0030202EA51010844006A08900B987F
:104EA00000F0070081000F2000FA01F10898884304
:104EB00008900C9800690B9901F00701890000FA2D
:104EC00001F108980843089008980D990B9B02EA95
:104ED000530211440862FFE70D98006808900B9890
:104EE0004100032000FA01F10898884308900C98CB
:104EF000406800F003000B99490000FA01F108989E
:104F00000843089008980D9908600C9880798007EC
:104F1000002800F00E81FFE7FFE70020079043F62E
:104F20004400C4F20200016841F48041016000685D
:104F300000F4804007900798FFE70B9820F00300EB
:104F400043F60801C4F20101405808900B9800F0A4
:104F5000030081000F2000FA01F1089888430890AF
:104F60000D980021C4F20201884203D1FFE700201E
:104F700006905EE00D9840F20041C4F202018842C2
:104F800003D1FFE70120059050E00D9840F60001A5
:104F9000C4F20201884203D1FFE70220049042E0FC
:104FA0000D9840F60041C4F20201884203D1FFE7A8
:104FB0000320039034E00D9841F20001C4F2020195
:104FC000884203D1FFE70420029026E00D9841F2C9
:104FD0000041C4F20201884203D1FFE7052001909D
:104FE00018E00D9841F60001C4F20201884203D195
:104FF000FFE7062000900AE00D9941F60042C4F256
:1050000002020820914208BF07200090FFE70098A5
:105010000190FFE701980290FFE702980390FFE7F5
:1050200003980490FFE704980590FFE70598069021
:10503000FFE70698C0B20B9901F00301890000FA5E
:1050400001F108980843089008980B9921F0030192
:1050500043F60802C4F20102885043F60840C4F245
:1050600001000068089009990898884308900C98F6
:105070008079C006002805D5FFE7099908980843FC
:105080000890FFE7089843F60841C4F20101086060
:1050900043F60C40C4F20100006808900999089892
:1050A000884308900C9880798006002805D5FFE792
:1050B0000999089808430890FFE7089843F60C41BF
:1050C000C4F20101086043F60440C4F20100006824
:1050D000089009990898884308900C98807980076F
:1050E000002805D5FFE70999089808430890FFE7CD
:1050F000089843F60441C4F20101086043F60040F9
:10510000C4F2010000680890099908988843089043
:105110000C988079C00728B1FFE7099908980843DF
:105120000890FFE7089843F60041C4F201010860C7
:10513000FFE7FFE7FFE70B9801300B902FE60EB07B
:105140007047000082B00190ADF802108DF8012088
:105150009DF8010028B1FFE7BDF8020001998861C0
:1051600005E0BDF80200000401998861FFE702B084
:105170007047000047F62C20C2F20000006870471C
:1051800040F27820C2F20000027847F62C21C2F2E9
:1051900000010868104408607047000080B543F6BD
:1051A0000041C4F20201086840F400700860086819
:1051B00040F480600860086840F480700860032054
:1051C00000F0C6F80F2000F005F800F071F800209C
:1051D00080BD000080B58CB00B900020059004903D
:1051E000FFE70020019043F64400C4F2020001688A
:1051F00041F001010160006800F001000190019898
:10520000FFE706A803A901F04FFB01F08FFB400068
:10521000059005984DF68361C4F21B31A0FB010196
:105220004FF0FF3000EB9140049043F24C60C2F22B
:1052300000000021C4F20101016040F2E731C160C9
:1052400004994160002101618160816102F00AFBE3
:105250008DF80B009DF80B0028BBFFE743F24C6074
:10526000C2F2000002F0E0FB8DF80B009DF80B008D
:10527000C0B9FFE7192000F047F80B980F280CD8A9
:10528000FFE70B991920002200F048F80B9840F234
:105290007C21C2F20001086003E001208DF80B00C0
:1052A000FFE7FFE7FFE79DF80B000CB080BD0000B3
:1052B00080B582B0FFE70020019043F64400C4F2BD
:1052C0000200016841F480410160006800F4804000
:1052D00001900198FFE7FFE70020009043F64000AF
:1052E000C4F20200016841F080510160006800F0E2
:1052F000805000900098FFE76FF001000F2100221E
:1053000000F00CF802B080BD80B582B08DF80700C7
:105310009DF907000DF0B6FE02B080BD80B586B0E5
:105320008DF8170004910392002002900DF0C2FE48
:1053300002909DF91700019002980499039A06F0D3
:1053400015FB014601980DF0BDFE06B080BD0000C2
:1053500080B582B0019001980DF0D6FE02B080BDFC
:1053600082B001908DF8031002B0704782B00190B6
:10537000ADF80210BDF802000199096848620020EA
:1053800002B0704784B003908DF80B10ADF8082080
:1053900003980068406A00909DF80B0048B9FFE749
:1053A000BDF80810009840EA014003990968886236
:1053B00033E003980068816A009800EB1140009088
:1053C00000208DF80700FFE79DF807009DF80B10FF
:1053D0000139884213D2FFE7039800689DF807104F
:1053E00000EB8100D0F80411009800EB1140009010
:1053F000FFE79DF8070001308DF80700E4E7BDF8EE
:105400000810009840EA0140039909689DF80B20B4
:1054100001EB8201C1F80001FFE7002004B07047F2
:1054200080B582B001900198D0F8E0040BF0D4F977
:1054300002B080BD80B582B001908DF80310019A52
:10544000D2F8E0049DF8031001EBC10302EB8302E4
:10545000126A0BF01FF802B080BD000080B582B068
:1054600001908DF80310019AD2F8E0049DF8031022
:1054700001EBC10302EB8302D2F860220BF0D2F8F9
:1054800002B080BD80B582B001900198D0F8E004F0
:105490000BF0A8F902B080BD80B584B003908DF800
:1054A0000B109DF80B00000600280CD5FFE70398B1
:1054B0009DF80B1001F00F0101EBC10100EB810021
:1054C000143001900CE003989DF80B1001F00F01CF
:1054D00001EBC10100EB810000F515700190FFE7C1
:1054E0000398006801990CF0F9FE8DF80A009DF808
:1054F0000A0004B080BD000080B584B002908DF831
:1055000007109DF80700000600280FD5FFE7029856
:105510009DF8071001F00F0101EBC10100EB8100C4
:10552000143000900099012048700FE002989DF817
:10553000071001F00F0101EBC10100EB810000F544
:1055400015700090009900204870FFE79DF8070053
:1055500000F00F0000990870FFE7029890F894049B
:10556000012804D1FFE702208DF80F0014E0029912
:10557000012081F89404FFE7FFE702980068009992
:105580000CF09CF9FFE70299002081F89404FFE7F2
:1055900000208DF80F00FFE79DF80F0004B080BDDC
:1055A00080B584B002908DF807109DF8070000F0D8
:1055B0000F0002990979884204D9FFE701208DF88C
:1055C0000F004DE09DF80700000600280FD5FFE70B
:1055D00002989DF8071001F00F0101EBC10100EBEB
:1055E0008100143000900099012048700FE002986B
:1055F0009DF8071001F00F0101EBC10100EB8100E4
:1056000000F515700090009900204870FFE70099A0
:10561000002088709DF8070000F00F0000990870C6
:10562000FFE7029890F89404012804D1FFE70220D4
:105630008DF80F0014E00299012081F89404FFE72F
:10564000FFE70298006800990CF0A8FBFFE70299B9
:10565000002081F89404FFE700208DF80F00FFE799
:105660009DF80F0004B080BD82B001908DF803104A
:1056700001989DF8031001F00F0101EBC10100EB4F
:105680008100D0F8680202B07047000080B586B093
:1056900004908DF80F10ADF80C208DF80B30002021
:1056A0008DF80A009DF80F00000600280FD5FFE7CF
:1056B00004989DF80F1001F00F0101EBC10100EB00
:1056C0008100143001900199012048700FE0049886
:1056D0009DF80F1001F00F0101EBC10100EB8100FB
:1056E00000F515700190019900204870FFE79DF8C2
:1056F0000F0000F00F0001990870BDF80C006FF367
:10570000DF20019988609DF80B00019908710198CC
:10571000407820B1FFE7019908784883FFE79DF8BA
:105720000B00022804D1FFE7019900204871FFE730
:10573000FFE7049890F89404012804D1FFE70220C1
:105740008DF8170015E00499012081F89404FFE713
:10575000FFE70498006801990BF082FFFFE70499C6
:10576000002081F89404FFE79DF80A008DF81700E7
:10577000FFE79DF8170006B080BD000080B586B039
:1057800005908DF813100392029305989DF813105D
:1057900001F00F0101EBC10100EB810000F5157074
:1057A000019003980199C8600298019908610199D4
:1057B00000204861019948709DF8130000F00F0027
:1057C0000199087005988079012804D1FFE70398B2
:1057D0000199C861FFE7059A1068019992790CF068
:1057E00081FB002006B080BD80B584B002908DF8AA
:1057F00007109DF8070000F00F0002990979884210
:1058000004D9FFE701208DF80F0058E09DF807004C
:10581000000600280FD5FFE702989DF8071001F059
:105820000F0101EBC10100EB8100143000900099E1
:10583000012048700DE002989DF8071001EBC101AE
:1058400000EB810000F51570009000990020487071
:10585000FFE70099012088709DF8070000F00F0015
:1058600000990870FFE7029890F89404012804D189
:10587000FFE702208DF80F0021E00299012081F856
:105880009404FFE7FFE70298006800990CF0D6FA4D
:105890009DF80700000740B9FFE7029A1068917968
:1058A00002F29C420CF02AFAFFE7FFE7029900207F
:1058B00081F89404FFE700208DF80F00FFE79DF8C2
:1058C0000F0004B080BD000080B586B005908DF853
:1058D00013100392029305989DF8131001F00F0125
:1058E00001EBC10100EB8100143001900398019994
:1058F000C8600298019908610199002048610199E6
:10590000012048709DF8130000F00F000199087005
:1059100005988079012804D1FFE703980199C861AF
:10592000FFE7059A1068019992790CF0DBFA0020E4
:1059300006B080BD80B58CB00B900B9800680A90C3
:105940000A9809900B9800680CF0FEFD002840F0C2
:105950000B84FFE70B9800680CF062FE10B9FFE7BC
:1059600000F002BC0998D0F80808C0F30D200B998C
:10597000C1F8D4040B9800680CF052FE8007002890
:1059800007D5FFE70B980168486900F002004861FD
:10599000FFE70B9800680CF043FEC006002862D5B4
:1059A000FFE70B980168886920F0100088610A9869
:1059B000006A02900B98029901F00F0101EBC101FE
:1059C00000EB810000F515700890029800F4F011CA
:1059D0000220B0EB514F23D1FFE7BDF8080047F696
:1059E000F07108421BD0FFE70A980899C968029A2B
:1059F000C2F30A120CF022FE029847F6F07100EA98
:105A00000103089AD06800EB1310D060029800EAF6
:105A100001020899486900EB12104861FFE71BE09A
:105A2000029800F4F0110620B0EB514F12D1FFE7BD
:105A30000A980B9901F29C4108220CF0FFFD029894
:105A400047F6F07100EA01020899486900EB12106C
:105A5000486100E0FFE7FFE70B980168886940F0C4
:105A600010008861FFE70B9800680CF0D9FD000377
:105A7000002840F1A680FFE7002004900B98006802
:105A80000CF07CFD0690FFE70698002800F0988057
:105A9000FFE79DF81800C007002800F08A80FFE7A4
:105AA0000B9800689DF810100CF0A2FD05909DF871
:105AB0001400C00760B1FFE70998049900EB411199
:105AC0000120C1F8080B0B98049906F015F8FFE7C0
:105AD0009DF81400000700280CD5FFE709980499E9
